{
	"contracts/ControlStructures.sol": {
		"ControlStructures": {
			"abi": [
				{
					"inputs": [
						{
							"internalType": "uint256",
							"name": "_time",
							"type": "uint256"
						}
					],
					"name": "AfterHours",
					"type": "error"
				},
				{
					"inputs": [
						{
							"internalType": "uint256",
							"name": "_time",
							"type": "uint256"
						}
					],
					"name": "doNotDisturb",
					"outputs": [
						{
							"internalType": "string",
							"name": "",
							"type": "string"
						}
					],
					"stateMutability": "pure",
					"type": "function"
				},
				{
					"inputs": [
						{
							"internalType": "uint256",
							"name": "_number",
							"type": "uint256"
						}
					],
					"name": "fizzBuzz",
					"outputs": [
						{
							"internalType": "string",
							"name": "",
							"type": "string"
						}
					],
					"stateMutability": "pure",
					"type": "function"
				}
			],
			"devdoc": {
				"details": "Experiment with sol control structures",
				"kind": "dev",
				"methods": {},
				"title": "ControlStructures",
				"version": 1
			},
			"evm": {
				"assembly": "    /* \"contracts/ControlStructures.sol\":145:1500  contract ControlStructures {... */\n  mstore(0x40, 0x80)\n  callvalue\n  dup1\n  iszero\n  tag_1\n  jumpi\n  0x00\n  dup1\n  revert\ntag_1:\n  pop\n  dataSize(sub_0)\n  dup1\n  dataOffset(sub_0)\n  0x00\n  codecopy\n  0x00\n  return\nstop\n\nsub_0: assembly {\n        /* \"contracts/ControlStructures.sol\":145:1500  contract ControlStructures {... */\n      mstore(0x40, 0x80)\n      callvalue\n      dup1\n      iszero\n      tag_1\n      jumpi\n      0x00\n      dup1\n      revert\n    tag_1:\n      pop\n      jumpi(tag_2, lt(calldatasize, 0x04))\n      shr(0xe0, calldataload(0x00))\n      dup1\n      0x440c93e2\n      eq\n      tag_3\n      jumpi\n      dup1\n      0xe655b7bb\n      eq\n      tag_4\n      jumpi\n    tag_2:\n      0x00\n      dup1\n      revert\n        /* \"contracts/ControlStructures.sol\":178:542  function fizzBuzz(uint _number) external pure returns (string memory) {... */\n    tag_3:\n      tag_5\n      0x04\n      dup1\n      calldatasize\n      sub\n      dup2\n      add\n      swap1\n      tag_6\n      swap2\n      swap1\n      tag_7\n      jump\t// in\n    tag_6:\n      tag_8\n      jump\t// in\n    tag_5:\n      mload(0x40)\n      tag_9\n      swap2\n      swap1\n      tag_10\n      jump\t// in\n    tag_9:\n      mload(0x40)\n      dup1\n      swap2\n      sub\n      swap1\n      return\n        /* \"contracts/ControlStructures.sol\":582:1498  function doNotDisturb(uint _time) external pure returns (string memory) {... */\n    tag_4:\n      tag_11\n      0x04\n      dup1\n      calldatasize\n      sub\n      dup2\n      add\n      swap1\n      tag_12\n      swap2\n      swap1\n      tag_7\n      jump\t// in\n    tag_12:\n      tag_13\n      jump\t// in\n    tag_11:\n      mload(0x40)\n      tag_14\n      swap2\n      swap1\n      tag_10\n      jump\t// in\n    tag_14:\n      mload(0x40)\n      dup1\n      swap2\n      sub\n      swap1\n      return\n        /* \"contracts/ControlStructures.sol\":178:542  function fizzBuzz(uint _number) external pure returns (string memory) {... */\n    tag_8:\n        /* \"contracts/ControlStructures.sol\":233:246  string memory */\n      0x60\n        /* \"contracts/ControlStructures.sol\":276:277  0 */\n      0x00\n        /* \"contracts/ControlStructures.sol\":271:272  3 */\n      0x03\n        /* \"contracts/ControlStructures.sol\":261:268  _number */\n      dup4\n        /* \"contracts/ControlStructures.sol\":261:272  _number % 3 */\n      tag_16\n      swap2\n      swap1\n      tag_17\n      jump\t// in\n    tag_16:\n        /* \"contracts/ControlStructures.sol\":261:277  _number % 3 == 0 */\n      sub\n        /* \"contracts/ControlStructures.sol\":258:536  if(_number % 3 == 0) {... */\n      tag_18\n      jumpi\n        /* \"contracts/ControlStructures.sol\":311:312  0 */\n      0x00\n        /* \"contracts/ControlStructures.sol\":306:307  5 */\n      0x05\n        /* \"contracts/ControlStructures.sol\":296:303  _number */\n      dup4\n        /* \"contracts/ControlStructures.sol\":296:307  _number % 5 */\n      tag_19\n      swap2\n      swap1\n      tag_17\n      jump\t// in\n    tag_19:\n        /* \"contracts/ControlStructures.sol\":296:312  _number % 5 == 0 */\n      sub\n        /* \"contracts/ControlStructures.sol\":293:416  if(_number % 5 == 0) {... */\n      tag_20\n      jumpi\n        /* \"contracts/ControlStructures.sol\":332:349  return \"FizzBuzz\" */\n      mload(0x40)\n      dup1\n      0x40\n      add\n      0x40\n      mstore\n      dup1\n      0x08\n      dup2\n      mstore\n      0x20\n      add\n      0x46697a7a42757a7a000000000000000000000000000000000000000000000000\n      dup2\n      mstore\n      pop\n      swap1\n      pop\n      jump(tag_15)\n        /* \"contracts/ControlStructures.sol\":293:416  if(_number % 5 == 0) {... */\n    tag_20:\n        /* \"contracts/ControlStructures.sol\":388:401  return \"Fizz\" */\n      mload(0x40)\n      dup1\n      0x40\n      add\n      0x40\n      mstore\n      dup1\n      0x04\n      dup2\n      mstore\n      0x20\n      add\n      0x46697a7a00000000000000000000000000000000000000000000000000000000\n      dup2\n      mstore\n      pop\n      swap1\n      pop\n      jump(tag_15)\n        /* \"contracts/ControlStructures.sol\":258:536  if(_number % 3 == 0) {... */\n    tag_18:\n        /* \"contracts/ControlStructures.sol\":450:451  0 */\n      0x00\n        /* \"contracts/ControlStructures.sol\":445:446  5 */\n      0x05\n        /* \"contracts/ControlStructures.sol\":435:442  _number */\n      dup4\n        /* \"contracts/ControlStructures.sol\":435:446  _number % 5 */\n      tag_23\n      swap2\n      swap1\n      tag_17\n      jump\t// in\n    tag_23:\n        /* \"contracts/ControlStructures.sol\":435:451  _number % 5 == 0 */\n      sub\n        /* \"contracts/ControlStructures.sol\":432:536  if(_number % 5 == 0) {... */\n      tag_24\n      jumpi\n        /* \"contracts/ControlStructures.sol\":467:480  return \"Buzz\" */\n      mload(0x40)\n      dup1\n      0x40\n      add\n      0x40\n      mstore\n      dup1\n      0x04\n      dup2\n      mstore\n      0x20\n      add\n      0x42757a7a00000000000000000000000000000000000000000000000000000000\n      dup2\n      mstore\n      pop\n      swap1\n      pop\n      jump(tag_15)\n        /* \"contracts/ControlStructures.sol\":432:536  if(_number % 5 == 0) {... */\n    tag_24:\n        /* \"contracts/ControlStructures.sol\":511:525  return \"Splat\" */\n      mload(0x40)\n      dup1\n      0x40\n      add\n      0x40\n      mstore\n      dup1\n      0x05\n      dup2\n      mstore\n      0x20\n      add\n      0x53706c6174000000000000000000000000000000000000000000000000000000\n      dup2\n      mstore\n      pop\n      swap1\n      pop\n        /* \"contracts/ControlStructures.sol\":178:542  function fizzBuzz(uint _number) external pure returns (string memory) {... */\n    tag_15:\n      swap2\n      swap1\n      pop\n      jump\t// out\n        /* \"contracts/ControlStructures.sol\":582:1498  function doNotDisturb(uint _time) external pure returns (string memory) {... */\n    tag_13:\n        /* \"contracts/ControlStructures.sol\":639:652  string memory */\n      0x60\n        /* \"contracts/ControlStructures.sol\":714:718  2400 */\n      0x0960\n        /* \"contracts/ControlStructures.sol\":706:711  _time */\n      dup3\n        /* \"contracts/ControlStructures.sol\":706:718  _time < 2400 */\n      lt\n        /* \"contracts/ControlStructures.sol\":699:719  assert(_time < 2400) */\n      tag_27\n      jumpi\n      tag_28\n      tag_29\n      jump\t// in\n    tag_28:\n    tag_27:\n        /* \"contracts/ControlStructures.sol\":792:796  2200 */\n      0x0898\n        /* \"contracts/ControlStructures.sol\":784:789  _time */\n      dup3\n        /* \"contracts/ControlStructures.sol\":784:796  _time > 2200 */\n      gt\n        /* \"contracts/ControlStructures.sol\":784:811  _time > 2200 || _time < 800 */\n      dup1\n      tag_30\n      jumpi\n      pop\n        /* \"contracts/ControlStructures.sol\":808:811  800 */\n      0x0320\n        /* \"contracts/ControlStructures.sol\":800:805  _time */\n      dup3\n        /* \"contracts/ControlStructures.sol\":800:811  _time < 800 */\n      lt\n        /* \"contracts/ControlStructures.sol\":784:811  _time > 2200 || _time < 800 */\n    tag_30:\n        /* \"contracts/ControlStructures.sol\":781:862  if(_time > 2200 || _time < 800) {... */\n      iszero\n      tag_31\n      jumpi\n        /* \"contracts/ControlStructures.sol\":845:850  _time */\n      dup2\n        /* \"contracts/ControlStructures.sol\":834:851  AfterHours(_time) */\n      mload(0x40)\n      0xa4bf701e00000000000000000000000000000000000000000000000000000000\n      dup2\n      mstore\n      0x04\n      add\n      tag_32\n      swap2\n      swap1\n      tag_33\n      jump\t// in\n    tag_32:\n      mload(0x40)\n      dup1\n      swap2\n      sub\n      swap1\n      revert\n        /* \"contracts/ControlStructures.sol\":781:862  if(_time > 2200 || _time < 800) {... */\n    tag_31:\n        /* \"contracts/ControlStructures.sol\":941:944  800 */\n      0x0320\n        /* \"contracts/ControlStructures.sol\":932:937  _time */\n      dup3\n        /* \"contracts/ControlStructures.sol\":932:944  _time >= 800 */\n      lt\n      iszero\n        /* \"contracts/ControlStructures.sol\":932:960  _time >= 800 && _time < 1200 */\n      dup1\n      iszero\n      tag_34\n      jumpi\n      pop\n        /* \"contracts/ControlStructures.sol\":956:960  1200 */\n      0x04b0\n        /* \"contracts/ControlStructures.sol\":948:953  _time */\n      dup3\n        /* \"contracts/ControlStructures.sol\":948:960  _time < 1200 */\n      lt\n        /* \"contracts/ControlStructures.sol\":932:960  _time >= 800 && _time < 1200 */\n    tag_34:\n        /* \"contracts/ControlStructures.sol\":929:1004  if(_time >= 800 && _time < 1200) {... */\n      iszero\n      tag_35\n      jumpi\n        /* \"contracts/ControlStructures.sol\":976:993  return \"Morning!\" */\n      mload(0x40)\n      dup1\n      0x40\n      add\n      0x40\n      mstore\n      dup1\n      0x08\n      dup2\n      mstore\n      0x20\n      add\n      0x4d6f726e696e6721000000000000000000000000000000000000000000000000\n      dup2\n      mstore\n      pop\n      swap1\n      pop\n      jump(tag_26)\n        /* \"contracts/ControlStructures.sol\":929:1004  if(_time >= 800 && _time < 1200) {... */\n    tag_35:\n        /* \"contracts/ControlStructures.sol\":1080:1084  1200 */\n      0x04b0\n        /* \"contracts/ControlStructures.sol\":1071:1076  _time */\n      dup3\n        /* \"contracts/ControlStructures.sol\":1071:1084  _time >= 1200 */\n      lt\n      iszero\n        /* \"contracts/ControlStructures.sol\":1071:1100  _time >= 1200 && _time < 1300 */\n      dup1\n      iszero\n      tag_36\n      jumpi\n      pop\n        /* \"contracts/ControlStructures.sol\":1096:1100  1300 */\n      0x0514\n        /* \"contracts/ControlStructures.sol\":1088:1093  _time */\n      dup3\n        /* \"contracts/ControlStructures.sol\":1088:1100  _time < 1300 */\n      lt\n        /* \"contracts/ControlStructures.sol\":1071:1100  _time >= 1200 && _time < 1300 */\n    tag_36:\n        /* \"contracts/ControlStructures.sol\":1068:1146  if(_time >= 1200 && _time < 1300) {... */\n      iszero\n      tag_37\n      jumpi\n        /* \"contracts/ControlStructures.sol\":1116:1135  revert(\"At Lunch!\") */\n      mload(0x40)\n      0x08c379a000000000000000000000000000000000000000000000000000000000\n      dup2\n      mstore\n      0x04\n      add\n      tag_38\n      swap1\n      tag_39\n      jump\t// in\n    tag_38:\n      mload(0x40)\n      dup1\n      swap2\n      sub\n      swap1\n      revert\n        /* \"contracts/ControlStructures.sol\":1068:1146  if(_time >= 1200 && _time < 1300) {... */\n    tag_37:\n        /* \"contracts/ControlStructures.sol\":1226:1230  1300 */\n      0x0514\n        /* \"contracts/ControlStructures.sol\":1217:1222  _time */\n      dup3\n        /* \"contracts/ControlStructures.sol\":1217:1230  _time >= 1300 */\n      lt\n      iszero\n        /* \"contracts/ControlStructures.sol\":1217:1246  _time >= 1300 && _time < 1800 */\n      dup1\n      iszero\n      tag_40\n      jumpi\n      pop\n        /* \"contracts/ControlStructures.sol\":1242:1246  1800 */\n      0x0708\n        /* \"contracts/ControlStructures.sol\":1234:1239  _time */\n      dup3\n        /* \"contracts/ControlStructures.sol\":1234:1246  _time < 1800 */\n      lt\n        /* \"contracts/ControlStructures.sol\":1217:1246  _time >= 1300 && _time < 1800 */\n    tag_40:\n        /* \"contracts/ControlStructures.sol\":1214:1292  if(_time >= 1300 && _time < 1800) {... */\n      iszero\n      tag_41\n      jumpi\n        /* \"contracts/ControlStructures.sol\":1262:1281  return \"Afternoon!\" */\n      mload(0x40)\n      dup1\n      0x40\n      add\n      0x40\n      mstore\n      dup1\n      0x0a\n      dup2\n      mstore\n      0x20\n      add\n      0x41667465726e6f6f6e2100000000000000000000000000000000000000000000\n      dup2\n      mstore\n      pop\n      swap1\n      pop\n      jump(tag_26)\n        /* \"contracts/ControlStructures.sol\":1214:1292  if(_time >= 1300 && _time < 1800) {... */\n    tag_41:\n        /* \"contracts/ControlStructures.sol\":1371:1375  1800 */\n      0x0708\n        /* \"contracts/ControlStructures.sol\":1362:1367  _time */\n      dup3\n        /* \"contracts/ControlStructures.sol\":1362:1375  _time >= 1800 */\n      lt\n      iszero\n        /* \"contracts/ControlStructures.sol\":1362:1392  _time >= 1800 && _time <= 2200 */\n      dup1\n      iszero\n      tag_42\n      jumpi\n      pop\n        /* \"contracts/ControlStructures.sol\":1388:1392  2200 */\n      0x0898\n        /* \"contracts/ControlStructures.sol\":1379:1384  _time */\n      dup3\n        /* \"contracts/ControlStructures.sol\":1379:1392  _time <= 2200 */\n      gt\n      iszero\n        /* \"contracts/ControlStructures.sol\":1362:1392  _time >= 1800 && _time <= 2200 */\n    tag_42:\n        /* \"contracts/ControlStructures.sol\":1359:1436  if(_time >= 1800 && _time <= 2200) {... */\n      iszero\n      tag_43\n      jumpi\n        /* \"contracts/ControlStructures.sol\":1408:1425  return \"Evening!\" */\n      mload(0x40)\n      dup1\n      0x40\n      add\n      0x40\n      mstore\n      dup1\n      0x08\n      dup2\n      mstore\n      0x20\n      add\n      0x4576656e696e6721000000000000000000000000000000000000000000000000\n      dup2\n      mstore\n      pop\n      swap1\n      pop\n      jump(tag_26)\n        /* \"contracts/ControlStructures.sol\":1359:1436  if(_time >= 1800 && _time <= 2200) {... */\n    tag_43:\n        /* \"contracts/ControlStructures.sol\":1482:1491  return \"\" */\n      mload(0x40)\n      dup1\n      0x20\n      add\n      0x40\n      mstore\n      dup1\n      0x00\n      dup2\n      mstore\n      pop\n      swap1\n      pop\n        /* \"contracts/ControlStructures.sol\":582:1498  function doNotDisturb(uint _time) external pure returns (string memory) {... */\n    tag_26:\n      swap2\n      swap1\n      pop\n      jump\t// out\n        /* \"#utility.yul\":88:205   */\n    tag_45:\n        /* \"#utility.yul\":197:198   */\n      0x00\n        /* \"#utility.yul\":194:195   */\n      dup1\n        /* \"#utility.yul\":187:199   */\n      revert\n        /* \"#utility.yul\":334:411   */\n    tag_47:\n        /* \"#utility.yul\":371:378   */\n      0x00\n        /* \"#utility.yul\":400:405   */\n      dup2\n        /* \"#utility.yul\":389:405   */\n      swap1\n      pop\n        /* \"#utility.yul\":334:411   */\n      swap2\n      swap1\n      pop\n      jump\t// out\n        /* \"#utility.yul\":417:539   */\n    tag_48:\n        /* \"#utility.yul\":490:514   */\n      tag_65\n        /* \"#utility.yul\":508:513   */\n      dup2\n        /* \"#utility.yul\":490:514   */\n      tag_47\n      jump\t// in\n    tag_65:\n        /* \"#utility.yul\":483:488   */\n      dup2\n        /* \"#utility.yul\":480:515   */\n      eq\n        /* \"#utility.yul\":470:533   */\n      tag_66\n      jumpi\n        /* \"#utility.yul\":529:530   */\n      0x00\n        /* \"#utility.yul\":526:527   */\n      dup1\n        /* \"#utility.yul\":519:531   */\n      revert\n        /* \"#utility.yul\":470:533   */\n    tag_66:\n        /* \"#utility.yul\":417:539   */\n      pop\n      jump\t// out\n        /* \"#utility.yul\":545:684   */\n    tag_49:\n        /* \"#utility.yul\":591:596   */\n      0x00\n        /* \"#utility.yul\":629:635   */\n      dup2\n        /* \"#utility.yul\":616:636   */\n      calldataload\n        /* \"#utility.yul\":607:636   */\n      swap1\n      pop\n        /* \"#utility.yul\":645:678   */\n      tag_68\n        /* \"#utility.yul\":672:677   */\n      dup2\n        /* \"#utility.yul\":645:678   */\n      tag_48\n      jump\t// in\n    tag_68:\n        /* \"#utility.yul\":545:684   */\n      swap3\n      swap2\n      pop\n      pop\n      jump\t// out\n        /* \"#utility.yul\":690:1019   */\n    tag_7:\n        /* \"#utility.yul\":749:755   */\n      0x00\n        /* \"#utility.yul\":798:800   */\n      0x20\n        /* \"#utility.yul\":786:795   */\n      dup3\n        /* \"#utility.yul\":777:784   */\n      dup5\n        /* \"#utility.yul\":773:796   */\n      sub\n        /* \"#utility.yul\":769:801   */\n      slt\n        /* \"#utility.yul\":766:885   */\n      iszero\n      tag_70\n      jumpi\n        /* \"#utility.yul\":804:883   */\n      tag_71\n      tag_45\n      jump\t// in\n    tag_71:\n        /* \"#utility.yul\":766:885   */\n    tag_70:\n        /* \"#utility.yul\":924:925   */\n      0x00\n        /* \"#utility.yul\":949:1002   */\n      tag_72\n        /* \"#utility.yul\":994:1001   */\n      dup5\n        /* \"#utility.yul\":985:991   */\n      dup3\n        /* \"#utility.yul\":974:983   */\n      dup6\n        /* \"#utility.yul\":970:992   */\n      add\n        /* \"#utility.yul\":949:1002   */\n      tag_49\n      jump\t// in\n    tag_72:\n        /* \"#utility.yul\":939:1002   */\n      swap2\n      pop\n        /* \"#utility.yul\":895:1012   */\n      pop\n        /* \"#utility.yul\":690:1019   */\n      swap3\n      swap2\n      pop\n      pop\n      jump\t// out\n        /* \"#utility.yul\":1025:1124   */\n    tag_50:\n        /* \"#utility.yul\":1077:1083   */\n      0x00\n        /* \"#utility.yul\":1111:1116   */\n      dup2\n        /* \"#utility.yul\":1105:1117   */\n      mload\n        /* \"#utility.yul\":1095:1117   */\n      swap1\n      pop\n        /* \"#utility.yul\":1025:1124   */\n      swap2\n      swap1\n      pop\n      jump\t// out\n        /* \"#utility.yul\":1130:1299   */\n    tag_51:\n        /* \"#utility.yul\":1214:1225   */\n      0x00\n        /* \"#utility.yul\":1248:1254   */\n      dup3\n        /* \"#utility.yul\":1243:1246   */\n      dup3\n        /* \"#utility.yul\":1236:1255   */\n      mstore\n        /* \"#utility.yul\":1288:1292   */\n      0x20\n        /* \"#utility.yul\":1283:1286   */\n      dup3\n        /* \"#utility.yul\":1279:1293   */\n      add\n        /* \"#utility.yul\":1264:1293   */\n      swap1\n      pop\n        /* \"#utility.yul\":1130:1299   */\n      swap3\n      swap2\n      pop\n      pop\n      jump\t// out\n        /* \"#utility.yul\":1305:1551   */\n    tag_52:\n        /* \"#utility.yul\":1386:1387   */\n      0x00\n        /* \"#utility.yul\":1396:1509   */\n    tag_76:\n        /* \"#utility.yul\":1410:1416   */\n      dup4\n        /* \"#utility.yul\":1407:1408   */\n      dup2\n        /* \"#utility.yul\":1404:1417   */\n      lt\n        /* \"#utility.yul\":1396:1509   */\n      iszero\n      tag_78\n      jumpi\n        /* \"#utility.yul\":1495:1496   */\n      dup1\n        /* \"#utility.yul\":1490:1493   */\n      dup3\n        /* \"#utility.yul\":1486:1497   */\n      add\n        /* \"#utility.yul\":1480:1498   */\n      mload\n        /* \"#utility.yul\":1476:1477   */\n      dup2\n        /* \"#utility.yul\":1471:1474   */\n      dup5\n        /* \"#utility.yul\":1467:1478   */\n      add\n        /* \"#utility.yul\":1460:1499   */\n      mstore\n        /* \"#utility.yul\":1432:1434   */\n      0x20\n        /* \"#utility.yul\":1429:1430   */\n      dup2\n        /* \"#utility.yul\":1425:1435   */\n      add\n        /* \"#utility.yul\":1420:1435   */\n      swap1\n      pop\n        /* \"#utility.yul\":1396:1509   */\n      jump(tag_76)\n    tag_78:\n        /* \"#utility.yul\":1543:1544   */\n      0x00\n        /* \"#utility.yul\":1534:1540   */\n      dup5\n        /* \"#utility.yul\":1529:1532   */\n      dup5\n        /* \"#utility.yul\":1525:1541   */\n      add\n        /* \"#utility.yul\":1518:1545   */\n      mstore\n        /* \"#utility.yul\":1367:1551   */\n      pop\n        /* \"#utility.yul\":1305:1551   */\n      pop\n      pop\n      pop\n      jump\t// out\n        /* \"#utility.yul\":1557:1659   */\n    tag_53:\n        /* \"#utility.yul\":1598:1604   */\n      0x00\n        /* \"#utility.yul\":1649:1651   */\n      0x1f\n        /* \"#utility.yul\":1645:1652   */\n      not\n        /* \"#utility.yul\":1640:1642   */\n      0x1f\n        /* \"#utility.yul\":1633:1638   */\n      dup4\n        /* \"#utility.yul\":1629:1643   */\n      add\n        /* \"#utility.yul\":1625:1653   */\n      and\n        /* \"#utility.yul\":1615:1653   */\n      swap1\n      pop\n        /* \"#utility.yul\":1557:1659   */\n      swap2\n      swap1\n      pop\n      jump\t// out\n        /* \"#utility.yul\":1665:2042   */\n    tag_54:\n        /* \"#utility.yul\":1753:1756   */\n      0x00\n        /* \"#utility.yul\":1781:1820   */\n      tag_81\n        /* \"#utility.yul\":1814:1819   */\n      dup3\n        /* \"#utility.yul\":1781:1820   */\n      tag_50\n      jump\t// in\n    tag_81:\n        /* \"#utility.yul\":1836:1907   */\n      tag_82\n        /* \"#utility.yul\":1900:1906   */\n      dup2\n        /* \"#utility.yul\":1895:1898   */\n      dup6\n        /* \"#utility.yul\":1836:1907   */\n      tag_51\n      jump\t// in\n    tag_82:\n        /* \"#utility.yul\":1829:1907   */\n      swap4\n      pop\n        /* \"#utility.yul\":1916:1981   */\n      tag_83\n        /* \"#utility.yul\":1974:1980   */\n      dup2\n        /* \"#utility.yul\":1969:1972   */\n      dup6\n        /* \"#utility.yul\":1962:1966   */\n      0x20\n        /* \"#utility.yul\":1955:1960   */\n      dup7\n        /* \"#utility.yul\":1951:1967   */\n      add\n        /* \"#utility.yul\":1916:1981   */\n      tag_52\n      jump\t// in\n    tag_83:\n        /* \"#utility.yul\":2006:2035   */\n      tag_84\n        /* \"#utility.yul\":2028:2034   */\n      dup2\n        /* \"#utility.yul\":2006:2035   */\n      tag_53\n      jump\t// in\n    tag_84:\n        /* \"#utility.yul\":2001:2004   */\n      dup5\n        /* \"#utility.yul\":1997:2036   */\n      add\n        /* \"#utility.yul\":1990:2036   */\n      swap2\n      pop\n        /* \"#utility.yul\":1757:2042   */\n      pop\n        /* \"#utility.yul\":1665:2042   */\n      swap3\n      swap2\n      pop\n      pop\n      jump\t// out\n        /* \"#utility.yul\":2048:2361   */\n    tag_10:\n        /* \"#utility.yul\":2161:2165   */\n      0x00\n        /* \"#utility.yul\":2199:2201   */\n      0x20\n        /* \"#utility.yul\":2188:2197   */\n      dup3\n        /* \"#utility.yul\":2184:2202   */\n      add\n        /* \"#utility.yul\":2176:2202   */\n      swap1\n      pop\n        /* \"#utility.yul\":2248:2257   */\n      dup2\n        /* \"#utility.yul\":2242:2246   */\n      dup2\n        /* \"#utility.yul\":2238:2258   */\n      sub\n        /* \"#utility.yul\":2234:2235   */\n      0x00\n        /* \"#utility.yul\":2223:2232   */\n      dup4\n        /* \"#utility.yul\":2219:2236   */\n      add\n        /* \"#utility.yul\":2212:2259   */\n      mstore\n        /* \"#utility.yul\":2276:2354   */\n      tag_86\n        /* \"#utility.yul\":2349:2353   */\n      dup2\n        /* \"#utility.yul\":2340:2346   */\n      dup5\n        /* \"#utility.yul\":2276:2354   */\n      tag_54\n      jump\t// in\n    tag_86:\n        /* \"#utility.yul\":2268:2354   */\n      swap1\n      pop\n        /* \"#utility.yul\":2048:2361   */\n      swap3\n      swap2\n      pop\n      pop\n      jump\t// out\n        /* \"#utility.yul\":2367:2547   */\n    tag_55:\n        /* \"#utility.yul\":2415:2492   */\n      0x4e487b7100000000000000000000000000000000000000000000000000000000\n        /* \"#utility.yul\":2412:2413   */\n      0x00\n        /* \"#utility.yul\":2405:2493   */\n      mstore\n        /* \"#utility.yul\":2512:2516   */\n      0x12\n        /* \"#utility.yul\":2509:2510   */\n      0x04\n        /* \"#utility.yul\":2502:2517   */\n      mstore\n        /* \"#utility.yul\":2536:2540   */\n      0x24\n        /* \"#utility.yul\":2533:2534   */\n      0x00\n        /* \"#utility.yul\":2526:2541   */\n      revert\n        /* \"#utility.yul\":2553:2729   */\n    tag_17:\n        /* \"#utility.yul\":2585:2586   */\n      0x00\n        /* \"#utility.yul\":2602:2622   */\n      tag_89\n        /* \"#utility.yul\":2620:2621   */\n      dup3\n        /* \"#utility.yul\":2602:2622   */\n      tag_47\n      jump\t// in\n    tag_89:\n        /* \"#utility.yul\":2597:2622   */\n      swap2\n      pop\n        /* \"#utility.yul\":2636:2656   */\n      tag_90\n        /* \"#utility.yul\":2654:2655   */\n      dup4\n        /* \"#utility.yul\":2636:2656   */\n      tag_47\n      jump\t// in\n    tag_90:\n        /* \"#utility.yul\":2631:2656   */\n      swap3\n      pop\n        /* \"#utility.yul\":2675:2676   */\n      dup3\n        /* \"#utility.yul\":2665:2700   */\n      tag_91\n      jumpi\n        /* \"#utility.yul\":2680:2698   */\n      tag_92\n      tag_55\n      jump\t// in\n    tag_92:\n        /* \"#utility.yul\":2665:2700   */\n    tag_91:\n        /* \"#utility.yul\":2721:2722   */\n      dup3\n        /* \"#utility.yul\":2718:2719   */\n      dup3\n        /* \"#utility.yul\":2714:2723   */\n      mod\n        /* \"#utility.yul\":2709:2723   */\n      swap1\n      pop\n        /* \"#utility.yul\":2553:2729   */\n      swap3\n      swap2\n      pop\n      pop\n      jump\t// out\n        /* \"#utility.yul\":2735:2915   */\n    tag_29:\n        /* \"#utility.yul\":2783:2860   */\n      0x4e487b7100000000000000000000000000000000000000000000000000000000\n        /* \"#utility.yul\":2780:2781   */\n      0x00\n        /* \"#utility.yul\":2773:2861   */\n      mstore\n        /* \"#utility.yul\":2880:2884   */\n      0x01\n        /* \"#utility.yul\":2877:2878   */\n      0x04\n        /* \"#utility.yul\":2870:2885   */\n      mstore\n        /* \"#utility.yul\":2904:2908   */\n      0x24\n        /* \"#utility.yul\":2901:2902   */\n      0x00\n        /* \"#utility.yul\":2894:2909   */\n      revert\n        /* \"#utility.yul\":2921:3039   */\n    tag_56:\n        /* \"#utility.yul\":3008:3032   */\n      tag_95\n        /* \"#utility.yul\":3026:3031   */\n      dup2\n        /* \"#utility.yul\":3008:3032   */\n      tag_47\n      jump\t// in\n    tag_95:\n        /* \"#utility.yul\":3003:3006   */\n      dup3\n        /* \"#utility.yul\":2996:3033   */\n      mstore\n        /* \"#utility.yul\":2921:3039   */\n      pop\n      pop\n      jump\t// out\n        /* \"#utility.yul\":3045:3267   */\n    tag_33:\n        /* \"#utility.yul\":3138:3142   */\n      0x00\n        /* \"#utility.yul\":3176:3178   */\n      0x20\n        /* \"#utility.yul\":3165:3174   */\n      dup3\n        /* \"#utility.yul\":3161:3179   */\n      add\n        /* \"#utility.yul\":3153:3179   */\n      swap1\n      pop\n        /* \"#utility.yul\":3189:3260   */\n      tag_97\n        /* \"#utility.yul\":3257:3258   */\n      0x00\n        /* \"#utility.yul\":3246:3255   */\n      dup4\n        /* \"#utility.yul\":3242:3259   */\n      add\n        /* \"#utility.yul\":3233:3239   */\n      dup5\n        /* \"#utility.yul\":3189:3260   */\n      tag_56\n      jump\t// in\n    tag_97:\n        /* \"#utility.yul\":3045:3267   */\n      swap3\n      swap2\n      pop\n      pop\n      jump\t// out\n        /* \"#utility.yul\":3273:3432   */\n    tag_57:\n        /* \"#utility.yul\":3413:3424   */\n      0x4174204c756e6368210000000000000000000000000000000000000000000000\n        /* \"#utility.yul\":3409:3410   */\n      0x00\n        /* \"#utility.yul\":3401:3407   */\n      dup3\n        /* \"#utility.yul\":3397:3411   */\n      add\n        /* \"#utility.yul\":3390:3425   */\n      mstore\n        /* \"#utility.yul\":3273:3432   */\n      pop\n      jump\t// out\n        /* \"#utility.yul\":3438:3803   */\n    tag_58:\n        /* \"#utility.yul\":3580:3583   */\n      0x00\n        /* \"#utility.yul\":3601:3667   */\n      tag_100\n        /* \"#utility.yul\":3665:3666   */\n      0x09\n        /* \"#utility.yul\":3660:3663   */\n      dup4\n        /* \"#utility.yul\":3601:3667   */\n      tag_51\n      jump\t// in\n    tag_100:\n        /* \"#utility.yul\":3594:3667   */\n      swap2\n      pop\n        /* \"#utility.yul\":3676:3769   */\n      tag_101\n        /* \"#utility.yul\":3765:3768   */\n      dup3\n        /* \"#utility.yul\":3676:3769   */\n      tag_57\n      jump\t// in\n    tag_101:\n        /* \"#utility.yul\":3794:3796   */\n      0x20\n        /* \"#utility.yul\":3789:3792   */\n      dup3\n        /* \"#utility.yul\":3785:3797   */\n      add\n        /* \"#utility.yul\":3778:3797   */\n      swap1\n      pop\n        /* \"#utility.yul\":3438:3803   */\n      swap2\n      swap1\n      pop\n      jump\t// out\n        /* \"#utility.yul\":3809:4228   */\n    tag_39:\n        /* \"#utility.yul\":3975:3979   */\n      0x00\n        /* \"#utility.yul\":4013:4015   */\n      0x20\n        /* \"#utility.yul\":4002:4011   */\n      dup3\n        /* \"#utility.yul\":3998:4016   */\n      add\n        /* \"#utility.yul\":3990:4016   */\n      swap1\n      pop\n        /* \"#utility.yul\":4062:4071   */\n      dup2\n        /* \"#utility.yul\":4056:4060   */\n      dup2\n        /* \"#utility.yul\":4052:4072   */\n      sub\n        /* \"#utility.yul\":4048:4049   */\n      0x00\n        /* \"#utility.yul\":4037:4046   */\n      dup4\n        /* \"#utility.yul\":4033:4050   */\n      add\n        /* \"#utility.yul\":4026:4073   */\n      mstore\n        /* \"#utility.yul\":4090:4221   */\n      tag_103\n        /* \"#utility.yul\":4216:4220   */\n      dup2\n        /* \"#utility.yul\":4090:4221   */\n      tag_58\n      jump\t// in\n    tag_103:\n        /* \"#utility.yul\":4082:4221   */\n      swap1\n      pop\n        /* \"#utility.yul\":3809:4228   */\n      swap2\n      swap1\n      pop\n      jump\t// out\n\n    auxdata: 0xa26469706673582212205a1197b6baaca20a49b5233e6548a84982ffb1a660b9c4f1d589c7b3281b0e3264736f6c63430008120033\n}\n",
				"bytecode": {
					"linkReferences": {},
					"object": "608060405234801561001057600080fd5b50610615806100206000396000f3fe608060405234801561001057600080fd5b50600436106100365760003560e01c8063440c93e21461003b578063e655b7bb1461006b575b600080fd5b610055600480360381019061005091906103db565b61009b565b6040516100629190610498565b60405180910390f35b610085600480360381019061008091906103db565b6101ce565b6040516100929190610498565b60405180910390f35b606060006003836100ac91906104e9565b0361013f5760006005836100c091906104e9565b03610102576040518060400160405280600881526020017f46697a7a42757a7a00000000000000000000000000000000000000000000000081525090506101c9565b6040518060400160405280600481526020017f46697a7a0000000000000000000000000000000000000000000000000000000081525090506101c9565b600060058361014e91906104e9565b03610190576040518060400160405280600481526020017f42757a7a0000000000000000000000000000000000000000000000000000000081525090506101c9565b6040518060400160405280600581526020017f53706c617400000000000000000000000000000000000000000000000000000081525090505b919050565b606061096082106101e2576101e161051a565b5b6108988211806101f3575061032082105b1561023557816040517fa4bf701e00000000000000000000000000000000000000000000000000000000815260040161022c9190610558565b60405180910390fd5b610320821015801561024857506104b082105b1561028a576040518060400160405280600881526020017f4d6f726e696e6721000000000000000000000000000000000000000000000000815250905061039b565b6104b0821015801561029d575061051482105b156102dd576040517f08c379a00000000000000000000000000000000000000000000000000000000081526004016102d4906105bf565b60405180910390fd5b61051482101580156102f0575061070882105b15610332576040518060400160405280600a81526020017f41667465726e6f6f6e2100000000000000000000000000000000000000000000815250905061039b565b610708821015801561034657506108988211155b15610388576040518060400160405280600881526020017f4576656e696e6721000000000000000000000000000000000000000000000000815250905061039b565b6040518060200160405280600081525090505b919050565b600080fd5b6000819050919050565b6103b8816103a5565b81146103c357600080fd5b50565b6000813590506103d5816103af565b92915050565b6000602082840312156103f1576103f06103a0565b5b60006103ff848285016103c6565b91505092915050565b600081519050919050565b600082825260208201905092915050565b60005b83811015610442578082015181840152602081019050610427565b60008484015250505050565b6000601f19601f8301169050919050565b600061046a82610408565b6104748185610413565b9350610484818560208601610424565b61048d8161044e565b840191505092915050565b600060208201905081810360008301526104b2818461045f565b905092915050565b7f4e487b7100000000000000000000000000000000000000000000000000000000600052601260045260246000fd5b60006104f4826103a5565b91506104ff836103a5565b92508261050f5761050e6104ba565b5b828206905092915050565b7f4e487b7100000000000000000000000000000000000000000000000000000000600052600160045260246000fd5b610552816103a5565b82525050565b600060208201905061056d6000830184610549565b92915050565b7f4174204c756e6368210000000000000000000000000000000000000000000000600082015250565b60006105a9600983610413565b91506105b482610573565b602082019050919050565b600060208201905081810360008301526105d88161059c565b905091905056fea26469706673582212205a1197b6baaca20a49b5233e6548a84982ffb1a660b9c4f1d589c7b3281b0e3264736f6c63430008120033",
					"opcodes": "PUSH1 0x80 PUSH1 0x40 MSTORE CALLVALUE DUP1 ISZERO PUSH2 0x10 JUMPI PUSH1 0x0 DUP1 REVERT JUMPDEST POP PUSH2 0x615 DUP1 PUSH2 0x20 PUSH1 0x0 CODECOPY PUSH1 0x0 RETURN INVALID PUSH1 0x80 PUSH1 0x40 MSTORE CALLVALUE DUP1 ISZERO PUSH2 0x10 JUMPI PUSH1 0x0 DUP1 REVERT JUMPDEST POP PUSH1 0x4 CALLDATASIZE LT PUSH2 0x36 JUMPI PUSH1 0x0 CALLDATALOAD PUSH1 0xE0 SHR DUP1 PUSH4 0x440C93E2 EQ PUSH2 0x3B JUMPI DUP1 PUSH4 0xE655B7BB EQ PUSH2 0x6B JUMPI JUMPDEST PUSH1 0x0 DUP1 REVERT JUMPDEST PUSH2 0x55 PUSH1 0x4 DUP1 CALLDATASIZE SUB DUP2 ADD SWAP1 PUSH2 0x50 SWAP2 SWAP1 PUSH2 0x3DB JUMP JUMPDEST PUSH2 0x9B JUMP JUMPDEST PUSH1 0x40 MLOAD PUSH2 0x62 SWAP2 SWAP1 PUSH2 0x498 JUMP JUMPDEST PUSH1 0x40 MLOAD DUP1 SWAP2 SUB SWAP1 RETURN JUMPDEST PUSH2 0x85 PUSH1 0x4 DUP1 CALLDATASIZE SUB DUP2 ADD SWAP1 PUSH2 0x80 SWAP2 SWAP1 PUSH2 0x3DB JUMP JUMPDEST PUSH2 0x1CE JUMP JUMPDEST PUSH1 0x40 MLOAD PUSH2 0x92 SWAP2 SWAP1 PUSH2 0x498 JUMP JUMPDEST PUSH1 0x40 MLOAD DUP1 SWAP2 SUB SWAP1 RETURN JUMPDEST PUSH1 0x60 PUSH1 0x0 PUSH1 0x3 DUP4 PUSH2 0xAC SWAP2 SWAP1 PUSH2 0x4E9 JUMP JUMPDEST SUB PUSH2 0x13F JUMPI PUSH1 0x0 PUSH1 0x5 DUP4 PUSH2 0xC0 SWAP2 SWAP1 PUSH2 0x4E9 JUMP JUMPDEST SUB PUSH2 0x102 JUMPI PUSH1 0x40 MLOAD DUP1 PUSH1 0x40 ADD PUSH1 0x40 MSTORE DUP1 PUSH1 0x8 DUP2 MSTORE PUSH1 0x20 ADD PUSH32 0x46697A7A42757A7A000000000000000000000000000000000000000000000000 DUP2 MSTORE POP SWAP1 POP PUSH2 0x1C9 JUMP JUMPDEST PUSH1 0x40 MLOAD DUP1 PUSH1 0x40 ADD PUSH1 0x40 MSTORE DUP1 PUSH1 0x4 DUP2 MSTORE PUSH1 0x20 ADD PUSH32 0x46697A7A00000000000000000000000000000000000000000000000000000000 DUP2 MSTORE POP SWAP1 POP PUSH2 0x1C9 JUMP JUMPDEST PUSH1 0x0 PUSH1 0x5 DUP4 PUSH2 0x14E SWAP2 SWAP1 PUSH2 0x4E9 JUMP JUMPDEST SUB PUSH2 0x190 JUMPI PUSH1 0x40 MLOAD DUP1 PUSH1 0x40 ADD PUSH1 0x40 MSTORE DUP1 PUSH1 0x4 DUP2 MSTORE PUSH1 0x20 ADD PUSH32 0x42757A7A00000000000000000000000000000000000000000000000000000000 DUP2 MSTORE POP SWAP1 POP PUSH2 0x1C9 JUMP JUMPDEST PUSH1 0x40 MLOAD DUP1 PUSH1 0x40 ADD PUSH1 0x40 MSTORE DUP1 PUSH1 0x5 DUP2 MSTORE PUSH1 0x20 ADD PUSH32 0x53706C6174000000000000000000000000000000000000000000000000000000 DUP2 MSTORE POP SWAP1 POP JUMPDEST SWAP2 SWAP1 POP JUMP JUMPDEST PUSH1 0x60 PUSH2 0x960 DUP3 LT PUSH2 0x1E2 JUMPI PUSH2 0x1E1 PUSH2 0x51A JUMP JUMPDEST JUMPDEST PUSH2 0x898 DUP3 GT DUP1 PUSH2 0x1F3 JUMPI POP PUSH2 0x320 DUP3 LT JUMPDEST ISZERO PUSH2 0x235 JUMPI DUP2 PUSH1 0x40 MLOAD PUSH32 0xA4BF701E00000000000000000000000000000000000000000000000000000000 DUP2 MSTORE PUSH1 0x4 ADD PUSH2 0x22C SWAP2 SWAP1 PUSH2 0x558 JUMP JUMPDEST PUSH1 0x40 MLOAD DUP1 SWAP2 SUB SWAP1 REVERT JUMPDEST PUSH2 0x320 DUP3 LT ISZERO DUP1 ISZERO PUSH2 0x248 JUMPI POP PUSH2 0x4B0 DUP3 LT JUMPDEST ISZERO PUSH2 0x28A JUMPI PUSH1 0x40 MLOAD DUP1 PUSH1 0x40 ADD PUSH1 0x40 MSTORE DUP1 PUSH1 0x8 DUP2 MSTORE PUSH1 0x20 ADD PUSH32 0x4D6F726E696E6721000000000000000000000000000000000000000000000000 DUP2 MSTORE POP SWAP1 POP PUSH2 0x39B JUMP JUMPDEST PUSH2 0x4B0 DUP3 LT ISZERO DUP1 ISZERO PUSH2 0x29D JUMPI POP PUSH2 0x514 DUP3 LT JUMPDEST ISZERO PUSH2 0x2DD JUMPI PUSH1 0x40 MLOAD PUSH32 0x8C379A000000000000000000000000000000000000000000000000000000000 DUP2 MSTORE PUSH1 0x4 ADD PUSH2 0x2D4 SWAP1 PUSH2 0x5BF JUMP JUMPDEST PUSH1 0x40 MLOAD DUP1 SWAP2 SUB SWAP1 REVERT JUMPDEST PUSH2 0x514 DUP3 LT ISZERO DUP1 ISZERO PUSH2 0x2F0 JUMPI POP PUSH2 0x708 DUP3 LT JUMPDEST ISZERO PUSH2 0x332 JUMPI PUSH1 0x40 MLOAD DUP1 PUSH1 0x40 ADD PUSH1 0x40 MSTORE DUP1 PUSH1 0xA DUP2 MSTORE PUSH1 0x20 ADD PUSH32 0x41667465726E6F6F6E2100000000000000000000000000000000000000000000 DUP2 MSTORE POP SWAP1 POP PUSH2 0x39B JUMP JUMPDEST PUSH2 0x708 DUP3 LT ISZERO DUP1 ISZERO PUSH2 0x346 JUMPI POP PUSH2 0x898 DUP3 GT ISZERO JUMPDEST ISZERO PUSH2 0x388 JUMPI PUSH1 0x40 MLOAD DUP1 PUSH1 0x40 ADD PUSH1 0x40 MSTORE DUP1 PUSH1 0x8 DUP2 MSTORE PUSH1 0x20 ADD PUSH32 0x4576656E696E6721000000000000000000000000000000000000000000000000 DUP2 MSTORE POP SWAP1 POP PUSH2 0x39B JUMP JUMPDEST PUSH1 0x40 MLOAD DUP1 PUSH1 0x20 ADD PUSH1 0x40 MSTORE DUP1 PUSH1 0x0 DUP2 MSTORE POP SWAP1 POP JUMPDEST SWAP2 SWAP1 POP JUMP JUMPDEST PUSH1 0x0 DUP1 REVERT JUMPDEST PUSH1 0x0 DUP2 SWAP1 POP SWAP2 SWAP1 POP JUMP JUMPDEST PUSH2 0x3B8 DUP2 PUSH2 0x3A5 JUMP JUMPDEST DUP2 EQ PUSH2 0x3C3 JUMPI PUSH1 0x0 DUP1 REVERT JUMPDEST POP JUMP JUMPDEST PUSH1 0x0 DUP2 CALLDATALOAD SWAP1 POP PUSH2 0x3D5 DUP2 PUSH2 0x3AF JUMP JUMPDEST SWAP3 SWAP2 POP POP JUMP JUMPDEST PUSH1 0x0 PUSH1 0x20 DUP3 DUP5 SUB SLT ISZERO PUSH2 0x3F1 JUMPI PUSH2 0x3F0 PUSH2 0x3A0 JUMP JUMPDEST JUMPDEST PUSH1 0x0 PUSH2 0x3FF DUP5 DUP3 DUP6 ADD PUSH2 0x3C6 JUMP JUMPDEST SWAP2 POP POP SWAP3 SWAP2 POP POP JUMP JUMPDEST PUSH1 0x0 DUP2 MLOAD SWAP1 POP SWAP2 SWAP1 POP JUMP JUMPDEST PUSH1 0x0 DUP3 DUP3 MSTORE PUSH1 0x20 DUP3 ADD SWAP1 POP SWAP3 SWAP2 POP POP JUMP JUMPDEST PUSH1 0x0 JUMPDEST DUP4 DUP2 LT ISZERO PUSH2 0x442 JUMPI DUP1 DUP3 ADD MLOAD DUP2 DUP5 ADD MSTORE PUSH1 0x20 DUP2 ADD SWAP1 POP PUSH2 0x427 JUMP JUMPDEST PUSH1 0x0 DUP5 DUP5 ADD MSTORE POP POP POP POP JUMP JUMPDEST PUSH1 0x0 PUSH1 0x1F NOT PUSH1 0x1F DUP4 ADD AND SWAP1 POP SWAP2 SWAP1 POP JUMP JUMPDEST PUSH1 0x0 PUSH2 0x46A DUP3 PUSH2 0x408 JUMP JUMPDEST PUSH2 0x474 DUP2 DUP6 PUSH2 0x413 JUMP JUMPDEST SWAP4 POP PUSH2 0x484 DUP2 DUP6 PUSH1 0x20 DUP7 ADD PUSH2 0x424 JUMP JUMPDEST PUSH2 0x48D DUP2 PUSH2 0x44E JUMP JUMPDEST DUP5 ADD SWAP2 POP POP SWAP3 SWAP2 POP POP JUMP JUMPDEST PUSH1 0x0 PUSH1 0x20 DUP3 ADD SWAP1 POP DUP2 DUP2 SUB PUSH1 0x0 DUP4 ADD MSTORE PUSH2 0x4B2 DUP2 DUP5 PUSH2 0x45F JUMP JUMPDEST SWAP1 POP SWAP3 SWAP2 POP POP JUMP JUMPDEST PUSH32 0x4E487B7100000000000000000000000000000000000000000000000000000000 PUSH1 0x0 MSTORE PUSH1 0x12 PUSH1 0x4 MSTORE PUSH1 0x24 PUSH1 0x0 REVERT JUMPDEST PUSH1 0x0 PUSH2 0x4F4 DUP3 PUSH2 0x3A5 JUMP JUMPDEST SWAP2 POP PUSH2 0x4FF DUP4 PUSH2 0x3A5 JUMP JUMPDEST SWAP3 POP DUP3 PUSH2 0x50F JUMPI PUSH2 0x50E PUSH2 0x4BA JUMP JUMPDEST JUMPDEST DUP3 DUP3 MOD SWAP1 POP SWAP3 SWAP2 POP POP JUMP JUMPDEST PUSH32 0x4E487B7100000000000000000000000000000000000000000000000000000000 PUSH1 0x0 MSTORE PUSH1 0x1 PUSH1 0x4 MSTORE PUSH1 0x24 PUSH1 0x0 REVERT JUMPDEST PUSH2 0x552 DUP2 PUSH2 0x3A5 JUMP JUMPDEST DUP3 MSTORE POP POP JUMP JUMPDEST PUSH1 0x0 PUSH1 0x20 DUP3 ADD SWAP1 POP PUSH2 0x56D PUSH1 0x0 DUP4 ADD DUP5 PUSH2 0x549 JUMP JUMPDEST SWAP3 SWAP2 POP POP JUMP JUMPDEST PUSH32 0x4174204C756E6368210000000000000000000000000000000000000000000000 PUSH1 0x0 DUP3 ADD MSTORE POP JUMP JUMPDEST PUSH1 0x0 PUSH2 0x5A9 PUSH1 0x9 DUP4 PUSH2 0x413 JUMP JUMPDEST SWAP2 POP PUSH2 0x5B4 DUP3 PUSH2 0x573 JUMP JUMPDEST PUSH1 0x20 DUP3 ADD SWAP1 POP SWAP2 SWAP1 POP JUMP JUMPDEST PUSH1 0x0 PUSH1 0x20 DUP3 ADD SWAP1 POP DUP2 DUP2 SUB PUSH1 0x0 DUP4 ADD MSTORE PUSH2 0x5D8 DUP2 PUSH2 0x59C JUMP JUMPDEST SWAP1 POP SWAP2 SWAP1 POP JUMP INVALID LOG2 PUSH5 0x6970667358 0x22 SLT KECCAK256 GAS GT SWAP8 0xB6 0xBA 0xAC LOG2 EXP 0x49 0xB5 0x23 RETURNDATACOPY PUSH6 0x48A84982FFB1 0xA6 PUSH1 0xB9 0xC4 CALL 0xD5 DUP10 0xC7 0xB3 0x28 SHL 0xE ORIGIN PUSH5 0x736F6C6343 STOP ADDMOD SLT STOP CALLER "
				},
				"gasEstimates": {
					"creation": {
						"codeDepositCost": "311400",
						"executionCost": "349",
						"totalCost": "311749"
					},
					"external": {
						"doNotDisturb(uint256)": "infinite",
						"fizzBuzz(uint256)": "infinite"
					}
				},
				"methodIdentifiers": {
					"doNotDisturb(uint256)": "e655b7bb",
					"fizzBuzz(uint256)": "440c93e2"
				}
			},
			"storageLayout": {
				"storage": [],
				"types": null
			},
			"userdoc": {
				"kind": "user",
				"methods": {},
				"version": 1
			}
		}
	}
}