{
	"Maps/contracts/FavoriteRecords.sol": {
		"FavoriteRecords": {
			"abi": [
				{
					"inputs": [],
					"stateMutability": "nonpayable",
					"type": "constructor"
				},
				{
					"inputs": [
						{
							"internalType": "string",
							"name": "_album",
							"type": "string"
						}
					],
					"name": "AlreadyFavorite",
					"type": "error"
				},
				{
					"inputs": [
						{
							"internalType": "string",
							"name": "_album",
							"type": "string"
						}
					],
					"name": "NotApproved",
					"type": "error"
				},
				{
					"inputs": [
						{
							"internalType": "string",
							"name": "_album",
							"type": "string"
						}
					],
					"name": "addRecord",
					"outputs": [],
					"stateMutability": "nonpayable",
					"type": "function"
				},
				{
					"inputs": [
						{
							"internalType": "string",
							"name": "",
							"type": "string"
						}
					],
					"name": "approvedRecords",
					"outputs": [
						{
							"internalType": "bool",
							"name": "",
							"type": "bool"
						}
					],
					"stateMutability": "view",
					"type": "function"
				},
				{
					"inputs": [],
					"name": "getApprovedRecords",
					"outputs": [
						{
							"internalType": "string[]",
							"name": "",
							"type": "string[]"
						}
					],
					"stateMutability": "view",
					"type": "function"
				},
				{
					"inputs": [
						{
							"internalType": "address",
							"name": "_address",
							"type": "address"
						}
					],
					"name": "getUserFavorites",
					"outputs": [
						{
							"internalType": "string[]",
							"name": "",
							"type": "string[]"
						}
					],
					"stateMutability": "view",
					"type": "function"
				},
				{
					"inputs": [],
					"name": "resetUserFavorites",
					"outputs": [],
					"stateMutability": "nonpayable",
					"type": "function"
				}
			],
			"devdoc": {
				"details": "Experiment with sol map datatype ",
				"kind": "dev",
				"methods": {},
				"title": "FavoriteRecords",
				"version": 1
			},
			"evm": {
				"assembly": "    /* \"Maps/contracts/FavoriteRecords.sol\":142:1881  contract FavoriteRecords {... */\n  mstore(0x40, 0x80)\n    /* \"Maps/contracts/FavoriteRecords.sol\":372:891  constructor() {... */\n  callvalue\n  dup1\n  iszero\n  tag_1\n  jumpi\n  0x00\n  dup1\n  revert\ntag_1:\n  pop\n    /* \"Maps/contracts/FavoriteRecords.sol\":397:751  approvedSet = [... */\n  mload(0x40)\n  dup1\n  0x0120\n  add\n  0x40\n  mstore\n  dup1\n  mload(0x40)\n  dup1\n  0x40\n  add\n  0x40\n  mstore\n  dup1\n  0x08\n  dup2\n  mstore\n  0x20\n  add\n  0x546872696c6c6572000000000000000000000000000000000000000000000000\n  dup2\n  mstore\n  pop\n  dup2\n  mstore\n  0x20\n  add\n  mload(0x40)\n  dup1\n  0x40\n  add\n  0x40\n  mstore\n  dup1\n  0x0d\n  dup2\n  mstore\n  0x20\n  add\n  0x4261636b20696e20426c61636b00000000000000000000000000000000000000\n  dup2\n  mstore\n  pop\n  dup2\n  mstore\n  0x20\n  add\n  mload(0x40)\n  dup1\n  0x40\n  add\n  0x40\n  mstore\n  dup1\n  0x0d\n  dup2\n  mstore\n  0x20\n  add\n  0x54686520426f6479677561726400000000000000000000000000000000000000\n  dup2\n  mstore\n  pop\n  dup2\n  mstore\n  0x20\n  add\n  mload(0x40)\n  dup1\n  0x40\n  add\n  0x40\n  mstore\n  dup1\n  0x19\n  dup2\n  mstore\n  0x20\n  add\n  0x546865204461726b2053696465206f6620746865204d6f6f6e00000000000000\n  dup2\n  mstore\n  pop\n  dup2\n  mstore\n  0x20\n  add\n  mload(0x40)\n  dup1\n  0x40\n  add\n  0x40\n  mstore\n  dup1\n  0x1f\n  dup2\n  mstore\n  0x20\n  add\n  0x546865697220477265617465737420486974732028313937312d313937352900\n  dup2\n  mstore\n  pop\n  dup2\n  mstore\n  0x20\n  add\n  mload(0x40)\n  dup1\n  0x40\n  add\n  0x40\n  mstore\n  dup1\n  0x10\n  dup2\n  mstore\n  0x20\n  add\n  0x486f74656c2043616c69666f726e696100000000000000000000000000000000\n  dup2\n  mstore\n  pop\n  dup2\n  mstore\n  0x20\n  add\n  mload(0x40)\n  dup1\n  0x40\n  add\n  0x40\n  mstore\n  dup1\n  0x0c\n  dup2\n  mstore\n  0x20\n  add\n  0x436f6d65204f6e204f7665720000000000000000000000000000000000000000\n  dup2\n  mstore\n  pop\n  dup2\n  mstore\n  0x20\n  add\n  mload(0x40)\n  dup1\n  0x40\n  add\n  0x40\n  mstore\n  dup1\n  0x07\n  dup2\n  mstore\n  0x20\n  add\n  0x52756d6f75727300000000000000000000000000000000000000000000000000\n  dup2\n  mstore\n  pop\n  dup2\n  mstore\n  0x20\n  add\n  mload(0x40)\n  dup1\n  0x40\n  add\n  0x40\n  mstore\n  dup1\n  0x14\n  dup2\n  mstore\n  0x20\n  add\n  0x5361747572646179204e69676874204665766572000000000000000000000000\n  dup2\n  mstore\n  pop\n  dup2\n  mstore\n  pop\n    /* \"Maps/contracts/FavoriteRecords.sol\":397:408  approvedSet */\n  0x01\n    /* \"Maps/contracts/FavoriteRecords.sol\":397:751  approvedSet = [... */\n  swap1\n  0x09\n  tag_4\n  swap3\n  swap2\n  swap1\n  tag_5\n  jump\t// in\ntag_4:\n  pop\n    /* \"Maps/contracts/FavoriteRecords.sol\":770:776  uint i */\n  0x00\n    /* \"Maps/contracts/FavoriteRecords.sol\":765:884  for (uint i = 0; i<approvedSet.length; i++) ... */\ntag_6:\n    /* \"Maps/contracts/FavoriteRecords.sol\":784:795  approvedSet */\n  0x01\n    /* \"Maps/contracts/FavoriteRecords.sol\":784:802  approvedSet.length */\n  dup1\n  sload\n  swap1\n  pop\n    /* \"Maps/contracts/FavoriteRecords.sol\":782:783  i */\n  dup2\n    /* \"Maps/contracts/FavoriteRecords.sol\":782:802  i<approvedSet.length */\n  lt\n    /* \"Maps/contracts/FavoriteRecords.sol\":765:884  for (uint i = 0; i<approvedSet.length; i++) ... */\n  iszero\n  tag_7\n  jumpi\n    /* \"Maps/contracts/FavoriteRecords.sol\":868:872  true */\n  0x01\n    /* \"Maps/contracts/FavoriteRecords.sol\":834:849  approvedRecords */\n  0x00\n    /* \"Maps/contracts/FavoriteRecords.sol\":850:861  approvedSet */\n  0x01\n    /* \"Maps/contracts/FavoriteRecords.sol\":862:863  i */\n  dup4\n    /* \"Maps/contracts/FavoriteRecords.sol\":850:864  approvedSet[i] */\n  dup2\n  sload\n  dup2\n  lt\n  tag_9\n  jumpi\n  tag_10\n  tag_11\n  jump\t// in\ntag_10:\ntag_9:\n  swap1\n  0x00\n  mstore\n  keccak256(0x00, 0x20)\n  add\n    /* \"Maps/contracts/FavoriteRecords.sol\":834:865  approvedRecords[approvedSet[i]] */\n  mload(0x40)\n  tag_13\n  swap2\n  swap1\n  tag_14\n  jump\t// in\ntag_13:\n  swap1\n  dup2\n  mstore\n  0x20\n  add\n  mload(0x40)\n  dup1\n  swap2\n  sub\n  swap1\n  keccak256\n  0x00\n    /* \"Maps/contracts/FavoriteRecords.sol\":834:872  approvedRecords[approvedSet[i]] = true */\n  0x0100\n  exp\n  dup2\n  sload\n  dup2\n  0xff\n  mul\n  not\n  and\n  swap1\n  dup4\n  iszero\n  iszero\n  mul\n  or\n  swap1\n  sstore\n  pop\n    /* \"Maps/contracts/FavoriteRecords.sol\":804:807  i++ */\n  dup1\n  dup1\n  tag_15\n  swap1\n  tag_16\n  jump\t// in\ntag_15:\n  swap2\n  pop\n  pop\n    /* \"Maps/contracts/FavoriteRecords.sol\":765:884  for (uint i = 0; i<approvedSet.length; i++) ... */\n  jump(tag_6)\ntag_7:\n  pop\n    /* \"Maps/contracts/FavoriteRecords.sol\":142:1881  contract FavoriteRecords {... */\n  jump(tag_17)\ntag_5:\n  dup3\n  dup1\n  sload\n  dup3\n  dup3\n  sstore\n  swap1\n  0x00\n  mstore\n  keccak256(0x00, 0x20)\n  swap1\n  dup2\n  add\n  swap3\n  dup3\n  iszero\n  tag_18\n  jumpi\n  swap2\n  0x20\n  mul\n  dup3\n  add\ntag_19:\n  dup3\n  dup2\n  gt\n  iszero\n  tag_20\n  jumpi\n  dup3\n  mload\n  dup3\n  swap1\n  dup2\n  tag_21\n  swap2\n  swap1\n  tag_22\n  jump\t// in\ntag_21:\n  pop\n  swap2\n  0x20\n  add\n  swap2\n  swap1\n  0x01\n  add\n  swap1\n  jump(tag_19)\ntag_20:\ntag_18:\n  pop\n  swap1\n  pop\n  tag_23\n  swap2\n  swap1\n  tag_24\n  jump\t// in\ntag_23:\n  pop\n  swap1\n  jump\t// out\ntag_24:\ntag_25:\n  dup1\n  dup3\n  gt\n  iszero\n  tag_26\n  jumpi\n  0x00\n  dup2\n  dup2\n  tag_27\n  swap2\n  swap1\n  tag_28\n  jump\t// in\ntag_27:\n  pop\n  0x01\n  add\n  jump(tag_25)\ntag_26:\n  pop\n  swap1\n  jump\t// out\ntag_28:\n  pop\n  dup1\n  sload\n  tag_29\n  swap1\n  tag_30\n  jump\t// in\ntag_29:\n  0x00\n  dup3\n  sstore\n  dup1\n  0x1f\n  lt\n  tag_32\n  jumpi\n  pop\n  jump(tag_31)\ntag_32:\n  0x1f\n  add\n  0x20\n  swap1\n  div\n  swap1\n  0x00\n  mstore\n  keccak256(0x00, 0x20)\n  swap1\n  dup2\n  add\n  swap1\n  tag_33\n  swap2\n  swap1\n  tag_34\n  jump\t// in\ntag_33:\ntag_31:\n  pop\n  jump\t// out\ntag_34:\ntag_35:\n  dup1\n  dup3\n  gt\n  iszero\n  tag_36\n  jumpi\n  0x00\n  dup2\n  0x00\n  swap1\n  sstore\n  pop\n  0x01\n  add\n  jump(tag_35)\ntag_36:\n  pop\n  swap1\n  jump\t// out\n    /* \"#utility.yul\":7:187   */\ntag_11:\n    /* \"#utility.yul\":55:132   */\n  0x4e487b7100000000000000000000000000000000000000000000000000000000\n    /* \"#utility.yul\":52:53   */\n  0x00\n    /* \"#utility.yul\":45:133   */\n  mstore\n    /* \"#utility.yul\":152:156   */\n  0x32\n    /* \"#utility.yul\":149:150   */\n  0x04\n    /* \"#utility.yul\":142:157   */\n  mstore\n    /* \"#utility.yul\":176:180   */\n  0x24\n    /* \"#utility.yul\":173:174   */\n  0x00\n    /* \"#utility.yul\":166:181   */\n  revert\n    /* \"#utility.yul\":193:373   */\ntag_37:\n    /* \"#utility.yul\":241:318   */\n  0x4e487b7100000000000000000000000000000000000000000000000000000000\n    /* \"#utility.yul\":238:239   */\n  0x00\n    /* \"#utility.yul\":231:319   */\n  mstore\n    /* \"#utility.yul\":338:342   */\n  0x22\n    /* \"#utility.yul\":335:336   */\n  0x04\n    /* \"#utility.yul\":328:343   */\n  mstore\n    /* \"#utility.yul\":362:366   */\n  0x24\n    /* \"#utility.yul\":359:360   */\n  0x00\n    /* \"#utility.yul\":352:367   */\n  revert\n    /* \"#utility.yul\":379:699   */\ntag_30:\n    /* \"#utility.yul\":423:429   */\n  0x00\n    /* \"#utility.yul\":460:461   */\n  0x02\n    /* \"#utility.yul\":454:458   */\n  dup3\n    /* \"#utility.yul\":450:462   */\n  div\n    /* \"#utility.yul\":440:462   */\n  swap1\n  pop\n    /* \"#utility.yul\":507:508   */\n  0x01\n    /* \"#utility.yul\":501:505   */\n  dup3\n    /* \"#utility.yul\":497:509   */\n  and\n    /* \"#utility.yul\":528:546   */\n  dup1\n    /* \"#utility.yul\":518:599   */\n  tag_63\n  jumpi\n    /* \"#utility.yul\":584:588   */\n  0x7f\n    /* \"#utility.yul\":576:582   */\n  dup3\n    /* \"#utility.yul\":572:589   */\n  and\n    /* \"#utility.yul\":562:589   */\n  swap2\n  pop\n    /* \"#utility.yul\":518:599   */\ntag_63:\n    /* \"#utility.yul\":646:648   */\n  0x20\n    /* \"#utility.yul\":638:644   */\n  dup3\n    /* \"#utility.yul\":635:649   */\n  lt\n    /* \"#utility.yul\":615:633   */\n  dup2\n    /* \"#utility.yul\":612:650   */\n  sub\n    /* \"#utility.yul\":609:693   */\n  tag_64\n  jumpi\n    /* \"#utility.yul\":665:683   */\n  tag_65\n  tag_37\n  jump\t// in\ntag_65:\n    /* \"#utility.yul\":609:693   */\ntag_64:\n    /* \"#utility.yul\":430:699   */\n  pop\n    /* \"#utility.yul\":379:699   */\n  swap2\n  swap1\n  pop\n  jump\t// out\n    /* \"#utility.yul\":705:853   */\ntag_38:\n    /* \"#utility.yul\":807:818   */\n  0x00\n    /* \"#utility.yul\":844:847   */\n  dup2\n    /* \"#utility.yul\":829:847   */\n  swap1\n  pop\n    /* \"#utility.yul\":705:853   */\n  swap3\n  swap2\n  pop\n  pop\n  jump\t// out\n    /* \"#utility.yul\":859:1000   */\ntag_39:\n    /* \"#utility.yul\":908:912   */\n  0x00\n    /* \"#utility.yul\":931:934   */\n  dup2\n    /* \"#utility.yul\":923:934   */\n  swap1\n  pop\n    /* \"#utility.yul\":954:957   */\n  dup2\n    /* \"#utility.yul\":951:952   */\n  0x00\n    /* \"#utility.yul\":944:958   */\n  mstore\n    /* \"#utility.yul\":988:992   */\n  0x20\n    /* \"#utility.yul\":985:986   */\n  0x00\n    /* \"#utility.yul\":975:993   */\n  keccak256\n    /* \"#utility.yul\":967:993   */\n  swap1\n  pop\n    /* \"#utility.yul\":859:1000   */\n  swap2\n  swap1\n  pop\n  jump\t// out\n    /* \"#utility.yul\":1030:1904   */\ntag_40:\n    /* \"#utility.yul\":1133:1136   */\n  0x00\n    /* \"#utility.yul\":1170:1175   */\n  dup2\n    /* \"#utility.yul\":1164:1176   */\n  sload\n    /* \"#utility.yul\":1199:1235   */\n  tag_69\n    /* \"#utility.yul\":1225:1234   */\n  dup2\n    /* \"#utility.yul\":1199:1235   */\n  tag_30\n  jump\t// in\ntag_69:\n    /* \"#utility.yul\":1251:1340   */\n  tag_70\n    /* \"#utility.yul\":1333:1339   */\n  dup2\n    /* \"#utility.yul\":1328:1331   */\n  dup7\n    /* \"#utility.yul\":1251:1340   */\n  tag_38\n  jump\t// in\ntag_70:\n    /* \"#utility.yul\":1244:1340   */\n  swap5\n  pop\n    /* \"#utility.yul\":1371:1372   */\n  0x01\n    /* \"#utility.yul\":1360:1369   */\n  dup3\n    /* \"#utility.yul\":1356:1373   */\n  and\n    /* \"#utility.yul\":1387:1388   */\n  0x00\n    /* \"#utility.yul\":1382:1548   */\n  dup2\n  eq\n  tag_72\n  jumpi\n    /* \"#utility.yul\":1562:1563   */\n  0x01\n    /* \"#utility.yul\":1557:1898   */\n  dup2\n  eq\n  tag_73\n  jumpi\n    /* \"#utility.yul\":1349:1898   */\n  jump(tag_71)\n    /* \"#utility.yul\":1382:1548   */\ntag_72:\n    /* \"#utility.yul\":1466:1470   */\n  0xff\n    /* \"#utility.yul\":1462:1471   */\n  not\n    /* \"#utility.yul\":1451:1460   */\n  dup4\n    /* \"#utility.yul\":1447:1472   */\n  and\n    /* \"#utility.yul\":1442:1445   */\n  dup7\n    /* \"#utility.yul\":1435:1473   */\n  mstore\n    /* \"#utility.yul\":1528:1534   */\n  dup2\n    /* \"#utility.yul\":1521:1535   */\n  iszero\n    /* \"#utility.yul\":1514:1536   */\n  iszero\n    /* \"#utility.yul\":1506:1512   */\n  dup3\n    /* \"#utility.yul\":1502:1537   */\n  mul\n    /* \"#utility.yul\":1497:1500   */\n  dup7\n    /* \"#utility.yul\":1493:1538   */\n  add\n    /* \"#utility.yul\":1486:1538   */\n  swap4\n  pop\n    /* \"#utility.yul\":1382:1548   */\n  jump(tag_71)\n    /* \"#utility.yul\":1557:1898   */\ntag_73:\n    /* \"#utility.yul\":1624:1662   */\n  tag_74\n    /* \"#utility.yul\":1656:1661   */\n  dup6\n    /* \"#utility.yul\":1624:1662   */\n  tag_39\n  jump\t// in\ntag_74:\n    /* \"#utility.yul\":1684:1685   */\n  0x00\n    /* \"#utility.yul\":1698:1852   */\ntag_75:\n    /* \"#utility.yul\":1712:1718   */\n  dup4\n    /* \"#utility.yul\":1709:1710   */\n  dup2\n    /* \"#utility.yul\":1706:1719   */\n  lt\n    /* \"#utility.yul\":1698:1852   */\n  iszero\n  tag_77\n  jumpi\n    /* \"#utility.yul\":1786:1793   */\n  dup2\n    /* \"#utility.yul\":1780:1794   */\n  sload\n    /* \"#utility.yul\":1776:1777   */\n  dup2\n    /* \"#utility.yul\":1771:1774   */\n  dup10\n    /* \"#utility.yul\":1767:1778   */\n  add\n    /* \"#utility.yul\":1760:1795   */\n  mstore\n    /* \"#utility.yul\":1836:1837   */\n  0x01\n    /* \"#utility.yul\":1827:1834   */\n  dup3\n    /* \"#utility.yul\":1823:1838   */\n  add\n    /* \"#utility.yul\":1812:1838   */\n  swap2\n  pop\n    /* \"#utility.yul\":1734:1738   */\n  0x20\n    /* \"#utility.yul\":1731:1732   */\n  dup2\n    /* \"#utility.yul\":1727:1739   */\n  add\n    /* \"#utility.yul\":1722:1739   */\n  swap1\n  pop\n    /* \"#utility.yul\":1698:1852   */\n  jump(tag_75)\ntag_77:\n    /* \"#utility.yul\":1881:1887   */\n  dup4\n    /* \"#utility.yul\":1876:1879   */\n  dup9\n    /* \"#utility.yul\":1872:1888   */\n  add\n    /* \"#utility.yul\":1865:1888   */\n  swap6\n  pop\n    /* \"#utility.yul\":1564:1898   */\n  pop\n  pop\n    /* \"#utility.yul\":1349:1898   */\ntag_71:\n  pop\n    /* \"#utility.yul\":1137:1904   */\n  pop\n  pop\n    /* \"#utility.yul\":1030:1904   */\n  swap3\n  swap2\n  pop\n  pop\n  jump\t// out\n    /* \"#utility.yul\":1910:2179   */\ntag_14:\n    /* \"#utility.yul\":2039:2042   */\n  0x00\n    /* \"#utility.yul\":2061:2153   */\n  tag_79\n    /* \"#utility.yul\":2149:2152   */\n  dup3\n    /* \"#utility.yul\":2140:2146   */\n  dup5\n    /* \"#utility.yul\":2061:2153   */\n  tag_40\n  jump\t// in\ntag_79:\n    /* \"#utility.yul\":2054:2153   */\n  swap2\n  pop\n    /* \"#utility.yul\":2170:2173   */\n  dup2\n    /* \"#utility.yul\":2163:2173   */\n  swap1\n  pop\n    /* \"#utility.yul\":1910:2179   */\n  swap3\n  swap2\n  pop\n  pop\n  jump\t// out\n    /* \"#utility.yul\":2185:2365   */\ntag_41:\n    /* \"#utility.yul\":2233:2310   */\n  0x4e487b7100000000000000000000000000000000000000000000000000000000\n    /* \"#utility.yul\":2230:2231   */\n  0x00\n    /* \"#utility.yul\":2223:2311   */\n  mstore\n    /* \"#utility.yul\":2330:2334   */\n  0x11\n    /* \"#utility.yul\":2327:2328   */\n  0x04\n    /* \"#utility.yul\":2320:2335   */\n  mstore\n    /* \"#utility.yul\":2354:2358   */\n  0x24\n    /* \"#utility.yul\":2351:2352   */\n  0x00\n    /* \"#utility.yul\":2344:2359   */\n  revert\n    /* \"#utility.yul\":2371:2448   */\ntag_42:\n    /* \"#utility.yul\":2408:2415   */\n  0x00\n    /* \"#utility.yul\":2437:2442   */\n  dup2\n    /* \"#utility.yul\":2426:2442   */\n  swap1\n  pop\n    /* \"#utility.yul\":2371:2448   */\n  swap2\n  swap1\n  pop\n  jump\t// out\n    /* \"#utility.yul\":2454:2687   */\ntag_16:\n    /* \"#utility.yul\":2493:2496   */\n  0x00\n    /* \"#utility.yul\":2516:2540   */\n  tag_83\n    /* \"#utility.yul\":2534:2539   */\n  dup3\n    /* \"#utility.yul\":2516:2540   */\n  tag_42\n  jump\t// in\ntag_83:\n    /* \"#utility.yul\":2507:2540   */\n  swap2\n  pop\n    /* \"#utility.yul\":2562:2628   */\n  0xffffffffffffffffffffffffffffffffffffffffffffffffffffffffffffffff\n    /* \"#utility.yul\":2555:2560   */\n  dup3\n    /* \"#utility.yul\":2552:2629   */\n  sub\n    /* \"#utility.yul\":2549:2652   */\n  tag_84\n  jumpi\n    /* \"#utility.yul\":2632:2650   */\n  tag_85\n  tag_41\n  jump\t// in\ntag_85:\n    /* \"#utility.yul\":2549:2652   */\ntag_84:\n    /* \"#utility.yul\":2679:2680   */\n  0x01\n    /* \"#utility.yul\":2672:2677   */\n  dup3\n    /* \"#utility.yul\":2668:2681   */\n  add\n    /* \"#utility.yul\":2661:2681   */\n  swap1\n  pop\n    /* \"#utility.yul\":2454:2687   */\n  swap2\n  swap1\n  pop\n  jump\t// out\n    /* \"#utility.yul\":2693:2792   */\ntag_43:\n    /* \"#utility.yul\":2745:2751   */\n  0x00\n    /* \"#utility.yul\":2779:2784   */\n  dup2\n    /* \"#utility.yul\":2773:2785   */\n  mload\n    /* \"#utility.yul\":2763:2785   */\n  swap1\n  pop\n    /* \"#utility.yul\":2693:2792   */\n  swap2\n  swap1\n  pop\n  jump\t// out\n    /* \"#utility.yul\":2798:2978   */\ntag_44:\n    /* \"#utility.yul\":2846:2923   */\n  0x4e487b7100000000000000000000000000000000000000000000000000000000\n    /* \"#utility.yul\":2843:2844   */\n  0x00\n    /* \"#utility.yul\":2836:2924   */\n  mstore\n    /* \"#utility.yul\":2943:2947   */\n  0x41\n    /* \"#utility.yul\":2940:2941   */\n  0x04\n    /* \"#utility.yul\":2933:2948   */\n  mstore\n    /* \"#utility.yul\":2967:2971   */\n  0x24\n    /* \"#utility.yul\":2964:2965   */\n  0x00\n    /* \"#utility.yul\":2957:2972   */\n  revert\n    /* \"#utility.yul\":2984:3077   */\ntag_45:\n    /* \"#utility.yul\":3021:3027   */\n  0x00\n    /* \"#utility.yul\":3068:3070   */\n  0x20\n    /* \"#utility.yul\":3063:3065   */\n  0x1f\n    /* \"#utility.yul\":3056:3061   */\n  dup4\n    /* \"#utility.yul\":3052:3066   */\n  add\n    /* \"#utility.yul\":3048:3071   */\n  div\n    /* \"#utility.yul\":3038:3071   */\n  swap1\n  pop\n    /* \"#utility.yul\":2984:3077   */\n  swap2\n  swap1\n  pop\n  jump\t// out\n    /* \"#utility.yul\":3083:3190   */\ntag_46:\n    /* \"#utility.yul\":3127:3135   */\n  0x00\n    /* \"#utility.yul\":3177:3182   */\n  dup3\n    /* \"#utility.yul\":3171:3175   */\n  dup3\n    /* \"#utility.yul\":3167:3183   */\n  shl\n    /* \"#utility.yul\":3146:3183   */\n  swap1\n  pop\n    /* \"#utility.yul\":3083:3190   */\n  swap3\n  swap2\n  pop\n  pop\n  jump\t// out\n    /* \"#utility.yul\":3196:3589   */\ntag_47:\n    /* \"#utility.yul\":3265:3271   */\n  0x00\n    /* \"#utility.yul\":3315:3316   */\n  0x08\n    /* \"#utility.yul\":3303:3313   */\n  dup4\n    /* \"#utility.yul\":3299:3317   */\n  mul\n    /* \"#utility.yul\":3338:3435   */\n  tag_91\n    /* \"#utility.yul\":3368:3434   */\n  0xffffffffffffffffffffffffffffffffffffffffffffffffffffffffffffffff\n    /* \"#utility.yul\":3357:3366   */\n  dup3\n    /* \"#utility.yul\":3338:3435   */\n  tag_46\n  jump\t// in\ntag_91:\n    /* \"#utility.yul\":3456:3495   */\n  tag_92\n    /* \"#utility.yul\":3486:3494   */\n  dup7\n    /* \"#utility.yul\":3475:3484   */\n  dup4\n    /* \"#utility.yul\":3456:3495   */\n  tag_46\n  jump\t// in\ntag_92:\n    /* \"#utility.yul\":3444:3495   */\n  swap6\n  pop\n    /* \"#utility.yul\":3528:3532   */\n  dup1\n    /* \"#utility.yul\":3524:3533   */\n  not\n    /* \"#utility.yul\":3517:3522   */\n  dup5\n    /* \"#utility.yul\":3513:3534   */\n  and\n    /* \"#utility.yul\":3504:3534   */\n  swap4\n  pop\n    /* \"#utility.yul\":3577:3581   */\n  dup1\n    /* \"#utility.yul\":3567:3575   */\n  dup7\n    /* \"#utility.yul\":3563:3582   */\n  and\n    /* \"#utility.yul\":3556:3561   */\n  dup5\n    /* \"#utility.yul\":3553:3583   */\n  or\n    /* \"#utility.yul\":3543:3583   */\n  swap3\n  pop\n    /* \"#utility.yul\":3272:3589   */\n  pop\n  pop\n    /* \"#utility.yul\":3196:3589   */\n  swap4\n  swap3\n  pop\n  pop\n  pop\n  jump\t// out\n    /* \"#utility.yul\":3595:3655   */\ntag_48:\n    /* \"#utility.yul\":3623:3626   */\n  0x00\n    /* \"#utility.yul\":3644:3649   */\n  dup2\n    /* \"#utility.yul\":3637:3649   */\n  swap1\n  pop\n    /* \"#utility.yul\":3595:3655   */\n  swap2\n  swap1\n  pop\n  jump\t// out\n    /* \"#utility.yul\":3661:3803   */\ntag_49:\n    /* \"#utility.yul\":3711:3720   */\n  0x00\n    /* \"#utility.yul\":3744:3797   */\n  tag_95\n    /* \"#utility.yul\":3762:3796   */\n  tag_96\n    /* \"#utility.yul\":3771:3795   */\n  tag_97\n    /* \"#utility.yul\":3789:3794   */\n  dup5\n    /* \"#utility.yul\":3771:3795   */\n  tag_42\n  jump\t// in\ntag_97:\n    /* \"#utility.yul\":3762:3796   */\n  tag_48\n  jump\t// in\ntag_96:\n    /* \"#utility.yul\":3744:3797   */\n  tag_42\n  jump\t// in\ntag_95:\n    /* \"#utility.yul\":3731:3797   */\n  swap1\n  pop\n    /* \"#utility.yul\":3661:3803   */\n  swap2\n  swap1\n  pop\n  jump\t// out\n    /* \"#utility.yul\":3809:3884   */\ntag_50:\n    /* \"#utility.yul\":3852:3855   */\n  0x00\n    /* \"#utility.yul\":3873:3878   */\n  dup2\n    /* \"#utility.yul\":3866:3878   */\n  swap1\n  pop\n    /* \"#utility.yul\":3809:3884   */\n  swap2\n  swap1\n  pop\n  jump\t// out\n    /* \"#utility.yul\":3890:4159   */\ntag_51:\n    /* \"#utility.yul\":4000:4039   */\n  tag_100\n    /* \"#utility.yul\":4031:4038   */\n  dup4\n    /* \"#utility.yul\":4000:4039   */\n  tag_49\n  jump\t// in\ntag_100:\n    /* \"#utility.yul\":4061:4152   */\n  tag_101\n    /* \"#utility.yul\":4110:4151   */\n  tag_102\n    /* \"#utility.yul\":4134:4150   */\n  dup3\n    /* \"#utility.yul\":4110:4151   */\n  tag_50\n  jump\t// in\ntag_102:\n    /* \"#utility.yul\":4102:4108   */\n  dup5\n    /* \"#utility.yul\":4095:4099   */\n  dup5\n    /* \"#utility.yul\":4089:4100   */\n  sload\n    /* \"#utility.yul\":4061:4152   */\n  tag_47\n  jump\t// in\ntag_101:\n    /* \"#utility.yul\":4055:4059   */\n  dup3\n    /* \"#utility.yul\":4048:4153   */\n  sstore\n    /* \"#utility.yul\":3966:4159   */\n  pop\n    /* \"#utility.yul\":3890:4159   */\n  pop\n  pop\n  pop\n  jump\t// out\n    /* \"#utility.yul\":4165:4238   */\ntag_52:\n    /* \"#utility.yul\":4210:4213   */\n  0x00\n    /* \"#utility.yul\":4165:4238   */\n  swap1\n  jump\t// out\n    /* \"#utility.yul\":4244:4433   */\ntag_53:\n    /* \"#utility.yul\":4321:4353   */\n  tag_105\n  tag_52\n  jump\t// in\ntag_105:\n    /* \"#utility.yul\":4362:4427   */\n  tag_106\n    /* \"#utility.yul\":4420:4426   */\n  dup2\n    /* \"#utility.yul\":4412:4418   */\n  dup5\n    /* \"#utility.yul\":4406:4410   */\n  dup5\n    /* \"#utility.yul\":4362:4427   */\n  tag_51\n  jump\t// in\ntag_106:\n    /* \"#utility.yul\":4297:4433   */\n  pop\n    /* \"#utility.yul\":4244:4433   */\n  pop\n  pop\n  jump\t// out\n    /* \"#utility.yul\":4439:4625   */\ntag_54:\n    /* \"#utility.yul\":4499:4619   */\ntag_108:\n    /* \"#utility.yul\":4516:4519   */\n  dup2\n    /* \"#utility.yul\":4509:4514   */\n  dup2\n    /* \"#utility.yul\":4506:4520   */\n  lt\n    /* \"#utility.yul\":4499:4619   */\n  iszero\n  tag_110\n  jumpi\n    /* \"#utility.yul\":4570:4609   */\n  tag_111\n    /* \"#utility.yul\":4607:4608   */\n  0x00\n    /* \"#utility.yul\":4600:4605   */\n  dup3\n    /* \"#utility.yul\":4570:4609   */\n  tag_53\n  jump\t// in\ntag_111:\n    /* \"#utility.yul\":4543:4544   */\n  0x01\n    /* \"#utility.yul\":4536:4541   */\n  dup2\n    /* \"#utility.yul\":4532:4545   */\n  add\n    /* \"#utility.yul\":4523:4545   */\n  swap1\n  pop\n    /* \"#utility.yul\":4499:4619   */\n  jump(tag_108)\ntag_110:\n    /* \"#utility.yul\":4439:4625   */\n  pop\n  pop\n  jump\t// out\n    /* \"#utility.yul\":4631:5174   */\ntag_55:\n    /* \"#utility.yul\":4732:4734   */\n  0x1f\n    /* \"#utility.yul\":4727:4730   */\n  dup3\n    /* \"#utility.yul\":4724:4735   */\n  gt\n    /* \"#utility.yul\":4721:5167   */\n  iszero\n  tag_113\n  jumpi\n    /* \"#utility.yul\":4766:4804   */\n  tag_114\n    /* \"#utility.yul\":4798:4803   */\n  dup2\n    /* \"#utility.yul\":4766:4804   */\n  tag_39\n  jump\t// in\ntag_114:\n    /* \"#utility.yul\":4850:4879   */\n  tag_115\n    /* \"#utility.yul\":4868:4878   */\n  dup5\n    /* \"#utility.yul\":4850:4879   */\n  tag_45\n  jump\t// in\ntag_115:\n    /* \"#utility.yul\":4840:4848   */\n  dup2\n    /* \"#utility.yul\":4836:4880   */\n  add\n    /* \"#utility.yul\":5033:5035   */\n  0x20\n    /* \"#utility.yul\":5021:5031   */\n  dup6\n    /* \"#utility.yul\":5018:5036   */\n  lt\n    /* \"#utility.yul\":5015:5064   */\n  iszero\n  tag_116\n  jumpi\n    /* \"#utility.yul\":5054:5062   */\n  dup2\n    /* \"#utility.yul\":5039:5062   */\n  swap1\n  pop\n    /* \"#utility.yul\":5015:5064   */\ntag_116:\n    /* \"#utility.yul\":5077:5157   */\n  tag_117\n    /* \"#utility.yul\":5133:5155   */\n  tag_118\n    /* \"#utility.yul\":5151:5154   */\n  dup6\n    /* \"#utility.yul\":5133:5155   */\n  tag_45\n  jump\t// in\ntag_118:\n    /* \"#utility.yul\":5123:5131   */\n  dup4\n    /* \"#utility.yul\":5119:5156   */\n  add\n    /* \"#utility.yul\":5106:5117   */\n  dup3\n    /* \"#utility.yul\":5077:5157   */\n  tag_54\n  jump\t// in\ntag_117:\n    /* \"#utility.yul\":4736:5167   */\n  pop\n  pop\n    /* \"#utility.yul\":4721:5167   */\ntag_113:\n    /* \"#utility.yul\":4631:5174   */\n  pop\n  pop\n  pop\n  jump\t// out\n    /* \"#utility.yul\":5180:5297   */\ntag_56:\n    /* \"#utility.yul\":5234:5242   */\n  0x00\n    /* \"#utility.yul\":5284:5289   */\n  dup3\n    /* \"#utility.yul\":5278:5282   */\n  dup3\n    /* \"#utility.yul\":5274:5290   */\n  shr\n    /* \"#utility.yul\":5253:5290   */\n  swap1\n  pop\n    /* \"#utility.yul\":5180:5297   */\n  swap3\n  swap2\n  pop\n  pop\n  jump\t// out\n    /* \"#utility.yul\":5303:5472   */\ntag_57:\n    /* \"#utility.yul\":5347:5353   */\n  0x00\n    /* \"#utility.yul\":5380:5431   */\n  tag_121\n    /* \"#utility.yul\":5428:5429   */\n  0x00\n    /* \"#utility.yul\":5424:5430   */\n  not\n    /* \"#utility.yul\":5416:5421   */\n  dup5\n    /* \"#utility.yul\":5413:5414   */\n  0x08\n    /* \"#utility.yul\":5409:5422   */\n  mul\n    /* \"#utility.yul\":5380:5431   */\n  tag_56\n  jump\t// in\ntag_121:\n    /* \"#utility.yul\":5376:5432   */\n  not\n    /* \"#utility.yul\":5461:5465   */\n  dup1\n    /* \"#utility.yul\":5455:5459   */\n  dup4\n    /* \"#utility.yul\":5451:5466   */\n  and\n    /* \"#utility.yul\":5441:5466   */\n  swap2\n  pop\n    /* \"#utility.yul\":5354:5472   */\n  pop\n    /* \"#utility.yul\":5303:5472   */\n  swap3\n  swap2\n  pop\n  pop\n  jump\t// out\n    /* \"#utility.yul\":5477:5772   */\ntag_58:\n    /* \"#utility.yul\":5553:5557   */\n  0x00\n    /* \"#utility.yul\":5699:5728   */\n  tag_123\n    /* \"#utility.yul\":5724:5727   */\n  dup4\n    /* \"#utility.yul\":5718:5722   */\n  dup4\n    /* \"#utility.yul\":5699:5728   */\n  tag_57\n  jump\t// in\ntag_123:\n    /* \"#utility.yul\":5691:5728   */\n  swap2\n  pop\n    /* \"#utility.yul\":5761:5764   */\n  dup3\n    /* \"#utility.yul\":5758:5759   */\n  0x02\n    /* \"#utility.yul\":5754:5765   */\n  mul\n    /* \"#utility.yul\":5748:5752   */\n  dup3\n    /* \"#utility.yul\":5745:5766   */\n  or\n    /* \"#utility.yul\":5737:5766   */\n  swap1\n  pop\n    /* \"#utility.yul\":5477:5772   */\n  swap3\n  swap2\n  pop\n  pop\n  jump\t// out\n    /* \"#utility.yul\":5777:7172   */\ntag_22:\n    /* \"#utility.yul\":5894:5931   */\n  tag_125\n    /* \"#utility.yul\":5927:5930   */\n  dup3\n    /* \"#utility.yul\":5894:5931   */\n  tag_43\n  jump\t// in\ntag_125:\n    /* \"#utility.yul\":5996:6014   */\n  0xffffffffffffffff\n    /* \"#utility.yul\":5988:5994   */\n  dup2\n    /* \"#utility.yul\":5985:6015   */\n  gt\n    /* \"#utility.yul\":5982:6038   */\n  iszero\n  tag_126\n  jumpi\n    /* \"#utility.yul\":6018:6036   */\n  tag_127\n  tag_44\n  jump\t// in\ntag_127:\n    /* \"#utility.yul\":5982:6038   */\ntag_126:\n    /* \"#utility.yul\":6062:6100   */\n  tag_128\n    /* \"#utility.yul\":6094:6098   */\n  dup3\n    /* \"#utility.yul\":6088:6099   */\n  sload\n    /* \"#utility.yul\":6062:6100   */\n  tag_30\n  jump\t// in\ntag_128:\n    /* \"#utility.yul\":6147:6214   */\n  tag_129\n    /* \"#utility.yul\":6207:6213   */\n  dup3\n    /* \"#utility.yul\":6199:6205   */\n  dup3\n    /* \"#utility.yul\":6193:6197   */\n  dup6\n    /* \"#utility.yul\":6147:6214   */\n  tag_55\n  jump\t// in\ntag_129:\n    /* \"#utility.yul\":6241:6242   */\n  0x00\n    /* \"#utility.yul\":6265:6269   */\n  0x20\n    /* \"#utility.yul\":6252:6269   */\n  swap1\n  pop\n    /* \"#utility.yul\":6297:6299   */\n  0x1f\n    /* \"#utility.yul\":6289:6295   */\n  dup4\n    /* \"#utility.yul\":6286:6300   */\n  gt\n    /* \"#utility.yul\":6314:6315   */\n  0x01\n    /* \"#utility.yul\":6309:6927   */\n  dup2\n  eq\n  tag_131\n  jumpi\n    /* \"#utility.yul\":6971:6972   */\n  0x00\n    /* \"#utility.yul\":6988:6994   */\n  dup5\n    /* \"#utility.yul\":6985:7062   */\n  iszero\n  tag_132\n  jumpi\n    /* \"#utility.yul\":7037:7046   */\n  dup3\n    /* \"#utility.yul\":7032:7035   */\n  dup8\n    /* \"#utility.yul\":7028:7047   */\n  add\n    /* \"#utility.yul\":7022:7048   */\n  mload\n    /* \"#utility.yul\":7013:7048   */\n  swap1\n  pop\n    /* \"#utility.yul\":6985:7062   */\ntag_132:\n    /* \"#utility.yul\":7088:7155   */\n  tag_133\n    /* \"#utility.yul\":7148:7154   */\n  dup6\n    /* \"#utility.yul\":7141:7146   */\n  dup3\n    /* \"#utility.yul\":7088:7155   */\n  tag_58\n  jump\t// in\ntag_133:\n    /* \"#utility.yul\":7082:7086   */\n  dup7\n    /* \"#utility.yul\":7075:7156   */\n  sstore\n    /* \"#utility.yul\":6944:7166   */\n  pop\n    /* \"#utility.yul\":6279:7166   */\n  jump(tag_130)\n    /* \"#utility.yul\":6309:6927   */\ntag_131:\n    /* \"#utility.yul\":6361:6365   */\n  0x1f\n    /* \"#utility.yul\":6357:6366   */\n  not\n    /* \"#utility.yul\":6349:6355   */\n  dup5\n    /* \"#utility.yul\":6345:6367   */\n  and\n    /* \"#utility.yul\":6395:6432   */\n  tag_134\n    /* \"#utility.yul\":6427:6431   */\n  dup7\n    /* \"#utility.yul\":6395:6432   */\n  tag_39\n  jump\t// in\ntag_134:\n    /* \"#utility.yul\":6454:6455   */\n  0x00\n    /* \"#utility.yul\":6468:6676   */\ntag_135:\n    /* \"#utility.yul\":6482:6489   */\n  dup3\n    /* \"#utility.yul\":6479:6480   */\n  dup2\n    /* \"#utility.yul\":6476:6490   */\n  lt\n    /* \"#utility.yul\":6468:6676   */\n  iszero\n  tag_137\n  jumpi\n    /* \"#utility.yul\":6561:6570   */\n  dup5\n    /* \"#utility.yul\":6556:6559   */\n  dup10\n    /* \"#utility.yul\":6552:6571   */\n  add\n    /* \"#utility.yul\":6546:6572   */\n  mload\n    /* \"#utility.yul\":6538:6544   */\n  dup3\n    /* \"#utility.yul\":6531:6573   */\n  sstore\n    /* \"#utility.yul\":6612:6613   */\n  0x01\n    /* \"#utility.yul\":6604:6610   */\n  dup3\n    /* \"#utility.yul\":6600:6614   */\n  add\n    /* \"#utility.yul\":6590:6614   */\n  swap2\n  pop\n    /* \"#utility.yul\":6659:6661   */\n  0x20\n    /* \"#utility.yul\":6648:6657   */\n  dup6\n    /* \"#utility.yul\":6644:6662   */\n  add\n    /* \"#utility.yul\":6631:6662   */\n  swap5\n  pop\n    /* \"#utility.yul\":6505:6509   */\n  0x20\n    /* \"#utility.yul\":6502:6503   */\n  dup2\n    /* \"#utility.yul\":6498:6510   */\n  add\n    /* \"#utility.yul\":6493:6510   */\n  swap1\n  pop\n    /* \"#utility.yul\":6468:6676   */\n  jump(tag_135)\ntag_137:\n    /* \"#utility.yul\":6704:6710   */\n  dup7\n    /* \"#utility.yul\":6695:6702   */\n  dup4\n    /* \"#utility.yul\":6692:6711   */\n  lt\n    /* \"#utility.yul\":6689:6868   */\n  iszero\n  tag_138\n  jumpi\n    /* \"#utility.yul\":6762:6771   */\n  dup5\n    /* \"#utility.yul\":6757:6760   */\n  dup10\n    /* \"#utility.yul\":6753:6772   */\n  add\n    /* \"#utility.yul\":6747:6773   */\n  mload\n    /* \"#utility.yul\":6805:6853   */\n  tag_139\n    /* \"#utility.yul\":6847:6851   */\n  0x1f\n    /* \"#utility.yul\":6839:6845   */\n  dup10\n    /* \"#utility.yul\":6835:6852   */\n  and\n    /* \"#utility.yul\":6824:6833   */\n  dup3\n    /* \"#utility.yul\":6805:6853   */\n  tag_57\n  jump\t// in\ntag_139:\n    /* \"#utility.yul\":6797:6803   */\n  dup4\n    /* \"#utility.yul\":6790:6854   */\n  sstore\n    /* \"#utility.yul\":6712:6868   */\n  pop\n    /* \"#utility.yul\":6689:6868   */\ntag_138:\n    /* \"#utility.yul\":6914:6915   */\n  0x01\n    /* \"#utility.yul\":6910:6911   */\n  0x02\n    /* \"#utility.yul\":6902:6908   */\n  dup9\n    /* \"#utility.yul\":6898:6912   */\n  mul\n    /* \"#utility.yul\":6894:6916   */\n  add\n    /* \"#utility.yul\":6888:6892   */\n  dup9\n    /* \"#utility.yul\":6881:6917   */\n  sstore\n    /* \"#utility.yul\":6316:6927   */\n  pop\n  pop\n  pop\n    /* \"#utility.yul\":6279:7166   */\ntag_130:\n  pop\n    /* \"#utility.yul\":5869:7172   */\n  pop\n  pop\n  pop\n    /* \"#utility.yul\":5777:7172   */\n  pop\n  pop\n  jump\t// out\n    /* \"Maps/contracts/FavoriteRecords.sol\":142:1881  contract FavoriteRecords {... */\ntag_17:\n  dataSize(sub_0)\n  dup1\n  dataOffset(sub_0)\n  0x00\n  codecopy\n  0x00\n  return\nstop\n\nsub_0: assembly {\n        /* \"Maps/contracts/FavoriteRecords.sol\":142:1881  contract FavoriteRecords {... */\n      mstore(0x40, 0x80)\n      callvalue\n      dup1\n      iszero\n      tag_1\n      jumpi\n      0x00\n      dup1\n      revert\n    tag_1:\n      pop\n      jumpi(tag_2, lt(calldatasize, 0x04))\n      shr(0xe0, calldataload(0x00))\n      dup1\n      0x1cf0830b\n      eq\n      tag_3\n      jumpi\n      dup1\n      0x837f8878\n      eq\n      tag_4\n      jumpi\n      dup1\n      0xb374ac59\n      eq\n      tag_5\n      jumpi\n      dup1\n      0xc7853148\n      eq\n      tag_6\n      jumpi\n      dup1\n      0xd81aa8c4\n      eq\n      tag_7\n      jumpi\n    tag_2:\n      0x00\n      dup1\n      revert\n        /* \"Maps/contracts/FavoriteRecords.sol\":898:1003  function getApprovedRecords() public view returns (string[] memory) {... */\n    tag_3:\n      tag_8\n      tag_9\n      jump\t// in\n    tag_8:\n      mload(0x40)\n      tag_10\n      swap2\n      swap1\n      tag_11\n      jump\t// in\n    tag_10:\n      mload(0x40)\n      dup1\n      swap2\n      sub\n      swap1\n      return\n        /* \"Maps/contracts/FavoriteRecords.sol\":1611:1878  function resetUserFavorites() public {... */\n    tag_4:\n      tag_12\n      tag_13\n      jump\t// in\n    tag_12:\n      stop\n        /* \"Maps/contracts/FavoriteRecords.sol\":174:220  mapping(string => bool) public approvedRecords */\n    tag_5:\n      tag_14\n      0x04\n      dup1\n      calldatasize\n      sub\n      dup2\n      add\n      swap1\n      tag_15\n      swap2\n      swap1\n      tag_16\n      jump\t// in\n    tag_15:\n      tag_17\n      jump\t// in\n    tag_14:\n      mload(0x40)\n      tag_18\n      swap2\n      swap1\n      tag_19\n      jump\t// in\n    tag_18:\n      mload(0x40)\n      dup1\n      swap2\n      sub\n      swap1\n      return\n        /* \"Maps/contracts/FavoriteRecords.sol\":1469:1604  function getUserFavorites(address _address) public view returns (string[] memory) {... */\n    tag_6:\n      tag_20\n      0x04\n      dup1\n      calldatasize\n      sub\n      dup2\n      add\n      swap1\n      tag_21\n      swap2\n      swap1\n      tag_22\n      jump\t// in\n    tag_21:\n      tag_23\n      jump\t// in\n    tag_20:\n      mload(0x40)\n      tag_24\n      swap2\n      swap1\n      tag_11\n      jump\t// in\n    tag_24:\n      mload(0x40)\n      dup1\n      swap2\n      sub\n      swap1\n      return\n        /* \"Maps/contracts/FavoriteRecords.sol\":1099:1462  function addRecord(string memory _album) public {... */\n    tag_7:\n      tag_25\n      0x04\n      dup1\n      calldatasize\n      sub\n      dup2\n      add\n      swap1\n      tag_26\n      swap2\n      swap1\n      tag_16\n      jump\t// in\n    tag_26:\n      tag_27\n      jump\t// in\n    tag_25:\n      stop\n        /* \"Maps/contracts/FavoriteRecords.sol\":898:1003  function getApprovedRecords() public view returns (string[] memory) {... */\n    tag_9:\n        /* \"Maps/contracts/FavoriteRecords.sol\":949:964  string[] memory */\n      0x60\n        /* \"Maps/contracts/FavoriteRecords.sol\":984:995  approvedSet */\n      0x01\n        /* \"Maps/contracts/FavoriteRecords.sol\":977:995  return approvedSet */\n      dup1\n      sload\n      dup1\n      0x20\n      mul\n      0x20\n      add\n      mload(0x40)\n      swap1\n      dup2\n      add\n      0x40\n      mstore\n      dup1\n      swap3\n      swap2\n      swap1\n      dup2\n      dup2\n      mstore\n      0x20\n      add\n      0x00\n      swap1\n    tag_29:\n      dup3\n      dup3\n      lt\n      iszero\n      tag_30\n      jumpi\n      dup4\n      dup3\n      swap1\n      0x00\n      mstore\n      keccak256(0x00, 0x20)\n      add\n      dup1\n      sload\n      tag_32\n      swap1\n      tag_33\n      jump\t// in\n    tag_32:\n      dup1\n      0x1f\n      add\n      0x20\n      dup1\n      swap2\n      div\n      mul\n      0x20\n      add\n      mload(0x40)\n      swap1\n      dup2\n      add\n      0x40\n      mstore\n      dup1\n      swap3\n      swap2\n      swap1\n      dup2\n      dup2\n      mstore\n      0x20\n      add\n      dup3\n      dup1\n      sload\n      tag_34\n      swap1\n      tag_33\n      jump\t// in\n    tag_34:\n      dup1\n      iszero\n      tag_35\n      jumpi\n      dup1\n      0x1f\n      lt\n      tag_36\n      jumpi\n      0x0100\n      dup1\n      dup4\n      sload\n      div\n      mul\n      dup4\n      mstore\n      swap2\n      0x20\n      add\n      swap2\n      jump(tag_35)\n    tag_36:\n      dup3\n      add\n      swap2\n      swap1\n      0x00\n      mstore\n      keccak256(0x00, 0x20)\n      swap1\n    tag_37:\n      dup2\n      sload\n      dup2\n      mstore\n      swap1\n      0x01\n      add\n      swap1\n      0x20\n      add\n      dup1\n      dup4\n      gt\n      tag_37\n      jumpi\n      dup3\n      swap1\n      sub\n      0x1f\n      and\n      dup3\n      add\n      swap2\n    tag_35:\n      pop\n      pop\n      pop\n      pop\n      pop\n      dup2\n      mstore\n      0x20\n      add\n      swap1\n      0x01\n      add\n      swap1\n      jump(tag_29)\n    tag_30:\n      pop\n      pop\n      pop\n      pop\n      swap1\n      pop\n        /* \"Maps/contracts/FavoriteRecords.sol\":898:1003  function getApprovedRecords() public view returns (string[] memory) {... */\n      swap1\n      jump\t// out\n        /* \"Maps/contracts/FavoriteRecords.sol\":1611:1878  function resetUserFavorites() public {... */\n    tag_13:\n        /* \"Maps/contracts/FavoriteRecords.sol\":1664:1670  uint i */\n      0x00\n        /* \"Maps/contracts/FavoriteRecords.sol\":1659:1824  for (uint i = 0; i<userFavoritesSets[msg.sender].length; i++) ... */\n    tag_39:\n        /* \"Maps/contracts/FavoriteRecords.sol\":1678:1695  userFavoritesSets */\n      0x03\n        /* \"Maps/contracts/FavoriteRecords.sol\":1678:1707  userFavoritesSets[msg.sender] */\n      0x00\n        /* \"Maps/contracts/FavoriteRecords.sol\":1696:1706  msg.sender */\n      caller\n        /* \"Maps/contracts/FavoriteRecords.sol\":1678:1707  userFavoritesSets[msg.sender] */\n      0xffffffffffffffffffffffffffffffffffffffff\n      and\n      0xffffffffffffffffffffffffffffffffffffffff\n      and\n      dup2\n      mstore\n      0x20\n      add\n      swap1\n      dup2\n      mstore\n      0x20\n      add\n      0x00\n      keccak256\n        /* \"Maps/contracts/FavoriteRecords.sol\":1678:1714  userFavoritesSets[msg.sender].length */\n      dup1\n      sload\n      swap1\n      pop\n        /* \"Maps/contracts/FavoriteRecords.sol\":1676:1677  i */\n      dup2\n        /* \"Maps/contracts/FavoriteRecords.sol\":1676:1714  i<userFavoritesSets[msg.sender].length */\n      lt\n        /* \"Maps/contracts/FavoriteRecords.sol\":1659:1824  for (uint i = 0; i<userFavoritesSets[msg.sender].length; i++) ... */\n      iszero\n      tag_40\n      jumpi\n        /* \"Maps/contracts/FavoriteRecords.sol\":1807:1812  false */\n      0x00\n        /* \"Maps/contracts/FavoriteRecords.sol\":1745:1758  userFavorites */\n      0x02\n        /* \"Maps/contracts/FavoriteRecords.sol\":1745:1770  userFavorites[msg.sender] */\n      0x00\n        /* \"Maps/contracts/FavoriteRecords.sol\":1759:1769  msg.sender */\n      caller\n        /* \"Maps/contracts/FavoriteRecords.sol\":1745:1770  userFavorites[msg.sender] */\n      0xffffffffffffffffffffffffffffffffffffffff\n      and\n      0xffffffffffffffffffffffffffffffffffffffff\n      and\n      dup2\n      mstore\n      0x20\n      add\n      swap1\n      dup2\n      mstore\n      0x20\n      add\n      0x00\n      keccak256\n        /* \"Maps/contracts/FavoriteRecords.sol\":1771:1788  userFavoritesSets */\n      0x03\n        /* \"Maps/contracts/FavoriteRecords.sol\":1771:1800  userFavoritesSets[msg.sender] */\n      0x00\n        /* \"Maps/contracts/FavoriteRecords.sol\":1789:1799  msg.sender */\n      caller\n        /* \"Maps/contracts/FavoriteRecords.sol\":1771:1800  userFavoritesSets[msg.sender] */\n      0xffffffffffffffffffffffffffffffffffffffff\n      and\n      0xffffffffffffffffffffffffffffffffffffffff\n      and\n      dup2\n      mstore\n      0x20\n      add\n      swap1\n      dup2\n      mstore\n      0x20\n      add\n      0x00\n      keccak256\n        /* \"Maps/contracts/FavoriteRecords.sol\":1801:1802  i */\n      dup4\n        /* \"Maps/contracts/FavoriteRecords.sol\":1771:1803  userFavoritesSets[msg.sender][i] */\n      dup2\n      sload\n      dup2\n      lt\n      tag_42\n      jumpi\n      tag_43\n      tag_44\n      jump\t// in\n    tag_43:\n    tag_42:\n      swap1\n      0x00\n      mstore\n      keccak256(0x00, 0x20)\n      add\n        /* \"Maps/contracts/FavoriteRecords.sol\":1745:1804  userFavorites[msg.sender][userFavoritesSets[msg.sender][i]] */\n      mload(0x40)\n      tag_46\n      swap2\n      swap1\n      tag_47\n      jump\t// in\n    tag_46:\n      swap1\n      dup2\n      mstore\n      0x20\n      add\n      mload(0x40)\n      dup1\n      swap2\n      sub\n      swap1\n      keccak256\n      0x00\n        /* \"Maps/contracts/FavoriteRecords.sol\":1745:1812  userFavorites[msg.sender][userFavoritesSets[msg.sender][i]] = false */\n      0x0100\n      exp\n      dup2\n      sload\n      dup2\n      0xff\n      mul\n      not\n      and\n      swap1\n      dup4\n      iszero\n      iszero\n      mul\n      or\n      swap1\n      sstore\n      pop\n        /* \"Maps/contracts/FavoriteRecords.sol\":1716:1719  i++ */\n      dup1\n      dup1\n      tag_48\n      swap1\n      tag_49\n      jump\t// in\n    tag_48:\n      swap2\n      pop\n      pop\n        /* \"Maps/contracts/FavoriteRecords.sol\":1659:1824  for (uint i = 0; i<userFavoritesSets[msg.sender].length; i++) ... */\n      jump(tag_39)\n    tag_40:\n      pop\n        /* \"Maps/contracts/FavoriteRecords.sol\":1841:1858  userFavoritesSets */\n      0x03\n        /* \"Maps/contracts/FavoriteRecords.sol\":1841:1870  userFavoritesSets[msg.sender] */\n      0x00\n        /* \"Maps/contracts/FavoriteRecords.sol\":1859:1869  msg.sender */\n      caller\n        /* \"Maps/contracts/FavoriteRecords.sol\":1841:1870  userFavoritesSets[msg.sender] */\n      0xffffffffffffffffffffffffffffffffffffffff\n      and\n      0xffffffffffffffffffffffffffffffffffffffff\n      and\n      dup2\n      mstore\n      0x20\n      add\n      swap1\n      dup2\n      mstore\n      0x20\n      add\n      0x00\n      keccak256\n      0x00\n        /* \"Maps/contracts/FavoriteRecords.sol\":1834:1870  delete userFavoritesSets[msg.sender] */\n      tag_50\n      swap2\n      swap1\n      tag_51\n      jump\t// in\n    tag_50:\n        /* \"Maps/contracts/FavoriteRecords.sol\":1611:1878  function resetUserFavorites() public {... */\n      jump\t// out\n        /* \"Maps/contracts/FavoriteRecords.sol\":174:220  mapping(string => bool) public approvedRecords */\n    tag_17:\n      0x00\n      dup2\n      dup1\n      mload\n      0x20\n      dup2\n      add\n      dup3\n      add\n      dup1\n      mload\n      dup5\n      dup3\n      mstore\n      0x20\n      dup4\n      add\n      0x20\n      dup6\n      add\n      keccak256\n      dup2\n      dup4\n      mstore\n      dup1\n      swap6\n      pop\n      pop\n      pop\n      pop\n      pop\n      pop\n      0x00\n      swap2\n      pop\n      sload\n      swap1\n      0x0100\n      exp\n      swap1\n      div\n      0xff\n      and\n      dup2\n      jump\t// out\n        /* \"Maps/contracts/FavoriteRecords.sol\":1469:1604  function getUserFavorites(address _address) public view returns (string[] memory) {... */\n    tag_23:\n        /* \"Maps/contracts/FavoriteRecords.sol\":1534:1549  string[] memory */\n      0x60\n        /* \"Maps/contracts/FavoriteRecords.sol\":1569:1586  userFavoritesSets */\n      0x03\n        /* \"Maps/contracts/FavoriteRecords.sol\":1569:1596  userFavoritesSets[_address] */\n      0x00\n        /* \"Maps/contracts/FavoriteRecords.sol\":1587:1595  _address */\n      dup4\n        /* \"Maps/contracts/FavoriteRecords.sol\":1569:1596  userFavoritesSets[_address] */\n      0xffffffffffffffffffffffffffffffffffffffff\n      and\n      0xffffffffffffffffffffffffffffffffffffffff\n      and\n      dup2\n      mstore\n      0x20\n      add\n      swap1\n      dup2\n      mstore\n      0x20\n      add\n      0x00\n      keccak256\n        /* \"Maps/contracts/FavoriteRecords.sol\":1562:1596  return userFavoritesSets[_address] */\n      dup1\n      sload\n      dup1\n      0x20\n      mul\n      0x20\n      add\n      mload(0x40)\n      swap1\n      dup2\n      add\n      0x40\n      mstore\n      dup1\n      swap3\n      swap2\n      swap1\n      dup2\n      dup2\n      mstore\n      0x20\n      add\n      0x00\n      swap1\n    tag_53:\n      dup3\n      dup3\n      lt\n      iszero\n      tag_54\n      jumpi\n      dup4\n      dup3\n      swap1\n      0x00\n      mstore\n      keccak256(0x00, 0x20)\n      add\n      dup1\n      sload\n      tag_56\n      swap1\n      tag_33\n      jump\t// in\n    tag_56:\n      dup1\n      0x1f\n      add\n      0x20\n      dup1\n      swap2\n      div\n      mul\n      0x20\n      add\n      mload(0x40)\n      swap1\n      dup2\n      add\n      0x40\n      mstore\n      dup1\n      swap3\n      swap2\n      swap1\n      dup2\n      dup2\n      mstore\n      0x20\n      add\n      dup3\n      dup1\n      sload\n      tag_57\n      swap1\n      tag_33\n      jump\t// in\n    tag_57:\n      dup1\n      iszero\n      tag_58\n      jumpi\n      dup1\n      0x1f\n      lt\n      tag_59\n      jumpi\n      0x0100\n      dup1\n      dup4\n      sload\n      div\n      mul\n      dup4\n      mstore\n      swap2\n      0x20\n      add\n      swap2\n      jump(tag_58)\n    tag_59:\n      dup3\n      add\n      swap2\n      swap1\n      0x00\n      mstore\n      keccak256(0x00, 0x20)\n      swap1\n    tag_60:\n      dup2\n      sload\n      dup2\n      mstore\n      swap1\n      0x01\n      add\n      swap1\n      0x20\n      add\n      dup1\n      dup4\n      gt\n      tag_60\n      jumpi\n      dup3\n      swap1\n      sub\n      0x1f\n      and\n      dup3\n      add\n      swap2\n    tag_58:\n      pop\n      pop\n      pop\n      pop\n      pop\n      dup2\n      mstore\n      0x20\n      add\n      swap1\n      0x01\n      add\n      swap1\n      jump(tag_53)\n    tag_54:\n      pop\n      pop\n      pop\n      pop\n      swap1\n      pop\n        /* \"Maps/contracts/FavoriteRecords.sol\":1469:1604  function getUserFavorites(address _address) public view returns (string[] memory) {... */\n      swap2\n      swap1\n      pop\n      jump\t// out\n        /* \"Maps/contracts/FavoriteRecords.sol\":1099:1462  function addRecord(string memory _album) public {... */\n    tag_27:\n        /* \"Maps/contracts/FavoriteRecords.sol\":1188:1193  false */\n      0x00\n        /* \"Maps/contracts/FavoriteRecords.sol\":1161:1193  approvedRecords[_album] == false */\n      iszero\n      iszero\n        /* \"Maps/contracts/FavoriteRecords.sol\":1161:1176  approvedRecords */\n      0x00\n        /* \"Maps/contracts/FavoriteRecords.sol\":1177:1183  _album */\n      dup3\n        /* \"Maps/contracts/FavoriteRecords.sol\":1161:1184  approvedRecords[_album] */\n      mload(0x40)\n      tag_62\n      swap2\n      swap1\n      tag_63\n      jump\t// in\n    tag_62:\n      swap1\n      dup2\n      mstore\n      0x20\n      add\n      mload(0x40)\n      dup1\n      swap2\n      sub\n      swap1\n      keccak256\n      0x00\n      swap1\n      sload\n      swap1\n      0x0100\n      exp\n      swap1\n      div\n      0xff\n      and\n        /* \"Maps/contracts/FavoriteRecords.sol\":1161:1193  approvedRecords[_album] == false */\n      iszero\n      iszero\n      sub\n        /* \"Maps/contracts/FavoriteRecords.sol\":1158:1248  if(approvedRecords[_album] == false) {... */\n      tag_64\n      jumpi\n        /* \"Maps/contracts/FavoriteRecords.sol\":1229:1235  _album */\n      dup1\n        /* \"Maps/contracts/FavoriteRecords.sol\":1217:1236  NotApproved(_album) */\n      mload(0x40)\n      0x4f0ffc1b00000000000000000000000000000000000000000000000000000000\n      dup2\n      mstore\n      0x04\n      add\n      tag_65\n      swap2\n      swap1\n      tag_66\n      jump\t// in\n    tag_65:\n      mload(0x40)\n      dup1\n      swap2\n      sub\n      swap1\n      revert\n        /* \"Maps/contracts/FavoriteRecords.sol\":1158:1248  if(approvedRecords[_album] == false) {... */\n    tag_64:\n        /* \"Maps/contracts/FavoriteRecords.sol\":1261:1274  userFavorites */\n      0x02\n        /* \"Maps/contracts/FavoriteRecords.sol\":1261:1286  userFavorites[msg.sender] */\n      0x00\n        /* \"Maps/contracts/FavoriteRecords.sol\":1275:1285  msg.sender */\n      caller\n        /* \"Maps/contracts/FavoriteRecords.sol\":1261:1286  userFavorites[msg.sender] */\n      0xffffffffffffffffffffffffffffffffffffffff\n      and\n      0xffffffffffffffffffffffffffffffffffffffff\n      and\n      dup2\n      mstore\n      0x20\n      add\n      swap1\n      dup2\n      mstore\n      0x20\n      add\n      0x00\n      keccak256\n        /* \"Maps/contracts/FavoriteRecords.sol\":1287:1293  _album */\n      dup2\n        /* \"Maps/contracts/FavoriteRecords.sol\":1261:1294  userFavorites[msg.sender][_album] */\n      mload(0x40)\n      tag_67\n      swap2\n      swap1\n      tag_63\n      jump\t// in\n    tag_67:\n      swap1\n      dup2\n      mstore\n      0x20\n      add\n      mload(0x40)\n      dup1\n      swap2\n      sub\n      swap1\n      keccak256\n      0x00\n      swap1\n      sload\n      swap1\n      0x0100\n      exp\n      swap1\n      div\n      0xff\n      and\n        /* \"Maps/contracts/FavoriteRecords.sol\":1258:1353  if(userFavorites[msg.sender][_album]) {... */\n      iszero\n      tag_68\n      jumpi\n        /* \"Maps/contracts/FavoriteRecords.sol\":1334:1340  _album */\n      dup1\n        /* \"Maps/contracts/FavoriteRecords.sol\":1318:1341  AlreadyFavorite(_album) */\n      mload(0x40)\n      0x6a47082d00000000000000000000000000000000000000000000000000000000\n      dup2\n      mstore\n      0x04\n      add\n      tag_69\n      swap2\n      swap1\n      tag_66\n      jump\t// in\n    tag_69:\n      mload(0x40)\n      dup1\n      swap2\n      sub\n      swap1\n      revert\n        /* \"Maps/contracts/FavoriteRecords.sol\":1258:1353  if(userFavorites[msg.sender][_album]) {... */\n    tag_68:\n        /* \"Maps/contracts/FavoriteRecords.sol\":1398:1402  true */\n      0x01\n        /* \"Maps/contracts/FavoriteRecords.sol\":1362:1375  userFavorites */\n      0x02\n        /* \"Maps/contracts/FavoriteRecords.sol\":1362:1387  userFavorites[msg.sender] */\n      0x00\n        /* \"Maps/contracts/FavoriteRecords.sol\":1376:1386  msg.sender */\n      caller\n        /* \"Maps/contracts/FavoriteRecords.sol\":1362:1387  userFavorites[msg.sender] */\n      0xffffffffffffffffffffffffffffffffffffffff\n      and\n      0xffffffffffffffffffffffffffffffffffffffff\n      and\n      dup2\n      mstore\n      0x20\n      add\n      swap1\n      dup2\n      mstore\n      0x20\n      add\n      0x00\n      keccak256\n        /* \"Maps/contracts/FavoriteRecords.sol\":1388:1394  _album */\n      dup3\n        /* \"Maps/contracts/FavoriteRecords.sol\":1362:1395  userFavorites[msg.sender][_album] */\n      mload(0x40)\n      tag_70\n      swap2\n      swap1\n      tag_63\n      jump\t// in\n    tag_70:\n      swap1\n      dup2\n      mstore\n      0x20\n      add\n      mload(0x40)\n      dup1\n      swap2\n      sub\n      swap1\n      keccak256\n      0x00\n        /* \"Maps/contracts/FavoriteRecords.sol\":1362:1402  userFavorites[msg.sender][_album] = true */\n      0x0100\n      exp\n      dup2\n      sload\n      dup2\n      0xff\n      mul\n      not\n      and\n      swap1\n      dup4\n      iszero\n      iszero\n      mul\n      or\n      swap1\n      sstore\n      pop\n        /* \"Maps/contracts/FavoriteRecords.sol\":1412:1429  userFavoritesSets */\n      0x03\n        /* \"Maps/contracts/FavoriteRecords.sol\":1412:1441  userFavoritesSets[msg.sender] */\n      0x00\n        /* \"Maps/contracts/FavoriteRecords.sol\":1430:1440  msg.sender */\n      caller\n        /* \"Maps/contracts/FavoriteRecords.sol\":1412:1441  userFavoritesSets[msg.sender] */\n      0xffffffffffffffffffffffffffffffffffffffff\n      and\n      0xffffffffffffffffffffffffffffffffffffffff\n      and\n      dup2\n      mstore\n      0x20\n      add\n      swap1\n      dup2\n      mstore\n      0x20\n      add\n      0x00\n      keccak256\n        /* \"Maps/contracts/FavoriteRecords.sol\":1447:1453  _album */\n      dup2\n        /* \"Maps/contracts/FavoriteRecords.sol\":1412:1454  userFavoritesSets[msg.sender].push(_album) */\n      swap1\n      dup1\n      0x01\n      dup2\n      sload\n      add\n      dup1\n      dup3\n      sstore\n      dup1\n      swap2\n      pop\n      pop\n      0x01\n      swap1\n      sub\n      swap1\n      0x00\n      mstore\n      keccak256(0x00, 0x20)\n      add\n      0x00\n      swap1\n      swap2\n      swap1\n      swap2\n      swap1\n      swap2\n      pop\n      swap1\n      dup2\n      tag_72\n      swap2\n      swap1\n      tag_73\n      jump\t// in\n    tag_72:\n      pop\n        /* \"Maps/contracts/FavoriteRecords.sol\":1099:1462  function addRecord(string memory _album) public {... */\n      pop\n      jump\t// out\n    tag_51:\n      pop\n      dup1\n      sload\n      0x00\n      dup3\n      sstore\n      swap1\n      0x00\n      mstore\n      keccak256(0x00, 0x20)\n      swap1\n      dup2\n      add\n      swap1\n      tag_75\n      swap2\n      swap1\n      tag_76\n      jump\t// in\n    tag_75:\n      pop\n      jump\t// out\n    tag_76:\n    tag_77:\n      dup1\n      dup3\n      gt\n      iszero\n      tag_78\n      jumpi\n      0x00\n      dup2\n      dup2\n      tag_79\n      swap2\n      swap1\n      tag_80\n      jump\t// in\n    tag_79:\n      pop\n      0x01\n      add\n      jump(tag_77)\n    tag_78:\n      pop\n      swap1\n      jump\t// out\n    tag_80:\n      pop\n      dup1\n      sload\n      tag_81\n      swap1\n      tag_33\n      jump\t// in\n    tag_81:\n      0x00\n      dup3\n      sstore\n      dup1\n      0x1f\n      lt\n      tag_83\n      jumpi\n      pop\n      jump(tag_82)\n    tag_83:\n      0x1f\n      add\n      0x20\n      swap1\n      div\n      swap1\n      0x00\n      mstore\n      keccak256(0x00, 0x20)\n      swap1\n      dup2\n      add\n      swap1\n      tag_84\n      swap2\n      swap1\n      tag_85\n      jump\t// in\n    tag_84:\n    tag_82:\n      pop\n      jump\t// out\n    tag_85:\n    tag_86:\n      dup1\n      dup3\n      gt\n      iszero\n      tag_87\n      jumpi\n      0x00\n      dup2\n      0x00\n      swap1\n      sstore\n      pop\n      0x01\n      add\n      jump(tag_86)\n    tag_87:\n      pop\n      swap1\n      jump\t// out\n        /* \"#utility.yul\":7:131   */\n    tag_88:\n        /* \"#utility.yul\":84:90   */\n      0x00\n        /* \"#utility.yul\":118:123   */\n      dup2\n        /* \"#utility.yul\":112:124   */\n      mload\n        /* \"#utility.yul\":102:124   */\n      swap1\n      pop\n        /* \"#utility.yul\":7:131   */\n      swap2\n      swap1\n      pop\n      jump\t// out\n        /* \"#utility.yul\":137:331   */\n    tag_89:\n        /* \"#utility.yul\":246:257   */\n      0x00\n        /* \"#utility.yul\":280:286   */\n      dup3\n        /* \"#utility.yul\":275:278   */\n      dup3\n        /* \"#utility.yul\":268:287   */\n      mstore\n        /* \"#utility.yul\":320:324   */\n      0x20\n        /* \"#utility.yul\":315:318   */\n      dup3\n        /* \"#utility.yul\":311:325   */\n      add\n        /* \"#utility.yul\":296:325   */\n      swap1\n      pop\n        /* \"#utility.yul\":137:331   */\n      swap3\n      swap2\n      pop\n      pop\n      jump\t// out\n        /* \"#utility.yul\":337:479   */\n    tag_90:\n        /* \"#utility.yul\":414:418   */\n      0x00\n        /* \"#utility.yul\":437:440   */\n      dup2\n        /* \"#utility.yul\":429:440   */\n      swap1\n      pop\n        /* \"#utility.yul\":467:471   */\n      0x20\n        /* \"#utility.yul\":462:465   */\n      dup3\n        /* \"#utility.yul\":458:472   */\n      add\n        /* \"#utility.yul\":450:472   */\n      swap1\n      pop\n        /* \"#utility.yul\":337:479   */\n      swap2\n      swap1\n      pop\n      jump\t// out\n        /* \"#utility.yul\":485:584   */\n    tag_91:\n        /* \"#utility.yul\":537:543   */\n      0x00\n        /* \"#utility.yul\":571:576   */\n      dup2\n        /* \"#utility.yul\":565:577   */\n      mload\n        /* \"#utility.yul\":555:577   */\n      swap1\n      pop\n        /* \"#utility.yul\":485:584   */\n      swap2\n      swap1\n      pop\n      jump\t// out\n        /* \"#utility.yul\":590:749   */\n    tag_92:\n        /* \"#utility.yul\":664:675   */\n      0x00\n        /* \"#utility.yul\":698:704   */\n      dup3\n        /* \"#utility.yul\":693:696   */\n      dup3\n        /* \"#utility.yul\":686:705   */\n      mstore\n        /* \"#utility.yul\":738:742   */\n      0x20\n        /* \"#utility.yul\":733:736   */\n      dup3\n        /* \"#utility.yul\":729:743   */\n      add\n        /* \"#utility.yul\":714:743   */\n      swap1\n      pop\n        /* \"#utility.yul\":590:749   */\n      swap3\n      swap2\n      pop\n      pop\n      jump\t// out\n        /* \"#utility.yul\":755:1001   */\n    tag_93:\n        /* \"#utility.yul\":836:837   */\n      0x00\n        /* \"#utility.yul\":846:959   */\n    tag_147:\n        /* \"#utility.yul\":860:866   */\n      dup4\n        /* \"#utility.yul\":857:858   */\n      dup2\n        /* \"#utility.yul\":854:867   */\n      lt\n        /* \"#utility.yul\":846:959   */\n      iszero\n      tag_149\n      jumpi\n        /* \"#utility.yul\":945:946   */\n      dup1\n        /* \"#utility.yul\":940:943   */\n      dup3\n        /* \"#utility.yul\":936:947   */\n      add\n        /* \"#utility.yul\":930:948   */\n      mload\n        /* \"#utility.yul\":926:927   */\n      dup2\n        /* \"#utility.yul\":921:924   */\n      dup5\n        /* \"#utility.yul\":917:928   */\n      add\n        /* \"#utility.yul\":910:949   */\n      mstore\n        /* \"#utility.yul\":882:884   */\n      0x20\n        /* \"#utility.yul\":879:880   */\n      dup2\n        /* \"#utility.yul\":875:885   */\n      add\n        /* \"#utility.yul\":870:885   */\n      swap1\n      pop\n        /* \"#utility.yul\":846:959   */\n      jump(tag_147)\n    tag_149:\n        /* \"#utility.yul\":993:994   */\n      0x00\n        /* \"#utility.yul\":984:990   */\n      dup5\n        /* \"#utility.yul\":979:982   */\n      dup5\n        /* \"#utility.yul\":975:991   */\n      add\n        /* \"#utility.yul\":968:995   */\n      mstore\n        /* \"#utility.yul\":817:1001   */\n      pop\n        /* \"#utility.yul\":755:1001   */\n      pop\n      pop\n      pop\n      jump\t// out\n        /* \"#utility.yul\":1007:1109   */\n    tag_94:\n        /* \"#utility.yul\":1048:1054   */\n      0x00\n        /* \"#utility.yul\":1099:1101   */\n      0x1f\n        /* \"#utility.yul\":1095:1102   */\n      not\n        /* \"#utility.yul\":1090:1092   */\n      0x1f\n        /* \"#utility.yul\":1083:1088   */\n      dup4\n        /* \"#utility.yul\":1079:1093   */\n      add\n        /* \"#utility.yul\":1075:1103   */\n      and\n        /* \"#utility.yul\":1065:1103   */\n      swap1\n      pop\n        /* \"#utility.yul\":1007:1109   */\n      swap2\n      swap1\n      pop\n      jump\t// out\n        /* \"#utility.yul\":1115:1472   */\n    tag_95:\n        /* \"#utility.yul\":1193:1196   */\n      0x00\n        /* \"#utility.yul\":1221:1260   */\n      tag_152\n        /* \"#utility.yul\":1254:1259   */\n      dup3\n        /* \"#utility.yul\":1221:1260   */\n      tag_91\n      jump\t// in\n    tag_152:\n        /* \"#utility.yul\":1276:1337   */\n      tag_153\n        /* \"#utility.yul\":1330:1336   */\n      dup2\n        /* \"#utility.yul\":1325:1328   */\n      dup6\n        /* \"#utility.yul\":1276:1337   */\n      tag_92\n      jump\t// in\n    tag_153:\n        /* \"#utility.yul\":1269:1337   */\n      swap4\n      pop\n        /* \"#utility.yul\":1346:1411   */\n      tag_154\n        /* \"#utility.yul\":1404:1410   */\n      dup2\n        /* \"#utility.yul\":1399:1402   */\n      dup6\n        /* \"#utility.yul\":1392:1396   */\n      0x20\n        /* \"#utility.yul\":1385:1390   */\n      dup7\n        /* \"#utility.yul\":1381:1397   */\n      add\n        /* \"#utility.yul\":1346:1411   */\n      tag_93\n      jump\t// in\n    tag_154:\n        /* \"#utility.yul\":1436:1465   */\n      tag_155\n        /* \"#utility.yul\":1458:1464   */\n      dup2\n        /* \"#utility.yul\":1436:1465   */\n      tag_94\n      jump\t// in\n    tag_155:\n        /* \"#utility.yul\":1431:1434   */\n      dup5\n        /* \"#utility.yul\":1427:1466   */\n      add\n        /* \"#utility.yul\":1420:1466   */\n      swap2\n      pop\n        /* \"#utility.yul\":1197:1472   */\n      pop\n        /* \"#utility.yul\":1115:1472   */\n      swap3\n      swap2\n      pop\n      pop\n      jump\t// out\n        /* \"#utility.yul\":1478:1674   */\n    tag_96:\n        /* \"#utility.yul\":1567:1577   */\n      0x00\n        /* \"#utility.yul\":1602:1668   */\n      tag_157\n        /* \"#utility.yul\":1664:1667   */\n      dup4\n        /* \"#utility.yul\":1656:1662   */\n      dup4\n        /* \"#utility.yul\":1602:1668   */\n      tag_95\n      jump\t// in\n    tag_157:\n        /* \"#utility.yul\":1588:1668   */\n      swap1\n      pop\n        /* \"#utility.yul\":1478:1674   */\n      swap3\n      swap2\n      pop\n      pop\n      jump\t// out\n        /* \"#utility.yul\":1680:1803   */\n    tag_97:\n        /* \"#utility.yul\":1760:1764   */\n      0x00\n        /* \"#utility.yul\":1792:1796   */\n      0x20\n        /* \"#utility.yul\":1787:1790   */\n      dup3\n        /* \"#utility.yul\":1783:1797   */\n      add\n        /* \"#utility.yul\":1775:1797   */\n      swap1\n      pop\n        /* \"#utility.yul\":1680:1803   */\n      swap2\n      swap1\n      pop\n      jump\t// out\n        /* \"#utility.yul\":1837:2828   */\n    tag_98:\n        /* \"#utility.yul\":1976:1979   */\n      0x00\n        /* \"#utility.yul\":2005:2069   */\n      tag_160\n        /* \"#utility.yul\":2063:2068   */\n      dup3\n        /* \"#utility.yul\":2005:2069   */\n      tag_88\n      jump\t// in\n    tag_160:\n        /* \"#utility.yul\":2085:2181   */\n      tag_161\n        /* \"#utility.yul\":2174:2180   */\n      dup2\n        /* \"#utility.yul\":2169:2172   */\n      dup6\n        /* \"#utility.yul\":2085:2181   */\n      tag_89\n      jump\t// in\n    tag_161:\n        /* \"#utility.yul\":2078:2181   */\n      swap4\n      pop\n        /* \"#utility.yul\":2207:2210   */\n      dup4\n        /* \"#utility.yul\":2252:2256   */\n      0x20\n        /* \"#utility.yul\":2244:2250   */\n      dup3\n        /* \"#utility.yul\":2240:2257   */\n      mul\n        /* \"#utility.yul\":2235:2238   */\n      dup6\n        /* \"#utility.yul\":2231:2258   */\n      add\n        /* \"#utility.yul\":2282:2348   */\n      tag_162\n        /* \"#utility.yul\":2342:2347   */\n      dup6\n        /* \"#utility.yul\":2282:2348   */\n      tag_90\n      jump\t// in\n    tag_162:\n        /* \"#utility.yul\":2371:2378   */\n      dup1\n        /* \"#utility.yul\":2402:2403   */\n      0x00\n        /* \"#utility.yul\":2387:2783   */\n    tag_163:\n        /* \"#utility.yul\":2412:2418   */\n      dup6\n        /* \"#utility.yul\":2409:2410   */\n      dup2\n        /* \"#utility.yul\":2406:2419   */\n      lt\n        /* \"#utility.yul\":2387:2783   */\n      iszero\n      tag_165\n      jumpi\n        /* \"#utility.yul\":2483:2492   */\n      dup5\n        /* \"#utility.yul\":2477:2481   */\n      dup5\n        /* \"#utility.yul\":2473:2493   */\n      sub\n        /* \"#utility.yul\":2468:2471   */\n      dup10\n        /* \"#utility.yul\":2461:2494   */\n      mstore\n        /* \"#utility.yul\":2534:2540   */\n      dup2\n        /* \"#utility.yul\":2528:2541   */\n      mload\n        /* \"#utility.yul\":2562:2646   */\n      tag_166\n        /* \"#utility.yul\":2641:2645   */\n      dup6\n        /* \"#utility.yul\":2626:2639   */\n      dup3\n        /* \"#utility.yul\":2562:2646   */\n      tag_96\n      jump\t// in\n    tag_166:\n        /* \"#utility.yul\":2554:2646   */\n      swap5\n      pop\n        /* \"#utility.yul\":2669:2739   */\n      tag_167\n        /* \"#utility.yul\":2732:2738   */\n      dup4\n        /* \"#utility.yul\":2669:2739   */\n      tag_97\n      jump\t// in\n    tag_167:\n        /* \"#utility.yul\":2659:2739   */\n      swap3\n      pop\n        /* \"#utility.yul\":2768:2772   */\n      0x20\n        /* \"#utility.yul\":2763:2766   */\n      dup11\n        /* \"#utility.yul\":2759:2773   */\n      add\n        /* \"#utility.yul\":2752:2773   */\n      swap10\n      pop\n        /* \"#utility.yul\":2447:2783   */\n      pop\n        /* \"#utility.yul\":2434:2435   */\n      0x01\n        /* \"#utility.yul\":2431:2432   */\n      dup2\n        /* \"#utility.yul\":2427:2436   */\n      add\n        /* \"#utility.yul\":2422:2436   */\n      swap1\n      pop\n        /* \"#utility.yul\":2387:2783   */\n      jump(tag_163)\n    tag_165:\n        /* \"#utility.yul\":2391:2405   */\n      pop\n        /* \"#utility.yul\":2799:2803   */\n      dup3\n        /* \"#utility.yul\":2792:2803   */\n      swap8\n      pop\n        /* \"#utility.yul\":2819:2822   */\n      dup8\n        /* \"#utility.yul\":2812:2822   */\n      swap6\n      pop\n        /* \"#utility.yul\":1981:2828   */\n      pop\n      pop\n      pop\n      pop\n      pop\n        /* \"#utility.yul\":1837:2828   */\n      swap3\n      swap2\n      pop\n      pop\n      jump\t// out\n        /* \"#utility.yul\":2834:3247   */\n    tag_11:\n        /* \"#utility.yul\":2997:3001   */\n      0x00\n        /* \"#utility.yul\":3035:3037   */\n      0x20\n        /* \"#utility.yul\":3024:3033   */\n      dup3\n        /* \"#utility.yul\":3020:3038   */\n      add\n        /* \"#utility.yul\":3012:3038   */\n      swap1\n      pop\n        /* \"#utility.yul\":3084:3093   */\n      dup2\n        /* \"#utility.yul\":3078:3082   */\n      dup2\n        /* \"#utility.yul\":3074:3094   */\n      sub\n        /* \"#utility.yul\":3070:3071   */\n      0x00\n        /* \"#utility.yul\":3059:3068   */\n      dup4\n        /* \"#utility.yul\":3055:3072   */\n      add\n        /* \"#utility.yul\":3048:3095   */\n      mstore\n        /* \"#utility.yul\":3112:3240   */\n      tag_169\n        /* \"#utility.yul\":3235:3239   */\n      dup2\n        /* \"#utility.yul\":3226:3232   */\n      dup5\n        /* \"#utility.yul\":3112:3240   */\n      tag_98\n      jump\t// in\n    tag_169:\n        /* \"#utility.yul\":3104:3240   */\n      swap1\n      pop\n        /* \"#utility.yul\":2834:3247   */\n      swap3\n      swap2\n      pop\n      pop\n      jump\t// out\n        /* \"#utility.yul\":3253:3328   */\n    tag_99:\n        /* \"#utility.yul\":3286:3292   */\n      0x00\n        /* \"#utility.yul\":3319:3321   */\n      0x40\n        /* \"#utility.yul\":3313:3322   */\n      mload\n        /* \"#utility.yul\":3303:3322   */\n      swap1\n      pop\n        /* \"#utility.yul\":3253:3328   */\n      swap1\n      jump\t// out\n        /* \"#utility.yul\":3334:3451   */\n    tag_100:\n        /* \"#utility.yul\":3443:3444   */\n      0x00\n        /* \"#utility.yul\":3440:3441   */\n      dup1\n        /* \"#utility.yul\":3433:3445   */\n      revert\n        /* \"#utility.yul\":3457:3574   */\n    tag_101:\n        /* \"#utility.yul\":3566:3567   */\n      0x00\n        /* \"#utility.yul\":3563:3564   */\n      dup1\n        /* \"#utility.yul\":3556:3568   */\n      revert\n        /* \"#utility.yul\":3580:3697   */\n    tag_102:\n        /* \"#utility.yul\":3689:3690   */\n      0x00\n        /* \"#utility.yul\":3686:3687   */\n      dup1\n        /* \"#utility.yul\":3679:3691   */\n      revert\n        /* \"#utility.yul\":3703:3820   */\n    tag_103:\n        /* \"#utility.yul\":3812:3813   */\n      0x00\n        /* \"#utility.yul\":3809:3810   */\n      dup1\n        /* \"#utility.yul\":3802:3814   */\n      revert\n        /* \"#utility.yul\":3826:4006   */\n    tag_104:\n        /* \"#utility.yul\":3874:3951   */\n      0x4e487b7100000000000000000000000000000000000000000000000000000000\n        /* \"#utility.yul\":3871:3872   */\n      0x00\n        /* \"#utility.yul\":3864:3952   */\n      mstore\n        /* \"#utility.yul\":3971:3975   */\n      0x41\n        /* \"#utility.yul\":3968:3969   */\n      0x04\n        /* \"#utility.yul\":3961:3976   */\n      mstore\n        /* \"#utility.yul\":3995:3999   */\n      0x24\n        /* \"#utility.yul\":3992:3993   */\n      0x00\n        /* \"#utility.yul\":3985:4000   */\n      revert\n        /* \"#utility.yul\":4012:4293   */\n    tag_105:\n        /* \"#utility.yul\":4095:4122   */\n      tag_177\n        /* \"#utility.yul\":4117:4121   */\n      dup3\n        /* \"#utility.yul\":4095:4122   */\n      tag_94\n      jump\t// in\n    tag_177:\n        /* \"#utility.yul\":4087:4093   */\n      dup2\n        /* \"#utility.yul\":4083:4123   */\n      add\n        /* \"#utility.yul\":4225:4231   */\n      dup2\n        /* \"#utility.yul\":4213:4223   */\n      dup2\n        /* \"#utility.yul\":4210:4232   */\n      lt\n        /* \"#utility.yul\":4189:4207   */\n      0xffffffffffffffff\n        /* \"#utility.yul\":4177:4187   */\n      dup3\n        /* \"#utility.yul\":4174:4208   */\n      gt\n        /* \"#utility.yul\":4171:4233   */\n      or\n        /* \"#utility.yul\":4168:4256   */\n      iszero\n      tag_178\n      jumpi\n        /* \"#utility.yul\":4236:4254   */\n      tag_179\n      tag_104\n      jump\t// in\n    tag_179:\n        /* \"#utility.yul\":4168:4256   */\n    tag_178:\n        /* \"#utility.yul\":4276:4286   */\n      dup1\n        /* \"#utility.yul\":4272:4274   */\n      0x40\n        /* \"#utility.yul\":4265:4287   */\n      mstore\n        /* \"#utility.yul\":4055:4293   */\n      pop\n        /* \"#utility.yul\":4012:4293   */\n      pop\n      pop\n      jump\t// out\n        /* \"#utility.yul\":4299:4428   */\n    tag_106:\n        /* \"#utility.yul\":4333:4339   */\n      0x00\n        /* \"#utility.yul\":4360:4380   */\n      tag_181\n      tag_99\n      jump\t// in\n    tag_181:\n        /* \"#utility.yul\":4350:4380   */\n      swap1\n      pop\n        /* \"#utility.yul\":4389:4422   */\n      tag_182\n        /* \"#utility.yul\":4417:4421   */\n      dup3\n        /* \"#utility.yul\":4409:4415   */\n      dup3\n        /* \"#utility.yul\":4389:4422   */\n      tag_105\n      jump\t// in\n    tag_182:\n        /* \"#utility.yul\":4299:4428   */\n      swap2\n      swap1\n      pop\n      jump\t// out\n        /* \"#utility.yul\":4434:4742   */\n    tag_107:\n        /* \"#utility.yul\":4496:4500   */\n      0x00\n        /* \"#utility.yul\":4586:4604   */\n      0xffffffffffffffff\n        /* \"#utility.yul\":4578:4584   */\n      dup3\n        /* \"#utility.yul\":4575:4605   */\n      gt\n        /* \"#utility.yul\":4572:4628   */\n      iszero\n      tag_184\n      jumpi\n        /* \"#utility.yul\":4608:4626   */\n      tag_185\n      tag_104\n      jump\t// in\n    tag_185:\n        /* \"#utility.yul\":4572:4628   */\n    tag_184:\n        /* \"#utility.yul\":4646:4675   */\n      tag_186\n        /* \"#utility.yul\":4668:4674   */\n      dup3\n        /* \"#utility.yul\":4646:4675   */\n      tag_94\n      jump\t// in\n    tag_186:\n        /* \"#utility.yul\":4638:4675   */\n      swap1\n      pop\n        /* \"#utility.yul\":4730:4734   */\n      0x20\n        /* \"#utility.yul\":4724:4728   */\n      dup2\n        /* \"#utility.yul\":4720:4735   */\n      add\n        /* \"#utility.yul\":4712:4735   */\n      swap1\n      pop\n        /* \"#utility.yul\":4434:4742   */\n      swap2\n      swap1\n      pop\n      jump\t// out\n        /* \"#utility.yul\":4748:4894   */\n    tag_108:\n        /* \"#utility.yul\":4845:4851   */\n      dup3\n        /* \"#utility.yul\":4840:4843   */\n      dup2\n        /* \"#utility.yul\":4835:4838   */\n      dup4\n        /* \"#utility.yul\":4822:4852   */\n      calldatacopy\n        /* \"#utility.yul\":4886:4887   */\n      0x00\n        /* \"#utility.yul\":4877:4883   */\n      dup4\n        /* \"#utility.yul\":4872:4875   */\n      dup4\n        /* \"#utility.yul\":4868:4884   */\n      add\n        /* \"#utility.yul\":4861:4888   */\n      mstore\n        /* \"#utility.yul\":4748:4894   */\n      pop\n      pop\n      pop\n      jump\t// out\n        /* \"#utility.yul\":4900:5325   */\n    tag_109:\n        /* \"#utility.yul\":4978:4983   */\n      0x00\n        /* \"#utility.yul\":5003:5069   */\n      tag_189\n        /* \"#utility.yul\":5019:5068   */\n      tag_190\n        /* \"#utility.yul\":5061:5067   */\n      dup5\n        /* \"#utility.yul\":5019:5068   */\n      tag_107\n      jump\t// in\n    tag_190:\n        /* \"#utility.yul\":5003:5069   */\n      tag_106\n      jump\t// in\n    tag_189:\n        /* \"#utility.yul\":4994:5069   */\n      swap1\n      pop\n        /* \"#utility.yul\":5092:5098   */\n      dup3\n        /* \"#utility.yul\":5085:5090   */\n      dup2\n        /* \"#utility.yul\":5078:5099   */\n      mstore\n        /* \"#utility.yul\":5130:5134   */\n      0x20\n        /* \"#utility.yul\":5123:5128   */\n      dup2\n        /* \"#utility.yul\":5119:5135   */\n      add\n        /* \"#utility.yul\":5168:5171   */\n      dup5\n        /* \"#utility.yul\":5159:5165   */\n      dup5\n        /* \"#utility.yul\":5154:5157   */\n      dup5\n        /* \"#utility.yul\":5150:5166   */\n      add\n        /* \"#utility.yul\":5147:5172   */\n      gt\n        /* \"#utility.yul\":5144:5256   */\n      iszero\n      tag_191\n      jumpi\n        /* \"#utility.yul\":5175:5254   */\n      tag_192\n      tag_103\n      jump\t// in\n    tag_192:\n        /* \"#utility.yul\":5144:5256   */\n    tag_191:\n        /* \"#utility.yul\":5265:5319   */\n      tag_193\n        /* \"#utility.yul\":5312:5318   */\n      dup5\n        /* \"#utility.yul\":5307:5310   */\n      dup3\n        /* \"#utility.yul\":5302:5305   */\n      dup6\n        /* \"#utility.yul\":5265:5319   */\n      tag_108\n      jump\t// in\n    tag_193:\n        /* \"#utility.yul\":4984:5325   */\n      pop\n        /* \"#utility.yul\":4900:5325   */\n      swap4\n      swap3\n      pop\n      pop\n      pop\n      jump\t// out\n        /* \"#utility.yul\":5345:5685   */\n    tag_110:\n        /* \"#utility.yul\":5401:5406   */\n      0x00\n        /* \"#utility.yul\":5450:5453   */\n      dup3\n        /* \"#utility.yul\":5443:5447   */\n      0x1f\n        /* \"#utility.yul\":5435:5441   */\n      dup4\n        /* \"#utility.yul\":5431:5448   */\n      add\n        /* \"#utility.yul\":5427:5454   */\n      slt\n        /* \"#utility.yul\":5417:5539   */\n      tag_195\n      jumpi\n        /* \"#utility.yul\":5458:5537   */\n      tag_196\n      tag_102\n      jump\t// in\n    tag_196:\n        /* \"#utility.yul\":5417:5539   */\n    tag_195:\n        /* \"#utility.yul\":5575:5581   */\n      dup2\n        /* \"#utility.yul\":5562:5582   */\n      calldataload\n        /* \"#utility.yul\":5600:5679   */\n      tag_197\n        /* \"#utility.yul\":5675:5678   */\n      dup5\n        /* \"#utility.yul\":5667:5673   */\n      dup3\n        /* \"#utility.yul\":5660:5664   */\n      0x20\n        /* \"#utility.yul\":5652:5658   */\n      dup7\n        /* \"#utility.yul\":5648:5665   */\n      add\n        /* \"#utility.yul\":5600:5679   */\n      tag_109\n      jump\t// in\n    tag_197:\n        /* \"#utility.yul\":5591:5679   */\n      swap2\n      pop\n        /* \"#utility.yul\":5407:5685   */\n      pop\n        /* \"#utility.yul\":5345:5685   */\n      swap3\n      swap2\n      pop\n      pop\n      jump\t// out\n        /* \"#utility.yul\":5691:6200   */\n    tag_16:\n        /* \"#utility.yul\":5760:5766   */\n      0x00\n        /* \"#utility.yul\":5809:5811   */\n      0x20\n        /* \"#utility.yul\":5797:5806   */\n      dup3\n        /* \"#utility.yul\":5788:5795   */\n      dup5\n        /* \"#utility.yul\":5784:5807   */\n      sub\n        /* \"#utility.yul\":5780:5812   */\n      slt\n        /* \"#utility.yul\":5777:5896   */\n      iszero\n      tag_199\n      jumpi\n        /* \"#utility.yul\":5815:5894   */\n      tag_200\n      tag_100\n      jump\t// in\n    tag_200:\n        /* \"#utility.yul\":5777:5896   */\n    tag_199:\n        /* \"#utility.yul\":5963:5964   */\n      0x00\n        /* \"#utility.yul\":5952:5961   */\n      dup3\n        /* \"#utility.yul\":5948:5965   */\n      add\n        /* \"#utility.yul\":5935:5966   */\n      calldataload\n        /* \"#utility.yul\":5993:6011   */\n      0xffffffffffffffff\n        /* \"#utility.yul\":5985:5991   */\n      dup2\n        /* \"#utility.yul\":5982:6012   */\n      gt\n        /* \"#utility.yul\":5979:6096   */\n      iszero\n      tag_201\n      jumpi\n        /* \"#utility.yul\":6015:6094   */\n      tag_202\n      tag_101\n      jump\t// in\n    tag_202:\n        /* \"#utility.yul\":5979:6096   */\n    tag_201:\n        /* \"#utility.yul\":6120:6183   */\n      tag_203\n        /* \"#utility.yul\":6175:6182   */\n      dup5\n        /* \"#utility.yul\":6166:6172   */\n      dup3\n        /* \"#utility.yul\":6155:6164   */\n      dup6\n        /* \"#utility.yul\":6151:6173   */\n      add\n        /* \"#utility.yul\":6120:6183   */\n      tag_110\n      jump\t// in\n    tag_203:\n        /* \"#utility.yul\":6110:6183   */\n      swap2\n      pop\n        /* \"#utility.yul\":5906:6193   */\n      pop\n        /* \"#utility.yul\":5691:6200   */\n      swap3\n      swap2\n      pop\n      pop\n      jump\t// out\n        /* \"#utility.yul\":6206:6296   */\n    tag_111:\n        /* \"#utility.yul\":6240:6247   */\n      0x00\n        /* \"#utility.yul\":6283:6288   */\n      dup2\n        /* \"#utility.yul\":6276:6289   */\n      iszero\n        /* \"#utility.yul\":6269:6290   */\n      iszero\n        /* \"#utility.yul\":6258:6290   */\n      swap1\n      pop\n        /* \"#utility.yul\":6206:6296   */\n      swap2\n      swap1\n      pop\n      jump\t// out\n        /* \"#utility.yul\":6302:6411   */\n    tag_112:\n        /* \"#utility.yul\":6383:6404   */\n      tag_206\n        /* \"#utility.yul\":6398:6403   */\n      dup2\n        /* \"#utility.yul\":6383:6404   */\n      tag_111\n      jump\t// in\n    tag_206:\n        /* \"#utility.yul\":6378:6381   */\n      dup3\n        /* \"#utility.yul\":6371:6405   */\n      mstore\n        /* \"#utility.yul\":6302:6411   */\n      pop\n      pop\n      jump\t// out\n        /* \"#utility.yul\":6417:6627   */\n    tag_19:\n        /* \"#utility.yul\":6504:6508   */\n      0x00\n        /* \"#utility.yul\":6542:6544   */\n      0x20\n        /* \"#utility.yul\":6531:6540   */\n      dup3\n        /* \"#utility.yul\":6527:6545   */\n      add\n        /* \"#utility.yul\":6519:6545   */\n      swap1\n      pop\n        /* \"#utility.yul\":6555:6620   */\n      tag_208\n        /* \"#utility.yul\":6617:6618   */\n      0x00\n        /* \"#utility.yul\":6606:6615   */\n      dup4\n        /* \"#utility.yul\":6602:6619   */\n      add\n        /* \"#utility.yul\":6593:6599   */\n      dup5\n        /* \"#utility.yul\":6555:6620   */\n      tag_112\n      jump\t// in\n    tag_208:\n        /* \"#utility.yul\":6417:6627   */\n      swap3\n      swap2\n      pop\n      pop\n      jump\t// out\n        /* \"#utility.yul\":6633:6759   */\n    tag_113:\n        /* \"#utility.yul\":6670:6677   */\n      0x00\n        /* \"#utility.yul\":6710:6752   */\n      0xffffffffffffffffffffffffffffffffffffffff\n        /* \"#utility.yul\":6703:6708   */\n      dup3\n        /* \"#utility.yul\":6699:6753   */\n      and\n        /* \"#utility.yul\":6688:6753   */\n      swap1\n      pop\n        /* \"#utility.yul\":6633:6759   */\n      swap2\n      swap1\n      pop\n      jump\t// out\n        /* \"#utility.yul\":6765:6861   */\n    tag_114:\n        /* \"#utility.yul\":6802:6809   */\n      0x00\n        /* \"#utility.yul\":6831:6855   */\n      tag_211\n        /* \"#utility.yul\":6849:6854   */\n      dup3\n        /* \"#utility.yul\":6831:6855   */\n      tag_113\n      jump\t// in\n    tag_211:\n        /* \"#utility.yul\":6820:6855   */\n      swap1\n      pop\n        /* \"#utility.yul\":6765:6861   */\n      swap2\n      swap1\n      pop\n      jump\t// out\n        /* \"#utility.yul\":6867:6989   */\n    tag_115:\n        /* \"#utility.yul\":6940:6964   */\n      tag_213\n        /* \"#utility.yul\":6958:6963   */\n      dup2\n        /* \"#utility.yul\":6940:6964   */\n      tag_114\n      jump\t// in\n    tag_213:\n        /* \"#utility.yul\":6933:6938   */\n      dup2\n        /* \"#utility.yul\":6930:6965   */\n      eq\n        /* \"#utility.yul\":6920:6983   */\n      tag_214\n      jumpi\n        /* \"#utility.yul\":6979:6980   */\n      0x00\n        /* \"#utility.yul\":6976:6977   */\n      dup1\n        /* \"#utility.yul\":6969:6981   */\n      revert\n        /* \"#utility.yul\":6920:6983   */\n    tag_214:\n        /* \"#utility.yul\":6867:6989   */\n      pop\n      jump\t// out\n        /* \"#utility.yul\":6995:7134   */\n    tag_116:\n        /* \"#utility.yul\":7041:7046   */\n      0x00\n        /* \"#utility.yul\":7079:7085   */\n      dup2\n        /* \"#utility.yul\":7066:7086   */\n      calldataload\n        /* \"#utility.yul\":7057:7086   */\n      swap1\n      pop\n        /* \"#utility.yul\":7095:7128   */\n      tag_216\n        /* \"#utility.yul\":7122:7127   */\n      dup2\n        /* \"#utility.yul\":7095:7128   */\n      tag_115\n      jump\t// in\n    tag_216:\n        /* \"#utility.yul\":6995:7134   */\n      swap3\n      swap2\n      pop\n      pop\n      jump\t// out\n        /* \"#utility.yul\":7140:7469   */\n    tag_22:\n        /* \"#utility.yul\":7199:7205   */\n      0x00\n        /* \"#utility.yul\":7248:7250   */\n      0x20\n        /* \"#utility.yul\":7236:7245   */\n      dup3\n        /* \"#utility.yul\":7227:7234   */\n      dup5\n        /* \"#utility.yul\":7223:7246   */\n      sub\n        /* \"#utility.yul\":7219:7251   */\n      slt\n        /* \"#utility.yul\":7216:7335   */\n      iszero\n      tag_218\n      jumpi\n        /* \"#utility.yul\":7254:7333   */\n      tag_219\n      tag_100\n      jump\t// in\n    tag_219:\n        /* \"#utility.yul\":7216:7335   */\n    tag_218:\n        /* \"#utility.yul\":7374:7375   */\n      0x00\n        /* \"#utility.yul\":7399:7452   */\n      tag_220\n        /* \"#utility.yul\":7444:7451   */\n      dup5\n        /* \"#utility.yul\":7435:7441   */\n      dup3\n        /* \"#utility.yul\":7424:7433   */\n      dup6\n        /* \"#utility.yul\":7420:7442   */\n      add\n        /* \"#utility.yul\":7399:7452   */\n      tag_116\n      jump\t// in\n    tag_220:\n        /* \"#utility.yul\":7389:7452   */\n      swap2\n      pop\n        /* \"#utility.yul\":7345:7462   */\n      pop\n        /* \"#utility.yul\":7140:7469   */\n      swap3\n      swap2\n      pop\n      pop\n      jump\t// out\n        /* \"#utility.yul\":7475:7655   */\n    tag_117:\n        /* \"#utility.yul\":7523:7600   */\n      0x4e487b7100000000000000000000000000000000000000000000000000000000\n        /* \"#utility.yul\":7520:7521   */\n      0x00\n        /* \"#utility.yul\":7513:7601   */\n      mstore\n        /* \"#utility.yul\":7620:7624   */\n      0x22\n        /* \"#utility.yul\":7617:7618   */\n      0x04\n        /* \"#utility.yul\":7610:7625   */\n      mstore\n        /* \"#utility.yul\":7644:7648   */\n      0x24\n        /* \"#utility.yul\":7641:7642   */\n      0x00\n        /* \"#utility.yul\":7634:7649   */\n      revert\n        /* \"#utility.yul\":7661:7981   */\n    tag_33:\n        /* \"#utility.yul\":7705:7711   */\n      0x00\n        /* \"#utility.yul\":7742:7743   */\n      0x02\n        /* \"#utility.yul\":7736:7740   */\n      dup3\n        /* \"#utility.yul\":7732:7744   */\n      div\n        /* \"#utility.yul\":7722:7744   */\n      swap1\n      pop\n        /* \"#utility.yul\":7789:7790   */\n      0x01\n        /* \"#utility.yul\":7783:7787   */\n      dup3\n        /* \"#utility.yul\":7779:7791   */\n      and\n        /* \"#utility.yul\":7810:7828   */\n      dup1\n        /* \"#utility.yul\":7800:7881   */\n      tag_223\n      jumpi\n        /* \"#utility.yul\":7866:7870   */\n      0x7f\n        /* \"#utility.yul\":7858:7864   */\n      dup3\n        /* \"#utility.yul\":7854:7871   */\n      and\n        /* \"#utility.yul\":7844:7871   */\n      swap2\n      pop\n        /* \"#utility.yul\":7800:7881   */\n    tag_223:\n        /* \"#utility.yul\":7928:7930   */\n      0x20\n        /* \"#utility.yul\":7920:7926   */\n      dup3\n        /* \"#utility.yul\":7917:7931   */\n      lt\n        /* \"#utility.yul\":7897:7915   */\n      dup2\n        /* \"#utility.yul\":7894:7932   */\n      sub\n        /* \"#utility.yul\":7891:7975   */\n      tag_224\n      jumpi\n        /* \"#utility.yul\":7947:7965   */\n      tag_225\n      tag_117\n      jump\t// in\n    tag_225:\n        /* \"#utility.yul\":7891:7975   */\n    tag_224:\n        /* \"#utility.yul\":7712:7981   */\n      pop\n        /* \"#utility.yul\":7661:7981   */\n      swap2\n      swap1\n      pop\n      jump\t// out\n        /* \"#utility.yul\":7987:8167   */\n    tag_44:\n        /* \"#utility.yul\":8035:8112   */\n      0x4e487b7100000000000000000000000000000000000000000000000000000000\n        /* \"#utility.yul\":8032:8033   */\n      0x00\n        /* \"#utility.yul\":8025:8113   */\n      mstore\n        /* \"#utility.yul\":8132:8136   */\n      0x32\n        /* \"#utility.yul\":8129:8130   */\n      0x04\n        /* \"#utility.yul\":8122:8137   */\n      mstore\n        /* \"#utility.yul\":8156:8160   */\n      0x24\n        /* \"#utility.yul\":8153:8154   */\n      0x00\n        /* \"#utility.yul\":8146:8161   */\n      revert\n        /* \"#utility.yul\":8173:8321   */\n    tag_118:\n        /* \"#utility.yul\":8275:8286   */\n      0x00\n        /* \"#utility.yul\":8312:8315   */\n      dup2\n        /* \"#utility.yul\":8297:8315   */\n      swap1\n      pop\n        /* \"#utility.yul\":8173:8321   */\n      swap3\n      swap2\n      pop\n      pop\n      jump\t// out\n        /* \"#utility.yul\":8327:8468   */\n    tag_119:\n        /* \"#utility.yul\":8376:8380   */\n      0x00\n        /* \"#utility.yul\":8399:8402   */\n      dup2\n        /* \"#utility.yul\":8391:8402   */\n      swap1\n      pop\n        /* \"#utility.yul\":8422:8425   */\n      dup2\n        /* \"#utility.yul\":8419:8420   */\n      0x00\n        /* \"#utility.yul\":8412:8426   */\n      mstore\n        /* \"#utility.yul\":8456:8460   */\n      0x20\n        /* \"#utility.yul\":8453:8454   */\n      0x00\n        /* \"#utility.yul\":8443:8461   */\n      keccak256\n        /* \"#utility.yul\":8435:8461   */\n      swap1\n      pop\n        /* \"#utility.yul\":8327:8468   */\n      swap2\n      swap1\n      pop\n      jump\t// out\n        /* \"#utility.yul\":8498:9372   */\n    tag_120:\n        /* \"#utility.yul\":8601:8604   */\n      0x00\n        /* \"#utility.yul\":8638:8643   */\n      dup2\n        /* \"#utility.yul\":8632:8644   */\n      sload\n        /* \"#utility.yul\":8667:8703   */\n      tag_230\n        /* \"#utility.yul\":8693:8702   */\n      dup2\n        /* \"#utility.yul\":8667:8703   */\n      tag_33\n      jump\t// in\n    tag_230:\n        /* \"#utility.yul\":8719:8808   */\n      tag_231\n        /* \"#utility.yul\":8801:8807   */\n      dup2\n        /* \"#utility.yul\":8796:8799   */\n      dup7\n        /* \"#utility.yul\":8719:8808   */\n      tag_118\n      jump\t// in\n    tag_231:\n        /* \"#utility.yul\":8712:8808   */\n      swap5\n      pop\n        /* \"#utility.yul\":8839:8840   */\n      0x01\n        /* \"#utility.yul\":8828:8837   */\n      dup3\n        /* \"#utility.yul\":8824:8841   */\n      and\n        /* \"#utility.yul\":8855:8856   */\n      0x00\n        /* \"#utility.yul\":8850:9016   */\n      dup2\n      eq\n      tag_233\n      jumpi\n        /* \"#utility.yul\":9030:9031   */\n      0x01\n        /* \"#utility.yul\":9025:9366   */\n      dup2\n      eq\n      tag_234\n      jumpi\n        /* \"#utility.yul\":8817:9366   */\n      jump(tag_232)\n        /* \"#utility.yul\":8850:9016   */\n    tag_233:\n        /* \"#utility.yul\":8934:8938   */\n      0xff\n        /* \"#utility.yul\":8930:8939   */\n      not\n        /* \"#utility.yul\":8919:8928   */\n      dup4\n        /* \"#utility.yul\":8915:8940   */\n      and\n        /* \"#utility.yul\":8910:8913   */\n      dup7\n        /* \"#utility.yul\":8903:8941   */\n      mstore\n        /* \"#utility.yul\":8996:9002   */\n      dup2\n        /* \"#utility.yul\":8989:9003   */\n      iszero\n        /* \"#utility.yul\":8982:9004   */\n      iszero\n        /* \"#utility.yul\":8974:8980   */\n      dup3\n        /* \"#utility.yul\":8970:9005   */\n      mul\n        /* \"#utility.yul\":8965:8968   */\n      dup7\n        /* \"#utility.yul\":8961:9006   */\n      add\n        /* \"#utility.yul\":8954:9006   */\n      swap4\n      pop\n        /* \"#utility.yul\":8850:9016   */\n      jump(tag_232)\n        /* \"#utility.yul\":9025:9366   */\n    tag_234:\n        /* \"#utility.yul\":9092:9130   */\n      tag_235\n        /* \"#utility.yul\":9124:9129   */\n      dup6\n        /* \"#utility.yul\":9092:9130   */\n      tag_119\n      jump\t// in\n    tag_235:\n        /* \"#utility.yul\":9152:9153   */\n      0x00\n        /* \"#utility.yul\":9166:9320   */\n    tag_236:\n        /* \"#utility.yul\":9180:9186   */\n      dup4\n        /* \"#utility.yul\":9177:9178   */\n      dup2\n        /* \"#utility.yul\":9174:9187   */\n      lt\n        /* \"#utility.yul\":9166:9320   */\n      iszero\n      tag_238\n      jumpi\n        /* \"#utility.yul\":9254:9261   */\n      dup2\n        /* \"#utility.yul\":9248:9262   */\n      sload\n        /* \"#utility.yul\":9244:9245   */\n      dup2\n        /* \"#utility.yul\":9239:9242   */\n      dup10\n        /* \"#utility.yul\":9235:9246   */\n      add\n        /* \"#utility.yul\":9228:9263   */\n      mstore\n        /* \"#utility.yul\":9304:9305   */\n      0x01\n        /* \"#utility.yul\":9295:9302   */\n      dup3\n        /* \"#utility.yul\":9291:9306   */\n      add\n        /* \"#utility.yul\":9280:9306   */\n      swap2\n      pop\n        /* \"#utility.yul\":9202:9206   */\n      0x20\n        /* \"#utility.yul\":9199:9200   */\n      dup2\n        /* \"#utility.yul\":9195:9207   */\n      add\n        /* \"#utility.yul\":9190:9207   */\n      swap1\n      pop\n        /* \"#utility.yul\":9166:9320   */\n      jump(tag_236)\n    tag_238:\n        /* \"#utility.yul\":9349:9355   */\n      dup4\n        /* \"#utility.yul\":9344:9347   */\n      dup9\n        /* \"#utility.yul\":9340:9356   */\n      add\n        /* \"#utility.yul\":9333:9356   */\n      swap6\n      pop\n        /* \"#utility.yul\":9032:9366   */\n      pop\n      pop\n        /* \"#utility.yul\":8817:9366   */\n    tag_232:\n      pop\n        /* \"#utility.yul\":8605:9372   */\n      pop\n      pop\n        /* \"#utility.yul\":8498:9372   */\n      swap3\n      swap2\n      pop\n      pop\n      jump\t// out\n        /* \"#utility.yul\":9378:9647   */\n    tag_47:\n        /* \"#utility.yul\":9507:9510   */\n      0x00\n        /* \"#utility.yul\":9529:9621   */\n      tag_240\n        /* \"#utility.yul\":9617:9620   */\n      dup3\n        /* \"#utility.yul\":9608:9614   */\n      dup5\n        /* \"#utility.yul\":9529:9621   */\n      tag_120\n      jump\t// in\n    tag_240:\n        /* \"#utility.yul\":9522:9621   */\n      swap2\n      pop\n        /* \"#utility.yul\":9638:9641   */\n      dup2\n        /* \"#utility.yul\":9631:9641   */\n      swap1\n      pop\n        /* \"#utility.yul\":9378:9647   */\n      swap3\n      swap2\n      pop\n      pop\n      jump\t// out\n        /* \"#utility.yul\":9653:9833   */\n    tag_121:\n        /* \"#utility.yul\":9701:9778   */\n      0x4e487b7100000000000000000000000000000000000000000000000000000000\n        /* \"#utility.yul\":9698:9699   */\n      0x00\n        /* \"#utility.yul\":9691:9779   */\n      mstore\n        /* \"#utility.yul\":9798:9802   */\n      0x11\n        /* \"#utility.yul\":9795:9796   */\n      0x04\n        /* \"#utility.yul\":9788:9803   */\n      mstore\n        /* \"#utility.yul\":9822:9826   */\n      0x24\n        /* \"#utility.yul\":9819:9820   */\n      0x00\n        /* \"#utility.yul\":9812:9827   */\n      revert\n        /* \"#utility.yul\":9839:9916   */\n    tag_122:\n        /* \"#utility.yul\":9876:9883   */\n      0x00\n        /* \"#utility.yul\":9905:9910   */\n      dup2\n        /* \"#utility.yul\":9894:9910   */\n      swap1\n      pop\n        /* \"#utility.yul\":9839:9916   */\n      swap2\n      swap1\n      pop\n      jump\t// out\n        /* \"#utility.yul\":9922:10155   */\n    tag_49:\n        /* \"#utility.yul\":9961:9964   */\n      0x00\n        /* \"#utility.yul\":9984:10008   */\n      tag_244\n        /* \"#utility.yul\":10002:10007   */\n      dup3\n        /* \"#utility.yul\":9984:10008   */\n      tag_122\n      jump\t// in\n    tag_244:\n        /* \"#utility.yul\":9975:10008   */\n      swap2\n      pop\n        /* \"#utility.yul\":10030:10096   */\n      0xffffffffffffffffffffffffffffffffffffffffffffffffffffffffffffffff\n        /* \"#utility.yul\":10023:10028   */\n      dup3\n        /* \"#utility.yul\":10020:10097   */\n      sub\n        /* \"#utility.yul\":10017:10120   */\n      tag_245\n      jumpi\n        /* \"#utility.yul\":10100:10118   */\n      tag_246\n      tag_121\n      jump\t// in\n    tag_246:\n        /* \"#utility.yul\":10017:10120   */\n    tag_245:\n        /* \"#utility.yul\":10147:10148   */\n      0x01\n        /* \"#utility.yul\":10140:10145   */\n      dup3\n        /* \"#utility.yul\":10136:10149   */\n      add\n        /* \"#utility.yul\":10129:10149   */\n      swap1\n      pop\n        /* \"#utility.yul\":9922:10155   */\n      swap2\n      swap1\n      pop\n      jump\t// out\n        /* \"#utility.yul\":10161:10551   */\n    tag_123:\n        /* \"#utility.yul\":10267:10270   */\n      0x00\n        /* \"#utility.yul\":10295:10334   */\n      tag_248\n        /* \"#utility.yul\":10328:10333   */\n      dup3\n        /* \"#utility.yul\":10295:10334   */\n      tag_91\n      jump\t// in\n    tag_248:\n        /* \"#utility.yul\":10350:10439   */\n      tag_249\n        /* \"#utility.yul\":10432:10438   */\n      dup2\n        /* \"#utility.yul\":10427:10430   */\n      dup6\n        /* \"#utility.yul\":10350:10439   */\n      tag_118\n      jump\t// in\n    tag_249:\n        /* \"#utility.yul\":10343:10439   */\n      swap4\n      pop\n        /* \"#utility.yul\":10448:10513   */\n      tag_250\n        /* \"#utility.yul\":10506:10512   */\n      dup2\n        /* \"#utility.yul\":10501:10504   */\n      dup6\n        /* \"#utility.yul\":10494:10498   */\n      0x20\n        /* \"#utility.yul\":10487:10492   */\n      dup7\n        /* \"#utility.yul\":10483:10499   */\n      add\n        /* \"#utility.yul\":10448:10513   */\n      tag_93\n      jump\t// in\n    tag_250:\n        /* \"#utility.yul\":10538:10544   */\n      dup1\n        /* \"#utility.yul\":10533:10536   */\n      dup5\n        /* \"#utility.yul\":10529:10545   */\n      add\n        /* \"#utility.yul\":10522:10545   */\n      swap2\n      pop\n        /* \"#utility.yul\":10271:10551   */\n      pop\n        /* \"#utility.yul\":10161:10551   */\n      swap3\n      swap2\n      pop\n      pop\n      jump\t// out\n        /* \"#utility.yul\":10557:10832   */\n    tag_63:\n        /* \"#utility.yul\":10689:10692   */\n      0x00\n        /* \"#utility.yul\":10711:10806   */\n      tag_252\n        /* \"#utility.yul\":10802:10805   */\n      dup3\n        /* \"#utility.yul\":10793:10799   */\n      dup5\n        /* \"#utility.yul\":10711:10806   */\n      tag_123\n      jump\t// in\n    tag_252:\n        /* \"#utility.yul\":10704:10806   */\n      swap2\n      pop\n        /* \"#utility.yul\":10823:10826   */\n      dup2\n        /* \"#utility.yul\":10816:10826   */\n      swap1\n      pop\n        /* \"#utility.yul\":10557:10832   */\n      swap3\n      swap2\n      pop\n      pop\n      jump\t// out\n        /* \"#utility.yul\":10838:11007   */\n    tag_124:\n        /* \"#utility.yul\":10922:10933   */\n      0x00\n        /* \"#utility.yul\":10956:10962   */\n      dup3\n        /* \"#utility.yul\":10951:10954   */\n      dup3\n        /* \"#utility.yul\":10944:10963   */\n      mstore\n        /* \"#utility.yul\":10996:11000   */\n      0x20\n        /* \"#utility.yul\":10991:10994   */\n      dup3\n        /* \"#utility.yul\":10987:11001   */\n      add\n        /* \"#utility.yul\":10972:11001   */\n      swap1\n      pop\n        /* \"#utility.yul\":10838:11007   */\n      swap3\n      swap2\n      pop\n      pop\n      jump\t// out\n        /* \"#utility.yul\":11013:11390   */\n    tag_125:\n        /* \"#utility.yul\":11101:11104   */\n      0x00\n        /* \"#utility.yul\":11129:11168   */\n      tag_255\n        /* \"#utility.yul\":11162:11167   */\n      dup3\n        /* \"#utility.yul\":11129:11168   */\n      tag_91\n      jump\t// in\n    tag_255:\n        /* \"#utility.yul\":11184:11255   */\n      tag_256\n        /* \"#utility.yul\":11248:11254   */\n      dup2\n        /* \"#utility.yul\":11243:11246   */\n      dup6\n        /* \"#utility.yul\":11184:11255   */\n      tag_124\n      jump\t// in\n    tag_256:\n        /* \"#utility.yul\":11177:11255   */\n      swap4\n      pop\n        /* \"#utility.yul\":11264:11329   */\n      tag_257\n        /* \"#utility.yul\":11322:11328   */\n      dup2\n        /* \"#utility.yul\":11317:11320   */\n      dup6\n        /* \"#utility.yul\":11310:11314   */\n      0x20\n        /* \"#utility.yul\":11303:11308   */\n      dup7\n        /* \"#utility.yul\":11299:11315   */\n      add\n        /* \"#utility.yul\":11264:11329   */\n      tag_93\n      jump\t// in\n    tag_257:\n        /* \"#utility.yul\":11354:11383   */\n      tag_258\n        /* \"#utility.yul\":11376:11382   */\n      dup2\n        /* \"#utility.yul\":11354:11383   */\n      tag_94\n      jump\t// in\n    tag_258:\n        /* \"#utility.yul\":11349:11352   */\n      dup5\n        /* \"#utility.yul\":11345:11384   */\n      add\n        /* \"#utility.yul\":11338:11384   */\n      swap2\n      pop\n        /* \"#utility.yul\":11105:11390   */\n      pop\n        /* \"#utility.yul\":11013:11390   */\n      swap3\n      swap2\n      pop\n      pop\n      jump\t// out\n        /* \"#utility.yul\":11396:11709   */\n    tag_66:\n        /* \"#utility.yul\":11509:11513   */\n      0x00\n        /* \"#utility.yul\":11547:11549   */\n      0x20\n        /* \"#utility.yul\":11536:11545   */\n      dup3\n        /* \"#utility.yul\":11532:11550   */\n      add\n        /* \"#utility.yul\":11524:11550   */\n      swap1\n      pop\n        /* \"#utility.yul\":11596:11605   */\n      dup2\n        /* \"#utility.yul\":11590:11594   */\n      dup2\n        /* \"#utility.yul\":11586:11606   */\n      sub\n        /* \"#utility.yul\":11582:11583   */\n      0x00\n        /* \"#utility.yul\":11571:11580   */\n      dup4\n        /* \"#utility.yul\":11567:11584   */\n      add\n        /* \"#utility.yul\":11560:11607   */\n      mstore\n        /* \"#utility.yul\":11624:11702   */\n      tag_260\n        /* \"#utility.yul\":11697:11701   */\n      dup2\n        /* \"#utility.yul\":11688:11694   */\n      dup5\n        /* \"#utility.yul\":11624:11702   */\n      tag_125\n      jump\t// in\n    tag_260:\n        /* \"#utility.yul\":11616:11702   */\n      swap1\n      pop\n        /* \"#utility.yul\":11396:11709   */\n      swap3\n      swap2\n      pop\n      pop\n      jump\t// out\n        /* \"#utility.yul\":11715:11808   */\n    tag_126:\n        /* \"#utility.yul\":11752:11758   */\n      0x00\n        /* \"#utility.yul\":11799:11801   */\n      0x20\n        /* \"#utility.yul\":11794:11796   */\n      0x1f\n        /* \"#utility.yul\":11787:11792   */\n      dup4\n        /* \"#utility.yul\":11783:11797   */\n      add\n        /* \"#utility.yul\":11779:11802   */\n      div\n        /* \"#utility.yul\":11769:11802   */\n      swap1\n      pop\n        /* \"#utility.yul\":11715:11808   */\n      swap2\n      swap1\n      pop\n      jump\t// out\n        /* \"#utility.yul\":11814:11921   */\n    tag_127:\n        /* \"#utility.yul\":11858:11866   */\n      0x00\n        /* \"#utility.yul\":11908:11913   */\n      dup3\n        /* \"#utility.yul\":11902:11906   */\n      dup3\n        /* \"#utility.yul\":11898:11914   */\n      shl\n        /* \"#utility.yul\":11877:11914   */\n      swap1\n      pop\n        /* \"#utility.yul\":11814:11921   */\n      swap3\n      swap2\n      pop\n      pop\n      jump\t// out\n        /* \"#utility.yul\":11927:12320   */\n    tag_128:\n        /* \"#utility.yul\":11996:12002   */\n      0x00\n        /* \"#utility.yul\":12046:12047   */\n      0x08\n        /* \"#utility.yul\":12034:12044   */\n      dup4\n        /* \"#utility.yul\":12030:12048   */\n      mul\n        /* \"#utility.yul\":12069:12166   */\n      tag_264\n        /* \"#utility.yul\":12099:12165   */\n      0xffffffffffffffffffffffffffffffffffffffffffffffffffffffffffffffff\n        /* \"#utility.yul\":12088:12097   */\n      dup3\n        /* \"#utility.yul\":12069:12166   */\n      tag_127\n      jump\t// in\n    tag_264:\n        /* \"#utility.yul\":12187:12226   */\n      tag_265\n        /* \"#utility.yul\":12217:12225   */\n      dup7\n        /* \"#utility.yul\":12206:12215   */\n      dup4\n        /* \"#utility.yul\":12187:12226   */\n      tag_127\n      jump\t// in\n    tag_265:\n        /* \"#utility.yul\":12175:12226   */\n      swap6\n      pop\n        /* \"#utility.yul\":12259:12263   */\n      dup1\n        /* \"#utility.yul\":12255:12264   */\n      not\n        /* \"#utility.yul\":12248:12253   */\n      dup5\n        /* \"#utility.yul\":12244:12265   */\n      and\n        /* \"#utility.yul\":12235:12265   */\n      swap4\n      pop\n        /* \"#utility.yul\":12308:12312   */\n      dup1\n        /* \"#utility.yul\":12298:12306   */\n      dup7\n        /* \"#utility.yul\":12294:12313   */\n      and\n        /* \"#utility.yul\":12287:12292   */\n      dup5\n        /* \"#utility.yul\":12284:12314   */\n      or\n        /* \"#utility.yul\":12274:12314   */\n      swap3\n      pop\n        /* \"#utility.yul\":12003:12320   */\n      pop\n      pop\n        /* \"#utility.yul\":11927:12320   */\n      swap4\n      swap3\n      pop\n      pop\n      pop\n      jump\t// out\n        /* \"#utility.yul\":12326:12386   */\n    tag_129:\n        /* \"#utility.yul\":12354:12357   */\n      0x00\n        /* \"#utility.yul\":12375:12380   */\n      dup2\n        /* \"#utility.yul\":12368:12380   */\n      swap1\n      pop\n        /* \"#utility.yul\":12326:12386   */\n      swap2\n      swap1\n      pop\n      jump\t// out\n        /* \"#utility.yul\":12392:12534   */\n    tag_130:\n        /* \"#utility.yul\":12442:12451   */\n      0x00\n        /* \"#utility.yul\":12475:12528   */\n      tag_268\n        /* \"#utility.yul\":12493:12527   */\n      tag_269\n        /* \"#utility.yul\":12502:12526   */\n      tag_270\n        /* \"#utility.yul\":12520:12525   */\n      dup5\n        /* \"#utility.yul\":12502:12526   */\n      tag_122\n      jump\t// in\n    tag_270:\n        /* \"#utility.yul\":12493:12527   */\n      tag_129\n      jump\t// in\n    tag_269:\n        /* \"#utility.yul\":12475:12528   */\n      tag_122\n      jump\t// in\n    tag_268:\n        /* \"#utility.yul\":12462:12528   */\n      swap1\n      pop\n        /* \"#utility.yul\":12392:12534   */\n      swap2\n      swap1\n      pop\n      jump\t// out\n        /* \"#utility.yul\":12540:12615   */\n    tag_131:\n        /* \"#utility.yul\":12583:12586   */\n      0x00\n        /* \"#utility.yul\":12604:12609   */\n      dup2\n        /* \"#utility.yul\":12597:12609   */\n      swap1\n      pop\n        /* \"#utility.yul\":12540:12615   */\n      swap2\n      swap1\n      pop\n      jump\t// out\n        /* \"#utility.yul\":12621:12890   */\n    tag_132:\n        /* \"#utility.yul\":12731:12770   */\n      tag_273\n        /* \"#utility.yul\":12762:12769   */\n      dup4\n        /* \"#utility.yul\":12731:12770   */\n      tag_130\n      jump\t// in\n    tag_273:\n        /* \"#utility.yul\":12792:12883   */\n      tag_274\n        /* \"#utility.yul\":12841:12882   */\n      tag_275\n        /* \"#utility.yul\":12865:12881   */\n      dup3\n        /* \"#utility.yul\":12841:12882   */\n      tag_131\n      jump\t// in\n    tag_275:\n        /* \"#utility.yul\":12833:12839   */\n      dup5\n        /* \"#utility.yul\":12826:12830   */\n      dup5\n        /* \"#utility.yul\":12820:12831   */\n      sload\n        /* \"#utility.yul\":12792:12883   */\n      tag_128\n      jump\t// in\n    tag_274:\n        /* \"#utility.yul\":12786:12790   */\n      dup3\n        /* \"#utility.yul\":12779:12884   */\n      sstore\n        /* \"#utility.yul\":12697:12890   */\n      pop\n        /* \"#utility.yul\":12621:12890   */\n      pop\n      pop\n      pop\n      jump\t// out\n        /* \"#utility.yul\":12896:12969   */\n    tag_133:\n        /* \"#utility.yul\":12941:12944   */\n      0x00\n        /* \"#utility.yul\":12896:12969   */\n      swap1\n      jump\t// out\n        /* \"#utility.yul\":12975:13164   */\n    tag_134:\n        /* \"#utility.yul\":13052:13084   */\n      tag_278\n      tag_133\n      jump\t// in\n    tag_278:\n        /* \"#utility.yul\":13093:13158   */\n      tag_279\n        /* \"#utility.yul\":13151:13157   */\n      dup2\n        /* \"#utility.yul\":13143:13149   */\n      dup5\n        /* \"#utility.yul\":13137:13141   */\n      dup5\n        /* \"#utility.yul\":13093:13158   */\n      tag_132\n      jump\t// in\n    tag_279:\n        /* \"#utility.yul\":13028:13164   */\n      pop\n        /* \"#utility.yul\":12975:13164   */\n      pop\n      pop\n      jump\t// out\n        /* \"#utility.yul\":13170:13356   */\n    tag_135:\n        /* \"#utility.yul\":13230:13350   */\n    tag_281:\n        /* \"#utility.yul\":13247:13250   */\n      dup2\n        /* \"#utility.yul\":13240:13245   */\n      dup2\n        /* \"#utility.yul\":13237:13251   */\n      lt\n        /* \"#utility.yul\":13230:13350   */\n      iszero\n      tag_283\n      jumpi\n        /* \"#utility.yul\":13301:13340   */\n      tag_284\n        /* \"#utility.yul\":13338:13339   */\n      0x00\n        /* \"#utility.yul\":13331:13336   */\n      dup3\n        /* \"#utility.yul\":13301:13340   */\n      tag_134\n      jump\t// in\n    tag_284:\n        /* \"#utility.yul\":13274:13275   */\n      0x01\n        /* \"#utility.yul\":13267:13272   */\n      dup2\n        /* \"#utility.yul\":13263:13276   */\n      add\n        /* \"#utility.yul\":13254:13276   */\n      swap1\n      pop\n        /* \"#utility.yul\":13230:13350   */\n      jump(tag_281)\n    tag_283:\n        /* \"#utility.yul\":13170:13356   */\n      pop\n      pop\n      jump\t// out\n        /* \"#utility.yul\":13362:13905   */\n    tag_136:\n        /* \"#utility.yul\":13463:13465   */\n      0x1f\n        /* \"#utility.yul\":13458:13461   */\n      dup3\n        /* \"#utility.yul\":13455:13466   */\n      gt\n        /* \"#utility.yul\":13452:13898   */\n      iszero\n      tag_286\n      jumpi\n        /* \"#utility.yul\":13497:13535   */\n      tag_287\n        /* \"#utility.yul\":13529:13534   */\n      dup2\n        /* \"#utility.yul\":13497:13535   */\n      tag_119\n      jump\t// in\n    tag_287:\n        /* \"#utility.yul\":13581:13610   */\n      tag_288\n        /* \"#utility.yul\":13599:13609   */\n      dup5\n        /* \"#utility.yul\":13581:13610   */\n      tag_126\n      jump\t// in\n    tag_288:\n        /* \"#utility.yul\":13571:13579   */\n      dup2\n        /* \"#utility.yul\":13567:13611   */\n      add\n        /* \"#utility.yul\":13764:13766   */\n      0x20\n        /* \"#utility.yul\":13752:13762   */\n      dup6\n        /* \"#utility.yul\":13749:13767   */\n      lt\n        /* \"#utility.yul\":13746:13795   */\n      iszero\n      tag_289\n      jumpi\n        /* \"#utility.yul\":13785:13793   */\n      dup2\n        /* \"#utility.yul\":13770:13793   */\n      swap1\n      pop\n        /* \"#utility.yul\":13746:13795   */\n    tag_289:\n        /* \"#utility.yul\":13808:13888   */\n      tag_290\n        /* \"#utility.yul\":13864:13886   */\n      tag_291\n        /* \"#utility.yul\":13882:13885   */\n      dup6\n        /* \"#utility.yul\":13864:13886   */\n      tag_126\n      jump\t// in\n    tag_291:\n        /* \"#utility.yul\":13854:13862   */\n      dup4\n        /* \"#utility.yul\":13850:13887   */\n      add\n        /* \"#utility.yul\":13837:13848   */\n      dup3\n        /* \"#utility.yul\":13808:13888   */\n      tag_135\n      jump\t// in\n    tag_290:\n        /* \"#utility.yul\":13467:13898   */\n      pop\n      pop\n        /* \"#utility.yul\":13452:13898   */\n    tag_286:\n        /* \"#utility.yul\":13362:13905   */\n      pop\n      pop\n      pop\n      jump\t// out\n        /* \"#utility.yul\":13911:14028   */\n    tag_137:\n        /* \"#utility.yul\":13965:13973   */\n      0x00\n        /* \"#utility.yul\":14015:14020   */\n      dup3\n        /* \"#utility.yul\":14009:14013   */\n      dup3\n        /* \"#utility.yul\":14005:14021   */\n      shr\n        /* \"#utility.yul\":13984:14021   */\n      swap1\n      pop\n        /* \"#utility.yul\":13911:14028   */\n      swap3\n      swap2\n      pop\n      pop\n      jump\t// out\n        /* \"#utility.yul\":14034:14203   */\n    tag_138:\n        /* \"#utility.yul\":14078:14084   */\n      0x00\n        /* \"#utility.yul\":14111:14162   */\n      tag_294\n        /* \"#utility.yul\":14159:14160   */\n      0x00\n        /* \"#utility.yul\":14155:14161   */\n      not\n        /* \"#utility.yul\":14147:14152   */\n      dup5\n        /* \"#utility.yul\":14144:14145   */\n      0x08\n        /* \"#utility.yul\":14140:14153   */\n      mul\n        /* \"#utility.yul\":14111:14162   */\n      tag_137\n      jump\t// in\n    tag_294:\n        /* \"#utility.yul\":14107:14163   */\n      not\n        /* \"#utility.yul\":14192:14196   */\n      dup1\n        /* \"#utility.yul\":14186:14190   */\n      dup4\n        /* \"#utility.yul\":14182:14197   */\n      and\n        /* \"#utility.yul\":14172:14197   */\n      swap2\n      pop\n        /* \"#utility.yul\":14085:14203   */\n      pop\n        /* \"#utility.yul\":14034:14203   */\n      swap3\n      swap2\n      pop\n      pop\n      jump\t// out\n        /* \"#utility.yul\":14208:14503   */\n    tag_139:\n        /* \"#utility.yul\":14284:14288   */\n      0x00\n        /* \"#utility.yul\":14430:14459   */\n      tag_296\n        /* \"#utility.yul\":14455:14458   */\n      dup4\n        /* \"#utility.yul\":14449:14453   */\n      dup4\n        /* \"#utility.yul\":14430:14459   */\n      tag_138\n      jump\t// in\n    tag_296:\n        /* \"#utility.yul\":14422:14459   */\n      swap2\n      pop\n        /* \"#utility.yul\":14492:14495   */\n      dup3\n        /* \"#utility.yul\":14489:14490   */\n      0x02\n        /* \"#utility.yul\":14485:14496   */\n      mul\n        /* \"#utility.yul\":14479:14483   */\n      dup3\n        /* \"#utility.yul\":14476:14497   */\n      or\n        /* \"#utility.yul\":14468:14497   */\n      swap1\n      pop\n        /* \"#utility.yul\":14208:14503   */\n      swap3\n      swap2\n      pop\n      pop\n      jump\t// out\n        /* \"#utility.yul\":14508:15903   */\n    tag_73:\n        /* \"#utility.yul\":14625:14662   */\n      tag_298\n        /* \"#utility.yul\":14658:14661   */\n      dup3\n        /* \"#utility.yul\":14625:14662   */\n      tag_91\n      jump\t// in\n    tag_298:\n        /* \"#utility.yul\":14727:14745   */\n      0xffffffffffffffff\n        /* \"#utility.yul\":14719:14725   */\n      dup2\n        /* \"#utility.yul\":14716:14746   */\n      gt\n        /* \"#utility.yul\":14713:14769   */\n      iszero\n      tag_299\n      jumpi\n        /* \"#utility.yul\":14749:14767   */\n      tag_300\n      tag_104\n      jump\t// in\n    tag_300:\n        /* \"#utility.yul\":14713:14769   */\n    tag_299:\n        /* \"#utility.yul\":14793:14831   */\n      tag_301\n        /* \"#utility.yul\":14825:14829   */\n      dup3\n        /* \"#utility.yul\":14819:14830   */\n      sload\n        /* \"#utility.yul\":14793:14831   */\n      tag_33\n      jump\t// in\n    tag_301:\n        /* \"#utility.yul\":14878:14945   */\n      tag_302\n        /* \"#utility.yul\":14938:14944   */\n      dup3\n        /* \"#utility.yul\":14930:14936   */\n      dup3\n        /* \"#utility.yul\":14924:14928   */\n      dup6\n        /* \"#utility.yul\":14878:14945   */\n      tag_136\n      jump\t// in\n    tag_302:\n        /* \"#utility.yul\":14972:14973   */\n      0x00\n        /* \"#utility.yul\":14996:15000   */\n      0x20\n        /* \"#utility.yul\":14983:15000   */\n      swap1\n      pop\n        /* \"#utility.yul\":15028:15030   */\n      0x1f\n        /* \"#utility.yul\":15020:15026   */\n      dup4\n        /* \"#utility.yul\":15017:15031   */\n      gt\n        /* \"#utility.yul\":15045:15046   */\n      0x01\n        /* \"#utility.yul\":15040:15658   */\n      dup2\n      eq\n      tag_304\n      jumpi\n        /* \"#utility.yul\":15702:15703   */\n      0x00\n        /* \"#utility.yul\":15719:15725   */\n      dup5\n        /* \"#utility.yul\":15716:15793   */\n      iszero\n      tag_305\n      jumpi\n        /* \"#utility.yul\":15768:15777   */\n      dup3\n        /* \"#utility.yul\":15763:15766   */\n      dup8\n        /* \"#utility.yul\":15759:15778   */\n      add\n        /* \"#utility.yul\":15753:15779   */\n      mload\n        /* \"#utility.yul\":15744:15779   */\n      swap1\n      pop\n        /* \"#utility.yul\":15716:15793   */\n    tag_305:\n        /* \"#utility.yul\":15819:15886   */\n      tag_306\n        /* \"#utility.yul\":15879:15885   */\n      dup6\n        /* \"#utility.yul\":15872:15877   */\n      dup3\n        /* \"#utility.yul\":15819:15886   */\n      tag_139\n      jump\t// in\n    tag_306:\n        /* \"#utility.yul\":15813:15817   */\n      dup7\n        /* \"#utility.yul\":15806:15887   */\n      sstore\n        /* \"#utility.yul\":15675:15897   */\n      pop\n        /* \"#utility.yul\":15010:15897   */\n      jump(tag_303)\n        /* \"#utility.yul\":15040:15658   */\n    tag_304:\n        /* \"#utility.yul\":15092:15096   */\n      0x1f\n        /* \"#utility.yul\":15088:15097   */\n      not\n        /* \"#utility.yul\":15080:15086   */\n      dup5\n        /* \"#utility.yul\":15076:15098   */\n      and\n        /* \"#utility.yul\":15126:15163   */\n      tag_307\n        /* \"#utility.yul\":15158:15162   */\n      dup7\n        /* \"#utility.yul\":15126:15163   */\n      tag_119\n      jump\t// in\n    tag_307:\n        /* \"#utility.yul\":15185:15186   */\n      0x00\n        /* \"#utility.yul\":15199:15407   */\n    tag_308:\n        /* \"#utility.yul\":15213:15220   */\n      dup3\n        /* \"#utility.yul\":15210:15211   */\n      dup2\n        /* \"#utility.yul\":15207:15221   */\n      lt\n        /* \"#utility.yul\":15199:15407   */\n      iszero\n      tag_310\n      jumpi\n        /* \"#utility.yul\":15292:15301   */\n      dup5\n        /* \"#utility.yul\":15287:15290   */\n      dup10\n        /* \"#utility.yul\":15283:15302   */\n      add\n        /* \"#utility.yul\":15277:15303   */\n      mload\n        /* \"#utility.yul\":15269:15275   */\n      dup3\n        /* \"#utility.yul\":15262:15304   */\n      sstore\n        /* \"#utility.yul\":15343:15344   */\n      0x01\n        /* \"#utility.yul\":15335:15341   */\n      dup3\n        /* \"#utility.yul\":15331:15345   */\n      add\n        /* \"#utility.yul\":15321:15345   */\n      swap2\n      pop\n        /* \"#utility.yul\":15390:15392   */\n      0x20\n        /* \"#utility.yul\":15379:15388   */\n      dup6\n        /* \"#utility.yul\":15375:15393   */\n      add\n        /* \"#utility.yul\":15362:15393   */\n      swap5\n      pop\n        /* \"#utility.yul\":15236:15240   */\n      0x20\n        /* \"#utility.yul\":15233:15234   */\n      dup2\n        /* \"#utility.yul\":15229:15241   */\n      add\n        /* \"#utility.yul\":15224:15241   */\n      swap1\n      pop\n        /* \"#utility.yul\":15199:15407   */\n      jump(tag_308)\n    tag_310:\n        /* \"#utility.yul\":15435:15441   */\n      dup7\n        /* \"#utility.yul\":15426:15433   */\n      dup4\n        /* \"#utility.yul\":15423:15442   */\n      lt\n        /* \"#utility.yul\":15420:15599   */\n      iszero\n      tag_311\n      jumpi\n        /* \"#utility.yul\":15493:15502   */\n      dup5\n        /* \"#utility.yul\":15488:15491   */\n      dup10\n        /* \"#utility.yul\":15484:15503   */\n      add\n        /* \"#utility.yul\":15478:15504   */\n      mload\n        /* \"#utility.yul\":15536:15584   */\n      tag_312\n        /* \"#utility.yul\":15578:15582   */\n      0x1f\n        /* \"#utility.yul\":15570:15576   */\n      dup10\n        /* \"#utility.yul\":15566:15583   */\n      and\n        /* \"#utility.yul\":15555:15564   */\n      dup3\n        /* \"#utility.yul\":15536:15584   */\n      tag_138\n      jump\t// in\n    tag_312:\n        /* \"#utility.yul\":15528:15534   */\n      dup4\n        /* \"#utility.yul\":15521:15585   */\n      sstore\n        /* \"#utility.yul\":15443:15599   */\n      pop\n        /* \"#utility.yul\":15420:15599   */\n    tag_311:\n        /* \"#utility.yul\":15645:15646   */\n      0x01\n        /* \"#utility.yul\":15641:15642   */\n      0x02\n        /* \"#utility.yul\":15633:15639   */\n      dup9\n        /* \"#utility.yul\":15629:15643   */\n      mul\n        /* \"#utility.yul\":15625:15647   */\n      add\n        /* \"#utility.yul\":15619:15623   */\n      dup9\n        /* \"#utility.yul\":15612:15648   */\n      sstore\n        /* \"#utility.yul\":15047:15658   */\n      pop\n      pop\n      pop\n        /* \"#utility.yul\":15010:15897   */\n    tag_303:\n      pop\n        /* \"#utility.yul\":14600:15903   */\n      pop\n      pop\n      pop\n        /* \"#utility.yul\":14508:15903   */\n      pop\n      pop\n      jump\t// out\n\n    auxdata: 0xa2646970667358221220cf219ac2464f9c9c82f265e6500ad92e56c85dabcaec268324359cb770ed88ee64736f6c63430008120033\n}\n",
				"bytecode": {
					"linkReferences": {},
					"object": "60806040523480156200001157600080fd5b506040518061012001604052806040518060400160405280600881526020017f546872696c6c657200000000000000000000000000000000000000000000000081525081526020016040518060400160405280600d81526020017f4261636b20696e20426c61636b0000000000000000000000000000000000000081525081526020016040518060400160405280600d81526020017f54686520426f647967756172640000000000000000000000000000000000000081525081526020016040518060400160405280601981526020017f546865204461726b2053696465206f6620746865204d6f6f6e0000000000000081525081526020016040518060400160405280601f81526020017f546865697220477265617465737420486974732028313937312d31393735290081525081526020016040518060400160405280601081526020017f486f74656c2043616c69666f726e69610000000000000000000000000000000081525081526020016040518060400160405280600c81526020017f436f6d65204f6e204f766572000000000000000000000000000000000000000081525081526020016040518060400160405280600781526020017f52756d6f7572730000000000000000000000000000000000000000000000000081525081526020016040518060400160405280601481526020017f5361747572646179204e69676874204665766572000000000000000000000000815250815250600190600962000241929190620002c9565b5060005b600180549050811015620002c25760016000600183815481106200026e576200026d620003b6565b5b90600052602060002001604051620002879190620004f8565b908152602001604051809103902060006101000a81548160ff0219169083151502179055508080620002b9906200054a565b91505062000245565b5062000875565b82805482825590600052602060002090810192821562000316579160200282015b82811115620003155782518290816200030491906200078e565b5091602001919060010190620002ea565b5b50905062000325919062000329565b5090565b5b808211156200034d576000818162000343919062000351565b506001016200032a565b5090565b5080546200035f9062000414565b6000825580601f1062000373575062000394565b601f01602090049060005260206000209081019062000393919062000397565b5b50565b5b80821115620003b257600081600090555060010162000398565b5090565b7f4e487b7100000000000000000000000000000000000000000000000000000000600052603260045260246000fd5b7f4e487b7100000000000000000000000000000000000000000000000000000000600052602260045260246000fd5b600060028204905060018216806200042d57607f821691505b602082108103620004435762000442620003e5565b5b50919050565b600081905092915050565b60008190508160005260206000209050919050565b60008154620004788162000414565b62000484818662000449565b94506001821660008114620004a25760018114620004b857620004ef565b60ff1983168652811515820286019350620004ef565b620004c38562000454565b60005b83811015620004e757815481890152600182019150602081019050620004c6565b838801955050505b50505092915050565b600062000506828462000469565b915081905092915050565b7f4e487b7100000000000000000000000000000000000000000000000000000000600052601160045260246000fd5b6000819050919050565b6000620005578262000540565b91507fffffffffffffffffffffffffffffffffffffffffffffffffffffffffffffffff82036200058c576200058b62000511565b5b600182019050919050565b600081519050919050565b7f4e487b7100000000000000000000000000000000000000000000000000000000600052604160045260246000fd5b60006020601f8301049050919050565b600082821b905092915050565b600060088302620006207fffffffffffffffffffffffffffffffffffffffffffffffffffffffffffffffff82620005e1565b6200062c8683620005e1565b95508019841693508086168417925050509392505050565b6000819050919050565b60006200066f62000669620006638462000540565b62000644565b62000540565b9050919050565b6000819050919050565b6200068b836200064e565b620006a36200069a8262000676565b848454620005ee565b825550505050565b600090565b620006ba620006ab565b620006c781848462000680565b505050565b5b81811015620006ef57620006e3600082620006b0565b600181019050620006cd565b5050565b601f8211156200073e57620007088162000454565b6200071384620005d1565b8101602085101562000723578190505b6200073b6200073285620005d1565b830182620006cc565b50505b505050565b600082821c905092915050565b6000620007636000198460080262000743565b1980831691505092915050565b60006200077e838362000750565b9150826002028217905092915050565b620007998262000597565b67ffffffffffffffff811115620007b557620007b4620005a2565b5b620007c1825462000414565b620007ce828285620006f3565b600060209050601f831160018114620008065760008415620007f1578287015190505b620007fd858262000770565b8655506200086d565b601f198416620008168662000454565b60005b82811015620008405784890151825560018201915060208501945060208101905062000819565b868310156200086057848901516200085c601f89168262000750565b8355505b6001600288020188555050505b505050505050565b61103180620008856000396000f3fe608060405234801561001057600080fd5b50600436106100575760003560e01c80631cf0830b1461005c578063837f88781461007a578063b374ac5914610084578063c7853148146100b4578063d81aa8c4146100e4575b600080fd5b610064610100565b604051610071919061089f565b60405180910390f35b6100826101d9565b005b61009e60048036038101906100999190610a0a565b610355565b6040516100ab9190610a6e565b60405180910390f35b6100ce60048036038101906100c99190610ae7565b61038b565b6040516100db919061089f565b60405180910390f35b6100fe60048036038101906100f99190610a0a565b6104a3565b005b60606001805480602002602001604051908101604052809291908181526020016000905b828210156101d057838290600052602060002001805461014390610b43565b80601f016020809104026020016040519081016040528092919081815260200182805461016f90610b43565b80156101bc5780601f10610191576101008083540402835291602001916101bc565b820191906000526020600020905b81548152906001019060200180831161019f57829003601f168201915b505050505081526020019060010190610124565b50505050905090565b60005b600360003373ffffffffffffffffffffffffffffffffffffffff1673ffffffffffffffffffffffffffffffffffffffff16815260200190815260200160002080549050811015610307576000600260003373ffffffffffffffffffffffffffffffffffffffff1673ffffffffffffffffffffffffffffffffffffffff168152602001908152602001600020600360003373ffffffffffffffffffffffffffffffffffffffff1673ffffffffffffffffffffffffffffffffffffffff16815260200190815260200160002083815481106102b8576102b7610b74565b5b906000526020600020016040516102cf9190610c46565b908152602001604051809103902060006101000a81548160ff02191690831515021790555080806102ff90610c96565b9150506101dc565b50600360003373ffffffffffffffffffffffffffffffffffffffff1673ffffffffffffffffffffffffffffffffffffffff168152602001908152602001600020600061035391906106ab565b565b6000818051602081018201805184825260208301602085012081835280955050505050506000915054906101000a900460ff1681565b6060600360008373ffffffffffffffffffffffffffffffffffffffff1673ffffffffffffffffffffffffffffffffffffffff168152602001908152602001600020805480602002602001604051908101604052809291908181526020016000905b8282101561049857838290600052602060002001805461040b90610b43565b80601f016020809104026020016040519081016040528092919081815260200182805461043790610b43565b80156104845780601f1061045957610100808354040283529160200191610484565b820191906000526020600020905b81548152906001019060200180831161046757829003601f168201915b5050505050815260200190600101906103ec565b505050509050919050565b600015156000826040516104b79190610d0f565b908152602001604051809103902060009054906101000a900460ff1615150361051757806040517f4f0ffc1b00000000000000000000000000000000000000000000000000000000815260040161050e9190610d70565b60405180910390fd5b600260003373ffffffffffffffffffffffffffffffffffffffff1673ffffffffffffffffffffffffffffffffffffffff168152602001908152602001600020816040516105649190610d0f565b908152602001604051809103902060009054906101000a900460ff16156105c257806040517f6a47082d0000000000000000000000000000000000000000000000000000000081526004016105b99190610d70565b60405180910390fd5b6001600260003373ffffffffffffffffffffffffffffffffffffffff1673ffffffffffffffffffffffffffffffffffffffff168152602001908152602001600020826040516106119190610d0f565b908152602001604051809103902060006101000a81548160ff021916908315150217905550600360003373ffffffffffffffffffffffffffffffffffffffff1673ffffffffffffffffffffffffffffffffffffffff168152602001908152602001600020819080600181540180825580915050600190039060005260206000200160009091909190915090816106a79190610f29565b5050565b50805460008255906000526020600020908101906106c991906106cc565b50565b5b808211156106ec57600081816106e391906106f0565b506001016106cd565b5090565b5080546106fc90610b43565b6000825580601f1061070e575061072d565b601f01602090049060005260206000209081019061072c9190610730565b5b50565b5b80821115610749576000816000905550600101610731565b5090565b600081519050919050565b600082825260208201905092915050565b6000819050602082019050919050565b600081519050919050565b600082825260208201905092915050565b60005b838110156107b3578082015181840152602081019050610798565b60008484015250505050565b6000601f19601f8301169050919050565b60006107db82610779565b6107e58185610784565b93506107f5818560208601610795565b6107fe816107bf565b840191505092915050565b600061081583836107d0565b905092915050565b6000602082019050919050565b60006108358261074d565b61083f8185610758565b93508360208202850161085185610769565b8060005b8581101561088d578484038952815161086e8582610809565b94506108798361081d565b925060208a01995050600181019050610855565b50829750879550505050505092915050565b600060208201905081810360008301526108b9818461082a565b905092915050565b6000604051905090565b600080fd5b600080fd5b600080fd5b600080fd5b7f4e487b7100000000000000000000000000000000000000000000000000000000600052604160045260246000fd5b610917826107bf565b810181811067ffffffffffffffff82111715610936576109356108df565b5b80604052505050565b60006109496108c1565b9050610955828261090e565b919050565b600067ffffffffffffffff821115610975576109746108df565b5b61097e826107bf565b9050602081019050919050565b82818337600083830152505050565b60006109ad6109a88461095a565b61093f565b9050828152602081018484840111156109c9576109c86108da565b5b6109d484828561098b565b509392505050565b600082601f8301126109f1576109f06108d5565b5b8135610a0184826020860161099a565b91505092915050565b600060208284031215610a2057610a1f6108cb565b5b600082013567ffffffffffffffff811115610a3e57610a3d6108d0565b5b610a4a848285016109dc565b91505092915050565b60008115159050919050565b610a6881610a53565b82525050565b6000602082019050610a836000830184610a5f565b92915050565b600073ffffffffffffffffffffffffffffffffffffffff82169050919050565b6000610ab482610a89565b9050919050565b610ac481610aa9565b8114610acf57600080fd5b50565b600081359050610ae181610abb565b92915050565b600060208284031215610afd57610afc6108cb565b5b6000610b0b84828501610ad2565b91505092915050565b7f4e487b7100000000000000000000000000000000000000000000000000000000600052602260045260246000fd5b60006002820490506001821680610b5b57607f821691505b602082108103610b6e57610b6d610b14565b5b50919050565b7f4e487b7100000000000000000000000000000000000000000000000000000000600052603260045260246000fd5b600081905092915050565b60008190508160005260206000209050919050565b60008154610bd081610b43565b610bda8186610ba3565b94506001821660008114610bf55760018114610c0a57610c3d565b60ff1983168652811515820286019350610c3d565b610c1385610bae565b60005b83811015610c3557815481890152600182019150602081019050610c16565b838801955050505b50505092915050565b6000610c528284610bc3565b915081905092915050565b7f4e487b7100000000000000000000000000000000000000000000000000000000600052601160045260246000fd5b6000819050919050565b6000610ca182610c8c565b91507fffffffffffffffffffffffffffffffffffffffffffffffffffffffffffffffff8203610cd357610cd2610c5d565b5b600182019050919050565b6000610ce982610779565b610cf38185610ba3565b9350610d03818560208601610795565b80840191505092915050565b6000610d1b8284610cde565b915081905092915050565b600082825260208201905092915050565b6000610d4282610779565b610d4c8185610d26565b9350610d5c818560208601610795565b610d65816107bf565b840191505092915050565b60006020820190508181036000830152610d8a8184610d37565b905092915050565b60006020601f8301049050919050565b600082821b905092915050565b600060088302610ddf7fffffffffffffffffffffffffffffffffffffffffffffffffffffffffffffffff82610da2565b610de98683610da2565b95508019841693508086168417925050509392505050565b6000819050919050565b6000610e26610e21610e1c84610c8c565b610e01565b610c8c565b9050919050565b6000819050919050565b610e4083610e0b565b610e54610e4c82610e2d565b848454610daf565b825550505050565b600090565b610e69610e5c565b610e74818484610e37565b505050565b5b81811015610e9857610e8d600082610e61565b600181019050610e7a565b5050565b601f821115610edd57610eae81610bae565b610eb784610d92565b81016020851015610ec6578190505b610eda610ed285610d92565b830182610e79565b50505b505050565b600082821c905092915050565b6000610f0060001984600802610ee2565b1980831691505092915050565b6000610f198383610eef565b9150826002028217905092915050565b610f3282610779565b67ffffffffffffffff811115610f4b57610f4a6108df565b5b610f558254610b43565b610f60828285610e9c565b600060209050601f831160018114610f935760008415610f81578287015190505b610f8b8582610f0d565b865550610ff3565b601f198416610fa186610bae565b60005b82811015610fc957848901518255600182019150602085019450602081019050610fa4565b86831015610fe65784890151610fe2601f891682610eef565b8355505b6001600288020188555050505b50505050505056fea2646970667358221220cf219ac2464f9c9c82f265e6500ad92e56c85dabcaec268324359cb770ed88ee64736f6c63430008120033",
					"opcodes": "PUSH1 0x80 PUSH1 0x40 MSTORE CALLVALUE DUP1 ISZERO PUSH3 0x11 JUMPI PUSH1 0x0 DUP1 REVERT JUMPDEST POP PUSH1 0x40 MLOAD DUP1 PUSH2 0x120 ADD PUSH1 0x40 MSTORE DUP1 PUSH1 0x40 MLOAD DUP1 PUSH1 0x40 ADD PUSH1 0x40 MSTORE DUP1 PUSH1 0x8 DUP2 MSTORE PUSH1 0x20 ADD PUSH32 0x546872696C6C6572000000000000000000000000000000000000000000000000 DUP2 MSTORE POP DUP2 MSTORE PUSH1 0x20 ADD PUSH1 0x40 MLOAD DUP1 PUSH1 0x40 ADD PUSH1 0x40 MSTORE DUP1 PUSH1 0xD DUP2 MSTORE PUSH1 0x20 ADD PUSH32 0x4261636B20696E20426C61636B00000000000000000000000000000000000000 DUP2 MSTORE POP DUP2 MSTORE PUSH1 0x20 ADD PUSH1 0x40 MLOAD DUP1 PUSH1 0x40 ADD PUSH1 0x40 MSTORE DUP1 PUSH1 0xD DUP2 MSTORE PUSH1 0x20 ADD PUSH32 0x54686520426F6479677561726400000000000000000000000000000000000000 DUP2 MSTORE POP DUP2 MSTORE PUSH1 0x20 ADD PUSH1 0x40 MLOAD DUP1 PUSH1 0x40 ADD PUSH1 0x40 MSTORE DUP1 PUSH1 0x19 DUP2 MSTORE PUSH1 0x20 ADD PUSH32 0x546865204461726B2053696465206F6620746865204D6F6F6E00000000000000 DUP2 MSTORE POP DUP2 MSTORE PUSH1 0x20 ADD PUSH1 0x40 MLOAD DUP1 PUSH1 0x40 ADD PUSH1 0x40 MSTORE DUP1 PUSH1 0x1F DUP2 MSTORE PUSH1 0x20 ADD PUSH32 0x546865697220477265617465737420486974732028313937312D313937352900 DUP2 MSTORE POP DUP2 MSTORE PUSH1 0x20 ADD PUSH1 0x40 MLOAD DUP1 PUSH1 0x40 ADD PUSH1 0x40 MSTORE DUP1 PUSH1 0x10 DUP2 MSTORE PUSH1 0x20 ADD PUSH32 0x486F74656C2043616C69666F726E696100000000000000000000000000000000 DUP2 MSTORE POP DUP2 MSTORE PUSH1 0x20 ADD PUSH1 0x40 MLOAD DUP1 PUSH1 0x40 ADD PUSH1 0x40 MSTORE DUP1 PUSH1 0xC DUP2 MSTORE PUSH1 0x20 ADD PUSH32 0x436F6D65204F6E204F7665720000000000000000000000000000000000000000 DUP2 MSTORE POP DUP2 MSTORE PUSH1 0x20 ADD PUSH1 0x40 MLOAD DUP1 PUSH1 0x40 ADD PUSH1 0x40 MSTORE DUP1 PUSH1 0x7 DUP2 MSTORE PUSH1 0x20 ADD PUSH32 0x52756D6F75727300000000000000000000000000000000000000000000000000 DUP2 MSTORE POP DUP2 MSTORE PUSH1 0x20 ADD PUSH1 0x40 MLOAD DUP1 PUSH1 0x40 ADD PUSH1 0x40 MSTORE DUP1 PUSH1 0x14 DUP2 MSTORE PUSH1 0x20 ADD PUSH32 0x5361747572646179204E69676874204665766572000000000000000000000000 DUP2 MSTORE POP DUP2 MSTORE POP PUSH1 0x1 SWAP1 PUSH1 0x9 PUSH3 0x241 SWAP3 SWAP2 SWAP1 PUSH3 0x2C9 JUMP JUMPDEST POP PUSH1 0x0 JUMPDEST PUSH1 0x1 DUP1 SLOAD SWAP1 POP DUP2 LT ISZERO PUSH3 0x2C2 JUMPI PUSH1 0x1 PUSH1 0x0 PUSH1 0x1 DUP4 DUP2 SLOAD DUP2 LT PUSH3 0x26E JUMPI PUSH3 0x26D PUSH3 0x3B6 JUMP JUMPDEST JUMPDEST SWAP1 PUSH1 0x0 MSTORE PUSH1 0x20 PUSH1 0x0 KECCAK256 ADD PUSH1 0x40 MLOAD PUSH3 0x287 SWAP2 SWAP1 PUSH3 0x4F8 JUMP JUMPDEST SWAP1 DUP2 MSTORE PUSH1 0x20 ADD PUSH1 0x40 MLOAD DUP1 SWAP2 SUB SWAP1 KECCAK256 PUSH1 0x0 PUSH2 0x100 EXP DUP2 SLOAD DUP2 PUSH1 0xFF MUL NOT AND SWAP1 DUP4 ISZERO ISZERO MUL OR SWAP1 SSTORE POP DUP1 DUP1 PUSH3 0x2B9 SWAP1 PUSH3 0x54A JUMP JUMPDEST SWAP2 POP POP PUSH3 0x245 JUMP JUMPDEST POP PUSH3 0x875 JUMP JUMPDEST DUP3 DUP1 SLOAD DUP3 DUP3 SSTORE SWAP1 PUSH1 0x0 MSTORE PUSH1 0x20 PUSH1 0x0 KECCAK256 SWAP1 DUP2 ADD SWAP3 DUP3 ISZERO PUSH3 0x316 JUMPI SWAP2 PUSH1 0x20 MUL DUP3 ADD JUMPDEST DUP3 DUP2 GT ISZERO PUSH3 0x315 JUMPI DUP3 MLOAD DUP3 SWAP1 DUP2 PUSH3 0x304 SWAP2 SWAP1 PUSH3 0x78E JUMP JUMPDEST POP SWAP2 PUSH1 0x20 ADD SWAP2 SWAP1 PUSH1 0x1 ADD SWAP1 PUSH3 0x2EA JUMP JUMPDEST JUMPDEST POP SWAP1 POP PUSH3 0x325 SWAP2 SWAP1 PUSH3 0x329 JUMP JUMPDEST POP SWAP1 JUMP JUMPDEST JUMPDEST DUP1 DUP3 GT ISZERO PUSH3 0x34D JUMPI PUSH1 0x0 DUP2 DUP2 PUSH3 0x343 SWAP2 SWAP1 PUSH3 0x351 JUMP JUMPDEST POP PUSH1 0x1 ADD PUSH3 0x32A JUMP JUMPDEST POP SWAP1 JUMP JUMPDEST POP DUP1 SLOAD PUSH3 0x35F SWAP1 PUSH3 0x414 JUMP JUMPDEST PUSH1 0x0 DUP3 SSTORE DUP1 PUSH1 0x1F LT PUSH3 0x373 JUMPI POP PUSH3 0x394 JUMP JUMPDEST PUSH1 0x1F ADD PUSH1 0x20 SWAP1 DIV SWAP1 PUSH1 0x0 MSTORE PUSH1 0x20 PUSH1 0x0 KECCAK256 SWAP1 DUP2 ADD SWAP1 PUSH3 0x393 SWAP2 SWAP1 PUSH3 0x397 JUMP JUMPDEST JUMPDEST POP JUMP JUMPDEST JUMPDEST DUP1 DUP3 GT ISZERO PUSH3 0x3B2 JUMPI PUSH1 0x0 DUP2 PUSH1 0x0 SWAP1 SSTORE POP PUSH1 0x1 ADD PUSH3 0x398 JUMP JUMPDEST POP SWAP1 JUMP JUMPDEST PUSH32 0x4E487B7100000000000000000000000000000000000000000000000000000000 PUSH1 0x0 MSTORE PUSH1 0x32 PUSH1 0x4 MSTORE PUSH1 0x24 PUSH1 0x0 REVERT JUMPDEST PUSH32 0x4E487B7100000000000000000000000000000000000000000000000000000000 PUSH1 0x0 MSTORE PUSH1 0x22 PUSH1 0x4 MSTORE PUSH1 0x24 PUSH1 0x0 REVERT JUMPDEST PUSH1 0x0 PUSH1 0x2 DUP3 DIV SWAP1 POP PUSH1 0x1 DUP3 AND DUP1 PUSH3 0x42D JUMPI PUSH1 0x7F DUP3 AND SWAP2 POP JUMPDEST PUSH1 0x20 DUP3 LT DUP2 SUB PUSH3 0x443 JUMPI PUSH3 0x442 PUSH3 0x3E5 JUMP JUMPDEST JUMPDEST POP SWAP2 SWAP1 POP JUMP JUMPDEST PUSH1 0x0 DUP2 SWAP1 POP SWAP3 SWAP2 POP POP JUMP JUMPDEST PUSH1 0x0 DUP2 SWAP1 POP DUP2 PUSH1 0x0 MSTORE PUSH1 0x20 PUSH1 0x0 KECCAK256 SWAP1 POP SWAP2 SWAP1 POP JUMP JUMPDEST PUSH1 0x0 DUP2 SLOAD PUSH3 0x478 DUP2 PUSH3 0x414 JUMP JUMPDEST PUSH3 0x484 DUP2 DUP7 PUSH3 0x449 JUMP JUMPDEST SWAP5 POP PUSH1 0x1 DUP3 AND PUSH1 0x0 DUP2 EQ PUSH3 0x4A2 JUMPI PUSH1 0x1 DUP2 EQ PUSH3 0x4B8 JUMPI PUSH3 0x4EF JUMP JUMPDEST PUSH1 0xFF NOT DUP4 AND DUP7 MSTORE DUP2 ISZERO ISZERO DUP3 MUL DUP7 ADD SWAP4 POP PUSH3 0x4EF JUMP JUMPDEST PUSH3 0x4C3 DUP6 PUSH3 0x454 JUMP JUMPDEST PUSH1 0x0 JUMPDEST DUP4 DUP2 LT ISZERO PUSH3 0x4E7 JUMPI DUP2 SLOAD DUP2 DUP10 ADD MSTORE PUSH1 0x1 DUP3 ADD SWAP2 POP PUSH1 0x20 DUP2 ADD SWAP1 POP PUSH3 0x4C6 JUMP JUMPDEST DUP4 DUP9 ADD SWAP6 POP POP POP JUMPDEST POP POP POP SWAP3 SWAP2 POP POP JUMP JUMPDEST PUSH1 0x0 PUSH3 0x506 DUP3 DUP5 PUSH3 0x469 JUMP JUMPDEST SWAP2 POP DUP2 SWAP1 POP SWAP3 SWAP2 POP POP JUMP JUMPDEST PUSH32 0x4E487B7100000000000000000000000000000000000000000000000000000000 PUSH1 0x0 MSTORE PUSH1 0x11 PUSH1 0x4 MSTORE PUSH1 0x24 PUSH1 0x0 REVERT JUMPDEST PUSH1 0x0 DUP2 SWAP1 POP SWAP2 SWAP1 POP JUMP JUMPDEST PUSH1 0x0 PUSH3 0x557 DUP3 PUSH3 0x540 JUMP JUMPDEST SWAP2 POP PUSH32 0xFFFFFFFFFFFFFFFFFFFFFFFFFFFFFFFFFFFFFFFFFFFFFFFFFFFFFFFFFFFFFFFF DUP3 SUB PUSH3 0x58C JUMPI PUSH3 0x58B PUSH3 0x511 JUMP JUMPDEST JUMPDEST PUSH1 0x1 DUP3 ADD SWAP1 POP SWAP2 SWAP1 POP JUMP JUMPDEST PUSH1 0x0 DUP2 MLOAD SWAP1 POP SWAP2 SWAP1 POP JUMP JUMPDEST PUSH32 0x4E487B7100000000000000000000000000000000000000000000000000000000 PUSH1 0x0 MSTORE PUSH1 0x41 PUSH1 0x4 MSTORE PUSH1 0x24 PUSH1 0x0 REVERT JUMPDEST PUSH1 0x0 PUSH1 0x20 PUSH1 0x1F DUP4 ADD DIV SWAP1 POP SWAP2 SWAP1 POP JUMP JUMPDEST PUSH1 0x0 DUP3 DUP3 SHL SWAP1 POP SWAP3 SWAP2 POP POP JUMP JUMPDEST PUSH1 0x0 PUSH1 0x8 DUP4 MUL PUSH3 0x620 PUSH32 0xFFFFFFFFFFFFFFFFFFFFFFFFFFFFFFFFFFFFFFFFFFFFFFFFFFFFFFFFFFFFFFFF DUP3 PUSH3 0x5E1 JUMP JUMPDEST PUSH3 0x62C DUP7 DUP4 PUSH3 0x5E1 JUMP JUMPDEST SWAP6 POP DUP1 NOT DUP5 AND SWAP4 POP DUP1 DUP7 AND DUP5 OR SWAP3 POP POP POP SWAP4 SWAP3 POP POP POP JUMP JUMPDEST PUSH1 0x0 DUP2 SWAP1 POP SWAP2 SWAP1 POP JUMP JUMPDEST PUSH1 0x0 PUSH3 0x66F PUSH3 0x669 PUSH3 0x663 DUP5 PUSH3 0x540 JUMP JUMPDEST PUSH3 0x644 JUMP JUMPDEST PUSH3 0x540 JUMP JUMPDEST SWAP1 POP SWAP2 SWAP1 POP JUMP JUMPDEST PUSH1 0x0 DUP2 SWAP1 POP SWAP2 SWAP1 POP JUMP JUMPDEST PUSH3 0x68B DUP4 PUSH3 0x64E JUMP JUMPDEST PUSH3 0x6A3 PUSH3 0x69A DUP3 PUSH3 0x676 JUMP JUMPDEST DUP5 DUP5 SLOAD PUSH3 0x5EE JUMP JUMPDEST DUP3 SSTORE POP POP POP POP JUMP JUMPDEST PUSH1 0x0 SWAP1 JUMP JUMPDEST PUSH3 0x6BA PUSH3 0x6AB JUMP JUMPDEST PUSH3 0x6C7 DUP2 DUP5 DUP5 PUSH3 0x680 JUMP JUMPDEST POP POP POP JUMP JUMPDEST JUMPDEST DUP2 DUP2 LT ISZERO PUSH3 0x6EF JUMPI PUSH3 0x6E3 PUSH1 0x0 DUP3 PUSH3 0x6B0 JUMP JUMPDEST PUSH1 0x1 DUP2 ADD SWAP1 POP PUSH3 0x6CD JUMP JUMPDEST POP POP JUMP JUMPDEST PUSH1 0x1F DUP3 GT ISZERO PUSH3 0x73E JUMPI PUSH3 0x708 DUP2 PUSH3 0x454 JUMP JUMPDEST PUSH3 0x713 DUP5 PUSH3 0x5D1 JUMP JUMPDEST DUP2 ADD PUSH1 0x20 DUP6 LT ISZERO PUSH3 0x723 JUMPI DUP2 SWAP1 POP JUMPDEST PUSH3 0x73B PUSH3 0x732 DUP6 PUSH3 0x5D1 JUMP JUMPDEST DUP4 ADD DUP3 PUSH3 0x6CC JUMP JUMPDEST POP POP JUMPDEST POP POP POP JUMP JUMPDEST PUSH1 0x0 DUP3 DUP3 SHR SWAP1 POP SWAP3 SWAP2 POP POP JUMP JUMPDEST PUSH1 0x0 PUSH3 0x763 PUSH1 0x0 NOT DUP5 PUSH1 0x8 MUL PUSH3 0x743 JUMP JUMPDEST NOT DUP1 DUP4 AND SWAP2 POP POP SWAP3 SWAP2 POP POP JUMP JUMPDEST PUSH1 0x0 PUSH3 0x77E DUP4 DUP4 PUSH3 0x750 JUMP JUMPDEST SWAP2 POP DUP3 PUSH1 0x2 MUL DUP3 OR SWAP1 POP SWAP3 SWAP2 POP POP JUMP JUMPDEST PUSH3 0x799 DUP3 PUSH3 0x597 JUMP JUMPDEST PUSH8 0xFFFFFFFFFFFFFFFF DUP2 GT ISZERO PUSH3 0x7B5 JUMPI PUSH3 0x7B4 PUSH3 0x5A2 JUMP JUMPDEST JUMPDEST PUSH3 0x7C1 DUP3 SLOAD PUSH3 0x414 JUMP JUMPDEST PUSH3 0x7CE DUP3 DUP3 DUP6 PUSH3 0x6F3 JUMP JUMPDEST PUSH1 0x0 PUSH1 0x20 SWAP1 POP PUSH1 0x1F DUP4 GT PUSH1 0x1 DUP2 EQ PUSH3 0x806 JUMPI PUSH1 0x0 DUP5 ISZERO PUSH3 0x7F1 JUMPI DUP3 DUP8 ADD MLOAD SWAP1 POP JUMPDEST PUSH3 0x7FD DUP6 DUP3 PUSH3 0x770 JUMP JUMPDEST DUP7 SSTORE POP PUSH3 0x86D JUMP JUMPDEST PUSH1 0x1F NOT DUP5 AND PUSH3 0x816 DUP7 PUSH3 0x454 JUMP JUMPDEST PUSH1 0x0 JUMPDEST DUP3 DUP2 LT ISZERO PUSH3 0x840 JUMPI DUP5 DUP10 ADD MLOAD DUP3 SSTORE PUSH1 0x1 DUP3 ADD SWAP2 POP PUSH1 0x20 DUP6 ADD SWAP5 POP PUSH1 0x20 DUP2 ADD SWAP1 POP PUSH3 0x819 JUMP JUMPDEST DUP7 DUP4 LT ISZERO PUSH3 0x860 JUMPI DUP5 DUP10 ADD MLOAD PUSH3 0x85C PUSH1 0x1F DUP10 AND DUP3 PUSH3 0x750 JUMP JUMPDEST DUP4 SSTORE POP JUMPDEST PUSH1 0x1 PUSH1 0x2 DUP9 MUL ADD DUP9 SSTORE POP POP POP JUMPDEST POP POP POP POP POP POP JUMP JUMPDEST PUSH2 0x1031 DUP1 PUSH3 0x885 PUSH1 0x0 CODECOPY PUSH1 0x0 RETURN INVALID PUSH1 0x80 PUSH1 0x40 MSTORE CALLVALUE DUP1 ISZERO PUSH2 0x10 JUMPI PUSH1 0x0 DUP1 REVERT JUMPDEST POP PUSH1 0x4 CALLDATASIZE LT PUSH2 0x57 JUMPI PUSH1 0x0 CALLDATALOAD PUSH1 0xE0 SHR DUP1 PUSH4 0x1CF0830B EQ PUSH2 0x5C JUMPI DUP1 PUSH4 0x837F8878 EQ PUSH2 0x7A JUMPI DUP1 PUSH4 0xB374AC59 EQ PUSH2 0x84 JUMPI DUP1 PUSH4 0xC7853148 EQ PUSH2 0xB4 JUMPI DUP1 PUSH4 0xD81AA8C4 EQ PUSH2 0xE4 JUMPI JUMPDEST PUSH1 0x0 DUP1 REVERT JUMPDEST PUSH2 0x64 PUSH2 0x100 JUMP JUMPDEST PUSH1 0x40 MLOAD PUSH2 0x71 SWAP2 SWAP1 PUSH2 0x89F JUMP JUMPDEST PUSH1 0x40 MLOAD DUP1 SWAP2 SUB SWAP1 RETURN JUMPDEST PUSH2 0x82 PUSH2 0x1D9 JUMP JUMPDEST STOP JUMPDEST PUSH2 0x9E PUSH1 0x4 DUP1 CALLDATASIZE SUB DUP2 ADD SWAP1 PUSH2 0x99 SWAP2 SWAP1 PUSH2 0xA0A JUMP JUMPDEST PUSH2 0x355 JUMP JUMPDEST PUSH1 0x40 MLOAD PUSH2 0xAB SWAP2 SWAP1 PUSH2 0xA6E JUMP JUMPDEST PUSH1 0x40 MLOAD DUP1 SWAP2 SUB SWAP1 RETURN JUMPDEST PUSH2 0xCE PUSH1 0x4 DUP1 CALLDATASIZE SUB DUP2 ADD SWAP1 PUSH2 0xC9 SWAP2 SWAP1 PUSH2 0xAE7 JUMP JUMPDEST PUSH2 0x38B JUMP JUMPDEST PUSH1 0x40 MLOAD PUSH2 0xDB SWAP2 SWAP1 PUSH2 0x89F JUMP JUMPDEST PUSH1 0x40 MLOAD DUP1 SWAP2 SUB SWAP1 RETURN JUMPDEST PUSH2 0xFE PUSH1 0x4 DUP1 CALLDATASIZE SUB DUP2 ADD SWAP1 PUSH2 0xF9 SWAP2 SWAP1 PUSH2 0xA0A JUMP JUMPDEST PUSH2 0x4A3 JUMP JUMPDEST STOP JUMPDEST PUSH1 0x60 PUSH1 0x1 DUP1 SLOAD DUP1 PUSH1 0x20 MUL PUSH1 0x20 ADD PUSH1 0x40 MLOAD SWAP1 DUP2 ADD PUSH1 0x40 MSTORE DUP1 SWAP3 SWAP2 SWAP1 DUP2 DUP2 MSTORE PUSH1 0x20 ADD PUSH1 0x0 SWAP1 JUMPDEST DUP3 DUP3 LT ISZERO PUSH2 0x1D0 JUMPI DUP4 DUP3 SWAP1 PUSH1 0x0 MSTORE PUSH1 0x20 PUSH1 0x0 KECCAK256 ADD DUP1 SLOAD PUSH2 0x143 SWAP1 PUSH2 0xB43 JUMP JUMPDEST DUP1 PUSH1 0x1F ADD PUSH1 0x20 DUP1 SWAP2 DIV MUL PUSH1 0x20 ADD PUSH1 0x40 MLOAD SWAP1 DUP2 ADD PUSH1 0x40 MSTORE DUP1 SWAP3 SWAP2 SWAP1 DUP2 DUP2 MSTORE PUSH1 0x20 ADD DUP3 DUP1 SLOAD PUSH2 0x16F SWAP1 PUSH2 0xB43 JUMP JUMPDEST DUP1 ISZERO PUSH2 0x1BC JUMPI DUP1 PUSH1 0x1F LT PUSH2 0x191 JUMPI PUSH2 0x100 DUP1 DUP4 SLOAD DIV MUL DUP4 MSTORE SWAP2 PUSH1 0x20 ADD SWAP2 PUSH2 0x1BC JUMP JUMPDEST DUP3 ADD SWAP2 SWAP1 PUSH1 0x0 MSTORE PUSH1 0x20 PUSH1 0x0 KECCAK256 SWAP1 JUMPDEST DUP2 SLOAD DUP2 MSTORE SWAP1 PUSH1 0x1 ADD SWAP1 PUSH1 0x20 ADD DUP1 DUP4 GT PUSH2 0x19F JUMPI DUP3 SWAP1 SUB PUSH1 0x1F AND DUP3 ADD SWAP2 JUMPDEST POP POP POP POP POP DUP2 MSTORE PUSH1 0x20 ADD SWAP1 PUSH1 0x1 ADD SWAP1 PUSH2 0x124 JUMP JUMPDEST POP POP POP POP SWAP1 POP SWAP1 JUMP JUMPDEST PUSH1 0x0 JUMPDEST PUSH1 0x3 PUSH1 0x0 CALLER PUSH20 0xFFFFFFFFFFFFFFFFFFFFFFFFFFFFFFFFFFFFFFFF AND PUSH20 0xFFFFFFFFFFFFFFFFFFFFFFFFFFFFFFFFFFFFFFFF AND DUP2 MSTORE PUSH1 0x20 ADD SWAP1 DUP2 MSTORE PUSH1 0x20 ADD PUSH1 0x0 KECCAK256 DUP1 SLOAD SWAP1 POP DUP2 LT ISZERO PUSH2 0x307 JUMPI PUSH1 0x0 PUSH1 0x2 PUSH1 0x0 CALLER PUSH20 0xFFFFFFFFFFFFFFFFFFFFFFFFFFFFFFFFFFFFFFFF AND PUSH20 0xFFFFFFFFFFFFFFFFFFFFFFFFFFFFFFFFFFFFFFFF AND DUP2 MSTORE PUSH1 0x20 ADD SWAP1 DUP2 MSTORE PUSH1 0x20 ADD PUSH1 0x0 KECCAK256 PUSH1 0x3 PUSH1 0x0 CALLER PUSH20 0xFFFFFFFFFFFFFFFFFFFFFFFFFFFFFFFFFFFFFFFF AND PUSH20 0xFFFFFFFFFFFFFFFFFFFFFFFFFFFFFFFFFFFFFFFF AND DUP2 MSTORE PUSH1 0x20 ADD SWAP1 DUP2 MSTORE PUSH1 0x20 ADD PUSH1 0x0 KECCAK256 DUP4 DUP2 SLOAD DUP2 LT PUSH2 0x2B8 JUMPI PUSH2 0x2B7 PUSH2 0xB74 JUMP JUMPDEST JUMPDEST SWAP1 PUSH1 0x0 MSTORE PUSH1 0x20 PUSH1 0x0 KECCAK256 ADD PUSH1 0x40 MLOAD PUSH2 0x2CF SWAP2 SWAP1 PUSH2 0xC46 JUMP JUMPDEST SWAP1 DUP2 MSTORE PUSH1 0x20 ADD PUSH1 0x40 MLOAD DUP1 SWAP2 SUB SWAP1 KECCAK256 PUSH1 0x0 PUSH2 0x100 EXP DUP2 SLOAD DUP2 PUSH1 0xFF MUL NOT AND SWAP1 DUP4 ISZERO ISZERO MUL OR SWAP1 SSTORE POP DUP1 DUP1 PUSH2 0x2FF SWAP1 PUSH2 0xC96 JUMP JUMPDEST SWAP2 POP POP PUSH2 0x1DC JUMP JUMPDEST POP PUSH1 0x3 PUSH1 0x0 CALLER PUSH20 0xFFFFFFFFFFFFFFFFFFFFFFFFFFFFFFFFFFFFFFFF AND PUSH20 0xFFFFFFFFFFFFFFFFFFFFFFFFFFFFFFFFFFFFFFFF AND DUP2 MSTORE PUSH1 0x20 ADD SWAP1 DUP2 MSTORE PUSH1 0x20 ADD PUSH1 0x0 KECCAK256 PUSH1 0x0 PUSH2 0x353 SWAP2 SWAP1 PUSH2 0x6AB JUMP JUMPDEST JUMP JUMPDEST PUSH1 0x0 DUP2 DUP1 MLOAD PUSH1 0x20 DUP2 ADD DUP3 ADD DUP1 MLOAD DUP5 DUP3 MSTORE PUSH1 0x20 DUP4 ADD PUSH1 0x20 DUP6 ADD KECCAK256 DUP2 DUP4 MSTORE DUP1 SWAP6 POP POP POP POP POP POP PUSH1 0x0 SWAP2 POP SLOAD SWAP1 PUSH2 0x100 EXP SWAP1 DIV PUSH1 0xFF AND DUP2 JUMP JUMPDEST PUSH1 0x60 PUSH1 0x3 PUSH1 0x0 DUP4 PUSH20 0xFFFFFFFFFFFFFFFFFFFFFFFFFFFFFFFFFFFFFFFF AND PUSH20 0xFFFFFFFFFFFFFFFFFFFFFFFFFFFFFFFFFFFFFFFF AND DUP2 MSTORE PUSH1 0x20 ADD SWAP1 DUP2 MSTORE PUSH1 0x20 ADD PUSH1 0x0 KECCAK256 DUP1 SLOAD DUP1 PUSH1 0x20 MUL PUSH1 0x20 ADD PUSH1 0x40 MLOAD SWAP1 DUP2 ADD PUSH1 0x40 MSTORE DUP1 SWAP3 SWAP2 SWAP1 DUP2 DUP2 MSTORE PUSH1 0x20 ADD PUSH1 0x0 SWAP1 JUMPDEST DUP3 DUP3 LT ISZERO PUSH2 0x498 JUMPI DUP4 DUP3 SWAP1 PUSH1 0x0 MSTORE PUSH1 0x20 PUSH1 0x0 KECCAK256 ADD DUP1 SLOAD PUSH2 0x40B SWAP1 PUSH2 0xB43 JUMP JUMPDEST DUP1 PUSH1 0x1F ADD PUSH1 0x20 DUP1 SWAP2 DIV MUL PUSH1 0x20 ADD PUSH1 0x40 MLOAD SWAP1 DUP2 ADD PUSH1 0x40 MSTORE DUP1 SWAP3 SWAP2 SWAP1 DUP2 DUP2 MSTORE PUSH1 0x20 ADD DUP3 DUP1 SLOAD PUSH2 0x437 SWAP1 PUSH2 0xB43 JUMP JUMPDEST DUP1 ISZERO PUSH2 0x484 JUMPI DUP1 PUSH1 0x1F LT PUSH2 0x459 JUMPI PUSH2 0x100 DUP1 DUP4 SLOAD DIV MUL DUP4 MSTORE SWAP2 PUSH1 0x20 ADD SWAP2 PUSH2 0x484 JUMP JUMPDEST DUP3 ADD SWAP2 SWAP1 PUSH1 0x0 MSTORE PUSH1 0x20 PUSH1 0x0 KECCAK256 SWAP1 JUMPDEST DUP2 SLOAD DUP2 MSTORE SWAP1 PUSH1 0x1 ADD SWAP1 PUSH1 0x20 ADD DUP1 DUP4 GT PUSH2 0x467 JUMPI DUP3 SWAP1 SUB PUSH1 0x1F AND DUP3 ADD SWAP2 JUMPDEST POP POP POP POP POP DUP2 MSTORE PUSH1 0x20 ADD SWAP1 PUSH1 0x1 ADD SWAP1 PUSH2 0x3EC JUMP JUMPDEST POP POP POP POP SWAP1 POP SWAP2 SWAP1 POP JUMP JUMPDEST PUSH1 0x0 ISZERO ISZERO PUSH1 0x0 DUP3 PUSH1 0x40 MLOAD PUSH2 0x4B7 SWAP2 SWAP1 PUSH2 0xD0F JUMP JUMPDEST SWAP1 DUP2 MSTORE PUSH1 0x20 ADD PUSH1 0x40 MLOAD DUP1 SWAP2 SUB SWAP1 KECCAK256 PUSH1 0x0 SWAP1 SLOAD SWAP1 PUSH2 0x100 EXP SWAP1 DIV PUSH1 0xFF AND ISZERO ISZERO SUB PUSH2 0x517 JUMPI DUP1 PUSH1 0x40 MLOAD PUSH32 0x4F0FFC1B00000000000000000000000000000000000000000000000000000000 DUP2 MSTORE PUSH1 0x4 ADD PUSH2 0x50E SWAP2 SWAP1 PUSH2 0xD70 JUMP JUMPDEST PUSH1 0x40 MLOAD DUP1 SWAP2 SUB SWAP1 REVERT JUMPDEST PUSH1 0x2 PUSH1 0x0 CALLER PUSH20 0xFFFFFFFFFFFFFFFFFFFFFFFFFFFFFFFFFFFFFFFF AND PUSH20 0xFFFFFFFFFFFFFFFFFFFFFFFFFFFFFFFFFFFFFFFF AND DUP2 MSTORE PUSH1 0x20 ADD SWAP1 DUP2 MSTORE PUSH1 0x20 ADD PUSH1 0x0 KECCAK256 DUP2 PUSH1 0x40 MLOAD PUSH2 0x564 SWAP2 SWAP1 PUSH2 0xD0F JUMP JUMPDEST SWAP1 DUP2 MSTORE PUSH1 0x20 ADD PUSH1 0x40 MLOAD DUP1 SWAP2 SUB SWAP1 KECCAK256 PUSH1 0x0 SWAP1 SLOAD SWAP1 PUSH2 0x100 EXP SWAP1 DIV PUSH1 0xFF AND ISZERO PUSH2 0x5C2 JUMPI DUP1 PUSH1 0x40 MLOAD PUSH32 0x6A47082D00000000000000000000000000000000000000000000000000000000 DUP2 MSTORE PUSH1 0x4 ADD PUSH2 0x5B9 SWAP2 SWAP1 PUSH2 0xD70 JUMP JUMPDEST PUSH1 0x40 MLOAD DUP1 SWAP2 SUB SWAP1 REVERT JUMPDEST PUSH1 0x1 PUSH1 0x2 PUSH1 0x0 CALLER PUSH20 0xFFFFFFFFFFFFFFFFFFFFFFFFFFFFFFFFFFFFFFFF AND PUSH20 0xFFFFFFFFFFFFFFFFFFFFFFFFFFFFFFFFFFFFFFFF AND DUP2 MSTORE PUSH1 0x20 ADD SWAP1 DUP2 MSTORE PUSH1 0x20 ADD PUSH1 0x0 KECCAK256 DUP3 PUSH1 0x40 MLOAD PUSH2 0x611 SWAP2 SWAP1 PUSH2 0xD0F JUMP JUMPDEST SWAP1 DUP2 MSTORE PUSH1 0x20 ADD PUSH1 0x40 MLOAD DUP1 SWAP2 SUB SWAP1 KECCAK256 PUSH1 0x0 PUSH2 0x100 EXP DUP2 SLOAD DUP2 PUSH1 0xFF MUL NOT AND SWAP1 DUP4 ISZERO ISZERO MUL OR SWAP1 SSTORE POP PUSH1 0x3 PUSH1 0x0 CALLER PUSH20 0xFFFFFFFFFFFFFFFFFFFFFFFFFFFFFFFFFFFFFFFF AND PUSH20 0xFFFFFFFFFFFFFFFFFFFFFFFFFFFFFFFFFFFFFFFF AND DUP2 MSTORE PUSH1 0x20 ADD SWAP1 DUP2 MSTORE PUSH1 0x20 ADD PUSH1 0x0 KECCAK256 DUP2 SWAP1 DUP1 PUSH1 0x1 DUP2 SLOAD ADD DUP1 DUP3 SSTORE DUP1 SWAP2 POP POP PUSH1 0x1 SWAP1 SUB SWAP1 PUSH1 0x0 MSTORE PUSH1 0x20 PUSH1 0x0 KECCAK256 ADD PUSH1 0x0 SWAP1 SWAP2 SWAP1 SWAP2 SWAP1 SWAP2 POP SWAP1 DUP2 PUSH2 0x6A7 SWAP2 SWAP1 PUSH2 0xF29 JUMP JUMPDEST POP POP JUMP JUMPDEST POP DUP1 SLOAD PUSH1 0x0 DUP3 SSTORE SWAP1 PUSH1 0x0 MSTORE PUSH1 0x20 PUSH1 0x0 KECCAK256 SWAP1 DUP2 ADD SWAP1 PUSH2 0x6C9 SWAP2 SWAP1 PUSH2 0x6CC JUMP JUMPDEST POP JUMP JUMPDEST JUMPDEST DUP1 DUP3 GT ISZERO PUSH2 0x6EC JUMPI PUSH1 0x0 DUP2 DUP2 PUSH2 0x6E3 SWAP2 SWAP1 PUSH2 0x6F0 JUMP JUMPDEST POP PUSH1 0x1 ADD PUSH2 0x6CD JUMP JUMPDEST POP SWAP1 JUMP JUMPDEST POP DUP1 SLOAD PUSH2 0x6FC SWAP1 PUSH2 0xB43 JUMP JUMPDEST PUSH1 0x0 DUP3 SSTORE DUP1 PUSH1 0x1F LT PUSH2 0x70E JUMPI POP PUSH2 0x72D JUMP JUMPDEST PUSH1 0x1F ADD PUSH1 0x20 SWAP1 DIV SWAP1 PUSH1 0x0 MSTORE PUSH1 0x20 PUSH1 0x0 KECCAK256 SWAP1 DUP2 ADD SWAP1 PUSH2 0x72C SWAP2 SWAP1 PUSH2 0x730 JUMP JUMPDEST JUMPDEST POP JUMP JUMPDEST JUMPDEST DUP1 DUP3 GT ISZERO PUSH2 0x749 JUMPI PUSH1 0x0 DUP2 PUSH1 0x0 SWAP1 SSTORE POP PUSH1 0x1 ADD PUSH2 0x731 JUMP JUMPDEST POP SWAP1 JUMP JUMPDEST PUSH1 0x0 DUP2 MLOAD SWAP1 POP SWAP2 SWAP1 POP JUMP JUMPDEST PUSH1 0x0 DUP3 DUP3 MSTORE PUSH1 0x20 DUP3 ADD SWAP1 POP SWAP3 SWAP2 POP POP JUMP JUMPDEST PUSH1 0x0 DUP2 SWAP1 POP PUSH1 0x20 DUP3 ADD SWAP1 POP SWAP2 SWAP1 POP JUMP JUMPDEST PUSH1 0x0 DUP2 MLOAD SWAP1 POP SWAP2 SWAP1 POP JUMP JUMPDEST PUSH1 0x0 DUP3 DUP3 MSTORE PUSH1 0x20 DUP3 ADD SWAP1 POP SWAP3 SWAP2 POP POP JUMP JUMPDEST PUSH1 0x0 JUMPDEST DUP4 DUP2 LT ISZERO PUSH2 0x7B3 JUMPI DUP1 DUP3 ADD MLOAD DUP2 DUP5 ADD MSTORE PUSH1 0x20 DUP2 ADD SWAP1 POP PUSH2 0x798 JUMP JUMPDEST PUSH1 0x0 DUP5 DUP5 ADD MSTORE POP POP POP POP JUMP JUMPDEST PUSH1 0x0 PUSH1 0x1F NOT PUSH1 0x1F DUP4 ADD AND SWAP1 POP SWAP2 SWAP1 POP JUMP JUMPDEST PUSH1 0x0 PUSH2 0x7DB DUP3 PUSH2 0x779 JUMP JUMPDEST PUSH2 0x7E5 DUP2 DUP6 PUSH2 0x784 JUMP JUMPDEST SWAP4 POP PUSH2 0x7F5 DUP2 DUP6 PUSH1 0x20 DUP7 ADD PUSH2 0x795 JUMP JUMPDEST PUSH2 0x7FE DUP2 PUSH2 0x7BF JUMP JUMPDEST DUP5 ADD SWAP2 POP POP SWAP3 SWAP2 POP POP JUMP JUMPDEST PUSH1 0x0 PUSH2 0x815 DUP4 DUP4 PUSH2 0x7D0 JUMP JUMPDEST SWAP1 POP SWAP3 SWAP2 POP POP JUMP JUMPDEST PUSH1 0x0 PUSH1 0x20 DUP3 ADD SWAP1 POP SWAP2 SWAP1 POP JUMP JUMPDEST PUSH1 0x0 PUSH2 0x835 DUP3 PUSH2 0x74D JUMP JUMPDEST PUSH2 0x83F DUP2 DUP6 PUSH2 0x758 JUMP JUMPDEST SWAP4 POP DUP4 PUSH1 0x20 DUP3 MUL DUP6 ADD PUSH2 0x851 DUP6 PUSH2 0x769 JUMP JUMPDEST DUP1 PUSH1 0x0 JUMPDEST DUP6 DUP2 LT ISZERO PUSH2 0x88D JUMPI DUP5 DUP5 SUB DUP10 MSTORE DUP2 MLOAD PUSH2 0x86E DUP6 DUP3 PUSH2 0x809 JUMP JUMPDEST SWAP5 POP PUSH2 0x879 DUP4 PUSH2 0x81D JUMP JUMPDEST SWAP3 POP PUSH1 0x20 DUP11 ADD SWAP10 POP POP PUSH1 0x1 DUP2 ADD SWAP1 POP PUSH2 0x855 JUMP JUMPDEST POP DUP3 SWAP8 POP DUP8 SWAP6 POP POP POP POP POP POP SWAP3 SWAP2 POP POP JUMP JUMPDEST PUSH1 0x0 PUSH1 0x20 DUP3 ADD SWAP1 POP DUP2 DUP2 SUB PUSH1 0x0 DUP4 ADD MSTORE PUSH2 0x8B9 DUP2 DUP5 PUSH2 0x82A JUMP JUMPDEST SWAP1 POP SWAP3 SWAP2 POP POP JUMP JUMPDEST PUSH1 0x0 PUSH1 0x40 MLOAD SWAP1 POP SWAP1 JUMP JUMPDEST PUSH1 0x0 DUP1 REVERT JUMPDEST PUSH1 0x0 DUP1 REVERT JUMPDEST PUSH1 0x0 DUP1 REVERT JUMPDEST PUSH1 0x0 DUP1 REVERT JUMPDEST PUSH32 0x4E487B7100000000000000000000000000000000000000000000000000000000 PUSH1 0x0 MSTORE PUSH1 0x41 PUSH1 0x4 MSTORE PUSH1 0x24 PUSH1 0x0 REVERT JUMPDEST PUSH2 0x917 DUP3 PUSH2 0x7BF JUMP JUMPDEST DUP2 ADD DUP2 DUP2 LT PUSH8 0xFFFFFFFFFFFFFFFF DUP3 GT OR ISZERO PUSH2 0x936 JUMPI PUSH2 0x935 PUSH2 0x8DF JUMP JUMPDEST JUMPDEST DUP1 PUSH1 0x40 MSTORE POP POP POP JUMP JUMPDEST PUSH1 0x0 PUSH2 0x949 PUSH2 0x8C1 JUMP JUMPDEST SWAP1 POP PUSH2 0x955 DUP3 DUP3 PUSH2 0x90E JUMP JUMPDEST SWAP2 SWAP1 POP JUMP JUMPDEST PUSH1 0x0 PUSH8 0xFFFFFFFFFFFFFFFF DUP3 GT ISZERO PUSH2 0x975 JUMPI PUSH2 0x974 PUSH2 0x8DF JUMP JUMPDEST JUMPDEST PUSH2 0x97E DUP3 PUSH2 0x7BF JUMP JUMPDEST SWAP1 POP PUSH1 0x20 DUP2 ADD SWAP1 POP SWAP2 SWAP1 POP JUMP JUMPDEST DUP3 DUP2 DUP4 CALLDATACOPY PUSH1 0x0 DUP4 DUP4 ADD MSTORE POP POP POP JUMP JUMPDEST PUSH1 0x0 PUSH2 0x9AD PUSH2 0x9A8 DUP5 PUSH2 0x95A JUMP JUMPDEST PUSH2 0x93F JUMP JUMPDEST SWAP1 POP DUP3 DUP2 MSTORE PUSH1 0x20 DUP2 ADD DUP5 DUP5 DUP5 ADD GT ISZERO PUSH2 0x9C9 JUMPI PUSH2 0x9C8 PUSH2 0x8DA JUMP JUMPDEST JUMPDEST PUSH2 0x9D4 DUP5 DUP3 DUP6 PUSH2 0x98B JUMP JUMPDEST POP SWAP4 SWAP3 POP POP POP JUMP JUMPDEST PUSH1 0x0 DUP3 PUSH1 0x1F DUP4 ADD SLT PUSH2 0x9F1 JUMPI PUSH2 0x9F0 PUSH2 0x8D5 JUMP JUMPDEST JUMPDEST DUP2 CALLDATALOAD PUSH2 0xA01 DUP5 DUP3 PUSH1 0x20 DUP7 ADD PUSH2 0x99A JUMP JUMPDEST SWAP2 POP POP SWAP3 SWAP2 POP POP JUMP JUMPDEST PUSH1 0x0 PUSH1 0x20 DUP3 DUP5 SUB SLT ISZERO PUSH2 0xA20 JUMPI PUSH2 0xA1F PUSH2 0x8CB JUMP JUMPDEST JUMPDEST PUSH1 0x0 DUP3 ADD CALLDATALOAD PUSH8 0xFFFFFFFFFFFFFFFF DUP2 GT ISZERO PUSH2 0xA3E JUMPI PUSH2 0xA3D PUSH2 0x8D0 JUMP JUMPDEST JUMPDEST PUSH2 0xA4A DUP5 DUP3 DUP6 ADD PUSH2 0x9DC JUMP JUMPDEST SWAP2 POP POP SWAP3 SWAP2 POP POP JUMP JUMPDEST PUSH1 0x0 DUP2 ISZERO ISZERO SWAP1 POP SWAP2 SWAP1 POP JUMP JUMPDEST PUSH2 0xA68 DUP2 PUSH2 0xA53 JUMP JUMPDEST DUP3 MSTORE POP POP JUMP JUMPDEST PUSH1 0x0 PUSH1 0x20 DUP3 ADD SWAP1 POP PUSH2 0xA83 PUSH1 0x0 DUP4 ADD DUP5 PUSH2 0xA5F JUMP JUMPDEST SWAP3 SWAP2 POP POP JUMP JUMPDEST PUSH1 0x0 PUSH20 0xFFFFFFFFFFFFFFFFFFFFFFFFFFFFFFFFFFFFFFFF DUP3 AND SWAP1 POP SWAP2 SWAP1 POP JUMP JUMPDEST PUSH1 0x0 PUSH2 0xAB4 DUP3 PUSH2 0xA89 JUMP JUMPDEST SWAP1 POP SWAP2 SWAP1 POP JUMP JUMPDEST PUSH2 0xAC4 DUP2 PUSH2 0xAA9 JUMP JUMPDEST DUP2 EQ PUSH2 0xACF JUMPI PUSH1 0x0 DUP1 REVERT JUMPDEST POP JUMP JUMPDEST PUSH1 0x0 DUP2 CALLDATALOAD SWAP1 POP PUSH2 0xAE1 DUP2 PUSH2 0xABB JUMP JUMPDEST SWAP3 SWAP2 POP POP JUMP JUMPDEST PUSH1 0x0 PUSH1 0x20 DUP3 DUP5 SUB SLT ISZERO PUSH2 0xAFD JUMPI PUSH2 0xAFC PUSH2 0x8CB JUMP JUMPDEST JUMPDEST PUSH1 0x0 PUSH2 0xB0B DUP5 DUP3 DUP6 ADD PUSH2 0xAD2 JUMP JUMPDEST SWAP2 POP POP SWAP3 SWAP2 POP POP JUMP JUMPDEST PUSH32 0x4E487B7100000000000000000000000000000000000000000000000000000000 PUSH1 0x0 MSTORE PUSH1 0x22 PUSH1 0x4 MSTORE PUSH1 0x24 PUSH1 0x0 REVERT JUMPDEST PUSH1 0x0 PUSH1 0x2 DUP3 DIV SWAP1 POP PUSH1 0x1 DUP3 AND DUP1 PUSH2 0xB5B JUMPI PUSH1 0x7F DUP3 AND SWAP2 POP JUMPDEST PUSH1 0x20 DUP3 LT DUP2 SUB PUSH2 0xB6E JUMPI PUSH2 0xB6D PUSH2 0xB14 JUMP JUMPDEST JUMPDEST POP SWAP2 SWAP1 POP JUMP JUMPDEST PUSH32 0x4E487B7100000000000000000000000000000000000000000000000000000000 PUSH1 0x0 MSTORE PUSH1 0x32 PUSH1 0x4 MSTORE PUSH1 0x24 PUSH1 0x0 REVERT JUMPDEST PUSH1 0x0 DUP2 SWAP1 POP SWAP3 SWAP2 POP POP JUMP JUMPDEST PUSH1 0x0 DUP2 SWAP1 POP DUP2 PUSH1 0x0 MSTORE PUSH1 0x20 PUSH1 0x0 KECCAK256 SWAP1 POP SWAP2 SWAP1 POP JUMP JUMPDEST PUSH1 0x0 DUP2 SLOAD PUSH2 0xBD0 DUP2 PUSH2 0xB43 JUMP JUMPDEST PUSH2 0xBDA DUP2 DUP7 PUSH2 0xBA3 JUMP JUMPDEST SWAP5 POP PUSH1 0x1 DUP3 AND PUSH1 0x0 DUP2 EQ PUSH2 0xBF5 JUMPI PUSH1 0x1 DUP2 EQ PUSH2 0xC0A JUMPI PUSH2 0xC3D JUMP JUMPDEST PUSH1 0xFF NOT DUP4 AND DUP7 MSTORE DUP2 ISZERO ISZERO DUP3 MUL DUP7 ADD SWAP4 POP PUSH2 0xC3D JUMP JUMPDEST PUSH2 0xC13 DUP6 PUSH2 0xBAE JUMP JUMPDEST PUSH1 0x0 JUMPDEST DUP4 DUP2 LT ISZERO PUSH2 0xC35 JUMPI DUP2 SLOAD DUP2 DUP10 ADD MSTORE PUSH1 0x1 DUP3 ADD SWAP2 POP PUSH1 0x20 DUP2 ADD SWAP1 POP PUSH2 0xC16 JUMP JUMPDEST DUP4 DUP9 ADD SWAP6 POP POP POP JUMPDEST POP POP POP SWAP3 SWAP2 POP POP JUMP JUMPDEST PUSH1 0x0 PUSH2 0xC52 DUP3 DUP5 PUSH2 0xBC3 JUMP JUMPDEST SWAP2 POP DUP2 SWAP1 POP SWAP3 SWAP2 POP POP JUMP JUMPDEST PUSH32 0x4E487B7100000000000000000000000000000000000000000000000000000000 PUSH1 0x0 MSTORE PUSH1 0x11 PUSH1 0x4 MSTORE PUSH1 0x24 PUSH1 0x0 REVERT JUMPDEST PUSH1 0x0 DUP2 SWAP1 POP SWAP2 SWAP1 POP JUMP JUMPDEST PUSH1 0x0 PUSH2 0xCA1 DUP3 PUSH2 0xC8C JUMP JUMPDEST SWAP2 POP PUSH32 0xFFFFFFFFFFFFFFFFFFFFFFFFFFFFFFFFFFFFFFFFFFFFFFFFFFFFFFFFFFFFFFFF DUP3 SUB PUSH2 0xCD3 JUMPI PUSH2 0xCD2 PUSH2 0xC5D JUMP JUMPDEST JUMPDEST PUSH1 0x1 DUP3 ADD SWAP1 POP SWAP2 SWAP1 POP JUMP JUMPDEST PUSH1 0x0 PUSH2 0xCE9 DUP3 PUSH2 0x779 JUMP JUMPDEST PUSH2 0xCF3 DUP2 DUP6 PUSH2 0xBA3 JUMP JUMPDEST SWAP4 POP PUSH2 0xD03 DUP2 DUP6 PUSH1 0x20 DUP7 ADD PUSH2 0x795 JUMP JUMPDEST DUP1 DUP5 ADD SWAP2 POP POP SWAP3 SWAP2 POP POP JUMP JUMPDEST PUSH1 0x0 PUSH2 0xD1B DUP3 DUP5 PUSH2 0xCDE JUMP JUMPDEST SWAP2 POP DUP2 SWAP1 POP SWAP3 SWAP2 POP POP JUMP JUMPDEST PUSH1 0x0 DUP3 DUP3 MSTORE PUSH1 0x20 DUP3 ADD SWAP1 POP SWAP3 SWAP2 POP POP JUMP JUMPDEST PUSH1 0x0 PUSH2 0xD42 DUP3 PUSH2 0x779 JUMP JUMPDEST PUSH2 0xD4C DUP2 DUP6 PUSH2 0xD26 JUMP JUMPDEST SWAP4 POP PUSH2 0xD5C DUP2 DUP6 PUSH1 0x20 DUP7 ADD PUSH2 0x795 JUMP JUMPDEST PUSH2 0xD65 DUP2 PUSH2 0x7BF JUMP JUMPDEST DUP5 ADD SWAP2 POP POP SWAP3 SWAP2 POP POP JUMP JUMPDEST PUSH1 0x0 PUSH1 0x20 DUP3 ADD SWAP1 POP DUP2 DUP2 SUB PUSH1 0x0 DUP4 ADD MSTORE PUSH2 0xD8A DUP2 DUP5 PUSH2 0xD37 JUMP JUMPDEST SWAP1 POP SWAP3 SWAP2 POP POP JUMP JUMPDEST PUSH1 0x0 PUSH1 0x20 PUSH1 0x1F DUP4 ADD DIV SWAP1 POP SWAP2 SWAP1 POP JUMP JUMPDEST PUSH1 0x0 DUP3 DUP3 SHL SWAP1 POP SWAP3 SWAP2 POP POP JUMP JUMPDEST PUSH1 0x0 PUSH1 0x8 DUP4 MUL PUSH2 0xDDF PUSH32 0xFFFFFFFFFFFFFFFFFFFFFFFFFFFFFFFFFFFFFFFFFFFFFFFFFFFFFFFFFFFFFFFF DUP3 PUSH2 0xDA2 JUMP JUMPDEST PUSH2 0xDE9 DUP7 DUP4 PUSH2 0xDA2 JUMP JUMPDEST SWAP6 POP DUP1 NOT DUP5 AND SWAP4 POP DUP1 DUP7 AND DUP5 OR SWAP3 POP POP POP SWAP4 SWAP3 POP POP POP JUMP JUMPDEST PUSH1 0x0 DUP2 SWAP1 POP SWAP2 SWAP1 POP JUMP JUMPDEST PUSH1 0x0 PUSH2 0xE26 PUSH2 0xE21 PUSH2 0xE1C DUP5 PUSH2 0xC8C JUMP JUMPDEST PUSH2 0xE01 JUMP JUMPDEST PUSH2 0xC8C JUMP JUMPDEST SWAP1 POP SWAP2 SWAP1 POP JUMP JUMPDEST PUSH1 0x0 DUP2 SWAP1 POP SWAP2 SWAP1 POP JUMP JUMPDEST PUSH2 0xE40 DUP4 PUSH2 0xE0B JUMP JUMPDEST PUSH2 0xE54 PUSH2 0xE4C DUP3 PUSH2 0xE2D JUMP JUMPDEST DUP5 DUP5 SLOAD PUSH2 0xDAF JUMP JUMPDEST DUP3 SSTORE POP POP POP POP JUMP JUMPDEST PUSH1 0x0 SWAP1 JUMP JUMPDEST PUSH2 0xE69 PUSH2 0xE5C JUMP JUMPDEST PUSH2 0xE74 DUP2 DUP5 DUP5 PUSH2 0xE37 JUMP JUMPDEST POP POP POP JUMP JUMPDEST JUMPDEST DUP2 DUP2 LT ISZERO PUSH2 0xE98 JUMPI PUSH2 0xE8D PUSH1 0x0 DUP3 PUSH2 0xE61 JUMP JUMPDEST PUSH1 0x1 DUP2 ADD SWAP1 POP PUSH2 0xE7A JUMP JUMPDEST POP POP JUMP JUMPDEST PUSH1 0x1F DUP3 GT ISZERO PUSH2 0xEDD JUMPI PUSH2 0xEAE DUP2 PUSH2 0xBAE JUMP JUMPDEST PUSH2 0xEB7 DUP5 PUSH2 0xD92 JUMP JUMPDEST DUP2 ADD PUSH1 0x20 DUP6 LT ISZERO PUSH2 0xEC6 JUMPI DUP2 SWAP1 POP JUMPDEST PUSH2 0xEDA PUSH2 0xED2 DUP6 PUSH2 0xD92 JUMP JUMPDEST DUP4 ADD DUP3 PUSH2 0xE79 JUMP JUMPDEST POP POP JUMPDEST POP POP POP JUMP JUMPDEST PUSH1 0x0 DUP3 DUP3 SHR SWAP1 POP SWAP3 SWAP2 POP POP JUMP JUMPDEST PUSH1 0x0 PUSH2 0xF00 PUSH1 0x0 NOT DUP5 PUSH1 0x8 MUL PUSH2 0xEE2 JUMP JUMPDEST NOT DUP1 DUP4 AND SWAP2 POP POP SWAP3 SWAP2 POP POP JUMP JUMPDEST PUSH1 0x0 PUSH2 0xF19 DUP4 DUP4 PUSH2 0xEEF JUMP JUMPDEST SWAP2 POP DUP3 PUSH1 0x2 MUL DUP3 OR SWAP1 POP SWAP3 SWAP2 POP POP JUMP JUMPDEST PUSH2 0xF32 DUP3 PUSH2 0x779 JUMP JUMPDEST PUSH8 0xFFFFFFFFFFFFFFFF DUP2 GT ISZERO PUSH2 0xF4B JUMPI PUSH2 0xF4A PUSH2 0x8DF JUMP JUMPDEST JUMPDEST PUSH2 0xF55 DUP3 SLOAD PUSH2 0xB43 JUMP JUMPDEST PUSH2 0xF60 DUP3 DUP3 DUP6 PUSH2 0xE9C JUMP JUMPDEST PUSH1 0x0 PUSH1 0x20 SWAP1 POP PUSH1 0x1F DUP4 GT PUSH1 0x1 DUP2 EQ PUSH2 0xF93 JUMPI PUSH1 0x0 DUP5 ISZERO PUSH2 0xF81 JUMPI DUP3 DUP8 ADD MLOAD SWAP1 POP JUMPDEST PUSH2 0xF8B DUP6 DUP3 PUSH2 0xF0D JUMP JUMPDEST DUP7 SSTORE POP PUSH2 0xFF3 JUMP JUMPDEST PUSH1 0x1F NOT DUP5 AND PUSH2 0xFA1 DUP7 PUSH2 0xBAE JUMP JUMPDEST PUSH1 0x0 JUMPDEST DUP3 DUP2 LT ISZERO PUSH2 0xFC9 JUMPI DUP5 DUP10 ADD MLOAD DUP3 SSTORE PUSH1 0x1 DUP3 ADD SWAP2 POP PUSH1 0x20 DUP6 ADD SWAP5 POP PUSH1 0x20 DUP2 ADD SWAP1 POP PUSH2 0xFA4 JUMP JUMPDEST DUP7 DUP4 LT ISZERO PUSH2 0xFE6 JUMPI DUP5 DUP10 ADD MLOAD PUSH2 0xFE2 PUSH1 0x1F DUP10 AND DUP3 PUSH2 0xEEF JUMP JUMPDEST DUP4 SSTORE POP JUMPDEST PUSH1 0x1 PUSH1 0x2 DUP9 MUL ADD DUP9 SSTORE POP POP POP JUMPDEST POP POP POP POP POP POP JUMP INVALID LOG2 PUSH5 0x6970667358 0x22 SLT KECCAK256 0xCF 0x21 SWAP11 0xC2 CHAINID 0x4F SWAP13 SWAP13 DUP3 CALLCODE PUSH6 0xE6500AD92E56 0xC8 0x5D 0xAB 0xCA 0xEC 0x26 DUP4 0x24 CALLDATALOAD SWAP13 0xB7 PUSH17 0xED88EE64736F6C63430008120033000000 "
				},
				"gasEstimates": {
					"creation": {
						"codeDepositCost": "829000",
						"executionCost": "infinite",
						"totalCost": "infinite"
					},
					"external": {
						"addRecord(string)": "infinite",
						"approvedRecords(string)": "infinite",
						"getApprovedRecords()": "infinite",
						"getUserFavorites(address)": "infinite",
						"resetUserFavorites()": "infinite"
					}
				},
				"methodIdentifiers": {
					"addRecord(string)": "d81aa8c4",
					"approvedRecords(string)": "b374ac59",
					"getApprovedRecords()": "1cf0830b",
					"getUserFavorites(address)": "c7853148",
					"resetUserFavorites()": "837f8878"
				}
			},
			"storageLayout": {
				"storage": [
					{
						"astId": 6,
						"contract": "Maps/contracts/FavoriteRecords.sol:FavoriteRecords",
						"label": "approvedRecords",
						"offset": 0,
						"slot": "0",
						"type": "t_mapping(t_string_memory_ptr,t_bool)"
					},
					{
						"astId": 9,
						"contract": "Maps/contracts/FavoriteRecords.sol:FavoriteRecords",
						"label": "approvedSet",
						"offset": 0,
						"slot": "1",
						"type": "t_array(t_string_storage)dyn_storage"
					},
					{
						"astId": 15,
						"contract": "Maps/contracts/FavoriteRecords.sol:FavoriteRecords",
						"label": "userFavorites",
						"offset": 0,
						"slot": "2",
						"type": "t_mapping(t_address,t_mapping(t_string_memory_ptr,t_bool))"
					},
					{
						"astId": 20,
						"contract": "Maps/contracts/FavoriteRecords.sol:FavoriteRecords",
						"label": "userFavoritesSets",
						"offset": 0,
						"slot": "3",
						"type": "t_mapping(t_address,t_array(t_string_storage)dyn_storage)"
					}
				],
				"types": {
					"t_address": {
						"encoding": "inplace",
						"label": "address",
						"numberOfBytes": "20"
					},
					"t_array(t_string_storage)dyn_storage": {
						"base": "t_string_storage",
						"encoding": "dynamic_array",
						"label": "string[]",
						"numberOfBytes": "32"
					},
					"t_bool": {
						"encoding": "inplace",
						"label": "bool",
						"numberOfBytes": "1"
					},
					"t_mapping(t_address,t_array(t_string_storage)dyn_storage)": {
						"encoding": "mapping",
						"key": "t_address",
						"label": "mapping(address => string[])",
						"numberOfBytes": "32",
						"value": "t_array(t_string_storage)dyn_storage"
					},
					"t_mapping(t_address,t_mapping(t_string_memory_ptr,t_bool))": {
						"encoding": "mapping",
						"key": "t_address",
						"label": "mapping(address => mapping(string => bool))",
						"numberOfBytes": "32",
						"value": "t_mapping(t_string_memory_ptr,t_bool)"
					},
					"t_mapping(t_string_memory_ptr,t_bool)": {
						"encoding": "mapping",
						"key": "t_string_memory_ptr",
						"label": "mapping(string => bool)",
						"numberOfBytes": "32",
						"value": "t_bool"
					},
					"t_string_memory_ptr": {
						"encoding": "bytes",
						"label": "string",
						"numberOfBytes": "32"
					},
					"t_string_storage": {
						"encoding": "bytes",
						"label": "string",
						"numberOfBytes": "32"
					}
				}
			},
			"userdoc": {
				"kind": "user",
				"methods": {},
				"version": 1
			}
		}
	}
}