{
	"EmployeeStorage/contracts/EmployeeStorage.sol": {
		"EmployeeStorage": {
			"abi": [
				{
					"inputs": [
						{
							"internalType": "uint16",
							"name": "_shares",
							"type": "uint16"
						},
						{
							"internalType": "string",
							"name": "_name",
							"type": "string"
						},
						{
							"internalType": "uint24",
							"name": "_salary",
							"type": "uint24"
						},
						{
							"internalType": "uint256",
							"name": "_idNumber",
							"type": "uint256"
						}
					],
					"stateMutability": "nonpayable",
					"type": "constructor"
				},
				{
					"inputs": [
						{
							"internalType": "uint256",
							"name": "_slot",
							"type": "uint256"
						}
					],
					"name": "checkForPacking",
					"outputs": [
						{
							"internalType": "uint256",
							"name": "r",
							"type": "uint256"
						}
					],
					"stateMutability": "view",
					"type": "function"
				},
				{
					"inputs": [],
					"name": "debugResetShares",
					"outputs": [],
					"stateMutability": "nonpayable",
					"type": "function"
				},
				{
					"inputs": [
						{
							"internalType": "uint16",
							"name": "_newShares",
							"type": "uint16"
						}
					],
					"name": "grantShares",
					"outputs": [
						{
							"internalType": "uint16",
							"name": "",
							"type": "uint16"
						}
					],
					"stateMutability": "nonpayable",
					"type": "function"
				},
				{
					"inputs": [],
					"name": "idNumber",
					"outputs": [
						{
							"internalType": "uint256",
							"name": "",
							"type": "uint256"
						}
					],
					"stateMutability": "view",
					"type": "function"
				},
				{
					"inputs": [],
					"name": "name",
					"outputs": [
						{
							"internalType": "string",
							"name": "",
							"type": "string"
						}
					],
					"stateMutability": "view",
					"type": "function"
				},
				{
					"inputs": [],
					"name": "viewSalary",
					"outputs": [
						{
							"internalType": "uint24",
							"name": "",
							"type": "uint24"
						}
					],
					"stateMutability": "view",
					"type": "function"
				},
				{
					"inputs": [],
					"name": "viewShares",
					"outputs": [
						{
							"internalType": "uint16",
							"name": "",
							"type": "uint16"
						}
					],
					"stateMutability": "view",
					"type": "function"
				}
			],
			"devdoc": {
				"details": "Experiment with sol storage",
				"kind": "dev",
				"methods": {},
				"title": "EmployeeStorage",
				"version": 1
			},
			"evm": {
				"assembly": "    /* \"EmployeeStorage/contracts/EmployeeStorage.sol\":133:1641  contract EmployeeStorage {... */\n  mstore(0x40, 0x80)\n    /* \"EmployeeStorage/contracts/EmployeeStorage.sol\":271:463  constructor(uint16 _shares, string memory _name, uint24 _salary, uint _idNumber) {... */\n  callvalue\n  dup1\n  iszero\n  tag_1\n  jumpi\n  0x00\n  dup1\n  revert\ntag_1:\n  pop\n  mload(0x40)\n  sub(codesize, bytecodeSize)\n  dup1\n  bytecodeSize\n  dup4\n  codecopy\n  dup2\n  dup2\n  add\n  0x40\n  mstore\n  dup2\n  add\n  swap1\n  tag_2\n  swap2\n  swap1\n  tag_3\n  jump\t// in\ntag_2:\n    /* \"EmployeeStorage/contracts/EmployeeStorage.sol\":371:378  _shares */\n  dup4\n    /* \"EmployeeStorage/contracts/EmployeeStorage.sol\":362:368  shares */\n  0x00\n  dup1\n    /* \"EmployeeStorage/contracts/EmployeeStorage.sol\":362:378  shares = _shares */\n  0x0100\n  exp\n  dup2\n  sload\n  dup2\n  0xffff\n  mul\n  not\n  and\n  swap1\n  dup4\n  0xffff\n  and\n  mul\n  or\n  swap1\n  sstore\n  pop\n    /* \"EmployeeStorage/contracts/EmployeeStorage.sol\":395:400  _name */\n  dup3\n    /* \"EmployeeStorage/contracts/EmployeeStorage.sol\":388:392  name */\n  0x02\n    /* \"EmployeeStorage/contracts/EmployeeStorage.sol\":388:400  name = _name */\n  swap1\n  dup2\n  tag_6\n  swap2\n  swap1\n  tag_7\n  jump\t// in\ntag_6:\n  pop\n    /* \"EmployeeStorage/contracts/EmployeeStorage.sol\":419:426  _salary */\n  dup2\n    /* \"EmployeeStorage/contracts/EmployeeStorage.sol\":410:416  salary */\n  0x00\n  0x02\n    /* \"EmployeeStorage/contracts/EmployeeStorage.sol\":410:426  salary = _salary */\n  0x0100\n  exp\n  dup2\n  sload\n  dup2\n  0xffffff\n  mul\n  not\n  and\n  swap1\n  dup4\n  0xffffff\n  and\n  mul\n  or\n  swap1\n  sstore\n  pop\n    /* \"EmployeeStorage/contracts/EmployeeStorage.sol\":447:456  _idNumber */\n  dup1\n    /* \"EmployeeStorage/contracts/EmployeeStorage.sol\":436:444  idNumber */\n  0x01\n    /* \"EmployeeStorage/contracts/EmployeeStorage.sol\":436:456  idNumber = _idNumber */\n  dup2\n  swap1\n  sstore\n  pop\n    /* \"EmployeeStorage/contracts/EmployeeStorage.sol\":271:463  constructor(uint16 _shares, string memory _name, uint24 _salary, uint _idNumber) {... */\n  pop\n  pop\n  pop\n  pop\n    /* \"EmployeeStorage/contracts/EmployeeStorage.sol\":133:1641  contract EmployeeStorage {... */\n  jump(tag_8)\n    /* \"#utility.yul\":7:82   */\ntag_9:\n    /* \"#utility.yul\":40:46   */\n  0x00\n    /* \"#utility.yul\":73:75   */\n  0x40\n    /* \"#utility.yul\":67:76   */\n  mload\n    /* \"#utility.yul\":57:76   */\n  swap1\n  pop\n    /* \"#utility.yul\":7:82   */\n  swap1\n  jump\t// out\n    /* \"#utility.yul\":88:205   */\ntag_10:\n    /* \"#utility.yul\":197:198   */\n  0x00\n    /* \"#utility.yul\":194:195   */\n  dup1\n    /* \"#utility.yul\":187:199   */\n  revert\n    /* \"#utility.yul\":211:328   */\ntag_11:\n    /* \"#utility.yul\":320:321   */\n  0x00\n    /* \"#utility.yul\":317:318   */\n  dup1\n    /* \"#utility.yul\":310:322   */\n  revert\n    /* \"#utility.yul\":334:423   */\ntag_12:\n    /* \"#utility.yul\":370:377   */\n  0x00\n    /* \"#utility.yul\":410:416   */\n  0xffff\n    /* \"#utility.yul\":403:408   */\n  dup3\n    /* \"#utility.yul\":399:417   */\n  and\n    /* \"#utility.yul\":388:417   */\n  swap1\n  pop\n    /* \"#utility.yul\":334:423   */\n  swap2\n  swap1\n  pop\n  jump\t// out\n    /* \"#utility.yul\":429:549   */\ntag_13:\n    /* \"#utility.yul\":501:524   */\n  tag_55\n    /* \"#utility.yul\":518:523   */\n  dup2\n    /* \"#utility.yul\":501:524   */\n  tag_12\n  jump\t// in\ntag_55:\n    /* \"#utility.yul\":494:499   */\n  dup2\n    /* \"#utility.yul\":491:525   */\n  eq\n    /* \"#utility.yul\":481:543   */\n  tag_56\n  jumpi\n    /* \"#utility.yul\":539:540   */\n  0x00\n    /* \"#utility.yul\":536:537   */\n  dup1\n    /* \"#utility.yul\":529:541   */\n  revert\n    /* \"#utility.yul\":481:543   */\ntag_56:\n    /* \"#utility.yul\":429:549   */\n  pop\n  jump\t// out\n    /* \"#utility.yul\":555:696   */\ntag_14:\n    /* \"#utility.yul\":611:616   */\n  0x00\n    /* \"#utility.yul\":642:648   */\n  dup2\n    /* \"#utility.yul\":636:649   */\n  mload\n    /* \"#utility.yul\":627:649   */\n  swap1\n  pop\n    /* \"#utility.yul\":658:690   */\n  tag_58\n    /* \"#utility.yul\":684:689   */\n  dup2\n    /* \"#utility.yul\":658:690   */\n  tag_13\n  jump\t// in\ntag_58:\n    /* \"#utility.yul\":555:696   */\n  swap3\n  swap2\n  pop\n  pop\n  jump\t// out\n    /* \"#utility.yul\":702:819   */\ntag_15:\n    /* \"#utility.yul\":811:812   */\n  0x00\n    /* \"#utility.yul\":808:809   */\n  dup1\n    /* \"#utility.yul\":801:813   */\n  revert\n    /* \"#utility.yul\":825:942   */\ntag_16:\n    /* \"#utility.yul\":934:935   */\n  0x00\n    /* \"#utility.yul\":931:932   */\n  dup1\n    /* \"#utility.yul\":924:936   */\n  revert\n    /* \"#utility.yul\":948:1050   */\ntag_17:\n    /* \"#utility.yul\":989:995   */\n  0x00\n    /* \"#utility.yul\":1040:1042   */\n  0x1f\n    /* \"#utility.yul\":1036:1043   */\n  not\n    /* \"#utility.yul\":1031:1033   */\n  0x1f\n    /* \"#utility.yul\":1024:1029   */\n  dup4\n    /* \"#utility.yul\":1020:1034   */\n  add\n    /* \"#utility.yul\":1016:1044   */\n  and\n    /* \"#utility.yul\":1006:1044   */\n  swap1\n  pop\n    /* \"#utility.yul\":948:1050   */\n  swap2\n  swap1\n  pop\n  jump\t// out\n    /* \"#utility.yul\":1056:1236   */\ntag_18:\n    /* \"#utility.yul\":1104:1181   */\n  0x4e487b7100000000000000000000000000000000000000000000000000000000\n    /* \"#utility.yul\":1101:1102   */\n  0x00\n    /* \"#utility.yul\":1094:1182   */\n  mstore\n    /* \"#utility.yul\":1201:1205   */\n  0x41\n    /* \"#utility.yul\":1198:1199   */\n  0x04\n    /* \"#utility.yul\":1191:1206   */\n  mstore\n    /* \"#utility.yul\":1225:1229   */\n  0x24\n    /* \"#utility.yul\":1222:1223   */\n  0x00\n    /* \"#utility.yul\":1215:1230   */\n  revert\n    /* \"#utility.yul\":1242:1523   */\ntag_19:\n    /* \"#utility.yul\":1325:1352   */\n  tag_64\n    /* \"#utility.yul\":1347:1351   */\n  dup3\n    /* \"#utility.yul\":1325:1352   */\n  tag_17\n  jump\t// in\ntag_64:\n    /* \"#utility.yul\":1317:1323   */\n  dup2\n    /* \"#utility.yul\":1313:1353   */\n  add\n    /* \"#utility.yul\":1455:1461   */\n  dup2\n    /* \"#utility.yul\":1443:1453   */\n  dup2\n    /* \"#utility.yul\":1440:1462   */\n  lt\n    /* \"#utility.yul\":1419:1437   */\n  0xffffffffffffffff\n    /* \"#utility.yul\":1407:1417   */\n  dup3\n    /* \"#utility.yul\":1404:1438   */\n  gt\n    /* \"#utility.yul\":1401:1463   */\n  or\n    /* \"#utility.yul\":1398:1486   */\n  iszero\n  tag_65\n  jumpi\n    /* \"#utility.yul\":1466:1484   */\n  tag_66\n  tag_18\n  jump\t// in\ntag_66:\n    /* \"#utility.yul\":1398:1486   */\ntag_65:\n    /* \"#utility.yul\":1506:1516   */\n  dup1\n    /* \"#utility.yul\":1502:1504   */\n  0x40\n    /* \"#utility.yul\":1495:1517   */\n  mstore\n    /* \"#utility.yul\":1285:1523   */\n  pop\n    /* \"#utility.yul\":1242:1523   */\n  pop\n  pop\n  jump\t// out\n    /* \"#utility.yul\":1529:1658   */\ntag_20:\n    /* \"#utility.yul\":1563:1569   */\n  0x00\n    /* \"#utility.yul\":1590:1610   */\n  tag_68\n  tag_9\n  jump\t// in\ntag_68:\n    /* \"#utility.yul\":1580:1610   */\n  swap1\n  pop\n    /* \"#utility.yul\":1619:1652   */\n  tag_69\n    /* \"#utility.yul\":1647:1651   */\n  dup3\n    /* \"#utility.yul\":1639:1645   */\n  dup3\n    /* \"#utility.yul\":1619:1652   */\n  tag_19\n  jump\t// in\ntag_69:\n    /* \"#utility.yul\":1529:1658   */\n  swap2\n  swap1\n  pop\n  jump\t// out\n    /* \"#utility.yul\":1664:1972   */\ntag_21:\n    /* \"#utility.yul\":1726:1730   */\n  0x00\n    /* \"#utility.yul\":1816:1834   */\n  0xffffffffffffffff\n    /* \"#utility.yul\":1808:1814   */\n  dup3\n    /* \"#utility.yul\":1805:1835   */\n  gt\n    /* \"#utility.yul\":1802:1858   */\n  iszero\n  tag_71\n  jumpi\n    /* \"#utility.yul\":1838:1856   */\n  tag_72\n  tag_18\n  jump\t// in\ntag_72:\n    /* \"#utility.yul\":1802:1858   */\ntag_71:\n    /* \"#utility.yul\":1876:1905   */\n  tag_73\n    /* \"#utility.yul\":1898:1904   */\n  dup3\n    /* \"#utility.yul\":1876:1905   */\n  tag_17\n  jump\t// in\ntag_73:\n    /* \"#utility.yul\":1868:1905   */\n  swap1\n  pop\n    /* \"#utility.yul\":1960:1964   */\n  0x20\n    /* \"#utility.yul\":1954:1958   */\n  dup2\n    /* \"#utility.yul\":1950:1965   */\n  add\n    /* \"#utility.yul\":1942:1965   */\n  swap1\n  pop\n    /* \"#utility.yul\":1664:1972   */\n  swap2\n  swap1\n  pop\n  jump\t// out\n    /* \"#utility.yul\":1978:2224   */\ntag_22:\n    /* \"#utility.yul\":2059:2060   */\n  0x00\n    /* \"#utility.yul\":2069:2182   */\ntag_75:\n    /* \"#utility.yul\":2083:2089   */\n  dup4\n    /* \"#utility.yul\":2080:2081   */\n  dup2\n    /* \"#utility.yul\":2077:2090   */\n  lt\n    /* \"#utility.yul\":2069:2182   */\n  iszero\n  tag_77\n  jumpi\n    /* \"#utility.yul\":2168:2169   */\n  dup1\n    /* \"#utility.yul\":2163:2166   */\n  dup3\n    /* \"#utility.yul\":2159:2170   */\n  add\n    /* \"#utility.yul\":2153:2171   */\n  mload\n    /* \"#utility.yul\":2149:2150   */\n  dup2\n    /* \"#utility.yul\":2144:2147   */\n  dup5\n    /* \"#utility.yul\":2140:2151   */\n  add\n    /* \"#utility.yul\":2133:2172   */\n  mstore\n    /* \"#utility.yul\":2105:2107   */\n  0x20\n    /* \"#utility.yul\":2102:2103   */\n  dup2\n    /* \"#utility.yul\":2098:2108   */\n  add\n    /* \"#utility.yul\":2093:2108   */\n  swap1\n  pop\n    /* \"#utility.yul\":2069:2182   */\n  jump(tag_75)\ntag_77:\n    /* \"#utility.yul\":2216:2217   */\n  0x00\n    /* \"#utility.yul\":2207:2213   */\n  dup5\n    /* \"#utility.yul\":2202:2205   */\n  dup5\n    /* \"#utility.yul\":2198:2214   */\n  add\n    /* \"#utility.yul\":2191:2218   */\n  mstore\n    /* \"#utility.yul\":2040:2224   */\n  pop\n    /* \"#utility.yul\":1978:2224   */\n  pop\n  pop\n  pop\n  jump\t// out\n    /* \"#utility.yul\":2230:2664   */\ntag_23:\n    /* \"#utility.yul\":2319:2324   */\n  0x00\n    /* \"#utility.yul\":2344:2410   */\n  tag_79\n    /* \"#utility.yul\":2360:2409   */\n  tag_80\n    /* \"#utility.yul\":2402:2408   */\n  dup5\n    /* \"#utility.yul\":2360:2409   */\n  tag_21\n  jump\t// in\ntag_80:\n    /* \"#utility.yul\":2344:2410   */\n  tag_20\n  jump\t// in\ntag_79:\n    /* \"#utility.yul\":2335:2410   */\n  swap1\n  pop\n    /* \"#utility.yul\":2433:2439   */\n  dup3\n    /* \"#utility.yul\":2426:2431   */\n  dup2\n    /* \"#utility.yul\":2419:2440   */\n  mstore\n    /* \"#utility.yul\":2471:2475   */\n  0x20\n    /* \"#utility.yul\":2464:2469   */\n  dup2\n    /* \"#utility.yul\":2460:2476   */\n  add\n    /* \"#utility.yul\":2509:2512   */\n  dup5\n    /* \"#utility.yul\":2500:2506   */\n  dup5\n    /* \"#utility.yul\":2495:2498   */\n  dup5\n    /* \"#utility.yul\":2491:2507   */\n  add\n    /* \"#utility.yul\":2488:2513   */\n  gt\n    /* \"#utility.yul\":2485:2597   */\n  iszero\n  tag_81\n  jumpi\n    /* \"#utility.yul\":2516:2595   */\n  tag_82\n  tag_16\n  jump\t// in\ntag_82:\n    /* \"#utility.yul\":2485:2597   */\ntag_81:\n    /* \"#utility.yul\":2606:2658   */\n  tag_83\n    /* \"#utility.yul\":2651:2657   */\n  dup5\n    /* \"#utility.yul\":2646:2649   */\n  dup3\n    /* \"#utility.yul\":2641:2644   */\n  dup6\n    /* \"#utility.yul\":2606:2658   */\n  tag_22\n  jump\t// in\ntag_83:\n    /* \"#utility.yul\":2325:2664   */\n  pop\n    /* \"#utility.yul\":2230:2664   */\n  swap4\n  swap3\n  pop\n  pop\n  pop\n  jump\t// out\n    /* \"#utility.yul\":2684:3039   */\ntag_24:\n    /* \"#utility.yul\":2751:2756   */\n  0x00\n    /* \"#utility.yul\":2800:2803   */\n  dup3\n    /* \"#utility.yul\":2793:2797   */\n  0x1f\n    /* \"#utility.yul\":2785:2791   */\n  dup4\n    /* \"#utility.yul\":2781:2798   */\n  add\n    /* \"#utility.yul\":2777:2804   */\n  slt\n    /* \"#utility.yul\":2767:2889   */\n  tag_85\n  jumpi\n    /* \"#utility.yul\":2808:2887   */\n  tag_86\n  tag_15\n  jump\t// in\ntag_86:\n    /* \"#utility.yul\":2767:2889   */\ntag_85:\n    /* \"#utility.yul\":2918:2924   */\n  dup2\n    /* \"#utility.yul\":2912:2925   */\n  mload\n    /* \"#utility.yul\":2943:3033   */\n  tag_87\n    /* \"#utility.yul\":3029:3032   */\n  dup5\n    /* \"#utility.yul\":3021:3027   */\n  dup3\n    /* \"#utility.yul\":3014:3018   */\n  0x20\n    /* \"#utility.yul\":3006:3012   */\n  dup7\n    /* \"#utility.yul\":3002:3019   */\n  add\n    /* \"#utility.yul\":2943:3033   */\n  tag_23\n  jump\t// in\ntag_87:\n    /* \"#utility.yul\":2934:3033   */\n  swap2\n  pop\n    /* \"#utility.yul\":2757:3039   */\n  pop\n    /* \"#utility.yul\":2684:3039   */\n  swap3\n  swap2\n  pop\n  pop\n  jump\t// out\n    /* \"#utility.yul\":3045:3136   */\ntag_25:\n    /* \"#utility.yul\":3081:3088   */\n  0x00\n    /* \"#utility.yul\":3121:3129   */\n  0xffffff\n    /* \"#utility.yul\":3114:3119   */\n  dup3\n    /* \"#utility.yul\":3110:3130   */\n  and\n    /* \"#utility.yul\":3099:3130   */\n  swap1\n  pop\n    /* \"#utility.yul\":3045:3136   */\n  swap2\n  swap1\n  pop\n  jump\t// out\n    /* \"#utility.yul\":3142:3262   */\ntag_26:\n    /* \"#utility.yul\":3214:3237   */\n  tag_90\n    /* \"#utility.yul\":3231:3236   */\n  dup2\n    /* \"#utility.yul\":3214:3237   */\n  tag_25\n  jump\t// in\ntag_90:\n    /* \"#utility.yul\":3207:3212   */\n  dup2\n    /* \"#utility.yul\":3204:3238   */\n  eq\n    /* \"#utility.yul\":3194:3256   */\n  tag_91\n  jumpi\n    /* \"#utility.yul\":3252:3253   */\n  0x00\n    /* \"#utility.yul\":3249:3250   */\n  dup1\n    /* \"#utility.yul\":3242:3254   */\n  revert\n    /* \"#utility.yul\":3194:3256   */\ntag_91:\n    /* \"#utility.yul\":3142:3262   */\n  pop\n  jump\t// out\n    /* \"#utility.yul\":3268:3409   */\ntag_27:\n    /* \"#utility.yul\":3324:3329   */\n  0x00\n    /* \"#utility.yul\":3355:3361   */\n  dup2\n    /* \"#utility.yul\":3349:3362   */\n  mload\n    /* \"#utility.yul\":3340:3362   */\n  swap1\n  pop\n    /* \"#utility.yul\":3371:3403   */\n  tag_93\n    /* \"#utility.yul\":3397:3402   */\n  dup2\n    /* \"#utility.yul\":3371:3403   */\n  tag_26\n  jump\t// in\ntag_93:\n    /* \"#utility.yul\":3268:3409   */\n  swap3\n  swap2\n  pop\n  pop\n  jump\t// out\n    /* \"#utility.yul\":3415:3492   */\ntag_28:\n    /* \"#utility.yul\":3452:3459   */\n  0x00\n    /* \"#utility.yul\":3481:3486   */\n  dup2\n    /* \"#utility.yul\":3470:3486   */\n  swap1\n  pop\n    /* \"#utility.yul\":3415:3492   */\n  swap2\n  swap1\n  pop\n  jump\t// out\n    /* \"#utility.yul\":3498:3620   */\ntag_29:\n    /* \"#utility.yul\":3571:3595   */\n  tag_96\n    /* \"#utility.yul\":3589:3594   */\n  dup2\n    /* \"#utility.yul\":3571:3595   */\n  tag_28\n  jump\t// in\ntag_96:\n    /* \"#utility.yul\":3564:3569   */\n  dup2\n    /* \"#utility.yul\":3561:3596   */\n  eq\n    /* \"#utility.yul\":3551:3614   */\n  tag_97\n  jumpi\n    /* \"#utility.yul\":3610:3611   */\n  0x00\n    /* \"#utility.yul\":3607:3608   */\n  dup1\n    /* \"#utility.yul\":3600:3612   */\n  revert\n    /* \"#utility.yul\":3551:3614   */\ntag_97:\n    /* \"#utility.yul\":3498:3620   */\n  pop\n  jump\t// out\n    /* \"#utility.yul\":3626:3769   */\ntag_30:\n    /* \"#utility.yul\":3683:3688   */\n  0x00\n    /* \"#utility.yul\":3714:3720   */\n  dup2\n    /* \"#utility.yul\":3708:3721   */\n  mload\n    /* \"#utility.yul\":3699:3721   */\n  swap1\n  pop\n    /* \"#utility.yul\":3730:3763   */\n  tag_99\n    /* \"#utility.yul\":3757:3762   */\n  dup2\n    /* \"#utility.yul\":3730:3763   */\n  tag_29\n  jump\t// in\ntag_99:\n    /* \"#utility.yul\":3626:3769   */\n  swap3\n  swap2\n  pop\n  pop\n  jump\t// out\n    /* \"#utility.yul\":3775:4764   */\ntag_3:\n    /* \"#utility.yul\":3880:3886   */\n  0x00\n    /* \"#utility.yul\":3888:3894   */\n  dup1\n    /* \"#utility.yul\":3896:3902   */\n  0x00\n    /* \"#utility.yul\":3904:3910   */\n  dup1\n    /* \"#utility.yul\":3953:3956   */\n  0x80\n    /* \"#utility.yul\":3941:3950   */\n  dup6\n    /* \"#utility.yul\":3932:3939   */\n  dup8\n    /* \"#utility.yul\":3928:3951   */\n  sub\n    /* \"#utility.yul\":3924:3957   */\n  slt\n    /* \"#utility.yul\":3921:4041   */\n  iszero\n  tag_101\n  jumpi\n    /* \"#utility.yul\":3960:4039   */\n  tag_102\n  tag_10\n  jump\t// in\ntag_102:\n    /* \"#utility.yul\":3921:4041   */\ntag_101:\n    /* \"#utility.yul\":4080:4081   */\n  0x00\n    /* \"#utility.yul\":4105:4168   */\n  tag_103\n    /* \"#utility.yul\":4160:4167   */\n  dup8\n    /* \"#utility.yul\":4151:4157   */\n  dup3\n    /* \"#utility.yul\":4140:4149   */\n  dup9\n    /* \"#utility.yul\":4136:4158   */\n  add\n    /* \"#utility.yul\":4105:4168   */\n  tag_14\n  jump\t// in\ntag_103:\n    /* \"#utility.yul\":4095:4168   */\n  swap5\n  pop\n    /* \"#utility.yul\":4051:4178   */\n  pop\n    /* \"#utility.yul\":4238:4240   */\n  0x20\n    /* \"#utility.yul\":4227:4236   */\n  dup6\n    /* \"#utility.yul\":4223:4241   */\n  add\n    /* \"#utility.yul\":4217:4242   */\n  mload\n    /* \"#utility.yul\":4269:4287   */\n  0xffffffffffffffff\n    /* \"#utility.yul\":4261:4267   */\n  dup2\n    /* \"#utility.yul\":4258:4288   */\n  gt\n    /* \"#utility.yul\":4255:4372   */\n  iszero\n  tag_104\n  jumpi\n    /* \"#utility.yul\":4291:4370   */\n  tag_105\n  tag_11\n  jump\t// in\ntag_105:\n    /* \"#utility.yul\":4255:4372   */\ntag_104:\n    /* \"#utility.yul\":4396:4470   */\n  tag_106\n    /* \"#utility.yul\":4462:4469   */\n  dup8\n    /* \"#utility.yul\":4453:4459   */\n  dup3\n    /* \"#utility.yul\":4442:4451   */\n  dup9\n    /* \"#utility.yul\":4438:4460   */\n  add\n    /* \"#utility.yul\":4396:4470   */\n  tag_24\n  jump\t// in\ntag_106:\n    /* \"#utility.yul\":4386:4470   */\n  swap4\n  pop\n    /* \"#utility.yul\":4188:4480   */\n  pop\n    /* \"#utility.yul\":4519:4521   */\n  0x40\n    /* \"#utility.yul\":4545:4608   */\n  tag_107\n    /* \"#utility.yul\":4600:4607   */\n  dup8\n    /* \"#utility.yul\":4591:4597   */\n  dup3\n    /* \"#utility.yul\":4580:4589   */\n  dup9\n    /* \"#utility.yul\":4576:4598   */\n  add\n    /* \"#utility.yul\":4545:4608   */\n  tag_27\n  jump\t// in\ntag_107:\n    /* \"#utility.yul\":4535:4608   */\n  swap3\n  pop\n    /* \"#utility.yul\":4490:4618   */\n  pop\n    /* \"#utility.yul\":4657:4659   */\n  0x60\n    /* \"#utility.yul\":4683:4747   */\n  tag_108\n    /* \"#utility.yul\":4739:4746   */\n  dup8\n    /* \"#utility.yul\":4730:4736   */\n  dup3\n    /* \"#utility.yul\":4719:4728   */\n  dup9\n    /* \"#utility.yul\":4715:4737   */\n  add\n    /* \"#utility.yul\":4683:4747   */\n  tag_30\n  jump\t// in\ntag_108:\n    /* \"#utility.yul\":4673:4747   */\n  swap2\n  pop\n    /* \"#utility.yul\":4628:4757   */\n  pop\n    /* \"#utility.yul\":3775:4764   */\n  swap3\n  swap6\n  swap2\n  swap5\n  pop\n  swap3\n  pop\n  jump\t// out\n    /* \"#utility.yul\":4770:4869   */\ntag_31:\n    /* \"#utility.yul\":4822:4828   */\n  0x00\n    /* \"#utility.yul\":4856:4861   */\n  dup2\n    /* \"#utility.yul\":4850:4862   */\n  mload\n    /* \"#utility.yul\":4840:4862   */\n  swap1\n  pop\n    /* \"#utility.yul\":4770:4869   */\n  swap2\n  swap1\n  pop\n  jump\t// out\n    /* \"#utility.yul\":4875:5055   */\ntag_32:\n    /* \"#utility.yul\":4923:5000   */\n  0x4e487b7100000000000000000000000000000000000000000000000000000000\n    /* \"#utility.yul\":4920:4921   */\n  0x00\n    /* \"#utility.yul\":4913:5001   */\n  mstore\n    /* \"#utility.yul\":5020:5024   */\n  0x22\n    /* \"#utility.yul\":5017:5018   */\n  0x04\n    /* \"#utility.yul\":5010:5025   */\n  mstore\n    /* \"#utility.yul\":5044:5048   */\n  0x24\n    /* \"#utility.yul\":5041:5042   */\n  0x00\n    /* \"#utility.yul\":5034:5049   */\n  revert\n    /* \"#utility.yul\":5061:5381   */\ntag_33:\n    /* \"#utility.yul\":5105:5111   */\n  0x00\n    /* \"#utility.yul\":5142:5143   */\n  0x02\n    /* \"#utility.yul\":5136:5140   */\n  dup3\n    /* \"#utility.yul\":5132:5144   */\n  div\n    /* \"#utility.yul\":5122:5144   */\n  swap1\n  pop\n    /* \"#utility.yul\":5189:5190   */\n  0x01\n    /* \"#utility.yul\":5183:5187   */\n  dup3\n    /* \"#utility.yul\":5179:5191   */\n  and\n    /* \"#utility.yul\":5210:5228   */\n  dup1\n    /* \"#utility.yul\":5200:5281   */\n  tag_112\n  jumpi\n    /* \"#utility.yul\":5266:5270   */\n  0x7f\n    /* \"#utility.yul\":5258:5264   */\n  dup3\n    /* \"#utility.yul\":5254:5271   */\n  and\n    /* \"#utility.yul\":5244:5271   */\n  swap2\n  pop\n    /* \"#utility.yul\":5200:5281   */\ntag_112:\n    /* \"#utility.yul\":5328:5330   */\n  0x20\n    /* \"#utility.yul\":5320:5326   */\n  dup3\n    /* \"#utility.yul\":5317:5331   */\n  lt\n    /* \"#utility.yul\":5297:5315   */\n  dup2\n    /* \"#utility.yul\":5294:5332   */\n  sub\n    /* \"#utility.yul\":5291:5375   */\n  tag_113\n  jumpi\n    /* \"#utility.yul\":5347:5365   */\n  tag_114\n  tag_32\n  jump\t// in\ntag_114:\n    /* \"#utility.yul\":5291:5375   */\ntag_113:\n    /* \"#utility.yul\":5112:5381   */\n  pop\n    /* \"#utility.yul\":5061:5381   */\n  swap2\n  swap1\n  pop\n  jump\t// out\n    /* \"#utility.yul\":5387:5528   */\ntag_34:\n    /* \"#utility.yul\":5436:5440   */\n  0x00\n    /* \"#utility.yul\":5459:5462   */\n  dup2\n    /* \"#utility.yul\":5451:5462   */\n  swap1\n  pop\n    /* \"#utility.yul\":5482:5485   */\n  dup2\n    /* \"#utility.yul\":5479:5480   */\n  0x00\n    /* \"#utility.yul\":5472:5486   */\n  mstore\n    /* \"#utility.yul\":5516:5520   */\n  0x20\n    /* \"#utility.yul\":5513:5514   */\n  0x00\n    /* \"#utility.yul\":5503:5521   */\n  keccak256\n    /* \"#utility.yul\":5495:5521   */\n  swap1\n  pop\n    /* \"#utility.yul\":5387:5528   */\n  swap2\n  swap1\n  pop\n  jump\t// out\n    /* \"#utility.yul\":5534:5627   */\ntag_35:\n    /* \"#utility.yul\":5571:5577   */\n  0x00\n    /* \"#utility.yul\":5618:5620   */\n  0x20\n    /* \"#utility.yul\":5613:5615   */\n  0x1f\n    /* \"#utility.yul\":5606:5611   */\n  dup4\n    /* \"#utility.yul\":5602:5616   */\n  add\n    /* \"#utility.yul\":5598:5621   */\n  div\n    /* \"#utility.yul\":5588:5621   */\n  swap1\n  pop\n    /* \"#utility.yul\":5534:5627   */\n  swap2\n  swap1\n  pop\n  jump\t// out\n    /* \"#utility.yul\":5633:5740   */\ntag_36:\n    /* \"#utility.yul\":5677:5685   */\n  0x00\n    /* \"#utility.yul\":5727:5732   */\n  dup3\n    /* \"#utility.yul\":5721:5725   */\n  dup3\n    /* \"#utility.yul\":5717:5733   */\n  shl\n    /* \"#utility.yul\":5696:5733   */\n  swap1\n  pop\n    /* \"#utility.yul\":5633:5740   */\n  swap3\n  swap2\n  pop\n  pop\n  jump\t// out\n    /* \"#utility.yul\":5746:6139   */\ntag_37:\n    /* \"#utility.yul\":5815:5821   */\n  0x00\n    /* \"#utility.yul\":5865:5866   */\n  0x08\n    /* \"#utility.yul\":5853:5863   */\n  dup4\n    /* \"#utility.yul\":5849:5867   */\n  mul\n    /* \"#utility.yul\":5888:5985   */\n  tag_119\n    /* \"#utility.yul\":5918:5984   */\n  0xffffffffffffffffffffffffffffffffffffffffffffffffffffffffffffffff\n    /* \"#utility.yul\":5907:5916   */\n  dup3\n    /* \"#utility.yul\":5888:5985   */\n  tag_36\n  jump\t// in\ntag_119:\n    /* \"#utility.yul\":6006:6045   */\n  tag_120\n    /* \"#utility.yul\":6036:6044   */\n  dup7\n    /* \"#utility.yul\":6025:6034   */\n  dup4\n    /* \"#utility.yul\":6006:6045   */\n  tag_36\n  jump\t// in\ntag_120:\n    /* \"#utility.yul\":5994:6045   */\n  swap6\n  pop\n    /* \"#utility.yul\":6078:6082   */\n  dup1\n    /* \"#utility.yul\":6074:6083   */\n  not\n    /* \"#utility.yul\":6067:6072   */\n  dup5\n    /* \"#utility.yul\":6063:6084   */\n  and\n    /* \"#utility.yul\":6054:6084   */\n  swap4\n  pop\n    /* \"#utility.yul\":6127:6131   */\n  dup1\n    /* \"#utility.yul\":6117:6125   */\n  dup7\n    /* \"#utility.yul\":6113:6132   */\n  and\n    /* \"#utility.yul\":6106:6111   */\n  dup5\n    /* \"#utility.yul\":6103:6133   */\n  or\n    /* \"#utility.yul\":6093:6133   */\n  swap3\n  pop\n    /* \"#utility.yul\":5822:6139   */\n  pop\n  pop\n    /* \"#utility.yul\":5746:6139   */\n  swap4\n  swap3\n  pop\n  pop\n  pop\n  jump\t// out\n    /* \"#utility.yul\":6145:6205   */\ntag_38:\n    /* \"#utility.yul\":6173:6176   */\n  0x00\n    /* \"#utility.yul\":6194:6199   */\n  dup2\n    /* \"#utility.yul\":6187:6199   */\n  swap1\n  pop\n    /* \"#utility.yul\":6145:6205   */\n  swap2\n  swap1\n  pop\n  jump\t// out\n    /* \"#utility.yul\":6211:6353   */\ntag_39:\n    /* \"#utility.yul\":6261:6270   */\n  0x00\n    /* \"#utility.yul\":6294:6347   */\n  tag_123\n    /* \"#utility.yul\":6312:6346   */\n  tag_124\n    /* \"#utility.yul\":6321:6345   */\n  tag_125\n    /* \"#utility.yul\":6339:6344   */\n  dup5\n    /* \"#utility.yul\":6321:6345   */\n  tag_28\n  jump\t// in\ntag_125:\n    /* \"#utility.yul\":6312:6346   */\n  tag_38\n  jump\t// in\ntag_124:\n    /* \"#utility.yul\":6294:6347   */\n  tag_28\n  jump\t// in\ntag_123:\n    /* \"#utility.yul\":6281:6347   */\n  swap1\n  pop\n    /* \"#utility.yul\":6211:6353   */\n  swap2\n  swap1\n  pop\n  jump\t// out\n    /* \"#utility.yul\":6359:6434   */\ntag_40:\n    /* \"#utility.yul\":6402:6405   */\n  0x00\n    /* \"#utility.yul\":6423:6428   */\n  dup2\n    /* \"#utility.yul\":6416:6428   */\n  swap1\n  pop\n    /* \"#utility.yul\":6359:6434   */\n  swap2\n  swap1\n  pop\n  jump\t// out\n    /* \"#utility.yul\":6440:6709   */\ntag_41:\n    /* \"#utility.yul\":6550:6589   */\n  tag_128\n    /* \"#utility.yul\":6581:6588   */\n  dup4\n    /* \"#utility.yul\":6550:6589   */\n  tag_39\n  jump\t// in\ntag_128:\n    /* \"#utility.yul\":6611:6702   */\n  tag_129\n    /* \"#utility.yul\":6660:6701   */\n  tag_130\n    /* \"#utility.yul\":6684:6700   */\n  dup3\n    /* \"#utility.yul\":6660:6701   */\n  tag_40\n  jump\t// in\ntag_130:\n    /* \"#utility.yul\":6652:6658   */\n  dup5\n    /* \"#utility.yul\":6645:6649   */\n  dup5\n    /* \"#utility.yul\":6639:6650   */\n  sload\n    /* \"#utility.yul\":6611:6702   */\n  tag_37\n  jump\t// in\ntag_129:\n    /* \"#utility.yul\":6605:6609   */\n  dup3\n    /* \"#utility.yul\":6598:6703   */\n  sstore\n    /* \"#utility.yul\":6516:6709   */\n  pop\n    /* \"#utility.yul\":6440:6709   */\n  pop\n  pop\n  pop\n  jump\t// out\n    /* \"#utility.yul\":6715:6788   */\ntag_42:\n    /* \"#utility.yul\":6760:6763   */\n  0x00\n    /* \"#utility.yul\":6715:6788   */\n  swap1\n  jump\t// out\n    /* \"#utility.yul\":6794:6983   */\ntag_43:\n    /* \"#utility.yul\":6871:6903   */\n  tag_133\n  tag_42\n  jump\t// in\ntag_133:\n    /* \"#utility.yul\":6912:6977   */\n  tag_134\n    /* \"#utility.yul\":6970:6976   */\n  dup2\n    /* \"#utility.yul\":6962:6968   */\n  dup5\n    /* \"#utility.yul\":6956:6960   */\n  dup5\n    /* \"#utility.yul\":6912:6977   */\n  tag_41\n  jump\t// in\ntag_134:\n    /* \"#utility.yul\":6847:6983   */\n  pop\n    /* \"#utility.yul\":6794:6983   */\n  pop\n  pop\n  jump\t// out\n    /* \"#utility.yul\":6989:7175   */\ntag_44:\n    /* \"#utility.yul\":7049:7169   */\ntag_136:\n    /* \"#utility.yul\":7066:7069   */\n  dup2\n    /* \"#utility.yul\":7059:7064   */\n  dup2\n    /* \"#utility.yul\":7056:7070   */\n  lt\n    /* \"#utility.yul\":7049:7169   */\n  iszero\n  tag_138\n  jumpi\n    /* \"#utility.yul\":7120:7159   */\n  tag_139\n    /* \"#utility.yul\":7157:7158   */\n  0x00\n    /* \"#utility.yul\":7150:7155   */\n  dup3\n    /* \"#utility.yul\":7120:7159   */\n  tag_43\n  jump\t// in\ntag_139:\n    /* \"#utility.yul\":7093:7094   */\n  0x01\n    /* \"#utility.yul\":7086:7091   */\n  dup2\n    /* \"#utility.yul\":7082:7095   */\n  add\n    /* \"#utility.yul\":7073:7095   */\n  swap1\n  pop\n    /* \"#utility.yul\":7049:7169   */\n  jump(tag_136)\ntag_138:\n    /* \"#utility.yul\":6989:7175   */\n  pop\n  pop\n  jump\t// out\n    /* \"#utility.yul\":7181:7724   */\ntag_45:\n    /* \"#utility.yul\":7282:7284   */\n  0x1f\n    /* \"#utility.yul\":7277:7280   */\n  dup3\n    /* \"#utility.yul\":7274:7285   */\n  gt\n    /* \"#utility.yul\":7271:7717   */\n  iszero\n  tag_141\n  jumpi\n    /* \"#utility.yul\":7316:7354   */\n  tag_142\n    /* \"#utility.yul\":7348:7353   */\n  dup2\n    /* \"#utility.yul\":7316:7354   */\n  tag_34\n  jump\t// in\ntag_142:\n    /* \"#utility.yul\":7400:7429   */\n  tag_143\n    /* \"#utility.yul\":7418:7428   */\n  dup5\n    /* \"#utility.yul\":7400:7429   */\n  tag_35\n  jump\t// in\ntag_143:\n    /* \"#utility.yul\":7390:7398   */\n  dup2\n    /* \"#utility.yul\":7386:7430   */\n  add\n    /* \"#utility.yul\":7583:7585   */\n  0x20\n    /* \"#utility.yul\":7571:7581   */\n  dup6\n    /* \"#utility.yul\":7568:7586   */\n  lt\n    /* \"#utility.yul\":7565:7614   */\n  iszero\n  tag_144\n  jumpi\n    /* \"#utility.yul\":7604:7612   */\n  dup2\n    /* \"#utility.yul\":7589:7612   */\n  swap1\n  pop\n    /* \"#utility.yul\":7565:7614   */\ntag_144:\n    /* \"#utility.yul\":7627:7707   */\n  tag_145\n    /* \"#utility.yul\":7683:7705   */\n  tag_146\n    /* \"#utility.yul\":7701:7704   */\n  dup6\n    /* \"#utility.yul\":7683:7705   */\n  tag_35\n  jump\t// in\ntag_146:\n    /* \"#utility.yul\":7673:7681   */\n  dup4\n    /* \"#utility.yul\":7669:7706   */\n  add\n    /* \"#utility.yul\":7656:7667   */\n  dup3\n    /* \"#utility.yul\":7627:7707   */\n  tag_44\n  jump\t// in\ntag_145:\n    /* \"#utility.yul\":7286:7717   */\n  pop\n  pop\n    /* \"#utility.yul\":7271:7717   */\ntag_141:\n    /* \"#utility.yul\":7181:7724   */\n  pop\n  pop\n  pop\n  jump\t// out\n    /* \"#utility.yul\":7730:7847   */\ntag_46:\n    /* \"#utility.yul\":7784:7792   */\n  0x00\n    /* \"#utility.yul\":7834:7839   */\n  dup3\n    /* \"#utility.yul\":7828:7832   */\n  dup3\n    /* \"#utility.yul\":7824:7840   */\n  shr\n    /* \"#utility.yul\":7803:7840   */\n  swap1\n  pop\n    /* \"#utility.yul\":7730:7847   */\n  swap3\n  swap2\n  pop\n  pop\n  jump\t// out\n    /* \"#utility.yul\":7853:8022   */\ntag_47:\n    /* \"#utility.yul\":7897:7903   */\n  0x00\n    /* \"#utility.yul\":7930:7981   */\n  tag_149\n    /* \"#utility.yul\":7978:7979   */\n  0x00\n    /* \"#utility.yul\":7974:7980   */\n  not\n    /* \"#utility.yul\":7966:7971   */\n  dup5\n    /* \"#utility.yul\":7963:7964   */\n  0x08\n    /* \"#utility.yul\":7959:7972   */\n  mul\n    /* \"#utility.yul\":7930:7981   */\n  tag_46\n  jump\t// in\ntag_149:\n    /* \"#utility.yul\":7926:7982   */\n  not\n    /* \"#utility.yul\":8011:8015   */\n  dup1\n    /* \"#utility.yul\":8005:8009   */\n  dup4\n    /* \"#utility.yul\":8001:8016   */\n  and\n    /* \"#utility.yul\":7991:8016   */\n  swap2\n  pop\n    /* \"#utility.yul\":7904:8022   */\n  pop\n    /* \"#utility.yul\":7853:8022   */\n  swap3\n  swap2\n  pop\n  pop\n  jump\t// out\n    /* \"#utility.yul\":8027:8322   */\ntag_48:\n    /* \"#utility.yul\":8103:8107   */\n  0x00\n    /* \"#utility.yul\":8249:8278   */\n  tag_151\n    /* \"#utility.yul\":8274:8277   */\n  dup4\n    /* \"#utility.yul\":8268:8272   */\n  dup4\n    /* \"#utility.yul\":8249:8278   */\n  tag_47\n  jump\t// in\ntag_151:\n    /* \"#utility.yul\":8241:8278   */\n  swap2\n  pop\n    /* \"#utility.yul\":8311:8314   */\n  dup3\n    /* \"#utility.yul\":8308:8309   */\n  0x02\n    /* \"#utility.yul\":8304:8315   */\n  mul\n    /* \"#utility.yul\":8298:8302   */\n  dup3\n    /* \"#utility.yul\":8295:8316   */\n  or\n    /* \"#utility.yul\":8287:8316   */\n  swap1\n  pop\n    /* \"#utility.yul\":8027:8322   */\n  swap3\n  swap2\n  pop\n  pop\n  jump\t// out\n    /* \"#utility.yul\":8327:9722   */\ntag_7:\n    /* \"#utility.yul\":8444:8481   */\n  tag_153\n    /* \"#utility.yul\":8477:8480   */\n  dup3\n    /* \"#utility.yul\":8444:8481   */\n  tag_31\n  jump\t// in\ntag_153:\n    /* \"#utility.yul\":8546:8564   */\n  0xffffffffffffffff\n    /* \"#utility.yul\":8538:8544   */\n  dup2\n    /* \"#utility.yul\":8535:8565   */\n  gt\n    /* \"#utility.yul\":8532:8588   */\n  iszero\n  tag_154\n  jumpi\n    /* \"#utility.yul\":8568:8586   */\n  tag_155\n  tag_18\n  jump\t// in\ntag_155:\n    /* \"#utility.yul\":8532:8588   */\ntag_154:\n    /* \"#utility.yul\":8612:8650   */\n  tag_156\n    /* \"#utility.yul\":8644:8648   */\n  dup3\n    /* \"#utility.yul\":8638:8649   */\n  sload\n    /* \"#utility.yul\":8612:8650   */\n  tag_33\n  jump\t// in\ntag_156:\n    /* \"#utility.yul\":8697:8764   */\n  tag_157\n    /* \"#utility.yul\":8757:8763   */\n  dup3\n    /* \"#utility.yul\":8749:8755   */\n  dup3\n    /* \"#utility.yul\":8743:8747   */\n  dup6\n    /* \"#utility.yul\":8697:8764   */\n  tag_45\n  jump\t// in\ntag_157:\n    /* \"#utility.yul\":8791:8792   */\n  0x00\n    /* \"#utility.yul\":8815:8819   */\n  0x20\n    /* \"#utility.yul\":8802:8819   */\n  swap1\n  pop\n    /* \"#utility.yul\":8847:8849   */\n  0x1f\n    /* \"#utility.yul\":8839:8845   */\n  dup4\n    /* \"#utility.yul\":8836:8850   */\n  gt\n    /* \"#utility.yul\":8864:8865   */\n  0x01\n    /* \"#utility.yul\":8859:9477   */\n  dup2\n  eq\n  tag_159\n  jumpi\n    /* \"#utility.yul\":9521:9522   */\n  0x00\n    /* \"#utility.yul\":9538:9544   */\n  dup5\n    /* \"#utility.yul\":9535:9612   */\n  iszero\n  tag_160\n  jumpi\n    /* \"#utility.yul\":9587:9596   */\n  dup3\n    /* \"#utility.yul\":9582:9585   */\n  dup8\n    /* \"#utility.yul\":9578:9597   */\n  add\n    /* \"#utility.yul\":9572:9598   */\n  mload\n    /* \"#utility.yul\":9563:9598   */\n  swap1\n  pop\n    /* \"#utility.yul\":9535:9612   */\ntag_160:\n    /* \"#utility.yul\":9638:9705   */\n  tag_161\n    /* \"#utility.yul\":9698:9704   */\n  dup6\n    /* \"#utility.yul\":9691:9696   */\n  dup3\n    /* \"#utility.yul\":9638:9705   */\n  tag_48\n  jump\t// in\ntag_161:\n    /* \"#utility.yul\":9632:9636   */\n  dup7\n    /* \"#utility.yul\":9625:9706   */\n  sstore\n    /* \"#utility.yul\":9494:9716   */\n  pop\n    /* \"#utility.yul\":8829:9716   */\n  jump(tag_158)\n    /* \"#utility.yul\":8859:9477   */\ntag_159:\n    /* \"#utility.yul\":8911:8915   */\n  0x1f\n    /* \"#utility.yul\":8907:8916   */\n  not\n    /* \"#utility.yul\":8899:8905   */\n  dup5\n    /* \"#utility.yul\":8895:8917   */\n  and\n    /* \"#utility.yul\":8945:8982   */\n  tag_162\n    /* \"#utility.yul\":8977:8981   */\n  dup7\n    /* \"#utility.yul\":8945:8982   */\n  tag_34\n  jump\t// in\ntag_162:\n    /* \"#utility.yul\":9004:9005   */\n  0x00\n    /* \"#utility.yul\":9018:9226   */\ntag_163:\n    /* \"#utility.yul\":9032:9039   */\n  dup3\n    /* \"#utility.yul\":9029:9030   */\n  dup2\n    /* \"#utility.yul\":9026:9040   */\n  lt\n    /* \"#utility.yul\":9018:9226   */\n  iszero\n  tag_165\n  jumpi\n    /* \"#utility.yul\":9111:9120   */\n  dup5\n    /* \"#utility.yul\":9106:9109   */\n  dup10\n    /* \"#utility.yul\":9102:9121   */\n  add\n    /* \"#utility.yul\":9096:9122   */\n  mload\n    /* \"#utility.yul\":9088:9094   */\n  dup3\n    /* \"#utility.yul\":9081:9123   */\n  sstore\n    /* \"#utility.yul\":9162:9163   */\n  0x01\n    /* \"#utility.yul\":9154:9160   */\n  dup3\n    /* \"#utility.yul\":9150:9164   */\n  add\n    /* \"#utility.yul\":9140:9164   */\n  swap2\n  pop\n    /* \"#utility.yul\":9209:9211   */\n  0x20\n    /* \"#utility.yul\":9198:9207   */\n  dup6\n    /* \"#utility.yul\":9194:9212   */\n  add\n    /* \"#utility.yul\":9181:9212   */\n  swap5\n  pop\n    /* \"#utility.yul\":9055:9059   */\n  0x20\n    /* \"#utility.yul\":9052:9053   */\n  dup2\n    /* \"#utility.yul\":9048:9060   */\n  add\n    /* \"#utility.yul\":9043:9060   */\n  swap1\n  pop\n    /* \"#utility.yul\":9018:9226   */\n  jump(tag_163)\ntag_165:\n    /* \"#utility.yul\":9254:9260   */\n  dup7\n    /* \"#utility.yul\":9245:9252   */\n  dup4\n    /* \"#utility.yul\":9242:9261   */\n  lt\n    /* \"#utility.yul\":9239:9418   */\n  iszero\n  tag_166\n  jumpi\n    /* \"#utility.yul\":9312:9321   */\n  dup5\n    /* \"#utility.yul\":9307:9310   */\n  dup10\n    /* \"#utility.yul\":9303:9322   */\n  add\n    /* \"#utility.yul\":9297:9323   */\n  mload\n    /* \"#utility.yul\":9355:9403   */\n  tag_167\n    /* \"#utility.yul\":9397:9401   */\n  0x1f\n    /* \"#utility.yul\":9389:9395   */\n  dup10\n    /* \"#utility.yul\":9385:9402   */\n  and\n    /* \"#utility.yul\":9374:9383   */\n  dup3\n    /* \"#utility.yul\":9355:9403   */\n  tag_47\n  jump\t// in\ntag_167:\n    /* \"#utility.yul\":9347:9353   */\n  dup4\n    /* \"#utility.yul\":9340:9404   */\n  sstore\n    /* \"#utility.yul\":9262:9418   */\n  pop\n    /* \"#utility.yul\":9239:9418   */\ntag_166:\n    /* \"#utility.yul\":9464:9465   */\n  0x01\n    /* \"#utility.yul\":9460:9461   */\n  0x02\n    /* \"#utility.yul\":9452:9458   */\n  dup9\n    /* \"#utility.yul\":9448:9462   */\n  mul\n    /* \"#utility.yul\":9444:9466   */\n  add\n    /* \"#utility.yul\":9438:9442   */\n  dup9\n    /* \"#utility.yul\":9431:9467   */\n  sstore\n    /* \"#utility.yul\":8866:9477   */\n  pop\n  pop\n  pop\n    /* \"#utility.yul\":8829:9716   */\ntag_158:\n  pop\n    /* \"#utility.yul\":8419:9722   */\n  pop\n  pop\n  pop\n    /* \"#utility.yul\":8327:9722   */\n  pop\n  pop\n  jump\t// out\n    /* \"EmployeeStorage/contracts/EmployeeStorage.sol\":133:1641  contract EmployeeStorage {... */\ntag_8:\n  dataSize(sub_0)\n  dup1\n  dataOffset(sub_0)\n  0x00\n  codecopy\n  0x00\n  return\nstop\n\nsub_0: assembly {\n        /* \"EmployeeStorage/contracts/EmployeeStorage.sol\":133:1641  contract EmployeeStorage {... */\n      mstore(0x40, 0x80)\n      callvalue\n      dup1\n      iszero\n      tag_1\n      jumpi\n      0x00\n      dup1\n      revert\n    tag_1:\n      pop\n      jumpi(tag_2, lt(calldatasize, 0x04))\n      shr(0xe0, calldataload(0x00))\n      dup1\n      0x4c764809\n      gt\n      tag_10\n      jumpi\n      dup1\n      0x4c764809\n      eq\n      tag_6\n      jumpi\n      dup1\n      0x52c98689\n      eq\n      tag_7\n      jumpi\n      dup1\n      0x6d45e2a5\n      eq\n      tag_8\n      jumpi\n      dup1\n      0x8f6a861a\n      eq\n      tag_9\n      jumpi\n      jump(tag_2)\n    tag_10:\n      dup1\n      0x06fdde03\n      eq\n      tag_3\n      jumpi\n      dup1\n      0x3f83ea3b\n      eq\n      tag_4\n      jumpi\n      dup1\n      0x49574402\n      eq\n      tag_5\n      jumpi\n    tag_2:\n      0x00\n      dup1\n      revert\n        /* \"EmployeeStorage/contracts/EmployeeStorage.sol\":246:264  string public name */\n    tag_3:\n      tag_11\n      tag_12\n      jump\t// in\n    tag_11:\n      mload(0x40)\n      tag_13\n      swap2\n      swap1\n      tag_14\n      jump\t// in\n    tag_13:\n      mload(0x40)\n      dup1\n      swap2\n      sub\n      swap1\n      return\n        /* \"EmployeeStorage/contracts/EmployeeStorage.sol\":218:240  uint   public idNumber */\n    tag_4:\n      tag_15\n      tag_16\n      jump\t// in\n    tag_15:\n      mload(0x40)\n      tag_17\n      swap2\n      swap1\n      tag_18\n      jump\t// in\n    tag_17:\n      mload(0x40)\n      dup1\n      swap2\n      sub\n      swap1\n      return\n        /* \"EmployeeStorage/contracts/EmployeeStorage.sol\":469:550  function viewSalary() public view returns (uint24) {... */\n    tag_5:\n      tag_19\n      tag_20\n      jump\t// in\n    tag_19:\n      mload(0x40)\n      tag_21\n      swap2\n      swap1\n      tag_22\n      jump\t// in\n    tag_21:\n      mload(0x40)\n      dup1\n      swap2\n      sub\n      swap1\n      return\n        /* \"EmployeeStorage/contracts/EmployeeStorage.sol\":1573:1638  function debugResetShares() public {... */\n    tag_6:\n      tag_23\n      tag_24\n      jump\t// in\n    tag_23:\n      stop\n        /* \"EmployeeStorage/contracts/EmployeeStorage.sol\":643:901  function grantShares(uint16 _newShares) public returns (uint16) {... */\n    tag_7:\n      tag_25\n      0x04\n      dup1\n      calldatasize\n      sub\n      dup2\n      add\n      swap1\n      tag_26\n      swap2\n      swap1\n      tag_27\n      jump\t// in\n    tag_26:\n      tag_28\n      jump\t// in\n    tag_25:\n      mload(0x40)\n      tag_29\n      swap2\n      swap1\n      tag_30\n      jump\t// in\n    tag_29:\n      mload(0x40)\n      dup1\n      swap2\n      sub\n      swap1\n      return\n        /* \"EmployeeStorage/contracts/EmployeeStorage.sol\":556:637  function viewShares() public view returns (uint16) {... */\n    tag_8:\n      tag_31\n      tag_32\n      jump\t// in\n    tag_31:\n      mload(0x40)\n      tag_33\n      swap2\n      swap1\n      tag_30\n      jump\t// in\n    tag_33:\n      mload(0x40)\n      dup1\n      swap2\n      sub\n      swap1\n      return\n        /* \"EmployeeStorage/contracts/EmployeeStorage.sol\":1362:1495  function checkForPacking(uint _slot) public view returns (uint r) {... */\n    tag_9:\n      tag_34\n      0x04\n      dup1\n      calldatasize\n      sub\n      dup2\n      add\n      swap1\n      tag_35\n      swap2\n      swap1\n      tag_36\n      jump\t// in\n    tag_35:\n      tag_37\n      jump\t// in\n    tag_34:\n      mload(0x40)\n      tag_38\n      swap2\n      swap1\n      tag_18\n      jump\t// in\n    tag_38:\n      mload(0x40)\n      dup1\n      swap2\n      sub\n      swap1\n      return\n        /* \"EmployeeStorage/contracts/EmployeeStorage.sol\":246:264  string public name */\n    tag_12:\n      0x02\n      dup1\n      sload\n      tag_39\n      swap1\n      tag_40\n      jump\t// in\n    tag_39:\n      dup1\n      0x1f\n      add\n      0x20\n      dup1\n      swap2\n      div\n      mul\n      0x20\n      add\n      mload(0x40)\n      swap1\n      dup2\n      add\n      0x40\n      mstore\n      dup1\n      swap3\n      swap2\n      swap1\n      dup2\n      dup2\n      mstore\n      0x20\n      add\n      dup3\n      dup1\n      sload\n      tag_41\n      swap1\n      tag_40\n      jump\t// in\n    tag_41:\n      dup1\n      iszero\n      tag_42\n      jumpi\n      dup1\n      0x1f\n      lt\n      tag_43\n      jumpi\n      0x0100\n      dup1\n      dup4\n      sload\n      div\n      mul\n      dup4\n      mstore\n      swap2\n      0x20\n      add\n      swap2\n      jump(tag_42)\n    tag_43:\n      dup3\n      add\n      swap2\n      swap1\n      0x00\n      mstore\n      keccak256(0x00, 0x20)\n      swap1\n    tag_44:\n      dup2\n      sload\n      dup2\n      mstore\n      swap1\n      0x01\n      add\n      swap1\n      0x20\n      add\n      dup1\n      dup4\n      gt\n      tag_44\n      jumpi\n      dup3\n      swap1\n      sub\n      0x1f\n      and\n      dup3\n      add\n      swap2\n    tag_42:\n      pop\n      pop\n      pop\n      pop\n      pop\n      dup2\n      jump\t// out\n        /* \"EmployeeStorage/contracts/EmployeeStorage.sol\":218:240  uint   public idNumber */\n    tag_16:\n      sload(0x01)\n      dup2\n      jump\t// out\n        /* \"EmployeeStorage/contracts/EmployeeStorage.sol\":469:550  function viewSalary() public view returns (uint24) {... */\n    tag_20:\n        /* \"EmployeeStorage/contracts/EmployeeStorage.sol\":512:518  uint24 */\n      0x00\n        /* \"EmployeeStorage/contracts/EmployeeStorage.sol\":537:543  salary */\n      dup1\n      0x02\n      swap1\n      sload\n      swap1\n      0x0100\n      exp\n      swap1\n      div\n      0xffffff\n      and\n        /* \"EmployeeStorage/contracts/EmployeeStorage.sol\":530:543  return salary */\n      swap1\n      pop\n        /* \"EmployeeStorage/contracts/EmployeeStorage.sol\":469:550  function viewSalary() public view returns (uint24) {... */\n      swap1\n      jump\t// out\n        /* \"EmployeeStorage/contracts/EmployeeStorage.sol\":1573:1638  function debugResetShares() public {... */\n    tag_24:\n        /* \"EmployeeStorage/contracts/EmployeeStorage.sol\":1627:1631  1000 */\n      0x03e8\n        /* \"EmployeeStorage/contracts/EmployeeStorage.sol\":1618:1624  shares */\n      0x00\n      dup1\n        /* \"EmployeeStorage/contracts/EmployeeStorage.sol\":1618:1631  shares = 1000 */\n      0x0100\n      exp\n      dup2\n      sload\n      dup2\n      0xffff\n      mul\n      not\n      and\n      swap1\n      dup4\n      0xffff\n      and\n      mul\n      or\n      swap1\n      sstore\n      pop\n        /* \"EmployeeStorage/contracts/EmployeeStorage.sol\":1573:1638  function debugResetShares() public {... */\n      jump\t// out\n        /* \"EmployeeStorage/contracts/EmployeeStorage.sol\":643:901  function grantShares(uint16 _newShares) public returns (uint16) {... */\n    tag_28:\n        /* \"EmployeeStorage/contracts/EmployeeStorage.sol\":699:705  uint16 */\n      0x00\n        /* \"EmployeeStorage/contracts/EmployeeStorage.sol\":717:735  uint24 totalShares */\n      dup1\n        /* \"EmployeeStorage/contracts/EmployeeStorage.sol\":747:757  _newShares */\n      dup3\n        /* \"EmployeeStorage/contracts/EmployeeStorage.sol\":738:744  shares */\n      0x00\n      dup1\n      sload\n      swap1\n      0x0100\n      exp\n      swap1\n      div\n      0xffff\n      and\n        /* \"EmployeeStorage/contracts/EmployeeStorage.sol\":738:757  shares + _newShares */\n      tag_48\n      swap2\n      swap1\n      tag_49\n      jump\t// in\n    tag_48:\n        /* \"EmployeeStorage/contracts/EmployeeStorage.sol\":717:757  uint24 totalShares = shares + _newShares */\n      0xffff\n      and\n      swap1\n      pop\n        /* \"EmployeeStorage/contracts/EmployeeStorage.sol\":785:789  5000 */\n      0x1388\n        /* \"EmployeeStorage/contracts/EmployeeStorage.sol\":771:782  totalShares */\n      dup2\n        /* \"EmployeeStorage/contracts/EmployeeStorage.sol\":771:789  totalShares > 5000 */\n      0xffffff\n      and\n      gt\n        /* \"EmployeeStorage/contracts/EmployeeStorage.sol\":767:842  if (totalShares > 5000) {... */\n      iszero\n      tag_50\n      jumpi\n        /* \"EmployeeStorage/contracts/EmployeeStorage.sol\":805:831  revert (\"Too many shares\") */\n      mload(0x40)\n      0x08c379a000000000000000000000000000000000000000000000000000000000\n      dup2\n      mstore\n      0x04\n      add\n      tag_51\n      swap1\n      tag_52\n      jump\t// in\n    tag_51:\n      mload(0x40)\n      dup1\n      swap2\n      sub\n      swap1\n      revert\n        /* \"EmployeeStorage/contracts/EmployeeStorage.sol\":767:842  if (totalShares > 5000) {... */\n    tag_50:\n        /* \"EmployeeStorage/contracts/EmployeeStorage.sol\":861:871  _newShares */\n      dup3\n        /* \"EmployeeStorage/contracts/EmployeeStorage.sol\":851:857  shares */\n      0x00\n      dup1\n        /* \"EmployeeStorage/contracts/EmployeeStorage.sol\":851:871  shares += _newShares */\n      dup3\n      dup3\n      dup3\n      swap1\n      sload\n      swap1\n      0x0100\n      exp\n      swap1\n      div\n      0xffff\n      and\n      tag_53\n      swap2\n      swap1\n      tag_49\n      jump\t// in\n    tag_53:\n      swap3\n      pop\n      0x0100\n      exp\n      dup2\n      sload\n      dup2\n      0xffff\n      mul\n      not\n      and\n      swap1\n      dup4\n      0xffff\n      and\n      mul\n      or\n      swap1\n      sstore\n      pop\n        /* \"EmployeeStorage/contracts/EmployeeStorage.sol\":888:894  shares */\n      0x00\n      dup1\n      sload\n      swap1\n      0x0100\n      exp\n      swap1\n      div\n      0xffff\n      and\n        /* \"EmployeeStorage/contracts/EmployeeStorage.sol\":881:894  return shares */\n      swap2\n      pop\n      pop\n        /* \"EmployeeStorage/contracts/EmployeeStorage.sol\":643:901  function grantShares(uint16 _newShares) public returns (uint16) {... */\n      swap2\n      swap1\n      pop\n      jump\t// out\n        /* \"EmployeeStorage/contracts/EmployeeStorage.sol\":556:637  function viewShares() public view returns (uint16) {... */\n    tag_32:\n        /* \"EmployeeStorage/contracts/EmployeeStorage.sol\":599:605  uint16 */\n      0x00\n        /* \"EmployeeStorage/contracts/EmployeeStorage.sol\":624:630  shares */\n      dup1\n      0x00\n      swap1\n      sload\n      swap1\n      0x0100\n      exp\n      swap1\n      div\n      0xffff\n      and\n        /* \"EmployeeStorage/contracts/EmployeeStorage.sol\":617:630  return shares */\n      swap1\n      pop\n        /* \"EmployeeStorage/contracts/EmployeeStorage.sol\":556:637  function viewShares() public view returns (uint16) {... */\n      swap1\n      jump\t// out\n        /* \"EmployeeStorage/contracts/EmployeeStorage.sol\":1362:1495  function checkForPacking(uint _slot) public view returns (uint r) {... */\n    tag_37:\n        /* \"EmployeeStorage/contracts/EmployeeStorage.sol\":1420:1426  uint r */\n      0x00\n        /* \"EmployeeStorage/contracts/EmployeeStorage.sol\":1473:1478  _slot */\n      dup2\n        /* \"EmployeeStorage/contracts/EmployeeStorage.sol\":1466:1479  sload (_slot) */\n      sload\n        /* \"EmployeeStorage/contracts/EmployeeStorage.sol\":1461:1479  r := sload (_slot) */\n      swap1\n      pop\n        /* \"EmployeeStorage/contracts/EmployeeStorage.sol\":1362:1495  function checkForPacking(uint _slot) public view returns (uint r) {... */\n      swap2\n      swap1\n      pop\n      jump\t// out\n        /* \"#utility.yul\":7:106   */\n    tag_56:\n        /* \"#utility.yul\":59:65   */\n      0x00\n        /* \"#utility.yul\":93:98   */\n      dup2\n        /* \"#utility.yul\":87:99   */\n      mload\n        /* \"#utility.yul\":77:99   */\n      swap1\n      pop\n        /* \"#utility.yul\":7:106   */\n      swap2\n      swap1\n      pop\n      jump\t// out\n        /* \"#utility.yul\":112:281   */\n    tag_57:\n        /* \"#utility.yul\":196:207   */\n      0x00\n        /* \"#utility.yul\":230:236   */\n      dup3\n        /* \"#utility.yul\":225:228   */\n      dup3\n        /* \"#utility.yul\":218:237   */\n      mstore\n        /* \"#utility.yul\":270:274   */\n      0x20\n        /* \"#utility.yul\":265:268   */\n      dup3\n        /* \"#utility.yul\":261:275   */\n      add\n        /* \"#utility.yul\":246:275   */\n      swap1\n      pop\n        /* \"#utility.yul\":112:281   */\n      swap3\n      swap2\n      pop\n      pop\n      jump\t// out\n        /* \"#utility.yul\":287:533   */\n    tag_58:\n        /* \"#utility.yul\":368:369   */\n      0x00\n        /* \"#utility.yul\":378:491   */\n    tag_82:\n        /* \"#utility.yul\":392:398   */\n      dup4\n        /* \"#utility.yul\":389:390   */\n      dup2\n        /* \"#utility.yul\":386:399   */\n      lt\n        /* \"#utility.yul\":378:491   */\n      iszero\n      tag_84\n      jumpi\n        /* \"#utility.yul\":477:478   */\n      dup1\n        /* \"#utility.yul\":472:475   */\n      dup3\n        /* \"#utility.yul\":468:479   */\n      add\n        /* \"#utility.yul\":462:480   */\n      mload\n        /* \"#utility.yul\":458:459   */\n      dup2\n        /* \"#utility.yul\":453:456   */\n      dup5\n        /* \"#utility.yul\":449:460   */\n      add\n        /* \"#utility.yul\":442:481   */\n      mstore\n        /* \"#utility.yul\":414:416   */\n      0x20\n        /* \"#utility.yul\":411:412   */\n      dup2\n        /* \"#utility.yul\":407:417   */\n      add\n        /* \"#utility.yul\":402:417   */\n      swap1\n      pop\n        /* \"#utility.yul\":378:491   */\n      jump(tag_82)\n    tag_84:\n        /* \"#utility.yul\":525:526   */\n      0x00\n        /* \"#utility.yul\":516:522   */\n      dup5\n        /* \"#utility.yul\":511:514   */\n      dup5\n        /* \"#utility.yul\":507:523   */\n      add\n        /* \"#utility.yul\":500:527   */\n      mstore\n        /* \"#utility.yul\":349:533   */\n      pop\n        /* \"#utility.yul\":287:533   */\n      pop\n      pop\n      pop\n      jump\t// out\n        /* \"#utility.yul\":539:641   */\n    tag_59:\n        /* \"#utility.yul\":580:586   */\n      0x00\n        /* \"#utility.yul\":631:633   */\n      0x1f\n        /* \"#utility.yul\":627:634   */\n      not\n        /* \"#utility.yul\":622:624   */\n      0x1f\n        /* \"#utility.yul\":615:620   */\n      dup4\n        /* \"#utility.yul\":611:625   */\n      add\n        /* \"#utility.yul\":607:635   */\n      and\n        /* \"#utility.yul\":597:635   */\n      swap1\n      pop\n        /* \"#utility.yul\":539:641   */\n      swap2\n      swap1\n      pop\n      jump\t// out\n        /* \"#utility.yul\":647:1024   */\n    tag_60:\n        /* \"#utility.yul\":735:738   */\n      0x00\n        /* \"#utility.yul\":763:802   */\n      tag_87\n        /* \"#utility.yul\":796:801   */\n      dup3\n        /* \"#utility.yul\":763:802   */\n      tag_56\n      jump\t// in\n    tag_87:\n        /* \"#utility.yul\":818:889   */\n      tag_88\n        /* \"#utility.yul\":882:888   */\n      dup2\n        /* \"#utility.yul\":877:880   */\n      dup6\n        /* \"#utility.yul\":818:889   */\n      tag_57\n      jump\t// in\n    tag_88:\n        /* \"#utility.yul\":811:889   */\n      swap4\n      pop\n        /* \"#utility.yul\":898:963   */\n      tag_89\n        /* \"#utility.yul\":956:962   */\n      dup2\n        /* \"#utility.yul\":951:954   */\n      dup6\n        /* \"#utility.yul\":944:948   */\n      0x20\n        /* \"#utility.yul\":937:942   */\n      dup7\n        /* \"#utility.yul\":933:949   */\n      add\n        /* \"#utility.yul\":898:963   */\n      tag_58\n      jump\t// in\n    tag_89:\n        /* \"#utility.yul\":988:1017   */\n      tag_90\n        /* \"#utility.yul\":1010:1016   */\n      dup2\n        /* \"#utility.yul\":988:1017   */\n      tag_59\n      jump\t// in\n    tag_90:\n        /* \"#utility.yul\":983:986   */\n      dup5\n        /* \"#utility.yul\":979:1018   */\n      add\n        /* \"#utility.yul\":972:1018   */\n      swap2\n      pop\n        /* \"#utility.yul\":739:1024   */\n      pop\n        /* \"#utility.yul\":647:1024   */\n      swap3\n      swap2\n      pop\n      pop\n      jump\t// out\n        /* \"#utility.yul\":1030:1343   */\n    tag_14:\n        /* \"#utility.yul\":1143:1147   */\n      0x00\n        /* \"#utility.yul\":1181:1183   */\n      0x20\n        /* \"#utility.yul\":1170:1179   */\n      dup3\n        /* \"#utility.yul\":1166:1184   */\n      add\n        /* \"#utility.yul\":1158:1184   */\n      swap1\n      pop\n        /* \"#utility.yul\":1230:1239   */\n      dup2\n        /* \"#utility.yul\":1224:1228   */\n      dup2\n        /* \"#utility.yul\":1220:1240   */\n      sub\n        /* \"#utility.yul\":1216:1217   */\n      0x00\n        /* \"#utility.yul\":1205:1214   */\n      dup4\n        /* \"#utility.yul\":1201:1218   */\n      add\n        /* \"#utility.yul\":1194:1241   */\n      mstore\n        /* \"#utility.yul\":1258:1336   */\n      tag_92\n        /* \"#utility.yul\":1331:1335   */\n      dup2\n        /* \"#utility.yul\":1322:1328   */\n      dup5\n        /* \"#utility.yul\":1258:1336   */\n      tag_60\n      jump\t// in\n    tag_92:\n        /* \"#utility.yul\":1250:1336   */\n      swap1\n      pop\n        /* \"#utility.yul\":1030:1343   */\n      swap3\n      swap2\n      pop\n      pop\n      jump\t// out\n        /* \"#utility.yul\":1349:1426   */\n    tag_61:\n        /* \"#utility.yul\":1386:1393   */\n      0x00\n        /* \"#utility.yul\":1415:1420   */\n      dup2\n        /* \"#utility.yul\":1404:1420   */\n      swap1\n      pop\n        /* \"#utility.yul\":1349:1426   */\n      swap2\n      swap1\n      pop\n      jump\t// out\n        /* \"#utility.yul\":1432:1550   */\n    tag_62:\n        /* \"#utility.yul\":1519:1543   */\n      tag_95\n        /* \"#utility.yul\":1537:1542   */\n      dup2\n        /* \"#utility.yul\":1519:1543   */\n      tag_61\n      jump\t// in\n    tag_95:\n        /* \"#utility.yul\":1514:1517   */\n      dup3\n        /* \"#utility.yul\":1507:1544   */\n      mstore\n        /* \"#utility.yul\":1432:1550   */\n      pop\n      pop\n      jump\t// out\n        /* \"#utility.yul\":1556:1778   */\n    tag_18:\n        /* \"#utility.yul\":1649:1653   */\n      0x00\n        /* \"#utility.yul\":1687:1689   */\n      0x20\n        /* \"#utility.yul\":1676:1685   */\n      dup3\n        /* \"#utility.yul\":1672:1690   */\n      add\n        /* \"#utility.yul\":1664:1690   */\n      swap1\n      pop\n        /* \"#utility.yul\":1700:1771   */\n      tag_97\n        /* \"#utility.yul\":1768:1769   */\n      0x00\n        /* \"#utility.yul\":1757:1766   */\n      dup4\n        /* \"#utility.yul\":1753:1770   */\n      add\n        /* \"#utility.yul\":1744:1750   */\n      dup5\n        /* \"#utility.yul\":1700:1771   */\n      tag_62\n      jump\t// in\n    tag_97:\n        /* \"#utility.yul\":1556:1778   */\n      swap3\n      swap2\n      pop\n      pop\n      jump\t// out\n        /* \"#utility.yul\":1784:1875   */\n    tag_63:\n        /* \"#utility.yul\":1820:1827   */\n      0x00\n        /* \"#utility.yul\":1860:1868   */\n      0xffffff\n        /* \"#utility.yul\":1853:1858   */\n      dup3\n        /* \"#utility.yul\":1849:1869   */\n      and\n        /* \"#utility.yul\":1838:1869   */\n      swap1\n      pop\n        /* \"#utility.yul\":1784:1875   */\n      swap2\n      swap1\n      pop\n      jump\t// out\n        /* \"#utility.yul\":1881:1996   */\n    tag_64:\n        /* \"#utility.yul\":1966:1989   */\n      tag_100\n        /* \"#utility.yul\":1983:1988   */\n      dup2\n        /* \"#utility.yul\":1966:1989   */\n      tag_63\n      jump\t// in\n    tag_100:\n        /* \"#utility.yul\":1961:1964   */\n      dup3\n        /* \"#utility.yul\":1954:1990   */\n      mstore\n        /* \"#utility.yul\":1881:1996   */\n      pop\n      pop\n      jump\t// out\n        /* \"#utility.yul\":2002:2220   */\n    tag_22:\n        /* \"#utility.yul\":2093:2097   */\n      0x00\n        /* \"#utility.yul\":2131:2133   */\n      0x20\n        /* \"#utility.yul\":2120:2129   */\n      dup3\n        /* \"#utility.yul\":2116:2134   */\n      add\n        /* \"#utility.yul\":2108:2134   */\n      swap1\n      pop\n        /* \"#utility.yul\":2144:2213   */\n      tag_102\n        /* \"#utility.yul\":2210:2211   */\n      0x00\n        /* \"#utility.yul\":2199:2208   */\n      dup4\n        /* \"#utility.yul\":2195:2212   */\n      add\n        /* \"#utility.yul\":2186:2192   */\n      dup5\n        /* \"#utility.yul\":2144:2213   */\n      tag_64\n      jump\t// in\n    tag_102:\n        /* \"#utility.yul\":2002:2220   */\n      swap3\n      swap2\n      pop\n      pop\n      jump\t// out\n        /* \"#utility.yul\":2307:2424   */\n    tag_66:\n        /* \"#utility.yul\":2416:2417   */\n      0x00\n        /* \"#utility.yul\":2413:2414   */\n      dup1\n        /* \"#utility.yul\":2406:2418   */\n      revert\n        /* \"#utility.yul\":2553:2642   */\n    tag_68:\n        /* \"#utility.yul\":2589:2596   */\n      0x00\n        /* \"#utility.yul\":2629:2635   */\n      0xffff\n        /* \"#utility.yul\":2622:2627   */\n      dup3\n        /* \"#utility.yul\":2618:2636   */\n      and\n        /* \"#utility.yul\":2607:2636   */\n      swap1\n      pop\n        /* \"#utility.yul\":2553:2642   */\n      swap2\n      swap1\n      pop\n      jump\t// out\n        /* \"#utility.yul\":2648:2768   */\n    tag_69:\n        /* \"#utility.yul\":2720:2743   */\n      tag_108\n        /* \"#utility.yul\":2737:2742   */\n      dup2\n        /* \"#utility.yul\":2720:2743   */\n      tag_68\n      jump\t// in\n    tag_108:\n        /* \"#utility.yul\":2713:2718   */\n      dup2\n        /* \"#utility.yul\":2710:2744   */\n      eq\n        /* \"#utility.yul\":2700:2762   */\n      tag_109\n      jumpi\n        /* \"#utility.yul\":2758:2759   */\n      0x00\n        /* \"#utility.yul\":2755:2756   */\n      dup1\n        /* \"#utility.yul\":2748:2760   */\n      revert\n        /* \"#utility.yul\":2700:2762   */\n    tag_109:\n        /* \"#utility.yul\":2648:2768   */\n      pop\n      jump\t// out\n        /* \"#utility.yul\":2774:2911   */\n    tag_70:\n        /* \"#utility.yul\":2819:2824   */\n      0x00\n        /* \"#utility.yul\":2857:2863   */\n      dup2\n        /* \"#utility.yul\":2844:2864   */\n      calldataload\n        /* \"#utility.yul\":2835:2864   */\n      swap1\n      pop\n        /* \"#utility.yul\":2873:2905   */\n      tag_111\n        /* \"#utility.yul\":2899:2904   */\n      dup2\n        /* \"#utility.yul\":2873:2905   */\n      tag_69\n      jump\t// in\n    tag_111:\n        /* \"#utility.yul\":2774:2911   */\n      swap3\n      swap2\n      pop\n      pop\n      jump\t// out\n        /* \"#utility.yul\":2917:3244   */\n    tag_27:\n        /* \"#utility.yul\":2975:2981   */\n      0x00\n        /* \"#utility.yul\":3024:3026   */\n      0x20\n        /* \"#utility.yul\":3012:3021   */\n      dup3\n        /* \"#utility.yul\":3003:3010   */\n      dup5\n        /* \"#utility.yul\":2999:3022   */\n      sub\n        /* \"#utility.yul\":2995:3027   */\n      slt\n        /* \"#utility.yul\":2992:3111   */\n      iszero\n      tag_113\n      jumpi\n        /* \"#utility.yul\":3030:3109   */\n      tag_114\n      tag_66\n      jump\t// in\n    tag_114:\n        /* \"#utility.yul\":2992:3111   */\n    tag_113:\n        /* \"#utility.yul\":3150:3151   */\n      0x00\n        /* \"#utility.yul\":3175:3227   */\n      tag_115\n        /* \"#utility.yul\":3219:3226   */\n      dup5\n        /* \"#utility.yul\":3210:3216   */\n      dup3\n        /* \"#utility.yul\":3199:3208   */\n      dup6\n        /* \"#utility.yul\":3195:3217   */\n      add\n        /* \"#utility.yul\":3175:3227   */\n      tag_70\n      jump\t// in\n    tag_115:\n        /* \"#utility.yul\":3165:3227   */\n      swap2\n      pop\n        /* \"#utility.yul\":3121:3237   */\n      pop\n        /* \"#utility.yul\":2917:3244   */\n      swap3\n      swap2\n      pop\n      pop\n      jump\t// out\n        /* \"#utility.yul\":3250:3365   */\n    tag_71:\n        /* \"#utility.yul\":3335:3358   */\n      tag_117\n        /* \"#utility.yul\":3352:3357   */\n      dup2\n        /* \"#utility.yul\":3335:3358   */\n      tag_68\n      jump\t// in\n    tag_117:\n        /* \"#utility.yul\":3330:3333   */\n      dup3\n        /* \"#utility.yul\":3323:3359   */\n      mstore\n        /* \"#utility.yul\":3250:3365   */\n      pop\n      pop\n      jump\t// out\n        /* \"#utility.yul\":3371:3589   */\n    tag_30:\n        /* \"#utility.yul\":3462:3466   */\n      0x00\n        /* \"#utility.yul\":3500:3502   */\n      0x20\n        /* \"#utility.yul\":3489:3498   */\n      dup3\n        /* \"#utility.yul\":3485:3503   */\n      add\n        /* \"#utility.yul\":3477:3503   */\n      swap1\n      pop\n        /* \"#utility.yul\":3513:3582   */\n      tag_119\n        /* \"#utility.yul\":3579:3580   */\n      0x00\n        /* \"#utility.yul\":3568:3577   */\n      dup4\n        /* \"#utility.yul\":3564:3581   */\n      add\n        /* \"#utility.yul\":3555:3561   */\n      dup5\n        /* \"#utility.yul\":3513:3582   */\n      tag_71\n      jump\t// in\n    tag_119:\n        /* \"#utility.yul\":3371:3589   */\n      swap3\n      swap2\n      pop\n      pop\n      jump\t// out\n        /* \"#utility.yul\":3595:3717   */\n    tag_72:\n        /* \"#utility.yul\":3668:3692   */\n      tag_121\n        /* \"#utility.yul\":3686:3691   */\n      dup2\n        /* \"#utility.yul\":3668:3692   */\n      tag_61\n      jump\t// in\n    tag_121:\n        /* \"#utility.yul\":3661:3666   */\n      dup2\n        /* \"#utility.yul\":3658:3693   */\n      eq\n        /* \"#utility.yul\":3648:3711   */\n      tag_122\n      jumpi\n        /* \"#utility.yul\":3707:3708   */\n      0x00\n        /* \"#utility.yul\":3704:3705   */\n      dup1\n        /* \"#utility.yul\":3697:3709   */\n      revert\n        /* \"#utility.yul\":3648:3711   */\n    tag_122:\n        /* \"#utility.yul\":3595:3717   */\n      pop\n      jump\t// out\n        /* \"#utility.yul\":3723:3862   */\n    tag_73:\n        /* \"#utility.yul\":3769:3774   */\n      0x00\n        /* \"#utility.yul\":3807:3813   */\n      dup2\n        /* \"#utility.yul\":3794:3814   */\n      calldataload\n        /* \"#utility.yul\":3785:3814   */\n      swap1\n      pop\n        /* \"#utility.yul\":3823:3856   */\n      tag_124\n        /* \"#utility.yul\":3850:3855   */\n      dup2\n        /* \"#utility.yul\":3823:3856   */\n      tag_72\n      jump\t// in\n    tag_124:\n        /* \"#utility.yul\":3723:3862   */\n      swap3\n      swap2\n      pop\n      pop\n      jump\t// out\n        /* \"#utility.yul\":3868:4197   */\n    tag_36:\n        /* \"#utility.yul\":3927:3933   */\n      0x00\n        /* \"#utility.yul\":3976:3978   */\n      0x20\n        /* \"#utility.yul\":3964:3973   */\n      dup3\n        /* \"#utility.yul\":3955:3962   */\n      dup5\n        /* \"#utility.yul\":3951:3974   */\n      sub\n        /* \"#utility.yul\":3947:3979   */\n      slt\n        /* \"#utility.yul\":3944:4063   */\n      iszero\n      tag_126\n      jumpi\n        /* \"#utility.yul\":3982:4061   */\n      tag_127\n      tag_66\n      jump\t// in\n    tag_127:\n        /* \"#utility.yul\":3944:4063   */\n    tag_126:\n        /* \"#utility.yul\":4102:4103   */\n      0x00\n        /* \"#utility.yul\":4127:4180   */\n      tag_128\n        /* \"#utility.yul\":4172:4179   */\n      dup5\n        /* \"#utility.yul\":4163:4169   */\n      dup3\n        /* \"#utility.yul\":4152:4161   */\n      dup6\n        /* \"#utility.yul\":4148:4170   */\n      add\n        /* \"#utility.yul\":4127:4180   */\n      tag_73\n      jump\t// in\n    tag_128:\n        /* \"#utility.yul\":4117:4180   */\n      swap2\n      pop\n        /* \"#utility.yul\":4073:4190   */\n      pop\n        /* \"#utility.yul\":3868:4197   */\n      swap3\n      swap2\n      pop\n      pop\n      jump\t// out\n        /* \"#utility.yul\":4203:4383   */\n    tag_74:\n        /* \"#utility.yul\":4251:4328   */\n      0x4e487b7100000000000000000000000000000000000000000000000000000000\n        /* \"#utility.yul\":4248:4249   */\n      0x00\n        /* \"#utility.yul\":4241:4329   */\n      mstore\n        /* \"#utility.yul\":4348:4352   */\n      0x22\n        /* \"#utility.yul\":4345:4346   */\n      0x04\n        /* \"#utility.yul\":4338:4353   */\n      mstore\n        /* \"#utility.yul\":4372:4376   */\n      0x24\n        /* \"#utility.yul\":4369:4370   */\n      0x00\n        /* \"#utility.yul\":4362:4377   */\n      revert\n        /* \"#utility.yul\":4389:4709   */\n    tag_40:\n        /* \"#utility.yul\":4433:4439   */\n      0x00\n        /* \"#utility.yul\":4470:4471   */\n      0x02\n        /* \"#utility.yul\":4464:4468   */\n      dup3\n        /* \"#utility.yul\":4460:4472   */\n      div\n        /* \"#utility.yul\":4450:4472   */\n      swap1\n      pop\n        /* \"#utility.yul\":4517:4518   */\n      0x01\n        /* \"#utility.yul\":4511:4515   */\n      dup3\n        /* \"#utility.yul\":4507:4519   */\n      and\n        /* \"#utility.yul\":4538:4556   */\n      dup1\n        /* \"#utility.yul\":4528:4609   */\n      tag_131\n      jumpi\n        /* \"#utility.yul\":4594:4598   */\n      0x7f\n        /* \"#utility.yul\":4586:4592   */\n      dup3\n        /* \"#utility.yul\":4582:4599   */\n      and\n        /* \"#utility.yul\":4572:4599   */\n      swap2\n      pop\n        /* \"#utility.yul\":4528:4609   */\n    tag_131:\n        /* \"#utility.yul\":4656:4658   */\n      0x20\n        /* \"#utility.yul\":4648:4654   */\n      dup3\n        /* \"#utility.yul\":4645:4659   */\n      lt\n        /* \"#utility.yul\":4625:4643   */\n      dup2\n        /* \"#utility.yul\":4622:4660   */\n      sub\n        /* \"#utility.yul\":4619:4703   */\n      tag_132\n      jumpi\n        /* \"#utility.yul\":4675:4693   */\n      tag_133\n      tag_74\n      jump\t// in\n    tag_133:\n        /* \"#utility.yul\":4619:4703   */\n    tag_132:\n        /* \"#utility.yul\":4440:4709   */\n      pop\n        /* \"#utility.yul\":4389:4709   */\n      swap2\n      swap1\n      pop\n      jump\t// out\n        /* \"#utility.yul\":4715:4895   */\n    tag_75:\n        /* \"#utility.yul\":4763:4840   */\n      0x4e487b7100000000000000000000000000000000000000000000000000000000\n        /* \"#utility.yul\":4760:4761   */\n      0x00\n        /* \"#utility.yul\":4753:4841   */\n      mstore\n        /* \"#utility.yul\":4860:4864   */\n      0x11\n        /* \"#utility.yul\":4857:4858   */\n      0x04\n        /* \"#utility.yul\":4850:4865   */\n      mstore\n        /* \"#utility.yul\":4884:4888   */\n      0x24\n        /* \"#utility.yul\":4881:4882   */\n      0x00\n        /* \"#utility.yul\":4874:4889   */\n      revert\n        /* \"#utility.yul\":4901:5094   */\n    tag_49:\n        /* \"#utility.yul\":4940:4943   */\n      0x00\n        /* \"#utility.yul\":4959:4978   */\n      tag_136\n        /* \"#utility.yul\":4976:4977   */\n      dup3\n        /* \"#utility.yul\":4959:4978   */\n      tag_68\n      jump\t// in\n    tag_136:\n        /* \"#utility.yul\":4954:4978   */\n      swap2\n      pop\n        /* \"#utility.yul\":4992:5011   */\n      tag_137\n        /* \"#utility.yul\":5009:5010   */\n      dup4\n        /* \"#utility.yul\":4992:5011   */\n      tag_68\n      jump\t// in\n    tag_137:\n        /* \"#utility.yul\":4987:5011   */\n      swap3\n      pop\n        /* \"#utility.yul\":5034:5035   */\n      dup3\n        /* \"#utility.yul\":5031:5032   */\n      dup3\n        /* \"#utility.yul\":5027:5036   */\n      add\n        /* \"#utility.yul\":5020:5036   */\n      swap1\n      pop\n        /* \"#utility.yul\":5057:5063   */\n      0xffff\n        /* \"#utility.yul\":5052:5055   */\n      dup2\n        /* \"#utility.yul\":5049:5064   */\n      gt\n        /* \"#utility.yul\":5046:5087   */\n      iszero\n      tag_138\n      jumpi\n        /* \"#utility.yul\":5067:5085   */\n      tag_139\n      tag_75\n      jump\t// in\n    tag_139:\n        /* \"#utility.yul\":5046:5087   */\n    tag_138:\n        /* \"#utility.yul\":4901:5094   */\n      swap3\n      swap2\n      pop\n      pop\n      jump\t// out\n        /* \"#utility.yul\":5100:5265   */\n    tag_76:\n        /* \"#utility.yul\":5240:5257   */\n      0x546f6f206d616e79207368617265730000000000000000000000000000000000\n        /* \"#utility.yul\":5236:5237   */\n      0x00\n        /* \"#utility.yul\":5228:5234   */\n      dup3\n        /* \"#utility.yul\":5224:5238   */\n      add\n        /* \"#utility.yul\":5217:5258   */\n      mstore\n        /* \"#utility.yul\":5100:5265   */\n      pop\n      jump\t// out\n        /* \"#utility.yul\":5271:5637   */\n    tag_77:\n        /* \"#utility.yul\":5413:5416   */\n      0x00\n        /* \"#utility.yul\":5434:5501   */\n      tag_142\n        /* \"#utility.yul\":5498:5500   */\n      0x0f\n        /* \"#utility.yul\":5493:5496   */\n      dup4\n        /* \"#utility.yul\":5434:5501   */\n      tag_57\n      jump\t// in\n    tag_142:\n        /* \"#utility.yul\":5427:5501   */\n      swap2\n      pop\n        /* \"#utility.yul\":5510:5603   */\n      tag_143\n        /* \"#utility.yul\":5599:5602   */\n      dup3\n        /* \"#utility.yul\":5510:5603   */\n      tag_76\n      jump\t// in\n    tag_143:\n        /* \"#utility.yul\":5628:5630   */\n      0x20\n        /* \"#utility.yul\":5623:5626   */\n      dup3\n        /* \"#utility.yul\":5619:5631   */\n      add\n        /* \"#utility.yul\":5612:5631   */\n      swap1\n      pop\n        /* \"#utility.yul\":5271:5637   */\n      swap2\n      swap1\n      pop\n      jump\t// out\n        /* \"#utility.yul\":5643:6062   */\n    tag_52:\n        /* \"#utility.yul\":5809:5813   */\n      0x00\n        /* \"#utility.yul\":5847:5849   */\n      0x20\n        /* \"#utility.yul\":5836:5845   */\n      dup3\n        /* \"#utility.yul\":5832:5850   */\n      add\n        /* \"#utility.yul\":5824:5850   */\n      swap1\n      pop\n        /* \"#utility.yul\":5896:5905   */\n      dup2\n        /* \"#utility.yul\":5890:5894   */\n      dup2\n        /* \"#utility.yul\":5886:5906   */\n      sub\n        /* \"#utility.yul\":5882:5883   */\n      0x00\n        /* \"#utility.yul\":5871:5880   */\n      dup4\n        /* \"#utility.yul\":5867:5884   */\n      add\n        /* \"#utility.yul\":5860:5907   */\n      mstore\n        /* \"#utility.yul\":5924:6055   */\n      tag_145\n        /* \"#utility.yul\":6050:6054   */\n      dup2\n        /* \"#utility.yul\":5924:6055   */\n      tag_77\n      jump\t// in\n    tag_145:\n        /* \"#utility.yul\":5916:6055   */\n      swap1\n      pop\n        /* \"#utility.yul\":5643:6062   */\n      swap2\n      swap1\n      pop\n      jump\t// out\n\n    auxdata: 0xa2646970667358221220279f8552f2e6a10c31afed86e748c254672d5353edc1f9e150bfdbe10899117864736f6c63430008120033\n}\n",
				"bytecode": {
					"linkReferences": {},
					"object": "60806040523480156200001157600080fd5b5060405162000d2e38038062000d2e8339818101604052810190620000379190620002e2565b836000806101000a81548161ffff021916908361ffff1602179055508260029081620000649190620005b4565b5081600060026101000a81548162ffffff021916908362ffffff16021790555080600181905550505050506200069b565b6000604051905090565b600080fd5b600080fd5b600061ffff82169050919050565b620000c281620000a9565b8114620000ce57600080fd5b50565b600081519050620000e281620000b7565b92915050565b600080fd5b600080fd5b6000601f19601f8301169050919050565b7f4e487b7100000000000000000000000000000000000000000000000000000000600052604160045260246000fd5b6200013d82620000f2565b810181811067ffffffffffffffff821117156200015f576200015e62000103565b5b80604052505050565b60006200017462000095565b905062000182828262000132565b919050565b600067ffffffffffffffff821115620001a557620001a462000103565b5b620001b082620000f2565b9050602081019050919050565b60005b83811015620001dd578082015181840152602081019050620001c0565b60008484015250505050565b600062000200620001fa8462000187565b62000168565b9050828152602081018484840111156200021f576200021e620000ed565b5b6200022c848285620001bd565b509392505050565b600082601f8301126200024c576200024b620000e8565b5b81516200025e848260208601620001e9565b91505092915050565b600062ffffff82169050919050565b620002818162000267565b81146200028d57600080fd5b50565b600081519050620002a18162000276565b92915050565b6000819050919050565b620002bc81620002a7565b8114620002c857600080fd5b50565b600081519050620002dc81620002b1565b92915050565b60008060008060808587031215620002ff57620002fe6200009f565b5b60006200030f87828801620000d1565b945050602085015167ffffffffffffffff811115620003335762000332620000a4565b5b620003418782880162000234565b9350506040620003548782880162000290565b92505060606200036787828801620002cb565b91505092959194509250565b600081519050919050565b7f4e487b7100000000000000000000000000000000000000000000000000000000600052602260045260246000fd5b60006002820490506001821680620003c657607f821691505b602082108103620003dc57620003db6200037e565b5b50919050565b60008190508160005260206000209050919050565b60006020601f8301049050919050565b600082821b905092915050565b600060088302620004467fffffffffffffffffffffffffffffffffffffffffffffffffffffffffffffffff8262000407565b62000452868362000407565b95508019841693508086168417925050509392505050565b6000819050919050565b6000620004956200048f6200048984620002a7565b6200046a565b620002a7565b9050919050565b6000819050919050565b620004b18362000474565b620004c9620004c0826200049c565b84845462000414565b825550505050565b600090565b620004e0620004d1565b620004ed818484620004a6565b505050565b5b81811015620005155762000509600082620004d6565b600181019050620004f3565b5050565b601f82111562000564576200052e81620003e2565b6200053984620003f7565b8101602085101562000549578190505b620005616200055885620003f7565b830182620004f2565b50505b505050565b600082821c905092915050565b6000620005896000198460080262000569565b1980831691505092915050565b6000620005a4838362000576565b9150826002028217905092915050565b620005bf8262000373565b67ffffffffffffffff811115620005db57620005da62000103565b5b620005e78254620003ad565b620005f482828562000519565b600060209050601f8311600181146200062c576000841562000617578287015190505b62000623858262000596565b86555062000693565b601f1984166200063c86620003e2565b60005b8281101562000666578489015182556001820191506020850194506020810190506200063f565b8683101562000686578489015162000682601f89168262000576565b8355505b6001600288020188555050505b505050505050565b61068380620006ab6000396000f3fe608060405234801561001057600080fd5b506004361061007d5760003560e01c80634c7648091161005b5780634c764809146100dc57806352c98689146100e65780636d45e2a5146101165780638f6a861a146101345761007d565b806306fdde03146100825780633f83ea3b146100a057806349574402146100be575b600080fd5b61008a610164565b604051610097919061039e565b60405180910390f35b6100a86101f2565b6040516100b591906103d9565b60405180910390f35b6100c66101f8565b6040516100d39190610412565b60405180910390f35b6100e4610210565b005b61010060048036038101906100fb919061046c565b610230565b60405161010d91906104a8565b60405180910390f35b61011e6102ec565b60405161012b91906104a8565b60405180910390f35b61014e600480360381019061014991906104ef565b610303565b60405161015b91906103d9565b60405180910390f35b600280546101719061054b565b80601f016020809104026020016040519081016040528092919081815260200182805461019d9061054b565b80156101ea5780601f106101bf576101008083540402835291602001916101ea565b820191906000526020600020905b8154815290600101906020018083116101cd57829003601f168201915b505050505081565b60015481565b60008060029054906101000a900462ffffff16905090565b6103e86000806101000a81548161ffff021916908361ffff160217905550565b6000808260008054906101000a900461ffff1661024d91906105ab565b61ffff1690506113888162ffffff16111561029d576040517f08c379a00000000000000000000000000000000000000000000000000000000081526004016102949061062d565b60405180910390fd5b826000808282829054906101000a900461ffff166102bb91906105ab565b92506101000a81548161ffff021916908361ffff16021790555060008054906101000a900461ffff16915050919050565b60008060009054906101000a900461ffff16905090565b600081549050919050565b600081519050919050565b600082825260208201905092915050565b60005b8381101561034857808201518184015260208101905061032d565b60008484015250505050565b6000601f19601f8301169050919050565b60006103708261030e565b61037a8185610319565b935061038a81856020860161032a565b61039381610354565b840191505092915050565b600060208201905081810360008301526103b88184610365565b905092915050565b6000819050919050565b6103d3816103c0565b82525050565b60006020820190506103ee60008301846103ca565b92915050565b600062ffffff82169050919050565b61040c816103f4565b82525050565b60006020820190506104276000830184610403565b92915050565b600080fd5b600061ffff82169050919050565b61044981610432565b811461045457600080fd5b50565b60008135905061046681610440565b92915050565b6000602082840312156104825761048161042d565b5b600061049084828501610457565b91505092915050565b6104a281610432565b82525050565b60006020820190506104bd6000830184610499565b92915050565b6104cc816103c0565b81146104d757600080fd5b50565b6000813590506104e9816104c3565b92915050565b6000602082840312156105055761050461042d565b5b6000610513848285016104da565b91505092915050565b7f4e487b7100000000000000000000000000000000000000000000000000000000600052602260045260246000fd5b6000600282049050600182168061056357607f821691505b6020821081036105765761057561051c565b5b50919050565b7f4e487b7100000000000000000000000000000000000000000000000000000000600052601160045260246000fd5b60006105b682610432565b91506105c183610432565b9250828201905061ffff8111156105db576105da61057c565b5b92915050565b7f546f6f206d616e79207368617265730000000000000000000000000000000000600082015250565b6000610617600f83610319565b9150610622826105e1565b602082019050919050565b600060208201905081810360008301526106468161060a565b905091905056fea2646970667358221220279f8552f2e6a10c31afed86e748c254672d5353edc1f9e150bfdbe10899117864736f6c63430008120033",
					"opcodes": "PUSH1 0x80 PUSH1 0x40 MSTORE CALLVALUE DUP1 ISZERO PUSH3 0x11 JUMPI PUSH1 0x0 DUP1 REVERT JUMPDEST POP PUSH1 0x40 MLOAD PUSH3 0xD2E CODESIZE SUB DUP1 PUSH3 0xD2E DUP4 CODECOPY DUP2 DUP2 ADD PUSH1 0x40 MSTORE DUP2 ADD SWAP1 PUSH3 0x37 SWAP2 SWAP1 PUSH3 0x2E2 JUMP JUMPDEST DUP4 PUSH1 0x0 DUP1 PUSH2 0x100 EXP DUP2 SLOAD DUP2 PUSH2 0xFFFF MUL NOT AND SWAP1 DUP4 PUSH2 0xFFFF AND MUL OR SWAP1 SSTORE POP DUP3 PUSH1 0x2 SWAP1 DUP2 PUSH3 0x64 SWAP2 SWAP1 PUSH3 0x5B4 JUMP JUMPDEST POP DUP2 PUSH1 0x0 PUSH1 0x2 PUSH2 0x100 EXP DUP2 SLOAD DUP2 PUSH3 0xFFFFFF MUL NOT AND SWAP1 DUP4 PUSH3 0xFFFFFF AND MUL OR SWAP1 SSTORE POP DUP1 PUSH1 0x1 DUP2 SWAP1 SSTORE POP POP POP POP POP PUSH3 0x69B JUMP JUMPDEST PUSH1 0x0 PUSH1 0x40 MLOAD SWAP1 POP SWAP1 JUMP JUMPDEST PUSH1 0x0 DUP1 REVERT JUMPDEST PUSH1 0x0 DUP1 REVERT JUMPDEST PUSH1 0x0 PUSH2 0xFFFF DUP3 AND SWAP1 POP SWAP2 SWAP1 POP JUMP JUMPDEST PUSH3 0xC2 DUP2 PUSH3 0xA9 JUMP JUMPDEST DUP2 EQ PUSH3 0xCE JUMPI PUSH1 0x0 DUP1 REVERT JUMPDEST POP JUMP JUMPDEST PUSH1 0x0 DUP2 MLOAD SWAP1 POP PUSH3 0xE2 DUP2 PUSH3 0xB7 JUMP JUMPDEST SWAP3 SWAP2 POP POP JUMP JUMPDEST PUSH1 0x0 DUP1 REVERT JUMPDEST PUSH1 0x0 DUP1 REVERT JUMPDEST PUSH1 0x0 PUSH1 0x1F NOT PUSH1 0x1F DUP4 ADD AND SWAP1 POP SWAP2 SWAP1 POP JUMP JUMPDEST PUSH32 0x4E487B7100000000000000000000000000000000000000000000000000000000 PUSH1 0x0 MSTORE PUSH1 0x41 PUSH1 0x4 MSTORE PUSH1 0x24 PUSH1 0x0 REVERT JUMPDEST PUSH3 0x13D DUP3 PUSH3 0xF2 JUMP JUMPDEST DUP2 ADD DUP2 DUP2 LT PUSH8 0xFFFFFFFFFFFFFFFF DUP3 GT OR ISZERO PUSH3 0x15F JUMPI PUSH3 0x15E PUSH3 0x103 JUMP JUMPDEST JUMPDEST DUP1 PUSH1 0x40 MSTORE POP POP POP JUMP JUMPDEST PUSH1 0x0 PUSH3 0x174 PUSH3 0x95 JUMP JUMPDEST SWAP1 POP PUSH3 0x182 DUP3 DUP3 PUSH3 0x132 JUMP JUMPDEST SWAP2 SWAP1 POP JUMP JUMPDEST PUSH1 0x0 PUSH8 0xFFFFFFFFFFFFFFFF DUP3 GT ISZERO PUSH3 0x1A5 JUMPI PUSH3 0x1A4 PUSH3 0x103 JUMP JUMPDEST JUMPDEST PUSH3 0x1B0 DUP3 PUSH3 0xF2 JUMP JUMPDEST SWAP1 POP PUSH1 0x20 DUP2 ADD SWAP1 POP SWAP2 SWAP1 POP JUMP JUMPDEST PUSH1 0x0 JUMPDEST DUP4 DUP2 LT ISZERO PUSH3 0x1DD JUMPI DUP1 DUP3 ADD MLOAD DUP2 DUP5 ADD MSTORE PUSH1 0x20 DUP2 ADD SWAP1 POP PUSH3 0x1C0 JUMP JUMPDEST PUSH1 0x0 DUP5 DUP5 ADD MSTORE POP POP POP POP JUMP JUMPDEST PUSH1 0x0 PUSH3 0x200 PUSH3 0x1FA DUP5 PUSH3 0x187 JUMP JUMPDEST PUSH3 0x168 JUMP JUMPDEST SWAP1 POP DUP3 DUP2 MSTORE PUSH1 0x20 DUP2 ADD DUP5 DUP5 DUP5 ADD GT ISZERO PUSH3 0x21F JUMPI PUSH3 0x21E PUSH3 0xED JUMP JUMPDEST JUMPDEST PUSH3 0x22C DUP5 DUP3 DUP6 PUSH3 0x1BD JUMP JUMPDEST POP SWAP4 SWAP3 POP POP POP JUMP JUMPDEST PUSH1 0x0 DUP3 PUSH1 0x1F DUP4 ADD SLT PUSH3 0x24C JUMPI PUSH3 0x24B PUSH3 0xE8 JUMP JUMPDEST JUMPDEST DUP2 MLOAD PUSH3 0x25E DUP5 DUP3 PUSH1 0x20 DUP7 ADD PUSH3 0x1E9 JUMP JUMPDEST SWAP2 POP POP SWAP3 SWAP2 POP POP JUMP JUMPDEST PUSH1 0x0 PUSH3 0xFFFFFF DUP3 AND SWAP1 POP SWAP2 SWAP1 POP JUMP JUMPDEST PUSH3 0x281 DUP2 PUSH3 0x267 JUMP JUMPDEST DUP2 EQ PUSH3 0x28D JUMPI PUSH1 0x0 DUP1 REVERT JUMPDEST POP JUMP JUMPDEST PUSH1 0x0 DUP2 MLOAD SWAP1 POP PUSH3 0x2A1 DUP2 PUSH3 0x276 JUMP JUMPDEST SWAP3 SWAP2 POP POP JUMP JUMPDEST PUSH1 0x0 DUP2 SWAP1 POP SWAP2 SWAP1 POP JUMP JUMPDEST PUSH3 0x2BC DUP2 PUSH3 0x2A7 JUMP JUMPDEST DUP2 EQ PUSH3 0x2C8 JUMPI PUSH1 0x0 DUP1 REVERT JUMPDEST POP JUMP JUMPDEST PUSH1 0x0 DUP2 MLOAD SWAP1 POP PUSH3 0x2DC DUP2 PUSH3 0x2B1 JUMP JUMPDEST SWAP3 SWAP2 POP POP JUMP JUMPDEST PUSH1 0x0 DUP1 PUSH1 0x0 DUP1 PUSH1 0x80 DUP6 DUP8 SUB SLT ISZERO PUSH3 0x2FF JUMPI PUSH3 0x2FE PUSH3 0x9F JUMP JUMPDEST JUMPDEST PUSH1 0x0 PUSH3 0x30F DUP8 DUP3 DUP9 ADD PUSH3 0xD1 JUMP JUMPDEST SWAP5 POP POP PUSH1 0x20 DUP6 ADD MLOAD PUSH8 0xFFFFFFFFFFFFFFFF DUP2 GT ISZERO PUSH3 0x333 JUMPI PUSH3 0x332 PUSH3 0xA4 JUMP JUMPDEST JUMPDEST PUSH3 0x341 DUP8 DUP3 DUP9 ADD PUSH3 0x234 JUMP JUMPDEST SWAP4 POP POP PUSH1 0x40 PUSH3 0x354 DUP8 DUP3 DUP9 ADD PUSH3 0x290 JUMP JUMPDEST SWAP3 POP POP PUSH1 0x60 PUSH3 0x367 DUP8 DUP3 DUP9 ADD PUSH3 0x2CB JUMP JUMPDEST SWAP2 POP POP SWAP3 SWAP6 SWAP2 SWAP5 POP SWAP3 POP JUMP JUMPDEST PUSH1 0x0 DUP2 MLOAD SWAP1 POP SWAP2 SWAP1 POP JUMP JUMPDEST PUSH32 0x4E487B7100000000000000000000000000000000000000000000000000000000 PUSH1 0x0 MSTORE PUSH1 0x22 PUSH1 0x4 MSTORE PUSH1 0x24 PUSH1 0x0 REVERT JUMPDEST PUSH1 0x0 PUSH1 0x2 DUP3 DIV SWAP1 POP PUSH1 0x1 DUP3 AND DUP1 PUSH3 0x3C6 JUMPI PUSH1 0x7F DUP3 AND SWAP2 POP JUMPDEST PUSH1 0x20 DUP3 LT DUP2 SUB PUSH3 0x3DC JUMPI PUSH3 0x3DB PUSH3 0x37E JUMP JUMPDEST JUMPDEST POP SWAP2 SWAP1 POP JUMP JUMPDEST PUSH1 0x0 DUP2 SWAP1 POP DUP2 PUSH1 0x0 MSTORE PUSH1 0x20 PUSH1 0x0 KECCAK256 SWAP1 POP SWAP2 SWAP1 POP JUMP JUMPDEST PUSH1 0x0 PUSH1 0x20 PUSH1 0x1F DUP4 ADD DIV SWAP1 POP SWAP2 SWAP1 POP JUMP JUMPDEST PUSH1 0x0 DUP3 DUP3 SHL SWAP1 POP SWAP3 SWAP2 POP POP JUMP JUMPDEST PUSH1 0x0 PUSH1 0x8 DUP4 MUL PUSH3 0x446 PUSH32 0xFFFFFFFFFFFFFFFFFFFFFFFFFFFFFFFFFFFFFFFFFFFFFFFFFFFFFFFFFFFFFFFF DUP3 PUSH3 0x407 JUMP JUMPDEST PUSH3 0x452 DUP7 DUP4 PUSH3 0x407 JUMP JUMPDEST SWAP6 POP DUP1 NOT DUP5 AND SWAP4 POP DUP1 DUP7 AND DUP5 OR SWAP3 POP POP POP SWAP4 SWAP3 POP POP POP JUMP JUMPDEST PUSH1 0x0 DUP2 SWAP1 POP SWAP2 SWAP1 POP JUMP JUMPDEST PUSH1 0x0 PUSH3 0x495 PUSH3 0x48F PUSH3 0x489 DUP5 PUSH3 0x2A7 JUMP JUMPDEST PUSH3 0x46A JUMP JUMPDEST PUSH3 0x2A7 JUMP JUMPDEST SWAP1 POP SWAP2 SWAP1 POP JUMP JUMPDEST PUSH1 0x0 DUP2 SWAP1 POP SWAP2 SWAP1 POP JUMP JUMPDEST PUSH3 0x4B1 DUP4 PUSH3 0x474 JUMP JUMPDEST PUSH3 0x4C9 PUSH3 0x4C0 DUP3 PUSH3 0x49C JUMP JUMPDEST DUP5 DUP5 SLOAD PUSH3 0x414 JUMP JUMPDEST DUP3 SSTORE POP POP POP POP JUMP JUMPDEST PUSH1 0x0 SWAP1 JUMP JUMPDEST PUSH3 0x4E0 PUSH3 0x4D1 JUMP JUMPDEST PUSH3 0x4ED DUP2 DUP5 DUP5 PUSH3 0x4A6 JUMP JUMPDEST POP POP POP JUMP JUMPDEST JUMPDEST DUP2 DUP2 LT ISZERO PUSH3 0x515 JUMPI PUSH3 0x509 PUSH1 0x0 DUP3 PUSH3 0x4D6 JUMP JUMPDEST PUSH1 0x1 DUP2 ADD SWAP1 POP PUSH3 0x4F3 JUMP JUMPDEST POP POP JUMP JUMPDEST PUSH1 0x1F DUP3 GT ISZERO PUSH3 0x564 JUMPI PUSH3 0x52E DUP2 PUSH3 0x3E2 JUMP JUMPDEST PUSH3 0x539 DUP5 PUSH3 0x3F7 JUMP JUMPDEST DUP2 ADD PUSH1 0x20 DUP6 LT ISZERO PUSH3 0x549 JUMPI DUP2 SWAP1 POP JUMPDEST PUSH3 0x561 PUSH3 0x558 DUP6 PUSH3 0x3F7 JUMP JUMPDEST DUP4 ADD DUP3 PUSH3 0x4F2 JUMP JUMPDEST POP POP JUMPDEST POP POP POP JUMP JUMPDEST PUSH1 0x0 DUP3 DUP3 SHR SWAP1 POP SWAP3 SWAP2 POP POP JUMP JUMPDEST PUSH1 0x0 PUSH3 0x589 PUSH1 0x0 NOT DUP5 PUSH1 0x8 MUL PUSH3 0x569 JUMP JUMPDEST NOT DUP1 DUP4 AND SWAP2 POP POP SWAP3 SWAP2 POP POP JUMP JUMPDEST PUSH1 0x0 PUSH3 0x5A4 DUP4 DUP4 PUSH3 0x576 JUMP JUMPDEST SWAP2 POP DUP3 PUSH1 0x2 MUL DUP3 OR SWAP1 POP SWAP3 SWAP2 POP POP JUMP JUMPDEST PUSH3 0x5BF DUP3 PUSH3 0x373 JUMP JUMPDEST PUSH8 0xFFFFFFFFFFFFFFFF DUP2 GT ISZERO PUSH3 0x5DB JUMPI PUSH3 0x5DA PUSH3 0x103 JUMP JUMPDEST JUMPDEST PUSH3 0x5E7 DUP3 SLOAD PUSH3 0x3AD JUMP JUMPDEST PUSH3 0x5F4 DUP3 DUP3 DUP6 PUSH3 0x519 JUMP JUMPDEST PUSH1 0x0 PUSH1 0x20 SWAP1 POP PUSH1 0x1F DUP4 GT PUSH1 0x1 DUP2 EQ PUSH3 0x62C JUMPI PUSH1 0x0 DUP5 ISZERO PUSH3 0x617 JUMPI DUP3 DUP8 ADD MLOAD SWAP1 POP JUMPDEST PUSH3 0x623 DUP6 DUP3 PUSH3 0x596 JUMP JUMPDEST DUP7 SSTORE POP PUSH3 0x693 JUMP JUMPDEST PUSH1 0x1F NOT DUP5 AND PUSH3 0x63C DUP7 PUSH3 0x3E2 JUMP JUMPDEST PUSH1 0x0 JUMPDEST DUP3 DUP2 LT ISZERO PUSH3 0x666 JUMPI DUP5 DUP10 ADD MLOAD DUP3 SSTORE PUSH1 0x1 DUP3 ADD SWAP2 POP PUSH1 0x20 DUP6 ADD SWAP5 POP PUSH1 0x20 DUP2 ADD SWAP1 POP PUSH3 0x63F JUMP JUMPDEST DUP7 DUP4 LT ISZERO PUSH3 0x686 JUMPI DUP5 DUP10 ADD MLOAD PUSH3 0x682 PUSH1 0x1F DUP10 AND DUP3 PUSH3 0x576 JUMP JUMPDEST DUP4 SSTORE POP JUMPDEST PUSH1 0x1 PUSH1 0x2 DUP9 MUL ADD DUP9 SSTORE POP POP POP JUMPDEST POP POP POP POP POP POP JUMP JUMPDEST PUSH2 0x683 DUP1 PUSH3 0x6AB PUSH1 0x0 CODECOPY PUSH1 0x0 RETURN INVALID PUSH1 0x80 PUSH1 0x40 MSTORE CALLVALUE DUP1 ISZERO PUSH2 0x10 JUMPI PUSH1 0x0 DUP1 REVERT JUMPDEST POP PUSH1 0x4 CALLDATASIZE LT PUSH2 0x7D JUMPI PUSH1 0x0 CALLDATALOAD PUSH1 0xE0 SHR DUP1 PUSH4 0x4C764809 GT PUSH2 0x5B JUMPI DUP1 PUSH4 0x4C764809 EQ PUSH2 0xDC JUMPI DUP1 PUSH4 0x52C98689 EQ PUSH2 0xE6 JUMPI DUP1 PUSH4 0x6D45E2A5 EQ PUSH2 0x116 JUMPI DUP1 PUSH4 0x8F6A861A EQ PUSH2 0x134 JUMPI PUSH2 0x7D JUMP JUMPDEST DUP1 PUSH4 0x6FDDE03 EQ PUSH2 0x82 JUMPI DUP1 PUSH4 0x3F83EA3B EQ PUSH2 0xA0 JUMPI DUP1 PUSH4 0x49574402 EQ PUSH2 0xBE JUMPI JUMPDEST PUSH1 0x0 DUP1 REVERT JUMPDEST PUSH2 0x8A PUSH2 0x164 JUMP JUMPDEST PUSH1 0x40 MLOAD PUSH2 0x97 SWAP2 SWAP1 PUSH2 0x39E JUMP JUMPDEST PUSH1 0x40 MLOAD DUP1 SWAP2 SUB SWAP1 RETURN JUMPDEST PUSH2 0xA8 PUSH2 0x1F2 JUMP JUMPDEST PUSH1 0x40 MLOAD PUSH2 0xB5 SWAP2 SWAP1 PUSH2 0x3D9 JUMP JUMPDEST PUSH1 0x40 MLOAD DUP1 SWAP2 SUB SWAP1 RETURN JUMPDEST PUSH2 0xC6 PUSH2 0x1F8 JUMP JUMPDEST PUSH1 0x40 MLOAD PUSH2 0xD3 SWAP2 SWAP1 PUSH2 0x412 JUMP JUMPDEST PUSH1 0x40 MLOAD DUP1 SWAP2 SUB SWAP1 RETURN JUMPDEST PUSH2 0xE4 PUSH2 0x210 JUMP JUMPDEST STOP JUMPDEST PUSH2 0x100 PUSH1 0x4 DUP1 CALLDATASIZE SUB DUP2 ADD SWAP1 PUSH2 0xFB SWAP2 SWAP1 PUSH2 0x46C JUMP JUMPDEST PUSH2 0x230 JUMP JUMPDEST PUSH1 0x40 MLOAD PUSH2 0x10D SWAP2 SWAP1 PUSH2 0x4A8 JUMP JUMPDEST PUSH1 0x40 MLOAD DUP1 SWAP2 SUB SWAP1 RETURN JUMPDEST PUSH2 0x11E PUSH2 0x2EC JUMP JUMPDEST PUSH1 0x40 MLOAD PUSH2 0x12B SWAP2 SWAP1 PUSH2 0x4A8 JUMP JUMPDEST PUSH1 0x40 MLOAD DUP1 SWAP2 SUB SWAP1 RETURN JUMPDEST PUSH2 0x14E PUSH1 0x4 DUP1 CALLDATASIZE SUB DUP2 ADD SWAP1 PUSH2 0x149 SWAP2 SWAP1 PUSH2 0x4EF JUMP JUMPDEST PUSH2 0x303 JUMP JUMPDEST PUSH1 0x40 MLOAD PUSH2 0x15B SWAP2 SWAP1 PUSH2 0x3D9 JUMP JUMPDEST PUSH1 0x40 MLOAD DUP1 SWAP2 SUB SWAP1 RETURN JUMPDEST PUSH1 0x2 DUP1 SLOAD PUSH2 0x171 SWAP1 PUSH2 0x54B JUMP JUMPDEST DUP1 PUSH1 0x1F ADD PUSH1 0x20 DUP1 SWAP2 DIV MUL PUSH1 0x20 ADD PUSH1 0x40 MLOAD SWAP1 DUP2 ADD PUSH1 0x40 MSTORE DUP1 SWAP3 SWAP2 SWAP1 DUP2 DUP2 MSTORE PUSH1 0x20 ADD DUP3 DUP1 SLOAD PUSH2 0x19D SWAP1 PUSH2 0x54B JUMP JUMPDEST DUP1 ISZERO PUSH2 0x1EA JUMPI DUP1 PUSH1 0x1F LT PUSH2 0x1BF JUMPI PUSH2 0x100 DUP1 DUP4 SLOAD DIV MUL DUP4 MSTORE SWAP2 PUSH1 0x20 ADD SWAP2 PUSH2 0x1EA JUMP JUMPDEST DUP3 ADD SWAP2 SWAP1 PUSH1 0x0 MSTORE PUSH1 0x20 PUSH1 0x0 KECCAK256 SWAP1 JUMPDEST DUP2 SLOAD DUP2 MSTORE SWAP1 PUSH1 0x1 ADD SWAP1 PUSH1 0x20 ADD DUP1 DUP4 GT PUSH2 0x1CD JUMPI DUP3 SWAP1 SUB PUSH1 0x1F AND DUP3 ADD SWAP2 JUMPDEST POP POP POP POP POP DUP2 JUMP JUMPDEST PUSH1 0x1 SLOAD DUP2 JUMP JUMPDEST PUSH1 0x0 DUP1 PUSH1 0x2 SWAP1 SLOAD SWAP1 PUSH2 0x100 EXP SWAP1 DIV PUSH3 0xFFFFFF AND SWAP1 POP SWAP1 JUMP JUMPDEST PUSH2 0x3E8 PUSH1 0x0 DUP1 PUSH2 0x100 EXP DUP2 SLOAD DUP2 PUSH2 0xFFFF MUL NOT AND SWAP1 DUP4 PUSH2 0xFFFF AND MUL OR SWAP1 SSTORE POP JUMP JUMPDEST PUSH1 0x0 DUP1 DUP3 PUSH1 0x0 DUP1 SLOAD SWAP1 PUSH2 0x100 EXP SWAP1 DIV PUSH2 0xFFFF AND PUSH2 0x24D SWAP2 SWAP1 PUSH2 0x5AB JUMP JUMPDEST PUSH2 0xFFFF AND SWAP1 POP PUSH2 0x1388 DUP2 PUSH3 0xFFFFFF AND GT ISZERO PUSH2 0x29D JUMPI PUSH1 0x40 MLOAD PUSH32 0x8C379A000000000000000000000000000000000000000000000000000000000 DUP2 MSTORE PUSH1 0x4 ADD PUSH2 0x294 SWAP1 PUSH2 0x62D JUMP JUMPDEST PUSH1 0x40 MLOAD DUP1 SWAP2 SUB SWAP1 REVERT JUMPDEST DUP3 PUSH1 0x0 DUP1 DUP3 DUP3 DUP3 SWAP1 SLOAD SWAP1 PUSH2 0x100 EXP SWAP1 DIV PUSH2 0xFFFF AND PUSH2 0x2BB SWAP2 SWAP1 PUSH2 0x5AB JUMP JUMPDEST SWAP3 POP PUSH2 0x100 EXP DUP2 SLOAD DUP2 PUSH2 0xFFFF MUL NOT AND SWAP1 DUP4 PUSH2 0xFFFF AND MUL OR SWAP1 SSTORE POP PUSH1 0x0 DUP1 SLOAD SWAP1 PUSH2 0x100 EXP SWAP1 DIV PUSH2 0xFFFF AND SWAP2 POP POP SWAP2 SWAP1 POP JUMP JUMPDEST PUSH1 0x0 DUP1 PUSH1 0x0 SWAP1 SLOAD SWAP1 PUSH2 0x100 EXP SWAP1 DIV PUSH2 0xFFFF AND SWAP1 POP SWAP1 JUMP JUMPDEST PUSH1 0x0 DUP2 SLOAD SWAP1 POP SWAP2 SWAP1 POP JUMP JUMPDEST PUSH1 0x0 DUP2 MLOAD SWAP1 POP SWAP2 SWAP1 POP JUMP JUMPDEST PUSH1 0x0 DUP3 DUP3 MSTORE PUSH1 0x20 DUP3 ADD SWAP1 POP SWAP3 SWAP2 POP POP JUMP JUMPDEST PUSH1 0x0 JUMPDEST DUP4 DUP2 LT ISZERO PUSH2 0x348 JUMPI DUP1 DUP3 ADD MLOAD DUP2 DUP5 ADD MSTORE PUSH1 0x20 DUP2 ADD SWAP1 POP PUSH2 0x32D JUMP JUMPDEST PUSH1 0x0 DUP5 DUP5 ADD MSTORE POP POP POP POP JUMP JUMPDEST PUSH1 0x0 PUSH1 0x1F NOT PUSH1 0x1F DUP4 ADD AND SWAP1 POP SWAP2 SWAP1 POP JUMP JUMPDEST PUSH1 0x0 PUSH2 0x370 DUP3 PUSH2 0x30E JUMP JUMPDEST PUSH2 0x37A DUP2 DUP6 PUSH2 0x319 JUMP JUMPDEST SWAP4 POP PUSH2 0x38A DUP2 DUP6 PUSH1 0x20 DUP7 ADD PUSH2 0x32A JUMP JUMPDEST PUSH2 0x393 DUP2 PUSH2 0x354 JUMP JUMPDEST DUP5 ADD SWAP2 POP POP SWAP3 SWAP2 POP POP JUMP JUMPDEST PUSH1 0x0 PUSH1 0x20 DUP3 ADD SWAP1 POP DUP2 DUP2 SUB PUSH1 0x0 DUP4 ADD MSTORE PUSH2 0x3B8 DUP2 DUP5 PUSH2 0x365 JUMP JUMPDEST SWAP1 POP SWAP3 SWAP2 POP POP JUMP JUMPDEST PUSH1 0x0 DUP2 SWAP1 POP SWAP2 SWAP1 POP JUMP JUMPDEST PUSH2 0x3D3 DUP2 PUSH2 0x3C0 JUMP JUMPDEST DUP3 MSTORE POP POP JUMP JUMPDEST PUSH1 0x0 PUSH1 0x20 DUP3 ADD SWAP1 POP PUSH2 0x3EE PUSH1 0x0 DUP4 ADD DUP5 PUSH2 0x3CA JUMP JUMPDEST SWAP3 SWAP2 POP POP JUMP JUMPDEST PUSH1 0x0 PUSH3 0xFFFFFF DUP3 AND SWAP1 POP SWAP2 SWAP1 POP JUMP JUMPDEST PUSH2 0x40C DUP2 PUSH2 0x3F4 JUMP JUMPDEST DUP3 MSTORE POP POP JUMP JUMPDEST PUSH1 0x0 PUSH1 0x20 DUP3 ADD SWAP1 POP PUSH2 0x427 PUSH1 0x0 DUP4 ADD DUP5 PUSH2 0x403 JUMP JUMPDEST SWAP3 SWAP2 POP POP JUMP JUMPDEST PUSH1 0x0 DUP1 REVERT JUMPDEST PUSH1 0x0 PUSH2 0xFFFF DUP3 AND SWAP1 POP SWAP2 SWAP1 POP JUMP JUMPDEST PUSH2 0x449 DUP2 PUSH2 0x432 JUMP JUMPDEST DUP2 EQ PUSH2 0x454 JUMPI PUSH1 0x0 DUP1 REVERT JUMPDEST POP JUMP JUMPDEST PUSH1 0x0 DUP2 CALLDATALOAD SWAP1 POP PUSH2 0x466 DUP2 PUSH2 0x440 JUMP JUMPDEST SWAP3 SWAP2 POP POP JUMP JUMPDEST PUSH1 0x0 PUSH1 0x20 DUP3 DUP5 SUB SLT ISZERO PUSH2 0x482 JUMPI PUSH2 0x481 PUSH2 0x42D JUMP JUMPDEST JUMPDEST PUSH1 0x0 PUSH2 0x490 DUP5 DUP3 DUP6 ADD PUSH2 0x457 JUMP JUMPDEST SWAP2 POP POP SWAP3 SWAP2 POP POP JUMP JUMPDEST PUSH2 0x4A2 DUP2 PUSH2 0x432 JUMP JUMPDEST DUP3 MSTORE POP POP JUMP JUMPDEST PUSH1 0x0 PUSH1 0x20 DUP3 ADD SWAP1 POP PUSH2 0x4BD PUSH1 0x0 DUP4 ADD DUP5 PUSH2 0x499 JUMP JUMPDEST SWAP3 SWAP2 POP POP JUMP JUMPDEST PUSH2 0x4CC DUP2 PUSH2 0x3C0 JUMP JUMPDEST DUP2 EQ PUSH2 0x4D7 JUMPI PUSH1 0x0 DUP1 REVERT JUMPDEST POP JUMP JUMPDEST PUSH1 0x0 DUP2 CALLDATALOAD SWAP1 POP PUSH2 0x4E9 DUP2 PUSH2 0x4C3 JUMP JUMPDEST SWAP3 SWAP2 POP POP JUMP JUMPDEST PUSH1 0x0 PUSH1 0x20 DUP3 DUP5 SUB SLT ISZERO PUSH2 0x505 JUMPI PUSH2 0x504 PUSH2 0x42D JUMP JUMPDEST JUMPDEST PUSH1 0x0 PUSH2 0x513 DUP5 DUP3 DUP6 ADD PUSH2 0x4DA JUMP JUMPDEST SWAP2 POP POP SWAP3 SWAP2 POP POP JUMP JUMPDEST PUSH32 0x4E487B7100000000000000000000000000000000000000000000000000000000 PUSH1 0x0 MSTORE PUSH1 0x22 PUSH1 0x4 MSTORE PUSH1 0x24 PUSH1 0x0 REVERT JUMPDEST PUSH1 0x0 PUSH1 0x2 DUP3 DIV SWAP1 POP PUSH1 0x1 DUP3 AND DUP1 PUSH2 0x563 JUMPI PUSH1 0x7F DUP3 AND SWAP2 POP JUMPDEST PUSH1 0x20 DUP3 LT DUP2 SUB PUSH2 0x576 JUMPI PUSH2 0x575 PUSH2 0x51C JUMP JUMPDEST JUMPDEST POP SWAP2 SWAP1 POP JUMP JUMPDEST PUSH32 0x4E487B7100000000000000000000000000000000000000000000000000000000 PUSH1 0x0 MSTORE PUSH1 0x11 PUSH1 0x4 MSTORE PUSH1 0x24 PUSH1 0x0 REVERT JUMPDEST PUSH1 0x0 PUSH2 0x5B6 DUP3 PUSH2 0x432 JUMP JUMPDEST SWAP2 POP PUSH2 0x5C1 DUP4 PUSH2 0x432 JUMP JUMPDEST SWAP3 POP DUP3 DUP3 ADD SWAP1 POP PUSH2 0xFFFF DUP2 GT ISZERO PUSH2 0x5DB JUMPI PUSH2 0x5DA PUSH2 0x57C JUMP JUMPDEST JUMPDEST SWAP3 SWAP2 POP POP JUMP JUMPDEST PUSH32 0x546F6F206D616E79207368617265730000000000000000000000000000000000 PUSH1 0x0 DUP3 ADD MSTORE POP JUMP JUMPDEST PUSH1 0x0 PUSH2 0x617 PUSH1 0xF DUP4 PUSH2 0x319 JUMP JUMPDEST SWAP2 POP PUSH2 0x622 DUP3 PUSH2 0x5E1 JUMP JUMPDEST PUSH1 0x20 DUP3 ADD SWAP1 POP SWAP2 SWAP1 POP JUMP JUMPDEST PUSH1 0x0 PUSH1 0x20 DUP3 ADD SWAP1 POP DUP2 DUP2 SUB PUSH1 0x0 DUP4 ADD MSTORE PUSH2 0x646 DUP2 PUSH2 0x60A JUMP JUMPDEST SWAP1 POP SWAP2 SWAP1 POP JUMP INVALID LOG2 PUSH5 0x6970667358 0x22 SLT KECCAK256 0x27 SWAP16 DUP6 MSTORE CALLCODE 0xE6 LOG1 0xC BALANCE 0xAF 0xED DUP7 0xE7 BASEFEE 0xC2 SLOAD PUSH8 0x2D5353EDC1F9E150 0xBF 0xDB 0xE1 ADDMOD SWAP10 GT PUSH25 0x64736F6C634300081200330000000000000000000000000000 "
				},
				"gasEstimates": {
					"creation": {
						"codeDepositCost": "333400",
						"executionCost": "infinite",
						"totalCost": "infinite"
					},
					"external": {
						"checkForPacking(uint256)": "infinite",
						"debugResetShares()": "24411",
						"grantShares(uint16)": "infinite",
						"idNumber()": "2452",
						"name()": "infinite",
						"viewSalary()": "2574",
						"viewShares()": "2523"
					}
				},
				"methodIdentifiers": {
					"checkForPacking(uint256)": "8f6a861a",
					"debugResetShares()": "4c764809",
					"grantShares(uint16)": "52c98689",
					"idNumber()": "3f83ea3b",
					"name()": "06fdde03",
					"viewSalary()": "49574402",
					"viewShares()": "6d45e2a5"
				}
			},
			"storageLayout": {
				"storage": [
					{
						"astId": 4,
						"contract": "EmployeeStorage/contracts/EmployeeStorage.sol:EmployeeStorage",
						"label": "shares",
						"offset": 0,
						"slot": "0",
						"type": "t_uint16"
					},
					{
						"astId": 6,
						"contract": "EmployeeStorage/contracts/EmployeeStorage.sol:EmployeeStorage",
						"label": "salary",
						"offset": 2,
						"slot": "0",
						"type": "t_uint24"
					},
					{
						"astId": 8,
						"contract": "EmployeeStorage/contracts/EmployeeStorage.sol:EmployeeStorage",
						"label": "idNumber",
						"offset": 0,
						"slot": "1",
						"type": "t_uint256"
					},
					{
						"astId": 10,
						"contract": "EmployeeStorage/contracts/EmployeeStorage.sol:EmployeeStorage",
						"label": "name",
						"offset": 0,
						"slot": "2",
						"type": "t_string_storage"
					}
				],
				"types": {
					"t_string_storage": {
						"encoding": "bytes",
						"label": "string",
						"numberOfBytes": "32"
					},
					"t_uint16": {
						"encoding": "inplace",
						"label": "uint16",
						"numberOfBytes": "2"
					},
					"t_uint24": {
						"encoding": "inplace",
						"label": "uint24",
						"numberOfBytes": "3"
					},
					"t_uint256": {
						"encoding": "inplace",
						"label": "uint256",
						"numberOfBytes": "32"
					}
				}
			},
			"userdoc": {
				"kind": "user",
				"methods": {
					"checkForPacking(uint256)": {
						"notice": "Do not modify this function.  It is used to enable the unit test for this pin to check whether or not you have configured your storage variables to make use of packing. If you wish to cheat, simply modify this function to always return `0` I'm not your boss ¯\\_(ツ)_/¯ Fair warning though, if you do cheat, it will be on the blockchain having been deployed by you wallet....FOREVER!"
					},
					"debugResetShares()": {
						"notice": "Warning: Anyone can use this function at any time!"
					}
				},
				"version": 1
			}
		}
	}
}