{
	"Arrays/contracts/ArrayExercise.sol": {
		"ArraysExercise": {
			"abi": [
				{
					"inputs": [
						{
							"internalType": "uint256",
							"name": "_newNumber",
							"type": "uint256"
						}
					],
					"name": "addNumber",
					"outputs": [
						{
							"internalType": "uint256",
							"name": "length",
							"type": "uint256"
						}
					],
					"stateMutability": "nonpayable",
					"type": "function"
				},
				{
					"inputs": [],
					"name": "afterY2K",
					"outputs": [
						{
							"internalType": "uint256[]",
							"name": "afterTimes",
							"type": "uint256[]"
						},
						{
							"internalType": "address[]",
							"name": "matchingAddrs",
							"type": "address[]"
						}
					],
					"stateMutability": "view",
					"type": "function"
				},
				{
					"inputs": [
						{
							"internalType": "uint256[]",
							"name": "_toAppend",
							"type": "uint256[]"
						}
					],
					"name": "appendToNumbers",
					"outputs": [
						{
							"internalType": "uint256",
							"name": "length",
							"type": "uint256"
						}
					],
					"stateMutability": "nonpayable",
					"type": "function"
				},
				{
					"inputs": [],
					"name": "getNumbers",
					"outputs": [
						{
							"internalType": "uint256[]",
							"name": "",
							"type": "uint256[]"
						}
					],
					"stateMutability": "view",
					"type": "function"
				},
				{
					"inputs": [],
					"name": "getSenders",
					"outputs": [
						{
							"internalType": "address[]",
							"name": "",
							"type": "address[]"
						}
					],
					"stateMutability": "view",
					"type": "function"
				},
				{
					"inputs": [],
					"name": "getTimestamps",
					"outputs": [
						{
							"internalType": "uint256[]",
							"name": "",
							"type": "uint256[]"
						}
					],
					"stateMutability": "view",
					"type": "function"
				},
				{
					"inputs": [
						{
							"internalType": "uint256",
							"name": "",
							"type": "uint256"
						}
					],
					"name": "numbers",
					"outputs": [
						{
							"internalType": "uint256",
							"name": "",
							"type": "uint256"
						}
					],
					"stateMutability": "view",
					"type": "function"
				},
				{
					"inputs": [],
					"name": "resetNumbers",
					"outputs": [],
					"stateMutability": "nonpayable",
					"type": "function"
				},
				{
					"inputs": [],
					"name": "resetSenders",
					"outputs": [],
					"stateMutability": "nonpayable",
					"type": "function"
				},
				{
					"inputs": [],
					"name": "resetTimestamps",
					"outputs": [],
					"stateMutability": "nonpayable",
					"type": "function"
				},
				{
					"inputs": [
						{
							"internalType": "uint256",
							"name": "_unixTimestamp",
							"type": "uint256"
						}
					],
					"name": "saveTimestamp",
					"outputs": [],
					"stateMutability": "nonpayable",
					"type": "function"
				},
				{
					"inputs": [
						{
							"internalType": "uint256",
							"name": "",
							"type": "uint256"
						}
					],
					"name": "senders",
					"outputs": [
						{
							"internalType": "address",
							"name": "",
							"type": "address"
						}
					],
					"stateMutability": "view",
					"type": "function"
				},
				{
					"inputs": [
						{
							"internalType": "uint256",
							"name": "",
							"type": "uint256"
						}
					],
					"name": "timestamps",
					"outputs": [
						{
							"internalType": "uint256",
							"name": "",
							"type": "uint256"
						}
					],
					"stateMutability": "view",
					"type": "function"
				}
			],
			"devdoc": {
				"details": "Experiment with sol arrays",
				"kind": "dev",
				"methods": {},
				"title": "ArraysExercise",
				"version": 1
			},
			"evm": {
				"assembly": "    /* \"Arrays/contracts/ArrayExercise.sol\":130:2152  contract ArraysExercise {... */\n  mstore(0x40, 0x80)\n    /* \"Arrays/contracts/ArrayExercise.sol\":160:206  uint[] public numbers = [1,2,3,4,5,6,7,8,9,10] */\n  mload(0x40)\n  dup1\n  0x0140\n  add\n  0x40\n  mstore\n  dup1\n    /* \"Arrays/contracts/ArrayExercise.sol\":185:186  1 */\n  0x01\n    /* \"Arrays/contracts/ArrayExercise.sol\":160:206  uint[] public numbers = [1,2,3,4,5,6,7,8,9,10] */\n  0xff\n  and\n  dup2\n  mstore\n  0x20\n  add\n    /* \"Arrays/contracts/ArrayExercise.sol\":187:188  2 */\n  0x02\n    /* \"Arrays/contracts/ArrayExercise.sol\":160:206  uint[] public numbers = [1,2,3,4,5,6,7,8,9,10] */\n  0xff\n  and\n  dup2\n  mstore\n  0x20\n  add\n    /* \"Arrays/contracts/ArrayExercise.sol\":189:190  3 */\n  0x03\n    /* \"Arrays/contracts/ArrayExercise.sol\":160:206  uint[] public numbers = [1,2,3,4,5,6,7,8,9,10] */\n  0xff\n  and\n  dup2\n  mstore\n  0x20\n  add\n    /* \"Arrays/contracts/ArrayExercise.sol\":191:192  4 */\n  0x04\n    /* \"Arrays/contracts/ArrayExercise.sol\":160:206  uint[] public numbers = [1,2,3,4,5,6,7,8,9,10] */\n  0xff\n  and\n  dup2\n  mstore\n  0x20\n  add\n    /* \"Arrays/contracts/ArrayExercise.sol\":193:194  5 */\n  0x05\n    /* \"Arrays/contracts/ArrayExercise.sol\":160:206  uint[] public numbers = [1,2,3,4,5,6,7,8,9,10] */\n  0xff\n  and\n  dup2\n  mstore\n  0x20\n  add\n    /* \"Arrays/contracts/ArrayExercise.sol\":195:196  6 */\n  0x06\n    /* \"Arrays/contracts/ArrayExercise.sol\":160:206  uint[] public numbers = [1,2,3,4,5,6,7,8,9,10] */\n  0xff\n  and\n  dup2\n  mstore\n  0x20\n  add\n    /* \"Arrays/contracts/ArrayExercise.sol\":197:198  7 */\n  0x07\n    /* \"Arrays/contracts/ArrayExercise.sol\":160:206  uint[] public numbers = [1,2,3,4,5,6,7,8,9,10] */\n  0xff\n  and\n  dup2\n  mstore\n  0x20\n  add\n    /* \"Arrays/contracts/ArrayExercise.sol\":199:200  8 */\n  0x08\n    /* \"Arrays/contracts/ArrayExercise.sol\":160:206  uint[] public numbers = [1,2,3,4,5,6,7,8,9,10] */\n  0xff\n  and\n  dup2\n  mstore\n  0x20\n  add\n    /* \"Arrays/contracts/ArrayExercise.sol\":201:202  9 */\n  0x09\n    /* \"Arrays/contracts/ArrayExercise.sol\":160:206  uint[] public numbers = [1,2,3,4,5,6,7,8,9,10] */\n  0xff\n  and\n  dup2\n  mstore\n  0x20\n  add\n    /* \"Arrays/contracts/ArrayExercise.sol\":203:205  10 */\n  0x0a\n    /* \"Arrays/contracts/ArrayExercise.sol\":160:206  uint[] public numbers = [1,2,3,4,5,6,7,8,9,10] */\n  0xff\n  and\n  dup2\n  mstore\n  pop\n  0x00\n  swap1\n  0x0a\n  tag_1\n  swap3\n  swap2\n  swap1\n  tag_2\n  jump\t// in\ntag_1:\n  pop\n    /* \"Arrays/contracts/ArrayExercise.sol\":130:2152  contract ArraysExercise {... */\n  callvalue\n  dup1\n  iszero\n  tag_3\n  jumpi\n  0x00\n  dup1\n  revert\ntag_3:\n  pop\n  jump(tag_4)\ntag_2:\n  dup3\n  dup1\n  sload\n  dup3\n  dup3\n  sstore\n  swap1\n  0x00\n  mstore\n  keccak256(0x00, 0x20)\n  swap1\n  dup2\n  add\n  swap3\n  dup3\n  iszero\n  tag_5\n  jumpi\n  swap2\n  0x20\n  mul\n  dup3\n  add\ntag_6:\n  dup3\n  dup2\n  gt\n  iszero\n  tag_7\n  jumpi\n  dup3\n  mload\n  dup3\n  swap1\n  0xff\n  and\n  swap1\n  sstore\n  swap2\n  0x20\n  add\n  swap2\n  swap1\n  0x01\n  add\n  swap1\n  jump(tag_6)\ntag_7:\ntag_5:\n  pop\n  swap1\n  pop\n  tag_8\n  swap2\n  swap1\n  tag_9\n  jump\t// in\ntag_8:\n  pop\n  swap1\n  jump\t// out\ntag_9:\ntag_10:\n  dup1\n  dup3\n  gt\n  iszero\n  tag_11\n  jumpi\n  0x00\n  dup2\n  0x00\n  swap1\n  sstore\n  pop\n  0x01\n  add\n  jump(tag_10)\ntag_11:\n  pop\n  swap1\n  jump\t// out\ntag_4:\n  dataSize(sub_0)\n  dup1\n  dataOffset(sub_0)\n  0x00\n  codecopy\n  0x00\n  return\nstop\n\nsub_0: assembly {\n        /* \"Arrays/contracts/ArrayExercise.sol\":130:2152  contract ArraysExercise {... */\n      mstore(0x40, 0x80)\n      callvalue\n      dup1\n      iszero\n      tag_1\n      jumpi\n      0x00\n      dup1\n      revert\n    tag_1:\n      pop\n      jumpi(tag_2, lt(calldatasize, 0x04))\n      shr(0xe0, calldataload(0x00))\n      dup1\n      0x8bc33af3\n      gt\n      tag_16\n      jumpi\n      dup1\n      0xade82bfd\n      gt\n      tag_17\n      jumpi\n      dup1\n      0xade82bfd\n      eq\n      tag_12\n      jumpi\n      dup1\n      0xb1cebac5\n      eq\n      tag_13\n      jumpi\n      dup1\n      0xd39fa233\n      eq\n      tag_14\n      jumpi\n      dup1\n      0xfce68023\n      eq\n      tag_15\n      jumpi\n      jump(tag_2)\n    tag_17:\n      dup1\n      0x8bc33af3\n      eq\n      tag_9\n      jumpi\n      dup1\n      0x9977c78a\n      eq\n      tag_10\n      jumpi\n      dup1\n      0xa00b7acd\n      eq\n      tag_11\n      jumpi\n      jump(tag_2)\n    tag_16:\n      dup1\n      0x128e0423\n      eq\n      tag_3\n      jumpi\n      dup1\n      0x20aaf79a\n      eq\n      tag_4\n      jumpi\n      dup1\n      0x4f9377db\n      eq\n      tag_5\n      jumpi\n      dup1\n      0x59abbfe4\n      eq\n      tag_6\n      jumpi\n      dup1\n      0x7f66b1b8\n      eq\n      tag_7\n      jumpi\n      dup1\n      0x89f915f6\n      eq\n      tag_8\n      jumpi\n    tag_2:\n      0x00\n      dup1\n      revert\n        /* \"Arrays/contracts/ArrayExercise.sol\":1101:1193  function getSenders() public view returns (address[] memory) {... */\n    tag_3:\n      tag_18\n      tag_19\n      jump\t// in\n    tag_18:\n      mload(0x40)\n      tag_20\n      swap2\n      swap1\n      tag_21\n      jump\t// in\n    tag_20:\n      mload(0x40)\n      dup1\n      swap2\n      sub\n      swap1\n      return\n        /* \"Arrays/contracts/ArrayExercise.sol\":1199:1752  function afterY2K() public view returns (uint[] memory afterTimes, address[] memory matchingAddrs) {... */\n    tag_4:\n      tag_22\n      tag_23\n      jump\t// in\n    tag_22:\n      mload(0x40)\n      tag_24\n      swap3\n      swap2\n      swap1\n      tag_25\n      jump\t// in\n    tag_24:\n      mload(0x40)\n      dup1\n      swap2\n      sub\n      swap1\n      return\n        /* \"Arrays/contracts/ArrayExercise.sol\":629:853  function appendToNumbers(uint[] calldata _toAppend) public returns (uint length) {... */\n    tag_5:\n      tag_26\n      0x04\n      dup1\n      calldatasize\n      sub\n      dup2\n      add\n      swap1\n      tag_27\n      swap2\n      swap1\n      tag_28\n      jump\t// in\n    tag_27:\n      tag_29\n      jump\t// in\n    tag_26:\n      mload(0x40)\n      tag_30\n      swap2\n      swap1\n      tag_31\n      jump\t// in\n    tag_30:\n      mload(0x40)\n      dup1\n      swap2\n      sub\n      swap1\n      return\n        /* \"Arrays/contracts/ArrayExercise.sol\":1000:1095  function getTimestamps() public view returns (uint[] memory) {... */\n    tag_6:\n      tag_32\n      tag_33\n      jump\t// in\n    tag_32:\n      mload(0x40)\n      tag_34\n      swap2\n      swap1\n      tag_35\n      jump\t// in\n    tag_34:\n      mload(0x40)\n      dup1\n      swap2\n      sub\n      swap1\n      return\n        /* \"Arrays/contracts/ArrayExercise.sol\":2013:2075  function resetSenders() public {... */\n    tag_7:\n      tag_36\n      tag_37\n      jump\t// in\n    tag_36:\n      stop\n        /* \"Arrays/contracts/ArrayExercise.sol\":273:362  function getNumbers() public view returns (uint[] memory) {... */\n    tag_8:\n      tag_38\n      tag_39\n      jump\t// in\n    tag_38:\n      mload(0x40)\n      tag_40\n      swap2\n      swap1\n      tag_35\n      jump\t// in\n    tag_40:\n      mload(0x40)\n      dup1\n      swap2\n      sub\n      swap1\n      return\n        /* \"Arrays/contracts/ArrayExercise.sol\":242:266  uint[] public timestamps */\n    tag_9:\n      tag_41\n      0x04\n      dup1\n      calldatasize\n      sub\n      dup2\n      add\n      swap1\n      tag_42\n      swap2\n      swap1\n      tag_43\n      jump\t// in\n    tag_42:\n      tag_44\n      jump\t// in\n    tag_41:\n      mload(0x40)\n      tag_45\n      swap2\n      swap1\n      tag_31\n      jump\t// in\n    tag_45:\n      mload(0x40)\n      dup1\n      swap2\n      sub\n      swap1\n      return\n        /* \"Arrays/contracts/ArrayExercise.sol\":212:236  address[] public senders */\n    tag_10:\n      tag_46\n      0x04\n      dup1\n      calldatasize\n      sub\n      dup2\n      add\n      swap1\n      tag_47\n      swap2\n      swap1\n      tag_43\n      jump\t// in\n    tag_47:\n      tag_48\n      jump\t// in\n    tag_46:\n      mload(0x40)\n      tag_49\n      swap2\n      swap1\n      tag_50\n      jump\t// in\n    tag_49:\n      mload(0x40)\n      dup1\n      swap2\n      sub\n      swap1\n      return\n        /* \"Arrays/contracts/ArrayExercise.sol\":859:994  function saveTimestamp(uint _unixTimestamp) external {... */\n    tag_11:\n      tag_51\n      0x04\n      dup1\n      calldatasize\n      sub\n      dup2\n      add\n      swap1\n      tag_52\n      swap2\n      swap1\n      tag_43\n      jump\t// in\n    tag_52:\n      tag_53\n      jump\t// in\n    tag_51:\n      stop\n        /* \"Arrays/contracts/ArrayExercise.sol\":2081:2149  function resetTimestamps() public {... */\n    tag_12:\n      tag_54\n      tag_55\n      jump\t// in\n    tag_54:\n      stop\n        /* \"Arrays/contracts/ArrayExercise.sol\":368:478  function resetNumbers() public {... */\n    tag_13:\n      tag_56\n      tag_57\n      jump\t// in\n    tag_56:\n      stop\n        /* \"Arrays/contracts/ArrayExercise.sol\":160:206  uint[] public numbers = [1,2,3,4,5,6,7,8,9,10] */\n    tag_14:\n      tag_58\n      0x04\n      dup1\n      calldatasize\n      sub\n      dup2\n      add\n      swap1\n      tag_59\n      swap2\n      swap1\n      tag_43\n      jump\t// in\n    tag_59:\n      tag_60\n      jump\t// in\n    tag_58:\n      mload(0x40)\n      tag_61\n      swap2\n      swap1\n      tag_31\n      jump\t// in\n    tag_61:\n      mload(0x40)\n      dup1\n      swap2\n      sub\n      swap1\n      return\n        /* \"Arrays/contracts/ArrayExercise.sol\":484:623  function addNumber(uint _newNumber) public returns (uint length) {... */\n    tag_15:\n      tag_62\n      0x04\n      dup1\n      calldatasize\n      sub\n      dup2\n      add\n      swap1\n      tag_63\n      swap2\n      swap1\n      tag_43\n      jump\t// in\n    tag_63:\n      tag_64\n      jump\t// in\n    tag_62:\n      mload(0x40)\n      tag_65\n      swap2\n      swap1\n      tag_31\n      jump\t// in\n    tag_65:\n      mload(0x40)\n      dup1\n      swap2\n      sub\n      swap1\n      return\n        /* \"Arrays/contracts/ArrayExercise.sol\":1101:1193  function getSenders() public view returns (address[] memory) {... */\n    tag_19:\n        /* \"Arrays/contracts/ArrayExercise.sol\":1144:1160  address[] memory */\n      0x60\n        /* \"Arrays/contracts/ArrayExercise.sol\":1179:1186  senders */\n      0x01\n        /* \"Arrays/contracts/ArrayExercise.sol\":1172:1186  return senders */\n      dup1\n      sload\n      dup1\n      0x20\n      mul\n      0x20\n      add\n      mload(0x40)\n      swap1\n      dup2\n      add\n      0x40\n      mstore\n      dup1\n      swap3\n      swap2\n      swap1\n      dup2\n      dup2\n      mstore\n      0x20\n      add\n      dup3\n      dup1\n      sload\n      dup1\n      iszero\n      tag_67\n      jumpi\n      0x20\n      mul\n      dup3\n      add\n      swap2\n      swap1\n      0x00\n      mstore\n      keccak256(0x00, 0x20)\n      swap1\n    tag_68:\n      dup2\n      0x00\n      swap1\n      sload\n      swap1\n      0x0100\n      exp\n      swap1\n      div\n      0xffffffffffffffffffffffffffffffffffffffff\n      and\n      0xffffffffffffffffffffffffffffffffffffffff\n      and\n      dup2\n      mstore\n      0x20\n      add\n      swap1\n      0x01\n      add\n      swap1\n      dup1\n      dup4\n      gt\n      tag_68\n      jumpi\n    tag_67:\n      pop\n      pop\n      pop\n      pop\n      pop\n      swap1\n      pop\n        /* \"Arrays/contracts/ArrayExercise.sol\":1101:1193  function getSenders() public view returns (address[] memory) {... */\n      swap1\n      jump\t// out\n        /* \"Arrays/contracts/ArrayExercise.sol\":1199:1752  function afterY2K() public view returns (uint[] memory afterTimes, address[] memory matchingAddrs) {... */\n    tag_23:\n        /* \"Arrays/contracts/ArrayExercise.sol\":1240:1264  uint[] memory afterTimes */\n      0x60\n        /* \"Arrays/contracts/ArrayExercise.sol\":1266:1296  address[] memory matchingAddrs */\n      dup1\n        /* \"Arrays/contracts/ArrayExercise.sol\":1308:1316  uint y2k */\n      0x00\n        /* \"Arrays/contracts/ArrayExercise.sol\":1319:1328  946702800 */\n      0x386d89d0\n        /* \"Arrays/contracts/ArrayExercise.sol\":1308:1328  uint y2k = 946702800 */\n      swap1\n      pop\n        /* \"Arrays/contracts/ArrayExercise.sol\":1338:1348  uint count */\n      0x00\n        /* \"Arrays/contracts/ArrayExercise.sol\":1351:1371  _countAfterTime(y2k) */\n      tag_70\n        /* \"Arrays/contracts/ArrayExercise.sol\":1367:1370  y2k */\n      dup3\n        /* \"Arrays/contracts/ArrayExercise.sol\":1351:1366  _countAfterTime */\n      tag_71\n        /* \"Arrays/contracts/ArrayExercise.sol\":1351:1371  _countAfterTime(y2k) */\n      jump\t// in\n    tag_70:\n        /* \"Arrays/contracts/ArrayExercise.sol\":1338:1371  uint count = _countAfterTime(y2k) */\n      swap1\n      pop\n        /* \"Arrays/contracts/ArrayExercise.sol\":1405:1410  count */\n      dup1\n        /* \"Arrays/contracts/ArrayExercise.sol\":1394:1411  new uint[](count) */\n      0xffffffffffffffff\n      dup2\n      gt\n      iszero\n      tag_72\n      jumpi\n      tag_73\n      tag_74\n      jump\t// in\n    tag_73:\n    tag_72:\n      mload(0x40)\n      swap1\n      dup1\n      dup3\n      mstore\n      dup1\n      0x20\n      mul\n      0x20\n      add\n      dup3\n      add\n      0x40\n      mstore\n      dup1\n      iszero\n      tag_75\n      jumpi\n      dup2\n      0x20\n      add\n      0x20\n      dup3\n      mul\n      dup1\n      calldatasize\n      dup4\n      calldatacopy\n      dup1\n      dup3\n      add\n      swap2\n      pop\n      pop\n      swap1\n      pop\n    tag_75:\n      pop\n        /* \"Arrays/contracts/ArrayExercise.sol\":1381:1411  afterTimes = new uint[](count) */\n      swap4\n      pop\n        /* \"Arrays/contracts/ArrayExercise.sol\":1451:1456  count */\n      dup1\n        /* \"Arrays/contracts/ArrayExercise.sol\":1437:1457  new address[](count) */\n      0xffffffffffffffff\n      dup2\n      gt\n      iszero\n      tag_76\n      jumpi\n      tag_77\n      tag_74\n      jump\t// in\n    tag_77:\n    tag_76:\n      mload(0x40)\n      swap1\n      dup1\n      dup3\n      mstore\n      dup1\n      0x20\n      mul\n      0x20\n      add\n      dup3\n      add\n      0x40\n      mstore\n      dup1\n      iszero\n      tag_78\n      jumpi\n      dup2\n      0x20\n      add\n      0x20\n      dup3\n      mul\n      dup1\n      calldatasize\n      dup4\n      calldatacopy\n      dup1\n      dup3\n      add\n      swap2\n      pop\n      pop\n      swap1\n      pop\n    tag_78:\n      pop\n        /* \"Arrays/contracts/ArrayExercise.sol\":1421:1457  matchingAddrs = new address[](count) */\n      swap3\n      pop\n        /* \"Arrays/contracts/ArrayExercise.sol\":1467:1482  uint currentPos */\n      0x00\n        /* \"Arrays/contracts/ArrayExercise.sol\":1500:1506  uint i */\n      dup1\n        /* \"Arrays/contracts/ArrayExercise.sol\":1496:1745  for(uint i = 0; i < timestamps.length; i++) {... */\n    tag_79:\n        /* \"Arrays/contracts/ArrayExercise.sol\":1516:1526  timestamps */\n      0x02\n        /* \"Arrays/contracts/ArrayExercise.sol\":1516:1533  timestamps.length */\n      dup1\n      sload\n      swap1\n      pop\n        /* \"Arrays/contracts/ArrayExercise.sol\":1512:1513  i */\n      dup2\n        /* \"Arrays/contracts/ArrayExercise.sol\":1512:1533  i < timestamps.length */\n      lt\n        /* \"Arrays/contracts/ArrayExercise.sol\":1496:1745  for(uint i = 0; i < timestamps.length; i++) {... */\n      iszero\n      tag_80\n      jumpi\n        /* \"Arrays/contracts/ArrayExercise.sol\":1573:1576  y2k */\n      dup4\n        /* \"Arrays/contracts/ArrayExercise.sol\":1557:1567  timestamps */\n      0x02\n        /* \"Arrays/contracts/ArrayExercise.sol\":1568:1569  i */\n      dup3\n        /* \"Arrays/contracts/ArrayExercise.sol\":1557:1570  timestamps[i] */\n      dup2\n      sload\n      dup2\n      lt\n      tag_82\n      jumpi\n      tag_83\n      tag_84\n      jump\t// in\n    tag_83:\n    tag_82:\n      swap1\n      0x00\n      mstore\n      keccak256(0x00, 0x20)\n      add\n      sload\n        /* \"Arrays/contracts/ArrayExercise.sol\":1557:1576  timestamps[i] > y2k */\n      gt\n        /* \"Arrays/contracts/ArrayExercise.sol\":1554:1735  if(timestamps[i] > y2k) {... */\n      iszero\n      tag_86\n      jumpi\n        /* \"Arrays/contracts/ArrayExercise.sol\":1621:1631  timestamps */\n      0x02\n        /* \"Arrays/contracts/ArrayExercise.sol\":1632:1633  i */\n      dup2\n        /* \"Arrays/contracts/ArrayExercise.sol\":1621:1634  timestamps[i] */\n      dup2\n      sload\n      dup2\n      lt\n      tag_87\n      jumpi\n      tag_88\n      tag_84\n      jump\t// in\n    tag_88:\n    tag_87:\n      swap1\n      0x00\n      mstore\n      keccak256(0x00, 0x20)\n      add\n      sload\n        /* \"Arrays/contracts/ArrayExercise.sol\":1596:1606  afterTimes */\n      dup7\n        /* \"Arrays/contracts/ArrayExercise.sol\":1607:1617  currentPos */\n      dup4\n        /* \"Arrays/contracts/ArrayExercise.sol\":1596:1618  afterTimes[currentPos] */\n      dup2\n      mload\n      dup2\n      lt\n      tag_90\n      jumpi\n      tag_91\n      tag_84\n      jump\t// in\n    tag_91:\n    tag_90:\n      0x20\n      mul\n      0x20\n      add\n      add\n        /* \"Arrays/contracts/ArrayExercise.sol\":1596:1634  afterTimes[currentPos] = timestamps[i] */\n      dup2\n      dup2\n      mstore\n      pop\n      pop\n        /* \"Arrays/contracts/ArrayExercise.sol\":1680:1687  senders */\n      0x01\n        /* \"Arrays/contracts/ArrayExercise.sol\":1688:1689  i */\n      dup2\n        /* \"Arrays/contracts/ArrayExercise.sol\":1680:1690  senders[i] */\n      dup2\n      sload\n      dup2\n      lt\n      tag_92\n      jumpi\n      tag_93\n      tag_84\n      jump\t// in\n    tag_93:\n    tag_92:\n      swap1\n      0x00\n      mstore\n      keccak256(0x00, 0x20)\n      add\n      0x00\n      swap1\n      sload\n      swap1\n      0x0100\n      exp\n      swap1\n      div\n      0xffffffffffffffffffffffffffffffffffffffff\n      and\n        /* \"Arrays/contracts/ArrayExercise.sol\":1652:1665  matchingAddrs */\n      dup6\n        /* \"Arrays/contracts/ArrayExercise.sol\":1666:1676  currentPos */\n      dup4\n        /* \"Arrays/contracts/ArrayExercise.sol\":1652:1677  matchingAddrs[currentPos] */\n      dup2\n      mload\n      dup2\n      lt\n      tag_95\n      jumpi\n      tag_96\n      tag_84\n      jump\t// in\n    tag_96:\n    tag_95:\n      0x20\n      mul\n      0x20\n      add\n      add\n        /* \"Arrays/contracts/ArrayExercise.sol\":1652:1690  matchingAddrs[currentPos] = senders[i] */\n      swap1\n      0xffffffffffffffffffffffffffffffffffffffff\n      and\n      swap1\n      dup2\n      0xffffffffffffffffffffffffffffffffffffffff\n      and\n      dup2\n      mstore\n      pop\n      pop\n        /* \"Arrays/contracts/ArrayExercise.sol\":1708:1720  currentPos++ */\n      dup2\n      dup1\n      tag_97\n      swap1\n      tag_98\n      jump\t// in\n    tag_97:\n      swap3\n      pop\n      pop\n        /* \"Arrays/contracts/ArrayExercise.sol\":1554:1735  if(timestamps[i] > y2k) {... */\n    tag_86:\n        /* \"Arrays/contracts/ArrayExercise.sol\":1535:1538  i++ */\n      dup1\n      dup1\n      tag_99\n      swap1\n      tag_98\n      jump\t// in\n    tag_99:\n      swap2\n      pop\n      pop\n        /* \"Arrays/contracts/ArrayExercise.sol\":1496:1745  for(uint i = 0; i < timestamps.length; i++) {... */\n      jump(tag_79)\n    tag_80:\n      pop\n        /* \"Arrays/contracts/ArrayExercise.sol\":1298:1752  {... */\n      pop\n      pop\n      pop\n        /* \"Arrays/contracts/ArrayExercise.sol\":1199:1752  function afterY2K() public view returns (uint[] memory afterTimes, address[] memory matchingAddrs) {... */\n      swap1\n      swap2\n      jump\t// out\n        /* \"Arrays/contracts/ArrayExercise.sol\":629:853  function appendToNumbers(uint[] calldata _toAppend) public returns (uint length) {... */\n    tag_29:\n        /* \"Arrays/contracts/ArrayExercise.sol\":697:708  uint length */\n      0x00\n        /* \"Arrays/contracts/ArrayExercise.sol\":724:730  uint i */\n      dup1\n        /* \"Arrays/contracts/ArrayExercise.sol\":733:734  0 */\n      0x00\n        /* \"Arrays/contracts/ArrayExercise.sol\":724:734  uint i = 0 */\n      swap1\n      pop\n        /* \"Arrays/contracts/ArrayExercise.sol\":720:814  for(uint i = 0; i < _toAppend.length; i++) {... */\n    tag_101:\n        /* \"Arrays/contracts/ArrayExercise.sol\":740:749  _toAppend */\n      dup4\n      dup4\n        /* \"Arrays/contracts/ArrayExercise.sol\":740:756  _toAppend.length */\n      swap1\n      pop\n        /* \"Arrays/contracts/ArrayExercise.sol\":736:737  i */\n      dup2\n        /* \"Arrays/contracts/ArrayExercise.sol\":736:756  i < _toAppend.length */\n      lt\n        /* \"Arrays/contracts/ArrayExercise.sol\":720:814  for(uint i = 0; i < _toAppend.length; i++) {... */\n      iszero\n      tag_102\n      jumpi\n        /* \"Arrays/contracts/ArrayExercise.sol\":777:784  numbers */\n      0x00\n        /* \"Arrays/contracts/ArrayExercise.sol\":790:799  _toAppend */\n      dup5\n      dup5\n        /* \"Arrays/contracts/ArrayExercise.sol\":800:801  i */\n      dup4\n        /* \"Arrays/contracts/ArrayExercise.sol\":790:802  _toAppend[i] */\n      dup2\n      dup2\n      lt\n      tag_104\n      jumpi\n      tag_105\n      tag_84\n      jump\t// in\n    tag_105:\n    tag_104:\n      swap1\n      pop\n      0x20\n      mul\n      add\n      calldataload\n        /* \"Arrays/contracts/ArrayExercise.sol\":777:803  numbers.push(_toAppend[i]) */\n      swap1\n      dup1\n      0x01\n      dup2\n      sload\n      add\n      dup1\n      dup3\n      sstore\n      dup1\n      swap2\n      pop\n      pop\n      0x01\n      swap1\n      sub\n      swap1\n      0x00\n      mstore\n      keccak256(0x00, 0x20)\n      add\n      0x00\n      swap1\n      swap2\n      swap1\n      swap2\n      swap1\n      swap2\n      pop\n      sstore\n        /* \"Arrays/contracts/ArrayExercise.sol\":758:761  i++ */\n      dup1\n      dup1\n      tag_107\n      swap1\n      tag_98\n      jump\t// in\n    tag_107:\n      swap2\n      pop\n      pop\n        /* \"Arrays/contracts/ArrayExercise.sol\":720:814  for(uint i = 0; i < _toAppend.length; i++) {... */\n      jump(tag_101)\n    tag_102:\n      pop\n        /* \"Arrays/contracts/ArrayExercise.sol\":832:839  numbers */\n      0x00\n        /* \"Arrays/contracts/ArrayExercise.sol\":832:846  numbers.length */\n      dup1\n      sload\n      swap1\n      pop\n        /* \"Arrays/contracts/ArrayExercise.sol\":823:846  length = numbers.length */\n      swap1\n      pop\n        /* \"Arrays/contracts/ArrayExercise.sol\":629:853  function appendToNumbers(uint[] calldata _toAppend) public returns (uint length) {... */\n      swap3\n      swap2\n      pop\n      pop\n      jump\t// out\n        /* \"Arrays/contracts/ArrayExercise.sol\":1000:1095  function getTimestamps() public view returns (uint[] memory) {... */\n    tag_33:\n        /* \"Arrays/contracts/ArrayExercise.sol\":1046:1059  uint[] memory */\n      0x60\n        /* \"Arrays/contracts/ArrayExercise.sol\":1078:1088  timestamps */\n      0x02\n        /* \"Arrays/contracts/ArrayExercise.sol\":1071:1088  return timestamps */\n      dup1\n      sload\n      dup1\n      0x20\n      mul\n      0x20\n      add\n      mload(0x40)\n      swap1\n      dup2\n      add\n      0x40\n      mstore\n      dup1\n      swap3\n      swap2\n      swap1\n      dup2\n      dup2\n      mstore\n      0x20\n      add\n      dup3\n      dup1\n      sload\n      dup1\n      iszero\n      tag_109\n      jumpi\n      0x20\n      mul\n      dup3\n      add\n      swap2\n      swap1\n      0x00\n      mstore\n      keccak256(0x00, 0x20)\n      swap1\n    tag_110:\n      dup2\n      sload\n      dup2\n      mstore\n      0x20\n      add\n      swap1\n      0x01\n      add\n      swap1\n      dup1\n      dup4\n      gt\n      tag_110\n      jumpi\n    tag_109:\n      pop\n      pop\n      pop\n      pop\n      pop\n      swap1\n      pop\n        /* \"Arrays/contracts/ArrayExercise.sol\":1000:1095  function getTimestamps() public view returns (uint[] memory) {... */\n      swap1\n      jump\t// out\n        /* \"Arrays/contracts/ArrayExercise.sol\":2013:2075  function resetSenders() public {... */\n    tag_37:\n        /* \"Arrays/contracts/ArrayExercise.sol\":2061:2068  senders */\n      0x01\n      0x00\n        /* \"Arrays/contracts/ArrayExercise.sol\":2054:2068  delete senders */\n      tag_112\n      swap2\n      swap1\n      tag_113\n      jump\t// in\n    tag_112:\n        /* \"Arrays/contracts/ArrayExercise.sol\":2013:2075  function resetSenders() public {... */\n      jump\t// out\n        /* \"Arrays/contracts/ArrayExercise.sol\":273:362  function getNumbers() public view returns (uint[] memory) {... */\n    tag_39:\n        /* \"Arrays/contracts/ArrayExercise.sol\":316:329  uint[] memory */\n      0x60\n        /* \"Arrays/contracts/ArrayExercise.sol\":348:355  numbers */\n      0x00\n        /* \"Arrays/contracts/ArrayExercise.sol\":341:355  return numbers */\n      dup1\n      sload\n      dup1\n      0x20\n      mul\n      0x20\n      add\n      mload(0x40)\n      swap1\n      dup2\n      add\n      0x40\n      mstore\n      dup1\n      swap3\n      swap2\n      swap1\n      dup2\n      dup2\n      mstore\n      0x20\n      add\n      dup3\n      dup1\n      sload\n      dup1\n      iszero\n      tag_115\n      jumpi\n      0x20\n      mul\n      dup3\n      add\n      swap2\n      swap1\n      0x00\n      mstore\n      keccak256(0x00, 0x20)\n      swap1\n    tag_116:\n      dup2\n      sload\n      dup2\n      mstore\n      0x20\n      add\n      swap1\n      0x01\n      add\n      swap1\n      dup1\n      dup4\n      gt\n      tag_116\n      jumpi\n    tag_115:\n      pop\n      pop\n      pop\n      pop\n      pop\n      swap1\n      pop\n        /* \"Arrays/contracts/ArrayExercise.sol\":273:362  function getNumbers() public view returns (uint[] memory) {... */\n      swap1\n      jump\t// out\n        /* \"Arrays/contracts/ArrayExercise.sol\":242:266  uint[] public timestamps */\n    tag_44:\n      0x02\n      dup2\n      dup2\n      sload\n      dup2\n      lt\n      tag_117\n      jumpi\n      0x00\n      dup1\n      revert\n    tag_117:\n      swap1\n      0x00\n      mstore\n      keccak256(0x00, 0x20)\n      add\n      0x00\n      swap2\n      pop\n      swap1\n      pop\n      sload\n      dup2\n      jump\t// out\n        /* \"Arrays/contracts/ArrayExercise.sol\":212:236  address[] public senders */\n    tag_48:\n      0x01\n      dup2\n      dup2\n      sload\n      dup2\n      lt\n      tag_119\n      jumpi\n      0x00\n      dup1\n      revert\n    tag_119:\n      swap1\n      0x00\n      mstore\n      keccak256(0x00, 0x20)\n      add\n      0x00\n      swap2\n      pop\n      sload\n      swap1\n      0x0100\n      exp\n      swap1\n      div\n      0xffffffffffffffffffffffffffffffffffffffff\n      and\n      dup2\n      jump\t// out\n        /* \"Arrays/contracts/ArrayExercise.sol\":859:994  function saveTimestamp(uint _unixTimestamp) external {... */\n    tag_53:\n        /* \"Arrays/contracts/ArrayExercise.sol\":922:929  senders */\n      0x01\n        /* \"Arrays/contracts/ArrayExercise.sol\":935:945  msg.sender */\n      caller\n        /* \"Arrays/contracts/ArrayExercise.sol\":922:946  senders.push(msg.sender) */\n      swap1\n      dup1\n      0x01\n      dup2\n      sload\n      add\n      dup1\n      dup3\n      sstore\n      dup1\n      swap2\n      pop\n      pop\n      0x01\n      swap1\n      sub\n      swap1\n      0x00\n      mstore\n      keccak256(0x00, 0x20)\n      add\n      0x00\n      swap1\n      swap2\n      swap1\n      swap2\n      swap1\n      swap2\n      0x0100\n      exp\n      dup2\n      sload\n      dup2\n      0xffffffffffffffffffffffffffffffffffffffff\n      mul\n      not\n      and\n      swap1\n      dup4\n      0xffffffffffffffffffffffffffffffffffffffff\n      and\n      mul\n      or\n      swap1\n      sstore\n      pop\n        /* \"Arrays/contracts/ArrayExercise.sol\":956:966  timestamps */\n      0x02\n        /* \"Arrays/contracts/ArrayExercise.sol\":972:986  _unixTimestamp */\n      dup2\n        /* \"Arrays/contracts/ArrayExercise.sol\":956:987  timestamps.push(_unixTimestamp) */\n      swap1\n      dup1\n      0x01\n      dup2\n      sload\n      add\n      dup1\n      dup3\n      sstore\n      dup1\n      swap2\n      pop\n      pop\n      0x01\n      swap1\n      sub\n      swap1\n      0x00\n      mstore\n      keccak256(0x00, 0x20)\n      add\n      0x00\n      swap1\n      swap2\n      swap1\n      swap2\n      swap1\n      swap2\n      pop\n      sstore\n        /* \"Arrays/contracts/ArrayExercise.sol\":859:994  function saveTimestamp(uint _unixTimestamp) external {... */\n      pop\n      jump\t// out\n        /* \"Arrays/contracts/ArrayExercise.sol\":2081:2149  function resetTimestamps() public {... */\n    tag_55:\n        /* \"Arrays/contracts/ArrayExercise.sol\":2132:2142  timestamps */\n      0x02\n      0x00\n        /* \"Arrays/contracts/ArrayExercise.sol\":2125:2142  delete timestamps */\n      tag_125\n      swap2\n      swap1\n      tag_126\n      jump\t// in\n    tag_125:\n        /* \"Arrays/contracts/ArrayExercise.sol\":2081:2149  function resetTimestamps() public {... */\n      jump\t// out\n        /* \"Arrays/contracts/ArrayExercise.sol\":368:478  function resetNumbers() public {... */\n    tag_57:\n        /* \"Arrays/contracts/ArrayExercise.sol\":416:423  numbers */\n      0x00\n      dup1\n        /* \"Arrays/contracts/ArrayExercise.sol\":409:423  delete numbers */\n      tag_128\n      swap2\n      swap1\n      tag_126\n      jump\t// in\n    tag_128:\n        /* \"Arrays/contracts/ArrayExercise.sol\":433:471  numbers = [uint(1),2,3,4,5,6,7,8,9,10] */\n      mload(0x40)\n      dup1\n      0x0140\n      add\n      0x40\n      mstore\n      dup1\n        /* \"Arrays/contracts/ArrayExercise.sol\":449:450  1 */\n      0x01\n        /* \"Arrays/contracts/ArrayExercise.sol\":433:471  numbers = [uint(1),2,3,4,5,6,7,8,9,10] */\n      dup2\n      mstore\n      0x20\n      add\n        /* \"Arrays/contracts/ArrayExercise.sol\":452:453  2 */\n      0x02\n        /* \"Arrays/contracts/ArrayExercise.sol\":433:471  numbers = [uint(1),2,3,4,5,6,7,8,9,10] */\n      dup2\n      mstore\n      0x20\n      add\n        /* \"Arrays/contracts/ArrayExercise.sol\":454:455  3 */\n      0x03\n        /* \"Arrays/contracts/ArrayExercise.sol\":433:471  numbers = [uint(1),2,3,4,5,6,7,8,9,10] */\n      dup2\n      mstore\n      0x20\n      add\n        /* \"Arrays/contracts/ArrayExercise.sol\":456:457  4 */\n      0x04\n        /* \"Arrays/contracts/ArrayExercise.sol\":433:471  numbers = [uint(1),2,3,4,5,6,7,8,9,10] */\n      dup2\n      mstore\n      0x20\n      add\n        /* \"Arrays/contracts/ArrayExercise.sol\":458:459  5 */\n      0x05\n        /* \"Arrays/contracts/ArrayExercise.sol\":433:471  numbers = [uint(1),2,3,4,5,6,7,8,9,10] */\n      dup2\n      mstore\n      0x20\n      add\n        /* \"Arrays/contracts/ArrayExercise.sol\":460:461  6 */\n      0x06\n        /* \"Arrays/contracts/ArrayExercise.sol\":433:471  numbers = [uint(1),2,3,4,5,6,7,8,9,10] */\n      dup2\n      mstore\n      0x20\n      add\n        /* \"Arrays/contracts/ArrayExercise.sol\":462:463  7 */\n      0x07\n        /* \"Arrays/contracts/ArrayExercise.sol\":433:471  numbers = [uint(1),2,3,4,5,6,7,8,9,10] */\n      dup2\n      mstore\n      0x20\n      add\n        /* \"Arrays/contracts/ArrayExercise.sol\":464:465  8 */\n      0x08\n        /* \"Arrays/contracts/ArrayExercise.sol\":433:471  numbers = [uint(1),2,3,4,5,6,7,8,9,10] */\n      dup2\n      mstore\n      0x20\n      add\n        /* \"Arrays/contracts/ArrayExercise.sol\":466:467  9 */\n      0x09\n        /* \"Arrays/contracts/ArrayExercise.sol\":433:471  numbers = [uint(1),2,3,4,5,6,7,8,9,10] */\n      dup2\n      mstore\n      0x20\n      add\n        /* \"Arrays/contracts/ArrayExercise.sol\":468:470  10 */\n      0x0a\n        /* \"Arrays/contracts/ArrayExercise.sol\":433:471  numbers = [uint(1),2,3,4,5,6,7,8,9,10] */\n      dup2\n      mstore\n      pop\n        /* \"Arrays/contracts/ArrayExercise.sol\":433:440  numbers */\n      0x00\n        /* \"Arrays/contracts/ArrayExercise.sol\":433:471  numbers = [uint(1),2,3,4,5,6,7,8,9,10] */\n      swap1\n      0x0a\n      tag_129\n      swap3\n      swap2\n      swap1\n      tag_130\n      jump\t// in\n    tag_129:\n      pop\n        /* \"Arrays/contracts/ArrayExercise.sol\":368:478  function resetNumbers() public {... */\n      jump\t// out\n        /* \"Arrays/contracts/ArrayExercise.sol\":160:206  uint[] public numbers = [1,2,3,4,5,6,7,8,9,10] */\n    tag_60:\n      0x00\n      dup2\n      dup2\n      sload\n      dup2\n      lt\n      tag_131\n      jumpi\n      0x00\n      dup1\n      revert\n    tag_131:\n      swap1\n      0x00\n      mstore\n      keccak256(0x00, 0x20)\n      add\n      0x00\n      swap2\n      pop\n      swap1\n      pop\n      sload\n      dup2\n      jump\t// out\n        /* \"Arrays/contracts/ArrayExercise.sol\":484:623  function addNumber(uint _newNumber) public returns (uint length) {... */\n    tag_64:\n        /* \"Arrays/contracts/ArrayExercise.sol\":536:547  uint length */\n      0x00\n        /* \"Arrays/contracts/ArrayExercise.sol\":559:566  numbers */\n      dup1\n        /* \"Arrays/contracts/ArrayExercise.sol\":572:582  _newNumber */\n      dup3\n        /* \"Arrays/contracts/ArrayExercise.sol\":559:583  numbers.push(_newNumber) */\n      swap1\n      dup1\n      0x01\n      dup2\n      sload\n      add\n      dup1\n      dup3\n      sstore\n      dup1\n      swap2\n      pop\n      pop\n      0x01\n      swap1\n      sub\n      swap1\n      0x00\n      mstore\n      keccak256(0x00, 0x20)\n      add\n      0x00\n      swap1\n      swap2\n      swap1\n      swap2\n      swap1\n      swap2\n      pop\n      sstore\n        /* \"Arrays/contracts/ArrayExercise.sol\":602:609  numbers */\n      0x00\n        /* \"Arrays/contracts/ArrayExercise.sol\":602:616  numbers.length */\n      dup1\n      sload\n      swap1\n      pop\n        /* \"Arrays/contracts/ArrayExercise.sol\":593:616  length = numbers.length */\n      swap1\n      pop\n        /* \"Arrays/contracts/ArrayExercise.sol\":484:623  function addNumber(uint _newNumber) public returns (uint length) {... */\n      swap2\n      swap1\n      pop\n      jump\t// out\n        /* \"Arrays/contracts/ArrayExercise.sol\":1758:2007  function _countAfterTime(uint afterTime) internal view returns (uint count) {... */\n    tag_71:\n        /* \"Arrays/contracts/ArrayExercise.sol\":1822:1832  uint count */\n      0x00\n        /* \"Arrays/contracts/ArrayExercise.sol\":1867:1873  uint i */\n      dup1\n        /* \"Arrays/contracts/ArrayExercise.sol\":1863:2001  for(uint i = 0; i < timestamps.length; i++) {... */\n    tag_136:\n        /* \"Arrays/contracts/ArrayExercise.sol\":1883:1893  timestamps */\n      0x02\n        /* \"Arrays/contracts/ArrayExercise.sol\":1883:1900  timestamps.length */\n      dup1\n      sload\n      swap1\n      pop\n        /* \"Arrays/contracts/ArrayExercise.sol\":1879:1880  i */\n      dup2\n        /* \"Arrays/contracts/ArrayExercise.sol\":1879:1900  i < timestamps.length */\n      lt\n        /* \"Arrays/contracts/ArrayExercise.sol\":1863:2001  for(uint i = 0; i < timestamps.length; i++) {... */\n      iszero\n      tag_137\n      jumpi\n        /* \"Arrays/contracts/ArrayExercise.sol\":1940:1949  afterTime */\n      dup3\n        /* \"Arrays/contracts/ArrayExercise.sol\":1924:1934  timestamps */\n      0x02\n        /* \"Arrays/contracts/ArrayExercise.sol\":1935:1936  i */\n      dup3\n        /* \"Arrays/contracts/ArrayExercise.sol\":1924:1937  timestamps[i] */\n      dup2\n      sload\n      dup2\n      lt\n      tag_139\n      jumpi\n      tag_140\n      tag_84\n      jump\t// in\n    tag_140:\n    tag_139:\n      swap1\n      0x00\n      mstore\n      keccak256(0x00, 0x20)\n      add\n      sload\n        /* \"Arrays/contracts/ArrayExercise.sol\":1924:1949  timestamps[i] > afterTime */\n      gt\n        /* \"Arrays/contracts/ArrayExercise.sol\":1921:1991  if(timestamps[i] > afterTime) {... */\n      iszero\n      tag_142\n      jumpi\n        /* \"Arrays/contracts/ArrayExercise.sol\":1969:1976  count++ */\n      dup2\n      dup1\n      tag_143\n      swap1\n      tag_98\n      jump\t// in\n    tag_143:\n      swap3\n      pop\n      pop\n        /* \"Arrays/contracts/ArrayExercise.sol\":1921:1991  if(timestamps[i] > afterTime) {... */\n    tag_142:\n        /* \"Arrays/contracts/ArrayExercise.sol\":1902:1905  i++ */\n      dup1\n      dup1\n      tag_144\n      swap1\n      tag_98\n      jump\t// in\n    tag_144:\n      swap2\n      pop\n      pop\n        /* \"Arrays/contracts/ArrayExercise.sol\":1863:2001  for(uint i = 0; i < timestamps.length; i++) {... */\n      jump(tag_136)\n    tag_137:\n      pop\n        /* \"Arrays/contracts/ArrayExercise.sol\":1758:2007  function _countAfterTime(uint afterTime) internal view returns (uint count) {... */\n      swap2\n      swap1\n      pop\n      jump\t// out\n    tag_113:\n      pop\n      dup1\n      sload\n      0x00\n      dup3\n      sstore\n      swap1\n      0x00\n      mstore\n      keccak256(0x00, 0x20)\n      swap1\n      dup2\n      add\n      swap1\n      tag_146\n      swap2\n      swap1\n      tag_147\n      jump\t// in\n    tag_146:\n      pop\n      jump\t// out\n    tag_126:\n      pop\n      dup1\n      sload\n      0x00\n      dup3\n      sstore\n      swap1\n      0x00\n      mstore\n      keccak256(0x00, 0x20)\n      swap1\n      dup2\n      add\n      swap1\n      tag_149\n      swap2\n      swap1\n      tag_147\n      jump\t// in\n    tag_149:\n      pop\n      jump\t// out\n    tag_130:\n      dup3\n      dup1\n      sload\n      dup3\n      dup3\n      sstore\n      swap1\n      0x00\n      mstore\n      keccak256(0x00, 0x20)\n      swap1\n      dup2\n      add\n      swap3\n      dup3\n      iszero\n      tag_150\n      jumpi\n      swap2\n      0x20\n      mul\n      dup3\n      add\n    tag_151:\n      dup3\n      dup2\n      gt\n      iszero\n      tag_152\n      jumpi\n      dup3\n      mload\n      dup3\n      sstore\n      swap2\n      0x20\n      add\n      swap2\n      swap1\n      0x01\n      add\n      swap1\n      jump(tag_151)\n    tag_152:\n    tag_150:\n      pop\n      swap1\n      pop\n      tag_153\n      swap2\n      swap1\n      tag_147\n      jump\t// in\n    tag_153:\n      pop\n      swap1\n      jump\t// out\n    tag_147:\n    tag_154:\n      dup1\n      dup3\n      gt\n      iszero\n      tag_155\n      jumpi\n      0x00\n      dup2\n      0x00\n      swap1\n      sstore\n      pop\n      0x01\n      add\n      jump(tag_154)\n    tag_155:\n      pop\n      swap1\n      jump\t// out\n        /* \"#utility.yul\":7:121   */\n    tag_156:\n        /* \"#utility.yul\":74:80   */\n      0x00\n        /* \"#utility.yul\":108:113   */\n      dup2\n        /* \"#utility.yul\":102:114   */\n      mload\n        /* \"#utility.yul\":92:114   */\n      swap1\n      pop\n        /* \"#utility.yul\":7:121   */\n      swap2\n      swap1\n      pop\n      jump\t// out\n        /* \"#utility.yul\":127:311   */\n    tag_157:\n        /* \"#utility.yul\":226:237   */\n      0x00\n        /* \"#utility.yul\":260:266   */\n      dup3\n        /* \"#utility.yul\":255:258   */\n      dup3\n        /* \"#utility.yul\":248:267   */\n      mstore\n        /* \"#utility.yul\":300:304   */\n      0x20\n        /* \"#utility.yul\":295:298   */\n      dup3\n        /* \"#utility.yul\":291:305   */\n      add\n        /* \"#utility.yul\":276:305   */\n      swap1\n      pop\n        /* \"#utility.yul\":127:311   */\n      swap3\n      swap2\n      pop\n      pop\n      jump\t// out\n        /* \"#utility.yul\":317:449   */\n    tag_158:\n        /* \"#utility.yul\":384:388   */\n      0x00\n        /* \"#utility.yul\":407:410   */\n      dup2\n        /* \"#utility.yul\":399:410   */\n      swap1\n      pop\n        /* \"#utility.yul\":437:441   */\n      0x20\n        /* \"#utility.yul\":432:435   */\n      dup3\n        /* \"#utility.yul\":428:442   */\n      add\n        /* \"#utility.yul\":420:442   */\n      swap1\n      pop\n        /* \"#utility.yul\":317:449   */\n      swap2\n      swap1\n      pop\n      jump\t// out\n        /* \"#utility.yul\":455:581   */\n    tag_159:\n        /* \"#utility.yul\":492:499   */\n      0x00\n        /* \"#utility.yul\":532:574   */\n      0xffffffffffffffffffffffffffffffffffffffff\n        /* \"#utility.yul\":525:530   */\n      dup3\n        /* \"#utility.yul\":521:575   */\n      and\n        /* \"#utility.yul\":510:575   */\n      swap1\n      pop\n        /* \"#utility.yul\":455:581   */\n      swap2\n      swap1\n      pop\n      jump\t// out\n        /* \"#utility.yul\":587:683   */\n    tag_160:\n        /* \"#utility.yul\":624:631   */\n      0x00\n        /* \"#utility.yul\":653:677   */\n      tag_191\n        /* \"#utility.yul\":671:676   */\n      dup3\n        /* \"#utility.yul\":653:677   */\n      tag_159\n      jump\t// in\n    tag_191:\n        /* \"#utility.yul\":642:677   */\n      swap1\n      pop\n        /* \"#utility.yul\":587:683   */\n      swap2\n      swap1\n      pop\n      jump\t// out\n        /* \"#utility.yul\":689:797   */\n    tag_161:\n        /* \"#utility.yul\":766:790   */\n      tag_193\n        /* \"#utility.yul\":784:789   */\n      dup2\n        /* \"#utility.yul\":766:790   */\n      tag_160\n      jump\t// in\n    tag_193:\n        /* \"#utility.yul\":761:764   */\n      dup3\n        /* \"#utility.yul\":754:791   */\n      mstore\n        /* \"#utility.yul\":689:797   */\n      pop\n      pop\n      jump\t// out\n        /* \"#utility.yul\":803:982   */\n    tag_162:\n        /* \"#utility.yul\":872:882   */\n      0x00\n        /* \"#utility.yul\":893:939   */\n      tag_195\n        /* \"#utility.yul\":935:938   */\n      dup4\n        /* \"#utility.yul\":927:933   */\n      dup4\n        /* \"#utility.yul\":893:939   */\n      tag_161\n      jump\t// in\n    tag_195:\n        /* \"#utility.yul\":971:975   */\n      0x20\n        /* \"#utility.yul\":966:969   */\n      dup4\n        /* \"#utility.yul\":962:976   */\n      add\n        /* \"#utility.yul\":948:976   */\n      swap1\n      pop\n        /* \"#utility.yul\":803:982   */\n      swap3\n      swap2\n      pop\n      pop\n      jump\t// out\n        /* \"#utility.yul\":988:1101   */\n    tag_163:\n        /* \"#utility.yul\":1058:1062   */\n      0x00\n        /* \"#utility.yul\":1090:1094   */\n      0x20\n        /* \"#utility.yul\":1085:1088   */\n      dup3\n        /* \"#utility.yul\":1081:1095   */\n      add\n        /* \"#utility.yul\":1073:1095   */\n      swap1\n      pop\n        /* \"#utility.yul\":988:1101   */\n      swap2\n      swap1\n      pop\n      jump\t// out\n        /* \"#utility.yul\":1137:1869   */\n    tag_164:\n        /* \"#utility.yul\":1256:1259   */\n      0x00\n        /* \"#utility.yul\":1285:1339   */\n      tag_198\n        /* \"#utility.yul\":1333:1338   */\n      dup3\n        /* \"#utility.yul\":1285:1339   */\n      tag_156\n      jump\t// in\n    tag_198:\n        /* \"#utility.yul\":1355:1441   */\n      tag_199\n        /* \"#utility.yul\":1434:1440   */\n      dup2\n        /* \"#utility.yul\":1429:1432   */\n      dup6\n        /* \"#utility.yul\":1355:1441   */\n      tag_157\n      jump\t// in\n    tag_199:\n        /* \"#utility.yul\":1348:1441   */\n      swap4\n      pop\n        /* \"#utility.yul\":1465:1521   */\n      tag_200\n        /* \"#utility.yul\":1515:1520   */\n      dup4\n        /* \"#utility.yul\":1465:1521   */\n      tag_158\n      jump\t// in\n    tag_200:\n        /* \"#utility.yul\":1544:1551   */\n      dup1\n        /* \"#utility.yul\":1575:1576   */\n      0x00\n        /* \"#utility.yul\":1560:1844   */\n    tag_201:\n        /* \"#utility.yul\":1585:1591   */\n      dup4\n        /* \"#utility.yul\":1582:1583   */\n      dup2\n        /* \"#utility.yul\":1579:1592   */\n      lt\n        /* \"#utility.yul\":1560:1844   */\n      iszero\n      tag_203\n      jumpi\n        /* \"#utility.yul\":1661:1667   */\n      dup2\n        /* \"#utility.yul\":1655:1668   */\n      mload\n        /* \"#utility.yul\":1688:1751   */\n      tag_204\n        /* \"#utility.yul\":1747:1750   */\n      dup9\n        /* \"#utility.yul\":1732:1745   */\n      dup3\n        /* \"#utility.yul\":1688:1751   */\n      tag_162\n      jump\t// in\n    tag_204:\n        /* \"#utility.yul\":1681:1751   */\n      swap8\n      pop\n        /* \"#utility.yul\":1774:1834   */\n      tag_205\n        /* \"#utility.yul\":1827:1833   */\n      dup4\n        /* \"#utility.yul\":1774:1834   */\n      tag_163\n      jump\t// in\n    tag_205:\n        /* \"#utility.yul\":1764:1834   */\n      swap3\n      pop\n        /* \"#utility.yul\":1620:1844   */\n      pop\n        /* \"#utility.yul\":1607:1608   */\n      0x01\n        /* \"#utility.yul\":1604:1605   */\n      dup2\n        /* \"#utility.yul\":1600:1609   */\n      add\n        /* \"#utility.yul\":1595:1609   */\n      swap1\n      pop\n        /* \"#utility.yul\":1560:1844   */\n      jump(tag_201)\n    tag_203:\n        /* \"#utility.yul\":1564:1578   */\n      pop\n        /* \"#utility.yul\":1860:1863   */\n      dup6\n        /* \"#utility.yul\":1853:1863   */\n      swap4\n      pop\n        /* \"#utility.yul\":1261:1869   */\n      pop\n      pop\n      pop\n        /* \"#utility.yul\":1137:1869   */\n      swap3\n      swap2\n      pop\n      pop\n      jump\t// out\n        /* \"#utility.yul\":1875:2248   */\n    tag_21:\n        /* \"#utility.yul\":2018:2022   */\n      0x00\n        /* \"#utility.yul\":2056:2058   */\n      0x20\n        /* \"#utility.yul\":2045:2054   */\n      dup3\n        /* \"#utility.yul\":2041:2059   */\n      add\n        /* \"#utility.yul\":2033:2059   */\n      swap1\n      pop\n        /* \"#utility.yul\":2105:2114   */\n      dup2\n        /* \"#utility.yul\":2099:2103   */\n      dup2\n        /* \"#utility.yul\":2095:2115   */\n      sub\n        /* \"#utility.yul\":2091:2092   */\n      0x00\n        /* \"#utility.yul\":2080:2089   */\n      dup4\n        /* \"#utility.yul\":2076:2093   */\n      add\n        /* \"#utility.yul\":2069:2116   */\n      mstore\n        /* \"#utility.yul\":2133:2241   */\n      tag_207\n        /* \"#utility.yul\":2236:2240   */\n      dup2\n        /* \"#utility.yul\":2227:2233   */\n      dup5\n        /* \"#utility.yul\":2133:2241   */\n      tag_164\n      jump\t// in\n    tag_207:\n        /* \"#utility.yul\":2125:2241   */\n      swap1\n      pop\n        /* \"#utility.yul\":1875:2248   */\n      swap3\n      swap2\n      pop\n      pop\n      jump\t// out\n        /* \"#utility.yul\":2254:2368   */\n    tag_165:\n        /* \"#utility.yul\":2321:2327   */\n      0x00\n        /* \"#utility.yul\":2355:2360   */\n      dup2\n        /* \"#utility.yul\":2349:2361   */\n      mload\n        /* \"#utility.yul\":2339:2361   */\n      swap1\n      pop\n        /* \"#utility.yul\":2254:2368   */\n      swap2\n      swap1\n      pop\n      jump\t// out\n        /* \"#utility.yul\":2374:2558   */\n    tag_166:\n        /* \"#utility.yul\":2473:2484   */\n      0x00\n        /* \"#utility.yul\":2507:2513   */\n      dup3\n        /* \"#utility.yul\":2502:2505   */\n      dup3\n        /* \"#utility.yul\":2495:2514   */\n      mstore\n        /* \"#utility.yul\":2547:2551   */\n      0x20\n        /* \"#utility.yul\":2542:2545   */\n      dup3\n        /* \"#utility.yul\":2538:2552   */\n      add\n        /* \"#utility.yul\":2523:2552   */\n      swap1\n      pop\n        /* \"#utility.yul\":2374:2558   */\n      swap3\n      swap2\n      pop\n      pop\n      jump\t// out\n        /* \"#utility.yul\":2564:2696   */\n    tag_167:\n        /* \"#utility.yul\":2631:2635   */\n      0x00\n        /* \"#utility.yul\":2654:2657   */\n      dup2\n        /* \"#utility.yul\":2646:2657   */\n      swap1\n      pop\n        /* \"#utility.yul\":2684:2688   */\n      0x20\n        /* \"#utility.yul\":2679:2682   */\n      dup3\n        /* \"#utility.yul\":2675:2689   */\n      add\n        /* \"#utility.yul\":2667:2689   */\n      swap1\n      pop\n        /* \"#utility.yul\":2564:2696   */\n      swap2\n      swap1\n      pop\n      jump\t// out\n        /* \"#utility.yul\":2702:2779   */\n    tag_168:\n        /* \"#utility.yul\":2739:2746   */\n      0x00\n        /* \"#utility.yul\":2768:2773   */\n      dup2\n        /* \"#utility.yul\":2757:2773   */\n      swap1\n      pop\n        /* \"#utility.yul\":2702:2779   */\n      swap2\n      swap1\n      pop\n      jump\t// out\n        /* \"#utility.yul\":2785:2893   */\n    tag_169:\n        /* \"#utility.yul\":2862:2886   */\n      tag_213\n        /* \"#utility.yul\":2880:2885   */\n      dup2\n        /* \"#utility.yul\":2862:2886   */\n      tag_168\n      jump\t// in\n    tag_213:\n        /* \"#utility.yul\":2857:2860   */\n      dup3\n        /* \"#utility.yul\":2850:2887   */\n      mstore\n        /* \"#utility.yul\":2785:2893   */\n      pop\n      pop\n      jump\t// out\n        /* \"#utility.yul\":2899:3078   */\n    tag_170:\n        /* \"#utility.yul\":2968:2978   */\n      0x00\n        /* \"#utility.yul\":2989:3035   */\n      tag_215\n        /* \"#utility.yul\":3031:3034   */\n      dup4\n        /* \"#utility.yul\":3023:3029   */\n      dup4\n        /* \"#utility.yul\":2989:3035   */\n      tag_169\n      jump\t// in\n    tag_215:\n        /* \"#utility.yul\":3067:3071   */\n      0x20\n        /* \"#utility.yul\":3062:3065   */\n      dup4\n        /* \"#utility.yul\":3058:3072   */\n      add\n        /* \"#utility.yul\":3044:3072   */\n      swap1\n      pop\n        /* \"#utility.yul\":2899:3078   */\n      swap3\n      swap2\n      pop\n      pop\n      jump\t// out\n        /* \"#utility.yul\":3084:3197   */\n    tag_171:\n        /* \"#utility.yul\":3154:3158   */\n      0x00\n        /* \"#utility.yul\":3186:3190   */\n      0x20\n        /* \"#utility.yul\":3181:3184   */\n      dup3\n        /* \"#utility.yul\":3177:3191   */\n      add\n        /* \"#utility.yul\":3169:3191   */\n      swap1\n      pop\n        /* \"#utility.yul\":3084:3197   */\n      swap2\n      swap1\n      pop\n      jump\t// out\n        /* \"#utility.yul\":3233:3965   */\n    tag_172:\n        /* \"#utility.yul\":3352:3355   */\n      0x00\n        /* \"#utility.yul\":3381:3435   */\n      tag_218\n        /* \"#utility.yul\":3429:3434   */\n      dup3\n        /* \"#utility.yul\":3381:3435   */\n      tag_165\n      jump\t// in\n    tag_218:\n        /* \"#utility.yul\":3451:3537   */\n      tag_219\n        /* \"#utility.yul\":3530:3536   */\n      dup2\n        /* \"#utility.yul\":3525:3528   */\n      dup6\n        /* \"#utility.yul\":3451:3537   */\n      tag_166\n      jump\t// in\n    tag_219:\n        /* \"#utility.yul\":3444:3537   */\n      swap4\n      pop\n        /* \"#utility.yul\":3561:3617   */\n      tag_220\n        /* \"#utility.yul\":3611:3616   */\n      dup4\n        /* \"#utility.yul\":3561:3617   */\n      tag_167\n      jump\t// in\n    tag_220:\n        /* \"#utility.yul\":3640:3647   */\n      dup1\n        /* \"#utility.yul\":3671:3672   */\n      0x00\n        /* \"#utility.yul\":3656:3940   */\n    tag_221:\n        /* \"#utility.yul\":3681:3687   */\n      dup4\n        /* \"#utility.yul\":3678:3679   */\n      dup2\n        /* \"#utility.yul\":3675:3688   */\n      lt\n        /* \"#utility.yul\":3656:3940   */\n      iszero\n      tag_223\n      jumpi\n        /* \"#utility.yul\":3757:3763   */\n      dup2\n        /* \"#utility.yul\":3751:3764   */\n      mload\n        /* \"#utility.yul\":3784:3847   */\n      tag_224\n        /* \"#utility.yul\":3843:3846   */\n      dup9\n        /* \"#utility.yul\":3828:3841   */\n      dup3\n        /* \"#utility.yul\":3784:3847   */\n      tag_170\n      jump\t// in\n    tag_224:\n        /* \"#utility.yul\":3777:3847   */\n      swap8\n      pop\n        /* \"#utility.yul\":3870:3930   */\n      tag_225\n        /* \"#utility.yul\":3923:3929   */\n      dup4\n        /* \"#utility.yul\":3870:3930   */\n      tag_171\n      jump\t// in\n    tag_225:\n        /* \"#utility.yul\":3860:3930   */\n      swap3\n      pop\n        /* \"#utility.yul\":3716:3940   */\n      pop\n        /* \"#utility.yul\":3703:3704   */\n      0x01\n        /* \"#utility.yul\":3700:3701   */\n      dup2\n        /* \"#utility.yul\":3696:3705   */\n      add\n        /* \"#utility.yul\":3691:3705   */\n      swap1\n      pop\n        /* \"#utility.yul\":3656:3940   */\n      jump(tag_221)\n    tag_223:\n        /* \"#utility.yul\":3660:3674   */\n      pop\n        /* \"#utility.yul\":3956:3959   */\n      dup6\n        /* \"#utility.yul\":3949:3959   */\n      swap4\n      pop\n        /* \"#utility.yul\":3357:3965   */\n      pop\n      pop\n      pop\n        /* \"#utility.yul\":3233:3965   */\n      swap3\n      swap2\n      pop\n      pop\n      jump\t// out\n        /* \"#utility.yul\":3971:4605   */\n    tag_25:\n        /* \"#utility.yul\":4192:4196   */\n      0x00\n        /* \"#utility.yul\":4230:4232   */\n      0x40\n        /* \"#utility.yul\":4219:4228   */\n      dup3\n        /* \"#utility.yul\":4215:4233   */\n      add\n        /* \"#utility.yul\":4207:4233   */\n      swap1\n      pop\n        /* \"#utility.yul\":4279:4288   */\n      dup2\n        /* \"#utility.yul\":4273:4277   */\n      dup2\n        /* \"#utility.yul\":4269:4289   */\n      sub\n        /* \"#utility.yul\":4265:4266   */\n      0x00\n        /* \"#utility.yul\":4254:4263   */\n      dup4\n        /* \"#utility.yul\":4250:4267   */\n      add\n        /* \"#utility.yul\":4243:4290   */\n      mstore\n        /* \"#utility.yul\":4307:4415   */\n      tag_227\n        /* \"#utility.yul\":4410:4414   */\n      dup2\n        /* \"#utility.yul\":4401:4407   */\n      dup6\n        /* \"#utility.yul\":4307:4415   */\n      tag_172\n      jump\t// in\n    tag_227:\n        /* \"#utility.yul\":4299:4415   */\n      swap1\n      pop\n        /* \"#utility.yul\":4462:4471   */\n      dup2\n        /* \"#utility.yul\":4456:4460   */\n      dup2\n        /* \"#utility.yul\":4452:4472   */\n      sub\n        /* \"#utility.yul\":4447:4449   */\n      0x20\n        /* \"#utility.yul\":4436:4445   */\n      dup4\n        /* \"#utility.yul\":4432:4450   */\n      add\n        /* \"#utility.yul\":4425:4473   */\n      mstore\n        /* \"#utility.yul\":4490:4598   */\n      tag_228\n        /* \"#utility.yul\":4593:4597   */\n      dup2\n        /* \"#utility.yul\":4584:4590   */\n      dup5\n        /* \"#utility.yul\":4490:4598   */\n      tag_164\n      jump\t// in\n    tag_228:\n        /* \"#utility.yul\":4482:4598   */\n      swap1\n      pop\n        /* \"#utility.yul\":3971:4605   */\n      swap4\n      swap3\n      pop\n      pop\n      pop\n      jump\t// out\n        /* \"#utility.yul\":4692:4809   */\n    tag_174:\n        /* \"#utility.yul\":4801:4802   */\n      0x00\n        /* \"#utility.yul\":4798:4799   */\n      dup1\n        /* \"#utility.yul\":4791:4803   */\n      revert\n        /* \"#utility.yul\":4815:4932   */\n    tag_175:\n        /* \"#utility.yul\":4924:4925   */\n      0x00\n        /* \"#utility.yul\":4921:4922   */\n      dup1\n        /* \"#utility.yul\":4914:4926   */\n      revert\n        /* \"#utility.yul\":4938:5055   */\n    tag_176:\n        /* \"#utility.yul\":5047:5048   */\n      0x00\n        /* \"#utility.yul\":5044:5045   */\n      dup1\n        /* \"#utility.yul\":5037:5049   */\n      revert\n        /* \"#utility.yul\":5061:5178   */\n    tag_177:\n        /* \"#utility.yul\":5170:5171   */\n      0x00\n        /* \"#utility.yul\":5167:5168   */\n      dup1\n        /* \"#utility.yul\":5160:5172   */\n      revert\n        /* \"#utility.yul\":5184:5301   */\n    tag_178:\n        /* \"#utility.yul\":5293:5294   */\n      0x00\n        /* \"#utility.yul\":5290:5291   */\n      dup1\n        /* \"#utility.yul\":5283:5295   */\n      revert\n        /* \"#utility.yul\":5324:5892   */\n    tag_179:\n        /* \"#utility.yul\":5397:5405   */\n      0x00\n        /* \"#utility.yul\":5407:5413   */\n      dup1\n        /* \"#utility.yul\":5457:5460   */\n      dup4\n        /* \"#utility.yul\":5450:5454   */\n      0x1f\n        /* \"#utility.yul\":5442:5448   */\n      dup5\n        /* \"#utility.yul\":5438:5455   */\n      add\n        /* \"#utility.yul\":5434:5461   */\n      slt\n        /* \"#utility.yul\":5424:5546   */\n      tag_236\n      jumpi\n        /* \"#utility.yul\":5465:5544   */\n      tag_237\n      tag_176\n      jump\t// in\n    tag_237:\n        /* \"#utility.yul\":5424:5546   */\n    tag_236:\n        /* \"#utility.yul\":5578:5584   */\n      dup3\n        /* \"#utility.yul\":5565:5585   */\n      calldataload\n        /* \"#utility.yul\":5555:5585   */\n      swap1\n      pop\n        /* \"#utility.yul\":5608:5626   */\n      0xffffffffffffffff\n        /* \"#utility.yul\":5600:5606   */\n      dup2\n        /* \"#utility.yul\":5597:5627   */\n      gt\n        /* \"#utility.yul\":5594:5711   */\n      iszero\n      tag_238\n      jumpi\n        /* \"#utility.yul\":5630:5709   */\n      tag_239\n      tag_177\n      jump\t// in\n    tag_239:\n        /* \"#utility.yul\":5594:5711   */\n    tag_238:\n        /* \"#utility.yul\":5744:5748   */\n      0x20\n        /* \"#utility.yul\":5736:5742   */\n      dup4\n        /* \"#utility.yul\":5732:5749   */\n      add\n        /* \"#utility.yul\":5720:5749   */\n      swap2\n      pop\n        /* \"#utility.yul\":5798:5801   */\n      dup4\n        /* \"#utility.yul\":5790:5794   */\n      0x20\n        /* \"#utility.yul\":5782:5788   */\n      dup3\n        /* \"#utility.yul\":5778:5795   */\n      mul\n        /* \"#utility.yul\":5768:5776   */\n      dup4\n        /* \"#utility.yul\":5764:5796   */\n      add\n        /* \"#utility.yul\":5761:5802   */\n      gt\n        /* \"#utility.yul\":5758:5886   */\n      iszero\n      tag_240\n      jumpi\n        /* \"#utility.yul\":5805:5884   */\n      tag_241\n      tag_178\n      jump\t// in\n    tag_241:\n        /* \"#utility.yul\":5758:5886   */\n    tag_240:\n        /* \"#utility.yul\":5324:5892   */\n      swap3\n      pop\n      swap3\n      swap1\n      pop\n      jump\t// out\n        /* \"#utility.yul\":5898:6457   */\n    tag_28:\n        /* \"#utility.yul\":5984:5990   */\n      0x00\n        /* \"#utility.yul\":5992:5998   */\n      dup1\n        /* \"#utility.yul\":6041:6043   */\n      0x20\n        /* \"#utility.yul\":6029:6038   */\n      dup4\n        /* \"#utility.yul\":6020:6027   */\n      dup6\n        /* \"#utility.yul\":6016:6039   */\n      sub\n        /* \"#utility.yul\":6012:6044   */\n      slt\n        /* \"#utility.yul\":6009:6128   */\n      iszero\n      tag_243\n      jumpi\n        /* \"#utility.yul\":6047:6126   */\n      tag_244\n      tag_174\n      jump\t// in\n    tag_244:\n        /* \"#utility.yul\":6009:6128   */\n    tag_243:\n        /* \"#utility.yul\":6195:6196   */\n      0x00\n        /* \"#utility.yul\":6184:6193   */\n      dup4\n        /* \"#utility.yul\":6180:6197   */\n      add\n        /* \"#utility.yul\":6167:6198   */\n      calldataload\n        /* \"#utility.yul\":6225:6243   */\n      0xffffffffffffffff\n        /* \"#utility.yul\":6217:6223   */\n      dup2\n        /* \"#utility.yul\":6214:6244   */\n      gt\n        /* \"#utility.yul\":6211:6328   */\n      iszero\n      tag_245\n      jumpi\n        /* \"#utility.yul\":6247:6326   */\n      tag_246\n      tag_175\n      jump\t// in\n    tag_246:\n        /* \"#utility.yul\":6211:6328   */\n    tag_245:\n        /* \"#utility.yul\":6360:6440   */\n      tag_247\n        /* \"#utility.yul\":6432:6439   */\n      dup6\n        /* \"#utility.yul\":6423:6429   */\n      dup3\n        /* \"#utility.yul\":6412:6421   */\n      dup7\n        /* \"#utility.yul\":6408:6430   */\n      add\n        /* \"#utility.yul\":6360:6440   */\n      tag_179\n      jump\t// in\n    tag_247:\n        /* \"#utility.yul\":6342:6440   */\n      swap3\n      pop\n      swap3\n      pop\n        /* \"#utility.yul\":6138:6450   */\n      pop\n        /* \"#utility.yul\":5898:6457   */\n      swap3\n      pop\n      swap3\n      swap1\n      pop\n      jump\t// out\n        /* \"#utility.yul\":6463:6581   */\n    tag_180:\n        /* \"#utility.yul\":6550:6574   */\n      tag_249\n        /* \"#utility.yul\":6568:6573   */\n      dup2\n        /* \"#utility.yul\":6550:6574   */\n      tag_168\n      jump\t// in\n    tag_249:\n        /* \"#utility.yul\":6545:6548   */\n      dup3\n        /* \"#utility.yul\":6538:6575   */\n      mstore\n        /* \"#utility.yul\":6463:6581   */\n      pop\n      pop\n      jump\t// out\n        /* \"#utility.yul\":6587:6809   */\n    tag_31:\n        /* \"#utility.yul\":6680:6684   */\n      0x00\n        /* \"#utility.yul\":6718:6720   */\n      0x20\n        /* \"#utility.yul\":6707:6716   */\n      dup3\n        /* \"#utility.yul\":6703:6721   */\n      add\n        /* \"#utility.yul\":6695:6721   */\n      swap1\n      pop\n        /* \"#utility.yul\":6731:6802   */\n      tag_251\n        /* \"#utility.yul\":6799:6800   */\n      0x00\n        /* \"#utility.yul\":6788:6797   */\n      dup4\n        /* \"#utility.yul\":6784:6801   */\n      add\n        /* \"#utility.yul\":6775:6781   */\n      dup5\n        /* \"#utility.yul\":6731:6802   */\n      tag_180\n      jump\t// in\n    tag_251:\n        /* \"#utility.yul\":6587:6809   */\n      swap3\n      swap2\n      pop\n      pop\n      jump\t// out\n        /* \"#utility.yul\":6815:7188   */\n    tag_35:\n        /* \"#utility.yul\":6958:6962   */\n      0x00\n        /* \"#utility.yul\":6996:6998   */\n      0x20\n        /* \"#utility.yul\":6985:6994   */\n      dup3\n        /* \"#utility.yul\":6981:6999   */\n      add\n        /* \"#utility.yul\":6973:6999   */\n      swap1\n      pop\n        /* \"#utility.yul\":7045:7054   */\n      dup2\n        /* \"#utility.yul\":7039:7043   */\n      dup2\n        /* \"#utility.yul\":7035:7055   */\n      sub\n        /* \"#utility.yul\":7031:7032   */\n      0x00\n        /* \"#utility.yul\":7020:7029   */\n      dup4\n        /* \"#utility.yul\":7016:7033   */\n      add\n        /* \"#utility.yul\":7009:7056   */\n      mstore\n        /* \"#utility.yul\":7073:7181   */\n      tag_253\n        /* \"#utility.yul\":7176:7180   */\n      dup2\n        /* \"#utility.yul\":7167:7173   */\n      dup5\n        /* \"#utility.yul\":7073:7181   */\n      tag_172\n      jump\t// in\n    tag_253:\n        /* \"#utility.yul\":7065:7181   */\n      swap1\n      pop\n        /* \"#utility.yul\":6815:7188   */\n      swap3\n      swap2\n      pop\n      pop\n      jump\t// out\n        /* \"#utility.yul\":7194:7316   */\n    tag_181:\n        /* \"#utility.yul\":7267:7291   */\n      tag_255\n        /* \"#utility.yul\":7285:7290   */\n      dup2\n        /* \"#utility.yul\":7267:7291   */\n      tag_168\n      jump\t// in\n    tag_255:\n        /* \"#utility.yul\":7260:7265   */\n      dup2\n        /* \"#utility.yul\":7257:7292   */\n      eq\n        /* \"#utility.yul\":7247:7310   */\n      tag_256\n      jumpi\n        /* \"#utility.yul\":7306:7307   */\n      0x00\n        /* \"#utility.yul\":7303:7304   */\n      dup1\n        /* \"#utility.yul\":7296:7308   */\n      revert\n        /* \"#utility.yul\":7247:7310   */\n    tag_256:\n        /* \"#utility.yul\":7194:7316   */\n      pop\n      jump\t// out\n        /* \"#utility.yul\":7322:7461   */\n    tag_182:\n        /* \"#utility.yul\":7368:7373   */\n      0x00\n        /* \"#utility.yul\":7406:7412   */\n      dup2\n        /* \"#utility.yul\":7393:7413   */\n      calldataload\n        /* \"#utility.yul\":7384:7413   */\n      swap1\n      pop\n        /* \"#utility.yul\":7422:7455   */\n      tag_258\n        /* \"#utility.yul\":7449:7454   */\n      dup2\n        /* \"#utility.yul\":7422:7455   */\n      tag_181\n      jump\t// in\n    tag_258:\n        /* \"#utility.yul\":7322:7461   */\n      swap3\n      swap2\n      pop\n      pop\n      jump\t// out\n        /* \"#utility.yul\":7467:7796   */\n    tag_43:\n        /* \"#utility.yul\":7526:7532   */\n      0x00\n        /* \"#utility.yul\":7575:7577   */\n      0x20\n        /* \"#utility.yul\":7563:7572   */\n      dup3\n        /* \"#utility.yul\":7554:7561   */\n      dup5\n        /* \"#utility.yul\":7550:7573   */\n      sub\n        /* \"#utility.yul\":7546:7578   */\n      slt\n        /* \"#utility.yul\":7543:7662   */\n      iszero\n      tag_260\n      jumpi\n        /* \"#utility.yul\":7581:7660   */\n      tag_261\n      tag_174\n      jump\t// in\n    tag_261:\n        /* \"#utility.yul\":7543:7662   */\n    tag_260:\n        /* \"#utility.yul\":7701:7702   */\n      0x00\n        /* \"#utility.yul\":7726:7779   */\n      tag_262\n        /* \"#utility.yul\":7771:7778   */\n      dup5\n        /* \"#utility.yul\":7762:7768   */\n      dup3\n        /* \"#utility.yul\":7751:7760   */\n      dup6\n        /* \"#utility.yul\":7747:7769   */\n      add\n        /* \"#utility.yul\":7726:7779   */\n      tag_182\n      jump\t// in\n    tag_262:\n        /* \"#utility.yul\":7716:7779   */\n      swap2\n      pop\n        /* \"#utility.yul\":7672:7789   */\n      pop\n        /* \"#utility.yul\":7467:7796   */\n      swap3\n      swap2\n      pop\n      pop\n      jump\t// out\n        /* \"#utility.yul\":7802:7920   */\n    tag_183:\n        /* \"#utility.yul\":7889:7913   */\n      tag_264\n        /* \"#utility.yul\":7907:7912   */\n      dup2\n        /* \"#utility.yul\":7889:7913   */\n      tag_160\n      jump\t// in\n    tag_264:\n        /* \"#utility.yul\":7884:7887   */\n      dup3\n        /* \"#utility.yul\":7877:7914   */\n      mstore\n        /* \"#utility.yul\":7802:7920   */\n      pop\n      pop\n      jump\t// out\n        /* \"#utility.yul\":7926:8148   */\n    tag_50:\n        /* \"#utility.yul\":8019:8023   */\n      0x00\n        /* \"#utility.yul\":8057:8059   */\n      0x20\n        /* \"#utility.yul\":8046:8055   */\n      dup3\n        /* \"#utility.yul\":8042:8060   */\n      add\n        /* \"#utility.yul\":8034:8060   */\n      swap1\n      pop\n        /* \"#utility.yul\":8070:8141   */\n      tag_266\n        /* \"#utility.yul\":8138:8139   */\n      0x00\n        /* \"#utility.yul\":8127:8136   */\n      dup4\n        /* \"#utility.yul\":8123:8140   */\n      add\n        /* \"#utility.yul\":8114:8120   */\n      dup5\n        /* \"#utility.yul\":8070:8141   */\n      tag_183\n      jump\t// in\n    tag_266:\n        /* \"#utility.yul\":7926:8148   */\n      swap3\n      swap2\n      pop\n      pop\n      jump\t// out\n        /* \"#utility.yul\":8154:8334   */\n    tag_74:\n        /* \"#utility.yul\":8202:8279   */\n      0x4e487b7100000000000000000000000000000000000000000000000000000000\n        /* \"#utility.yul\":8199:8200   */\n      0x00\n        /* \"#utility.yul\":8192:8280   */\n      mstore\n        /* \"#utility.yul\":8299:8303   */\n      0x41\n        /* \"#utility.yul\":8296:8297   */\n      0x04\n        /* \"#utility.yul\":8289:8304   */\n      mstore\n        /* \"#utility.yul\":8323:8327   */\n      0x24\n        /* \"#utility.yul\":8320:8321   */\n      0x00\n        /* \"#utility.yul\":8313:8328   */\n      revert\n        /* \"#utility.yul\":8340:8520   */\n    tag_84:\n        /* \"#utility.yul\":8388:8465   */\n      0x4e487b7100000000000000000000000000000000000000000000000000000000\n        /* \"#utility.yul\":8385:8386   */\n      0x00\n        /* \"#utility.yul\":8378:8466   */\n      mstore\n        /* \"#utility.yul\":8485:8489   */\n      0x32\n        /* \"#utility.yul\":8482:8483   */\n      0x04\n        /* \"#utility.yul\":8475:8490   */\n      mstore\n        /* \"#utility.yul\":8509:8513   */\n      0x24\n        /* \"#utility.yul\":8506:8507   */\n      0x00\n        /* \"#utility.yul\":8499:8514   */\n      revert\n        /* \"#utility.yul\":8526:8706   */\n    tag_184:\n        /* \"#utility.yul\":8574:8651   */\n      0x4e487b7100000000000000000000000000000000000000000000000000000000\n        /* \"#utility.yul\":8571:8572   */\n      0x00\n        /* \"#utility.yul\":8564:8652   */\n      mstore\n        /* \"#utility.yul\":8671:8675   */\n      0x11\n        /* \"#utility.yul\":8668:8669   */\n      0x04\n        /* \"#utility.yul\":8661:8676   */\n      mstore\n        /* \"#utility.yul\":8695:8699   */\n      0x24\n        /* \"#utility.yul\":8692:8693   */\n      0x00\n        /* \"#utility.yul\":8685:8700   */\n      revert\n        /* \"#utility.yul\":8712:8945   */\n    tag_98:\n        /* \"#utility.yul\":8751:8754   */\n      0x00\n        /* \"#utility.yul\":8774:8798   */\n      tag_271\n        /* \"#utility.yul\":8792:8797   */\n      dup3\n        /* \"#utility.yul\":8774:8798   */\n      tag_168\n      jump\t// in\n    tag_271:\n        /* \"#utility.yul\":8765:8798   */\n      swap2\n      pop\n        /* \"#utility.yul\":8820:8886   */\n      0xffffffffffffffffffffffffffffffffffffffffffffffffffffffffffffffff\n        /* \"#utility.yul\":8813:8818   */\n      dup3\n        /* \"#utility.yul\":8810:8887   */\n      sub\n        /* \"#utility.yul\":8807:8910   */\n      tag_272\n      jumpi\n        /* \"#utility.yul\":8890:8908   */\n      tag_273\n      tag_184\n      jump\t// in\n    tag_273:\n        /* \"#utility.yul\":8807:8910   */\n    tag_272:\n        /* \"#utility.yul\":8937:8938   */\n      0x01\n        /* \"#utility.yul\":8930:8935   */\n      dup3\n        /* \"#utility.yul\":8926:8939   */\n      add\n        /* \"#utility.yul\":8919:8939   */\n      swap1\n      pop\n        /* \"#utility.yul\":8712:8945   */\n      swap2\n      swap1\n      pop\n      jump\t// out\n\n    auxdata: 0xa2646970667358221220dd40963125ddcedb88ad93b07b95373235fbff61b79256d427ddcc0fe3314dc764736f6c63430008120033\n}\n",
				"bytecode": {
					"linkReferences": {},
					"object": "6080604052604051806101400160405280600160ff168152602001600260ff168152602001600360ff168152602001600460ff168152602001600560ff168152602001600660ff168152602001600760ff168152602001600860ff168152602001600960ff168152602001600a60ff16815250600090600a610082929190610095565b5034801561008f57600080fd5b50610104565b8280548282559060005260206000209081019282156100d6579160200282015b828111156100d5578251829060ff169055916020019190600101906100b5565b5b5090506100e391906100e7565b5090565b5b808211156101005760008160009055506001016100e8565b5090565b610d95806101136000396000f3fe608060405234801561001057600080fd5b50600436106100cf5760003560e01c80638bc33af31161008c578063ade82bfd11610066578063ade82bfd14610203578063b1cebac51461020d578063d39fa23314610217578063fce6802314610247576100cf565b80638bc33af3146101875780639977c78a146101b7578063a00b7acd146101e7576100cf565b8063128e0423146100d457806320aaf79a146100f25780634f9377db1461011157806359abbfe4146101415780637f66b1b81461015f57806389f915f614610169575b600080fd5b6100dc610277565b6040516100e991906109de565b60405180910390f35b6100fa610305565b604051610108929190610ac8565b60405180910390f35b61012b60048036038101906101269190610b6e565b6104df565b6040516101389190610bca565b60405180910390f35b610149610556565b6040516101569190610be5565b60405180910390f35b6101676105ae565b005b6101716105be565b60405161017e9190610be5565b60405180910390f35b6101a1600480360381019061019c9190610c33565b610616565b6040516101ae9190610bca565b60405180910390f35b6101d160048036038101906101cc9190610c33565b61063a565b6040516101de9190610c6f565b60405180910390f35b61020160048036038101906101fc9190610c33565b610679565b005b61020b610708565b005b610215610718565b005b610231600480360381019061022c9190610c33565b610788565b60405161023e9190610bca565b60405180910390f35b610261600480360381019061025c9190610c33565b6107ac565b60405161026e9190610bca565b60405180910390f35b606060018054806020026020016040519081016040528092919081815260200182805480156102fb57602002820191906000526020600020905b8160009054906101000a900473ffffffffffffffffffffffffffffffffffffffff1673ffffffffffffffffffffffffffffffffffffffff16815260200190600101908083116102b1575b5050505050905090565b606080600063386d89d09050600061031c826107e3565b90508067ffffffffffffffff81111561033857610337610c8a565b5b6040519080825280602002602001820160405280156103665781602001602082028036833780820191505090505b5093508067ffffffffffffffff81111561038357610382610c8a565b5b6040519080825280602002602001820160405280156103b15781602001602082028036833780820191505090505b5092506000805b6002805490508110156104d75783600282815481106103da576103d9610cb9565b5b906000526020600020015411156104c457600281815481106103ff576103fe610cb9565b5b906000526020600020015486838151811061041d5761041c610cb9565b5b6020026020010181815250506001818154811061043d5761043c610cb9565b5b9060005260206000200160009054906101000a900473ffffffffffffffffffffffffffffffffffffffff1685838151811061047b5761047a610cb9565b5b602002602001019073ffffffffffffffffffffffffffffffffffffffff16908173ffffffffffffffffffffffffffffffffffffffff168152505081806104c090610d17565b9250505b80806104cf90610d17565b9150506103b8565b505050509091565b600080600090505b8383905081101561054757600084848381811061050757610506610cb9565b5b905060200201359080600181540180825580915050600190039060005260206000200160009091909190915055808061053f90610d17565b9150506104e7565b50600080549050905092915050565b606060028054806020026020016040519081016040528092919081815260200182805480156105a457602002820191906000526020600020905b815481526020019060010190808311610590575b5050505050905090565b600160006105bc9190610842565b565b6060600080548060200260200160405190810160405280929190818152602001828054801561060c57602002820191906000526020600020905b8154815260200190600101908083116105f8575b5050505050905090565b6002818154811061062657600080fd5b906000526020600020016000915090505481565b6001818154811061064a57600080fd5b906000526020600020016000915054906101000a900473ffffffffffffffffffffffffffffffffffffffff1681565b6001339080600181540180825580915050600190039060005260206000200160009091909190916101000a81548173ffffffffffffffffffffffffffffffffffffffff021916908373ffffffffffffffffffffffffffffffffffffffff160217905550600281908060018154018082558091505060019003906000526020600020016000909190919091505550565b600260006107169190610863565b565b6000806107259190610863565b604051806101400160405280600181526020016002815260200160038152602001600481526020016005815260200160068152602001600781526020016008815260200160098152602001600a815250600090600a610785929190610884565b50565b6000818154811061079857600080fd5b906000526020600020016000915090505481565b6000808290806001815401808255809150506001900390600052602060002001600090919091909150556000805490509050919050565b6000805b60028054905081101561083c57826002828154811061080957610808610cb9565b5b9060005260206000200154111561082957818061082590610d17565b9250505b808061083490610d17565b9150506107e7565b50919050565b508054600082559060005260206000209081019061086091906108d1565b50565b508054600082559060005260206000209081019061088191906108d1565b50565b8280548282559060005260206000209081019282156108c0579160200282015b828111156108bf5782518255916020019190600101906108a4565b5b5090506108cd91906108d1565b5090565b5b808211156108ea5760008160009055506001016108d2565b5090565b600081519050919050565b600082825260208201905092915050565b6000819050602082019050919050565b600073ffffffffffffffffffffffffffffffffffffffff82169050919050565b60006109458261091a565b9050919050565b6109558161093a565b82525050565b6000610967838361094c565b60208301905092915050565b6000602082019050919050565b600061098b826108ee565b61099581856108f9565b93506109a08361090a565b8060005b838110156109d15781516109b8888261095b565b97506109c383610973565b9250506001810190506109a4565b5085935050505092915050565b600060208201905081810360008301526109f88184610980565b905092915050565b600081519050919050565b600082825260208201905092915050565b6000819050602082019050919050565b6000819050919050565b610a3f81610a2c565b82525050565b6000610a518383610a36565b60208301905092915050565b6000602082019050919050565b6000610a7582610a00565b610a7f8185610a0b565b9350610a8a83610a1c565b8060005b83811015610abb578151610aa28882610a45565b9750610aad83610a5d565b925050600181019050610a8e565b5085935050505092915050565b60006040820190508181036000830152610ae28185610a6a565b90508181036020830152610af68184610980565b90509392505050565b600080fd5b600080fd5b600080fd5b600080fd5b600080fd5b60008083601f840112610b2e57610b2d610b09565b5b8235905067ffffffffffffffff811115610b4b57610b4a610b0e565b5b602083019150836020820283011115610b6757610b66610b13565b5b9250929050565b60008060208385031215610b8557610b84610aff565b5b600083013567ffffffffffffffff811115610ba357610ba2610b04565b5b610baf85828601610b18565b92509250509250929050565b610bc481610a2c565b82525050565b6000602082019050610bdf6000830184610bbb565b92915050565b60006020820190508181036000830152610bff8184610a6a565b905092915050565b610c1081610a2c565b8114610c1b57600080fd5b50565b600081359050610c2d81610c07565b92915050565b600060208284031215610c4957610c48610aff565b5b6000610c5784828501610c1e565b91505092915050565b610c698161093a565b82525050565b6000602082019050610c846000830184610c60565b92915050565b7f4e487b7100000000000000000000000000000000000000000000000000000000600052604160045260246000fd5b7f4e487b7100000000000000000000000000000000000000000000000000000000600052603260045260246000fd5b7f4e487b7100000000000000000000000000000000000000000000000000000000600052601160045260246000fd5b6000610d2282610a2c565b91507fffffffffffffffffffffffffffffffffffffffffffffffffffffffffffffffff8203610d5457610d53610ce8565b5b60018201905091905056fea2646970667358221220dd40963125ddcedb88ad93b07b95373235fbff61b79256d427ddcc0fe3314dc764736f6c63430008120033",
					"opcodes": "PUSH1 0x80 PUSH1 0x40 MSTORE PUSH1 0x40 MLOAD DUP1 PUSH2 0x140 ADD PUSH1 0x40 MSTORE DUP1 PUSH1 0x1 PUSH1 0xFF AND DUP2 MSTORE PUSH1 0x20 ADD PUSH1 0x2 PUSH1 0xFF AND DUP2 MSTORE PUSH1 0x20 ADD PUSH1 0x3 PUSH1 0xFF AND DUP2 MSTORE PUSH1 0x20 ADD PUSH1 0x4 PUSH1 0xFF AND DUP2 MSTORE PUSH1 0x20 ADD PUSH1 0x5 PUSH1 0xFF AND DUP2 MSTORE PUSH1 0x20 ADD PUSH1 0x6 PUSH1 0xFF AND DUP2 MSTORE PUSH1 0x20 ADD PUSH1 0x7 PUSH1 0xFF AND DUP2 MSTORE PUSH1 0x20 ADD PUSH1 0x8 PUSH1 0xFF AND DUP2 MSTORE PUSH1 0x20 ADD PUSH1 0x9 PUSH1 0xFF AND DUP2 MSTORE PUSH1 0x20 ADD PUSH1 0xA PUSH1 0xFF AND DUP2 MSTORE POP PUSH1 0x0 SWAP1 PUSH1 0xA PUSH2 0x82 SWAP3 SWAP2 SWAP1 PUSH2 0x95 JUMP JUMPDEST POP CALLVALUE DUP1 ISZERO PUSH2 0x8F JUMPI PUSH1 0x0 DUP1 REVERT JUMPDEST POP PUSH2 0x104 JUMP JUMPDEST DUP3 DUP1 SLOAD DUP3 DUP3 SSTORE SWAP1 PUSH1 0x0 MSTORE PUSH1 0x20 PUSH1 0x0 KECCAK256 SWAP1 DUP2 ADD SWAP3 DUP3 ISZERO PUSH2 0xD6 JUMPI SWAP2 PUSH1 0x20 MUL DUP3 ADD JUMPDEST DUP3 DUP2 GT ISZERO PUSH2 0xD5 JUMPI DUP3 MLOAD DUP3 SWAP1 PUSH1 0xFF AND SWAP1 SSTORE SWAP2 PUSH1 0x20 ADD SWAP2 SWAP1 PUSH1 0x1 ADD SWAP1 PUSH2 0xB5 JUMP JUMPDEST JUMPDEST POP SWAP1 POP PUSH2 0xE3 SWAP2 SWAP1 PUSH2 0xE7 JUMP JUMPDEST POP SWAP1 JUMP JUMPDEST JUMPDEST DUP1 DUP3 GT ISZERO PUSH2 0x100 JUMPI PUSH1 0x0 DUP2 PUSH1 0x0 SWAP1 SSTORE POP PUSH1 0x1 ADD PUSH2 0xE8 JUMP JUMPDEST POP SWAP1 JUMP JUMPDEST PUSH2 0xD95 DUP1 PUSH2 0x113 PUSH1 0x0 CODECOPY PUSH1 0x0 RETURN INVALID PUSH1 0x80 PUSH1 0x40 MSTORE CALLVALUE DUP1 ISZERO PUSH2 0x10 JUMPI PUSH1 0x0 DUP1 REVERT JUMPDEST POP PUSH1 0x4 CALLDATASIZE LT PUSH2 0xCF JUMPI PUSH1 0x0 CALLDATALOAD PUSH1 0xE0 SHR DUP1 PUSH4 0x8BC33AF3 GT PUSH2 0x8C JUMPI DUP1 PUSH4 0xADE82BFD GT PUSH2 0x66 JUMPI DUP1 PUSH4 0xADE82BFD EQ PUSH2 0x203 JUMPI DUP1 PUSH4 0xB1CEBAC5 EQ PUSH2 0x20D JUMPI DUP1 PUSH4 0xD39FA233 EQ PUSH2 0x217 JUMPI DUP1 PUSH4 0xFCE68023 EQ PUSH2 0x247 JUMPI PUSH2 0xCF JUMP JUMPDEST DUP1 PUSH4 0x8BC33AF3 EQ PUSH2 0x187 JUMPI DUP1 PUSH4 0x9977C78A EQ PUSH2 0x1B7 JUMPI DUP1 PUSH4 0xA00B7ACD EQ PUSH2 0x1E7 JUMPI PUSH2 0xCF JUMP JUMPDEST DUP1 PUSH4 0x128E0423 EQ PUSH2 0xD4 JUMPI DUP1 PUSH4 0x20AAF79A EQ PUSH2 0xF2 JUMPI DUP1 PUSH4 0x4F9377DB EQ PUSH2 0x111 JUMPI DUP1 PUSH4 0x59ABBFE4 EQ PUSH2 0x141 JUMPI DUP1 PUSH4 0x7F66B1B8 EQ PUSH2 0x15F JUMPI DUP1 PUSH4 0x89F915F6 EQ PUSH2 0x169 JUMPI JUMPDEST PUSH1 0x0 DUP1 REVERT JUMPDEST PUSH2 0xDC PUSH2 0x277 JUMP JUMPDEST PUSH1 0x40 MLOAD PUSH2 0xE9 SWAP2 SWAP1 PUSH2 0x9DE JUMP JUMPDEST PUSH1 0x40 MLOAD DUP1 SWAP2 SUB SWAP1 RETURN JUMPDEST PUSH2 0xFA PUSH2 0x305 JUMP JUMPDEST PUSH1 0x40 MLOAD PUSH2 0x108 SWAP3 SWAP2 SWAP1 PUSH2 0xAC8 JUMP JUMPDEST PUSH1 0x40 MLOAD DUP1 SWAP2 SUB SWAP1 RETURN JUMPDEST PUSH2 0x12B PUSH1 0x4 DUP1 CALLDATASIZE SUB DUP2 ADD SWAP1 PUSH2 0x126 SWAP2 SWAP1 PUSH2 0xB6E JUMP JUMPDEST PUSH2 0x4DF JUMP JUMPDEST PUSH1 0x40 MLOAD PUSH2 0x138 SWAP2 SWAP1 PUSH2 0xBCA JUMP JUMPDEST PUSH1 0x40 MLOAD DUP1 SWAP2 SUB SWAP1 RETURN JUMPDEST PUSH2 0x149 PUSH2 0x556 JUMP JUMPDEST PUSH1 0x40 MLOAD PUSH2 0x156 SWAP2 SWAP1 PUSH2 0xBE5 JUMP JUMPDEST PUSH1 0x40 MLOAD DUP1 SWAP2 SUB SWAP1 RETURN JUMPDEST PUSH2 0x167 PUSH2 0x5AE JUMP JUMPDEST STOP JUMPDEST PUSH2 0x171 PUSH2 0x5BE JUMP JUMPDEST PUSH1 0x40 MLOAD PUSH2 0x17E SWAP2 SWAP1 PUSH2 0xBE5 JUMP JUMPDEST PUSH1 0x40 MLOAD DUP1 SWAP2 SUB SWAP1 RETURN JUMPDEST PUSH2 0x1A1 PUSH1 0x4 DUP1 CALLDATASIZE SUB DUP2 ADD SWAP1 PUSH2 0x19C SWAP2 SWAP1 PUSH2 0xC33 JUMP JUMPDEST PUSH2 0x616 JUMP JUMPDEST PUSH1 0x40 MLOAD PUSH2 0x1AE SWAP2 SWAP1 PUSH2 0xBCA JUMP JUMPDEST PUSH1 0x40 MLOAD DUP1 SWAP2 SUB SWAP1 RETURN JUMPDEST PUSH2 0x1D1 PUSH1 0x4 DUP1 CALLDATASIZE SUB DUP2 ADD SWAP1 PUSH2 0x1CC SWAP2 SWAP1 PUSH2 0xC33 JUMP JUMPDEST PUSH2 0x63A JUMP JUMPDEST PUSH1 0x40 MLOAD PUSH2 0x1DE SWAP2 SWAP1 PUSH2 0xC6F JUMP JUMPDEST PUSH1 0x40 MLOAD DUP1 SWAP2 SUB SWAP1 RETURN JUMPDEST PUSH2 0x201 PUSH1 0x4 DUP1 CALLDATASIZE SUB DUP2 ADD SWAP1 PUSH2 0x1FC SWAP2 SWAP1 PUSH2 0xC33 JUMP JUMPDEST PUSH2 0x679 JUMP JUMPDEST STOP JUMPDEST PUSH2 0x20B PUSH2 0x708 JUMP JUMPDEST STOP JUMPDEST PUSH2 0x215 PUSH2 0x718 JUMP JUMPDEST STOP JUMPDEST PUSH2 0x231 PUSH1 0x4 DUP1 CALLDATASIZE SUB DUP2 ADD SWAP1 PUSH2 0x22C SWAP2 SWAP1 PUSH2 0xC33 JUMP JUMPDEST PUSH2 0x788 JUMP JUMPDEST PUSH1 0x40 MLOAD PUSH2 0x23E SWAP2 SWAP1 PUSH2 0xBCA JUMP JUMPDEST PUSH1 0x40 MLOAD DUP1 SWAP2 SUB SWAP1 RETURN JUMPDEST PUSH2 0x261 PUSH1 0x4 DUP1 CALLDATASIZE SUB DUP2 ADD SWAP1 PUSH2 0x25C SWAP2 SWAP1 PUSH2 0xC33 JUMP JUMPDEST PUSH2 0x7AC JUMP JUMPDEST PUSH1 0x40 MLOAD PUSH2 0x26E SWAP2 SWAP1 PUSH2 0xBCA JUMP JUMPDEST PUSH1 0x40 MLOAD DUP1 SWAP2 SUB SWAP1 RETURN JUMPDEST PUSH1 0x60 PUSH1 0x1 DUP1 SLOAD DUP1 PUSH1 0x20 MUL PUSH1 0x20 ADD PUSH1 0x40 MLOAD SWAP1 DUP2 ADD PUSH1 0x40 MSTORE DUP1 SWAP3 SWAP2 SWAP1 DUP2 DUP2 MSTORE PUSH1 0x20 ADD DUP3 DUP1 SLOAD DUP1 ISZERO PUSH2 0x2FB JUMPI PUSH1 0x20 MUL DUP3 ADD SWAP2 SWAP1 PUSH1 0x0 MSTORE PUSH1 0x20 PUSH1 0x0 KECCAK256 SWAP1 JUMPDEST DUP2 PUSH1 0x0 SWAP1 SLOAD SWAP1 PUSH2 0x100 EXP SWAP1 DIV PUSH20 0xFFFFFFFFFFFFFFFFFFFFFFFFFFFFFFFFFFFFFFFF AND PUSH20 0xFFFFFFFFFFFFFFFFFFFFFFFFFFFFFFFFFFFFFFFF AND DUP2 MSTORE PUSH1 0x20 ADD SWAP1 PUSH1 0x1 ADD SWAP1 DUP1 DUP4 GT PUSH2 0x2B1 JUMPI JUMPDEST POP POP POP POP POP SWAP1 POP SWAP1 JUMP JUMPDEST PUSH1 0x60 DUP1 PUSH1 0x0 PUSH4 0x386D89D0 SWAP1 POP PUSH1 0x0 PUSH2 0x31C DUP3 PUSH2 0x7E3 JUMP JUMPDEST SWAP1 POP DUP1 PUSH8 0xFFFFFFFFFFFFFFFF DUP2 GT ISZERO PUSH2 0x338 JUMPI PUSH2 0x337 PUSH2 0xC8A JUMP JUMPDEST JUMPDEST PUSH1 0x40 MLOAD SWAP1 DUP1 DUP3 MSTORE DUP1 PUSH1 0x20 MUL PUSH1 0x20 ADD DUP3 ADD PUSH1 0x40 MSTORE DUP1 ISZERO PUSH2 0x366 JUMPI DUP2 PUSH1 0x20 ADD PUSH1 0x20 DUP3 MUL DUP1 CALLDATASIZE DUP4 CALLDATACOPY DUP1 DUP3 ADD SWAP2 POP POP SWAP1 POP JUMPDEST POP SWAP4 POP DUP1 PUSH8 0xFFFFFFFFFFFFFFFF DUP2 GT ISZERO PUSH2 0x383 JUMPI PUSH2 0x382 PUSH2 0xC8A JUMP JUMPDEST JUMPDEST PUSH1 0x40 MLOAD SWAP1 DUP1 DUP3 MSTORE DUP1 PUSH1 0x20 MUL PUSH1 0x20 ADD DUP3 ADD PUSH1 0x40 MSTORE DUP1 ISZERO PUSH2 0x3B1 JUMPI DUP2 PUSH1 0x20 ADD PUSH1 0x20 DUP3 MUL DUP1 CALLDATASIZE DUP4 CALLDATACOPY DUP1 DUP3 ADD SWAP2 POP POP SWAP1 POP JUMPDEST POP SWAP3 POP PUSH1 0x0 DUP1 JUMPDEST PUSH1 0x2 DUP1 SLOAD SWAP1 POP DUP2 LT ISZERO PUSH2 0x4D7 JUMPI DUP4 PUSH1 0x2 DUP3 DUP2 SLOAD DUP2 LT PUSH2 0x3DA JUMPI PUSH2 0x3D9 PUSH2 0xCB9 JUMP JUMPDEST JUMPDEST SWAP1 PUSH1 0x0 MSTORE PUSH1 0x20 PUSH1 0x0 KECCAK256 ADD SLOAD GT ISZERO PUSH2 0x4C4 JUMPI PUSH1 0x2 DUP2 DUP2 SLOAD DUP2 LT PUSH2 0x3FF JUMPI PUSH2 0x3FE PUSH2 0xCB9 JUMP JUMPDEST JUMPDEST SWAP1 PUSH1 0x0 MSTORE PUSH1 0x20 PUSH1 0x0 KECCAK256 ADD SLOAD DUP7 DUP4 DUP2 MLOAD DUP2 LT PUSH2 0x41D JUMPI PUSH2 0x41C PUSH2 0xCB9 JUMP JUMPDEST JUMPDEST PUSH1 0x20 MUL PUSH1 0x20 ADD ADD DUP2 DUP2 MSTORE POP POP PUSH1 0x1 DUP2 DUP2 SLOAD DUP2 LT PUSH2 0x43D JUMPI PUSH2 0x43C PUSH2 0xCB9 JUMP JUMPDEST JUMPDEST SWAP1 PUSH1 0x0 MSTORE PUSH1 0x20 PUSH1 0x0 KECCAK256 ADD PUSH1 0x0 SWAP1 SLOAD SWAP1 PUSH2 0x100 EXP SWAP1 DIV PUSH20 0xFFFFFFFFFFFFFFFFFFFFFFFFFFFFFFFFFFFFFFFF AND DUP6 DUP4 DUP2 MLOAD DUP2 LT PUSH2 0x47B JUMPI PUSH2 0x47A PUSH2 0xCB9 JUMP JUMPDEST JUMPDEST PUSH1 0x20 MUL PUSH1 0x20 ADD ADD SWAP1 PUSH20 0xFFFFFFFFFFFFFFFFFFFFFFFFFFFFFFFFFFFFFFFF AND SWAP1 DUP2 PUSH20 0xFFFFFFFFFFFFFFFFFFFFFFFFFFFFFFFFFFFFFFFF AND DUP2 MSTORE POP POP DUP2 DUP1 PUSH2 0x4C0 SWAP1 PUSH2 0xD17 JUMP JUMPDEST SWAP3 POP POP JUMPDEST DUP1 DUP1 PUSH2 0x4CF SWAP1 PUSH2 0xD17 JUMP JUMPDEST SWAP2 POP POP PUSH2 0x3B8 JUMP JUMPDEST POP POP POP POP SWAP1 SWAP2 JUMP JUMPDEST PUSH1 0x0 DUP1 PUSH1 0x0 SWAP1 POP JUMPDEST DUP4 DUP4 SWAP1 POP DUP2 LT ISZERO PUSH2 0x547 JUMPI PUSH1 0x0 DUP5 DUP5 DUP4 DUP2 DUP2 LT PUSH2 0x507 JUMPI PUSH2 0x506 PUSH2 0xCB9 JUMP JUMPDEST JUMPDEST SWAP1 POP PUSH1 0x20 MUL ADD CALLDATALOAD SWAP1 DUP1 PUSH1 0x1 DUP2 SLOAD ADD DUP1 DUP3 SSTORE DUP1 SWAP2 POP POP PUSH1 0x1 SWAP1 SUB SWAP1 PUSH1 0x0 MSTORE PUSH1 0x20 PUSH1 0x0 KECCAK256 ADD PUSH1 0x0 SWAP1 SWAP2 SWAP1 SWAP2 SWAP1 SWAP2 POP SSTORE DUP1 DUP1 PUSH2 0x53F SWAP1 PUSH2 0xD17 JUMP JUMPDEST SWAP2 POP POP PUSH2 0x4E7 JUMP JUMPDEST POP PUSH1 0x0 DUP1 SLOAD SWAP1 POP SWAP1 POP SWAP3 SWAP2 POP POP JUMP JUMPDEST PUSH1 0x60 PUSH1 0x2 DUP1 SLOAD DUP1 PUSH1 0x20 MUL PUSH1 0x20 ADD PUSH1 0x40 MLOAD SWAP1 DUP2 ADD PUSH1 0x40 MSTORE DUP1 SWAP3 SWAP2 SWAP1 DUP2 DUP2 MSTORE PUSH1 0x20 ADD DUP3 DUP1 SLOAD DUP1 ISZERO PUSH2 0x5A4 JUMPI PUSH1 0x20 MUL DUP3 ADD SWAP2 SWAP1 PUSH1 0x0 MSTORE PUSH1 0x20 PUSH1 0x0 KECCAK256 SWAP1 JUMPDEST DUP2 SLOAD DUP2 MSTORE PUSH1 0x20 ADD SWAP1 PUSH1 0x1 ADD SWAP1 DUP1 DUP4 GT PUSH2 0x590 JUMPI JUMPDEST POP POP POP POP POP SWAP1 POP SWAP1 JUMP JUMPDEST PUSH1 0x1 PUSH1 0x0 PUSH2 0x5BC SWAP2 SWAP1 PUSH2 0x842 JUMP JUMPDEST JUMP JUMPDEST PUSH1 0x60 PUSH1 0x0 DUP1 SLOAD DUP1 PUSH1 0x20 MUL PUSH1 0x20 ADD PUSH1 0x40 MLOAD SWAP1 DUP2 ADD PUSH1 0x40 MSTORE DUP1 SWAP3 SWAP2 SWAP1 DUP2 DUP2 MSTORE PUSH1 0x20 ADD DUP3 DUP1 SLOAD DUP1 ISZERO PUSH2 0x60C JUMPI PUSH1 0x20 MUL DUP3 ADD SWAP2 SWAP1 PUSH1 0x0 MSTORE PUSH1 0x20 PUSH1 0x0 KECCAK256 SWAP1 JUMPDEST DUP2 SLOAD DUP2 MSTORE PUSH1 0x20 ADD SWAP1 PUSH1 0x1 ADD SWAP1 DUP1 DUP4 GT PUSH2 0x5F8 JUMPI JUMPDEST POP POP POP POP POP SWAP1 POP SWAP1 JUMP JUMPDEST PUSH1 0x2 DUP2 DUP2 SLOAD DUP2 LT PUSH2 0x626 JUMPI PUSH1 0x0 DUP1 REVERT JUMPDEST SWAP1 PUSH1 0x0 MSTORE PUSH1 0x20 PUSH1 0x0 KECCAK256 ADD PUSH1 0x0 SWAP2 POP SWAP1 POP SLOAD DUP2 JUMP JUMPDEST PUSH1 0x1 DUP2 DUP2 SLOAD DUP2 LT PUSH2 0x64A JUMPI PUSH1 0x0 DUP1 REVERT JUMPDEST SWAP1 PUSH1 0x0 MSTORE PUSH1 0x20 PUSH1 0x0 KECCAK256 ADD PUSH1 0x0 SWAP2 POP SLOAD SWAP1 PUSH2 0x100 EXP SWAP1 DIV PUSH20 0xFFFFFFFFFFFFFFFFFFFFFFFFFFFFFFFFFFFFFFFF AND DUP2 JUMP JUMPDEST PUSH1 0x1 CALLER SWAP1 DUP1 PUSH1 0x1 DUP2 SLOAD ADD DUP1 DUP3 SSTORE DUP1 SWAP2 POP POP PUSH1 0x1 SWAP1 SUB SWAP1 PUSH1 0x0 MSTORE PUSH1 0x20 PUSH1 0x0 KECCAK256 ADD PUSH1 0x0 SWAP1 SWAP2 SWAP1 SWAP2 SWAP1 SWAP2 PUSH2 0x100 EXP DUP2 SLOAD DUP2 PUSH20 0xFFFFFFFFFFFFFFFFFFFFFFFFFFFFFFFFFFFFFFFF MUL NOT AND SWAP1 DUP4 PUSH20 0xFFFFFFFFFFFFFFFFFFFFFFFFFFFFFFFFFFFFFFFF AND MUL OR SWAP1 SSTORE POP PUSH1 0x2 DUP2 SWAP1 DUP1 PUSH1 0x1 DUP2 SLOAD ADD DUP1 DUP3 SSTORE DUP1 SWAP2 POP POP PUSH1 0x1 SWAP1 SUB SWAP1 PUSH1 0x0 MSTORE PUSH1 0x20 PUSH1 0x0 KECCAK256 ADD PUSH1 0x0 SWAP1 SWAP2 SWAP1 SWAP2 SWAP1 SWAP2 POP SSTORE POP JUMP JUMPDEST PUSH1 0x2 PUSH1 0x0 PUSH2 0x716 SWAP2 SWAP1 PUSH2 0x863 JUMP JUMPDEST JUMP JUMPDEST PUSH1 0x0 DUP1 PUSH2 0x725 SWAP2 SWAP1 PUSH2 0x863 JUMP JUMPDEST PUSH1 0x40 MLOAD DUP1 PUSH2 0x140 ADD PUSH1 0x40 MSTORE DUP1 PUSH1 0x1 DUP2 MSTORE PUSH1 0x20 ADD PUSH1 0x2 DUP2 MSTORE PUSH1 0x20 ADD PUSH1 0x3 DUP2 MSTORE PUSH1 0x20 ADD PUSH1 0x4 DUP2 MSTORE PUSH1 0x20 ADD PUSH1 0x5 DUP2 MSTORE PUSH1 0x20 ADD PUSH1 0x6 DUP2 MSTORE PUSH1 0x20 ADD PUSH1 0x7 DUP2 MSTORE PUSH1 0x20 ADD PUSH1 0x8 DUP2 MSTORE PUSH1 0x20 ADD PUSH1 0x9 DUP2 MSTORE PUSH1 0x20 ADD PUSH1 0xA DUP2 MSTORE POP PUSH1 0x0 SWAP1 PUSH1 0xA PUSH2 0x785 SWAP3 SWAP2 SWAP1 PUSH2 0x884 JUMP JUMPDEST POP JUMP JUMPDEST PUSH1 0x0 DUP2 DUP2 SLOAD DUP2 LT PUSH2 0x798 JUMPI PUSH1 0x0 DUP1 REVERT JUMPDEST SWAP1 PUSH1 0x0 MSTORE PUSH1 0x20 PUSH1 0x0 KECCAK256 ADD PUSH1 0x0 SWAP2 POP SWAP1 POP SLOAD DUP2 JUMP JUMPDEST PUSH1 0x0 DUP1 DUP3 SWAP1 DUP1 PUSH1 0x1 DUP2 SLOAD ADD DUP1 DUP3 SSTORE DUP1 SWAP2 POP POP PUSH1 0x1 SWAP1 SUB SWAP1 PUSH1 0x0 MSTORE PUSH1 0x20 PUSH1 0x0 KECCAK256 ADD PUSH1 0x0 SWAP1 SWAP2 SWAP1 SWAP2 SWAP1 SWAP2 POP SSTORE PUSH1 0x0 DUP1 SLOAD SWAP1 POP SWAP1 POP SWAP2 SWAP1 POP JUMP JUMPDEST PUSH1 0x0 DUP1 JUMPDEST PUSH1 0x2 DUP1 SLOAD SWAP1 POP DUP2 LT ISZERO PUSH2 0x83C JUMPI DUP3 PUSH1 0x2 DUP3 DUP2 SLOAD DUP2 LT PUSH2 0x809 JUMPI PUSH2 0x808 PUSH2 0xCB9 JUMP JUMPDEST JUMPDEST SWAP1 PUSH1 0x0 MSTORE PUSH1 0x20 PUSH1 0x0 KECCAK256 ADD SLOAD GT ISZERO PUSH2 0x829 JUMPI DUP2 DUP1 PUSH2 0x825 SWAP1 PUSH2 0xD17 JUMP JUMPDEST SWAP3 POP POP JUMPDEST DUP1 DUP1 PUSH2 0x834 SWAP1 PUSH2 0xD17 JUMP JUMPDEST SWAP2 POP POP PUSH2 0x7E7 JUMP JUMPDEST POP SWAP2 SWAP1 POP JUMP JUMPDEST POP DUP1 SLOAD PUSH1 0x0 DUP3 SSTORE SWAP1 PUSH1 0x0 MSTORE PUSH1 0x20 PUSH1 0x0 KECCAK256 SWAP1 DUP2 ADD SWAP1 PUSH2 0x860 SWAP2 SWAP1 PUSH2 0x8D1 JUMP JUMPDEST POP JUMP JUMPDEST POP DUP1 SLOAD PUSH1 0x0 DUP3 SSTORE SWAP1 PUSH1 0x0 MSTORE PUSH1 0x20 PUSH1 0x0 KECCAK256 SWAP1 DUP2 ADD SWAP1 PUSH2 0x881 SWAP2 SWAP1 PUSH2 0x8D1 JUMP JUMPDEST POP JUMP JUMPDEST DUP3 DUP1 SLOAD DUP3 DUP3 SSTORE SWAP1 PUSH1 0x0 MSTORE PUSH1 0x20 PUSH1 0x0 KECCAK256 SWAP1 DUP2 ADD SWAP3 DUP3 ISZERO PUSH2 0x8C0 JUMPI SWAP2 PUSH1 0x20 MUL DUP3 ADD JUMPDEST DUP3 DUP2 GT ISZERO PUSH2 0x8BF JUMPI DUP3 MLOAD DUP3 SSTORE SWAP2 PUSH1 0x20 ADD SWAP2 SWAP1 PUSH1 0x1 ADD SWAP1 PUSH2 0x8A4 JUMP JUMPDEST JUMPDEST POP SWAP1 POP PUSH2 0x8CD SWAP2 SWAP1 PUSH2 0x8D1 JUMP JUMPDEST POP SWAP1 JUMP JUMPDEST JUMPDEST DUP1 DUP3 GT ISZERO PUSH2 0x8EA JUMPI PUSH1 0x0 DUP2 PUSH1 0x0 SWAP1 SSTORE POP PUSH1 0x1 ADD PUSH2 0x8D2 JUMP JUMPDEST POP SWAP1 JUMP JUMPDEST PUSH1 0x0 DUP2 MLOAD SWAP1 POP SWAP2 SWAP1 POP JUMP JUMPDEST PUSH1 0x0 DUP3 DUP3 MSTORE PUSH1 0x20 DUP3 ADD SWAP1 POP SWAP3 SWAP2 POP POP JUMP JUMPDEST PUSH1 0x0 DUP2 SWAP1 POP PUSH1 0x20 DUP3 ADD SWAP1 POP SWAP2 SWAP1 POP JUMP JUMPDEST PUSH1 0x0 PUSH20 0xFFFFFFFFFFFFFFFFFFFFFFFFFFFFFFFFFFFFFFFF DUP3 AND SWAP1 POP SWAP2 SWAP1 POP JUMP JUMPDEST PUSH1 0x0 PUSH2 0x945 DUP3 PUSH2 0x91A JUMP JUMPDEST SWAP1 POP SWAP2 SWAP1 POP JUMP JUMPDEST PUSH2 0x955 DUP2 PUSH2 0x93A JUMP JUMPDEST DUP3 MSTORE POP POP JUMP JUMPDEST PUSH1 0x0 PUSH2 0x967 DUP4 DUP4 PUSH2 0x94C JUMP JUMPDEST PUSH1 0x20 DUP4 ADD SWAP1 POP SWAP3 SWAP2 POP POP JUMP JUMPDEST PUSH1 0x0 PUSH1 0x20 DUP3 ADD SWAP1 POP SWAP2 SWAP1 POP JUMP JUMPDEST PUSH1 0x0 PUSH2 0x98B DUP3 PUSH2 0x8EE JUMP JUMPDEST PUSH2 0x995 DUP2 DUP6 PUSH2 0x8F9 JUMP JUMPDEST SWAP4 POP PUSH2 0x9A0 DUP4 PUSH2 0x90A JUMP JUMPDEST DUP1 PUSH1 0x0 JUMPDEST DUP4 DUP2 LT ISZERO PUSH2 0x9D1 JUMPI DUP2 MLOAD PUSH2 0x9B8 DUP9 DUP3 PUSH2 0x95B JUMP JUMPDEST SWAP8 POP PUSH2 0x9C3 DUP4 PUSH2 0x973 JUMP JUMPDEST SWAP3 POP POP PUSH1 0x1 DUP2 ADD SWAP1 POP PUSH2 0x9A4 JUMP JUMPDEST POP DUP6 SWAP4 POP POP POP POP SWAP3 SWAP2 POP POP JUMP JUMPDEST PUSH1 0x0 PUSH1 0x20 DUP3 ADD SWAP1 POP DUP2 DUP2 SUB PUSH1 0x0 DUP4 ADD MSTORE PUSH2 0x9F8 DUP2 DUP5 PUSH2 0x980 JUMP JUMPDEST SWAP1 POP SWAP3 SWAP2 POP POP JUMP JUMPDEST PUSH1 0x0 DUP2 MLOAD SWAP1 POP SWAP2 SWAP1 POP JUMP JUMPDEST PUSH1 0x0 DUP3 DUP3 MSTORE PUSH1 0x20 DUP3 ADD SWAP1 POP SWAP3 SWAP2 POP POP JUMP JUMPDEST PUSH1 0x0 DUP2 SWAP1 POP PUSH1 0x20 DUP3 ADD SWAP1 POP SWAP2 SWAP1 POP JUMP JUMPDEST PUSH1 0x0 DUP2 SWAP1 POP SWAP2 SWAP1 POP JUMP JUMPDEST PUSH2 0xA3F DUP2 PUSH2 0xA2C JUMP JUMPDEST DUP3 MSTORE POP POP JUMP JUMPDEST PUSH1 0x0 PUSH2 0xA51 DUP4 DUP4 PUSH2 0xA36 JUMP JUMPDEST PUSH1 0x20 DUP4 ADD SWAP1 POP SWAP3 SWAP2 POP POP JUMP JUMPDEST PUSH1 0x0 PUSH1 0x20 DUP3 ADD SWAP1 POP SWAP2 SWAP1 POP JUMP JUMPDEST PUSH1 0x0 PUSH2 0xA75 DUP3 PUSH2 0xA00 JUMP JUMPDEST PUSH2 0xA7F DUP2 DUP6 PUSH2 0xA0B JUMP JUMPDEST SWAP4 POP PUSH2 0xA8A DUP4 PUSH2 0xA1C JUMP JUMPDEST DUP1 PUSH1 0x0 JUMPDEST DUP4 DUP2 LT ISZERO PUSH2 0xABB JUMPI DUP2 MLOAD PUSH2 0xAA2 DUP9 DUP3 PUSH2 0xA45 JUMP JUMPDEST SWAP8 POP PUSH2 0xAAD DUP4 PUSH2 0xA5D JUMP JUMPDEST SWAP3 POP POP PUSH1 0x1 DUP2 ADD SWAP1 POP PUSH2 0xA8E JUMP JUMPDEST POP DUP6 SWAP4 POP POP POP POP SWAP3 SWAP2 POP POP JUMP JUMPDEST PUSH1 0x0 PUSH1 0x40 DUP3 ADD SWAP1 POP DUP2 DUP2 SUB PUSH1 0x0 DUP4 ADD MSTORE PUSH2 0xAE2 DUP2 DUP6 PUSH2 0xA6A JUMP JUMPDEST SWAP1 POP DUP2 DUP2 SUB PUSH1 0x20 DUP4 ADD MSTORE PUSH2 0xAF6 DUP2 DUP5 PUSH2 0x980 JUMP JUMPDEST SWAP1 POP SWAP4 SWAP3 POP POP POP JUMP JUMPDEST PUSH1 0x0 DUP1 REVERT JUMPDEST PUSH1 0x0 DUP1 REVERT JUMPDEST PUSH1 0x0 DUP1 REVERT JUMPDEST PUSH1 0x0 DUP1 REVERT JUMPDEST PUSH1 0x0 DUP1 REVERT JUMPDEST PUSH1 0x0 DUP1 DUP4 PUSH1 0x1F DUP5 ADD SLT PUSH2 0xB2E JUMPI PUSH2 0xB2D PUSH2 0xB09 JUMP JUMPDEST JUMPDEST DUP3 CALLDATALOAD SWAP1 POP PUSH8 0xFFFFFFFFFFFFFFFF DUP2 GT ISZERO PUSH2 0xB4B JUMPI PUSH2 0xB4A PUSH2 0xB0E JUMP JUMPDEST JUMPDEST PUSH1 0x20 DUP4 ADD SWAP2 POP DUP4 PUSH1 0x20 DUP3 MUL DUP4 ADD GT ISZERO PUSH2 0xB67 JUMPI PUSH2 0xB66 PUSH2 0xB13 JUMP JUMPDEST JUMPDEST SWAP3 POP SWAP3 SWAP1 POP JUMP JUMPDEST PUSH1 0x0 DUP1 PUSH1 0x20 DUP4 DUP6 SUB SLT ISZERO PUSH2 0xB85 JUMPI PUSH2 0xB84 PUSH2 0xAFF JUMP JUMPDEST JUMPDEST PUSH1 0x0 DUP4 ADD CALLDATALOAD PUSH8 0xFFFFFFFFFFFFFFFF DUP2 GT ISZERO PUSH2 0xBA3 JUMPI PUSH2 0xBA2 PUSH2 0xB04 JUMP JUMPDEST JUMPDEST PUSH2 0xBAF DUP6 DUP3 DUP7 ADD PUSH2 0xB18 JUMP JUMPDEST SWAP3 POP SWAP3 POP POP SWAP3 POP SWAP3 SWAP1 POP JUMP JUMPDEST PUSH2 0xBC4 DUP2 PUSH2 0xA2C JUMP JUMPDEST DUP3 MSTORE POP POP JUMP JUMPDEST PUSH1 0x0 PUSH1 0x20 DUP3 ADD SWAP1 POP PUSH2 0xBDF PUSH1 0x0 DUP4 ADD DUP5 PUSH2 0xBBB JUMP JUMPDEST SWAP3 SWAP2 POP POP JUMP JUMPDEST PUSH1 0x0 PUSH1 0x20 DUP3 ADD SWAP1 POP DUP2 DUP2 SUB PUSH1 0x0 DUP4 ADD MSTORE PUSH2 0xBFF DUP2 DUP5 PUSH2 0xA6A JUMP JUMPDEST SWAP1 POP SWAP3 SWAP2 POP POP JUMP JUMPDEST PUSH2 0xC10 DUP2 PUSH2 0xA2C JUMP JUMPDEST DUP2 EQ PUSH2 0xC1B JUMPI PUSH1 0x0 DUP1 REVERT JUMPDEST POP JUMP JUMPDEST PUSH1 0x0 DUP2 CALLDATALOAD SWAP1 POP PUSH2 0xC2D DUP2 PUSH2 0xC07 JUMP JUMPDEST SWAP3 SWAP2 POP POP JUMP JUMPDEST PUSH1 0x0 PUSH1 0x20 DUP3 DUP5 SUB SLT ISZERO PUSH2 0xC49 JUMPI PUSH2 0xC48 PUSH2 0xAFF JUMP JUMPDEST JUMPDEST PUSH1 0x0 PUSH2 0xC57 DUP5 DUP3 DUP6 ADD PUSH2 0xC1E JUMP JUMPDEST SWAP2 POP POP SWAP3 SWAP2 POP POP JUMP JUMPDEST PUSH2 0xC69 DUP2 PUSH2 0x93A JUMP JUMPDEST DUP3 MSTORE POP POP JUMP JUMPDEST PUSH1 0x0 PUSH1 0x20 DUP3 ADD SWAP1 POP PUSH2 0xC84 PUSH1 0x0 DUP4 ADD DUP5 PUSH2 0xC60 JUMP JUMPDEST SWAP3 SWAP2 POP POP JUMP JUMPDEST PUSH32 0x4E487B7100000000000000000000000000000000000000000000000000000000 PUSH1 0x0 MSTORE PUSH1 0x41 PUSH1 0x4 MSTORE PUSH1 0x24 PUSH1 0x0 REVERT JUMPDEST PUSH32 0x4E487B7100000000000000000000000000000000000000000000000000000000 PUSH1 0x0 MSTORE PUSH1 0x32 PUSH1 0x4 MSTORE PUSH1 0x24 PUSH1 0x0 REVERT JUMPDEST PUSH32 0x4E487B7100000000000000000000000000000000000000000000000000000000 PUSH1 0x0 MSTORE PUSH1 0x11 PUSH1 0x4 MSTORE PUSH1 0x24 PUSH1 0x0 REVERT JUMPDEST PUSH1 0x0 PUSH2 0xD22 DUP3 PUSH2 0xA2C JUMP JUMPDEST SWAP2 POP PUSH32 0xFFFFFFFFFFFFFFFFFFFFFFFFFFFFFFFFFFFFFFFFFFFFFFFFFFFFFFFFFFFFFFFF DUP3 SUB PUSH2 0xD54 JUMPI PUSH2 0xD53 PUSH2 0xCE8 JUMP JUMPDEST JUMPDEST PUSH1 0x1 DUP3 ADD SWAP1 POP SWAP2 SWAP1 POP JUMP INVALID LOG2 PUSH5 0x6970667358 0x22 SLT KECCAK256 0xDD BLOCKHASH SWAP7 BALANCE 0x25 0xDD 0xCE 0xDB DUP9 0xAD SWAP4 0xB0 PUSH28 0x95373235FBFF61B79256D427DDCC0FE3314DC764736F6C6343000812 STOP CALLER "
				},
				"gasEstimates": {
					"creation": {
						"codeDepositCost": "695400",
						"executionCost": "infinite",
						"totalCost": "infinite"
					},
					"external": {
						"addNumber(uint256)": "infinite",
						"afterY2K()": "infinite",
						"appendToNumbers(uint256[])": "infinite",
						"getNumbers()": "infinite",
						"getSenders()": "infinite",
						"getTimestamps()": "infinite",
						"numbers(uint256)": "infinite",
						"resetNumbers()": "infinite",
						"resetSenders()": "infinite",
						"resetTimestamps()": "infinite",
						"saveTimestamp(uint256)": "95474",
						"senders(uint256)": "5001",
						"timestamps(uint256)": "infinite"
					},
					"internal": {
						"_countAfterTime(uint256)": "infinite"
					}
				},
				"methodIdentifiers": {
					"addNumber(uint256)": "fce68023",
					"afterY2K()": "20aaf79a",
					"appendToNumbers(uint256[])": "4f9377db",
					"getNumbers()": "89f915f6",
					"getSenders()": "128e0423",
					"getTimestamps()": "59abbfe4",
					"numbers(uint256)": "d39fa233",
					"resetNumbers()": "b1cebac5",
					"resetSenders()": "7f66b1b8",
					"resetTimestamps()": "ade82bfd",
					"saveTimestamp(uint256)": "a00b7acd",
					"senders(uint256)": "9977c78a",
					"timestamps(uint256)": "8bc33af3"
				}
			},
			"storageLayout": {
				"storage": [
					{
						"astId": 16,
						"contract": "Arrays/contracts/ArrayExercise.sol:ArraysExercise",
						"label": "numbers",
						"offset": 0,
						"slot": "0",
						"type": "t_array(t_uint256)dyn_storage"
					},
					{
						"astId": 19,
						"contract": "Arrays/contracts/ArrayExercise.sol:ArraysExercise",
						"label": "senders",
						"offset": 0,
						"slot": "1",
						"type": "t_array(t_address)dyn_storage"
					},
					{
						"astId": 22,
						"contract": "Arrays/contracts/ArrayExercise.sol:ArraysExercise",
						"label": "timestamps",
						"offset": 0,
						"slot": "2",
						"type": "t_array(t_uint256)dyn_storage"
					}
				],
				"types": {
					"t_address": {
						"encoding": "inplace",
						"label": "address",
						"numberOfBytes": "20"
					},
					"t_array(t_address)dyn_storage": {
						"base": "t_address",
						"encoding": "dynamic_array",
						"label": "address[]",
						"numberOfBytes": "32"
					},
					"t_array(t_uint256)dyn_storage": {
						"base": "t_uint256",
						"encoding": "dynamic_array",
						"label": "uint256[]",
						"numberOfBytes": "32"
					},
					"t_uint256": {
						"encoding": "inplace",
						"label": "uint256",
						"numberOfBytes": "32"
					}
				}
			},
			"userdoc": {
				"kind": "user",
				"methods": {},
				"version": 1
			}
		}
	}
}